{
  "_format": "hh-sol-artifact-1",
  "contractName": "TokenMigrator",
  "sourceName": "contracts/crosschain/TokenMigrator.sol",
  "abi": [
    {
      "inputs": [
        {
          "internalType": "contract IERC20Metadata",
          "name": "_tokenFrom",
          "type": "address"
        },
        {
          "internalType": "contract IERC20Metadata",
          "name": "_tokenTo",
          "type": "address"
        }
      ],
      "stateMutability": "nonpayable",
      "type": "constructor"
    },
    {
      "anonymous": false,
      "inputs": [
        {
          "indexed": false,
          "internalType": "address",
          "name": "_user",
          "type": "address"
        },
        {
          "indexed": false,
          "internalType": "uint256",
          "name": "_amount",
          "type": "uint256"
        }
      ],
      "name": "Migrated",
      "type": "event"
    },
    {
      "anonymous": false,
      "inputs": [
        {
          "indexed": true,
          "internalType": "bytes32",
          "name": "role",
          "type": "bytes32"
        },
        {
          "indexed": true,
          "internalType": "bytes32",
          "name": "previousAdminRole",
          "type": "bytes32"
        },
        {
          "indexed": true,
          "internalType": "bytes32",
          "name": "newAdminRole",
          "type": "bytes32"
        }
      ],
      "name": "RoleAdminChanged",
      "type": "event"
    },
    {
      "anonymous": false,
      "inputs": [
        {
          "indexed": true,
          "internalType": "bytes32",
          "name": "role",
          "type": "bytes32"
        },
        {
          "indexed": true,
          "internalType": "address",
          "name": "account",
          "type": "address"
        },
        {
          "indexed": true,
          "internalType": "address",
          "name": "sender",
          "type": "address"
        }
      ],
      "name": "RoleGranted",
      "type": "event"
    },
    {
      "anonymous": false,
      "inputs": [
        {
          "indexed": true,
          "internalType": "bytes32",
          "name": "role",
          "type": "bytes32"
        },
        {
          "indexed": true,
          "internalType": "address",
          "name": "account",
          "type": "address"
        },
        {
          "indexed": true,
          "internalType": "address",
          "name": "sender",
          "type": "address"
        }
      ],
      "name": "RoleRevoked",
      "type": "event"
    },
    {
      "inputs": [],
      "name": "DEFAULT_ADMIN_ROLE",
      "outputs": [
        {
          "internalType": "bytes32",
          "name": "",
          "type": "bytes32"
        }
      ],
      "stateMutability": "view",
      "type": "function"
    },
    {
      "inputs": [
        {
          "internalType": "bytes32",
          "name": "role",
          "type": "bytes32"
        }
      ],
      "name": "getRoleAdmin",
      "outputs": [
        {
          "internalType": "bytes32",
          "name": "",
          "type": "bytes32"
        }
      ],
      "stateMutability": "view",
      "type": "function"
    },
    {
      "inputs": [
        {
          "internalType": "bytes32",
          "name": "role",
          "type": "bytes32"
        },
        {
          "internalType": "address",
          "name": "account",
          "type": "address"
        }
      ],
      "name": "grantRole",
      "outputs": [],
      "stateMutability": "nonpayable",
      "type": "function"
    },
    {
      "inputs": [
        {
          "internalType": "bytes32",
          "name": "role",
          "type": "bytes32"
        },
        {
          "internalType": "address",
          "name": "account",
          "type": "address"
        }
      ],
      "name": "hasRole",
      "outputs": [
        {
          "internalType": "bool",
          "name": "",
          "type": "bool"
        }
      ],
      "stateMutability": "view",
      "type": "function"
    },
    {
      "inputs": [],
      "name": "migrate",
      "outputs": [],
      "stateMutability": "nonpayable",
      "type": "function"
    },
    {
      "inputs": [
        {
          "internalType": "bytes32",
          "name": "role",
          "type": "bytes32"
        },
        {
          "internalType": "address",
          "name": "account",
          "type": "address"
        }
      ],
      "name": "renounceRole",
      "outputs": [],
      "stateMutability": "nonpayable",
      "type": "function"
    },
    {
      "inputs": [
        {
          "internalType": "bytes32",
          "name": "role",
          "type": "bytes32"
        },
        {
          "internalType": "address",
          "name": "account",
          "type": "address"
        }
      ],
      "name": "revokeRole",
      "outputs": [],
      "stateMutability": "nonpayable",
      "type": "function"
    },
    {
      "inputs": [
        {
          "internalType": "bytes4",
          "name": "interfaceId",
          "type": "bytes4"
        }
      ],
      "name": "supportsInterface",
      "outputs": [
        {
          "internalType": "bool",
          "name": "",
          "type": "bool"
        }
      ],
      "stateMutability": "view",
      "type": "function"
    },
    {
      "inputs": [],
      "name": "tokenFrom",
      "outputs": [
        {
          "internalType": "contract IERC20Metadata",
          "name": "",
          "type": "address"
        }
      ],
      "stateMutability": "view",
      "type": "function"
    },
    {
      "inputs": [],
      "name": "tokenTo",
      "outputs": [
        {
          "internalType": "contract IERC20Metadata",
          "name": "",
          "type": "address"
        }
      ],
      "stateMutability": "view",
      "type": "function"
    },
    {
      "inputs": [],
      "name": "withdrawStuckNative",
      "outputs": [],
      "stateMutability": "nonpayable",
      "type": "function"
    },
    {
      "inputs": [
        {
          "internalType": "contract IERC20Metadata",
          "name": "_token",
          "type": "address"
        }
      ],
      "name": "withdrawStuckToken",
      "outputs": [],
      "stateMutability": "nonpayable",
      "type": "function"
    }
  ],
  "bytecode": "0x60c060405234801561001057600080fd5b50604051610f32380380610f3283398101604081905261002f91610119565b61003a600033610051565b6001600160a01b039182166080521660a05261014c565b61005b828261005f565b5050565b6000828152602081815260408083206001600160a01b038516845290915290205460ff1661005b576000828152602081815260408083206001600160a01b03851684529091529020805460ff191660011790556100b93390565b6001600160a01b0316816001600160a01b0316837f2f8788117e7eff1d82e926ec794901d17c78024a50270940304540a733656f0d60405160405180910390a45050565b80516001600160a01b038116811461011457600080fd5b919050565b6000806040838503121561012c57600080fd5b610135836100fd565b9150610143602084016100fd565b90509250929050565b60805160a051610dac610186600039600081816101bc015261044001526000818161015201528181610391015261040b0152610dac6000f3fe608060405234801561001057600080fd5b50600436106100b45760003560e01c80638fd3ab80116100715780638fd3ab801461018c57806391d1485414610194578063a217fddf146101a7578063b314cfd5146101af578063c17b7326146101b7578063d547741f146101de57600080fd5b806301ffc9a7146100b9578063068acf6c146100e1578063248a9ca3146100f65780632f2ff15d1461012757806336568abe1461013a5780637c1535341461014d575b600080fd5b6100cc6100c7366004610b20565b6101f1565b60405190151581526020015b60405180910390f35b6100f46100ef366004610b62565b610228565b005b610119610104366004610b7f565b60009081526020819052604090206001015490565b6040519081526020016100d8565b6100f4610135366004610b98565b6102c0565b6100f4610148366004610b98565b6102e6565b6101747f000000000000000000000000000000000000000000000000000000000000000081565b6040516001600160a01b0390911681526020016100d8565b6100f4610369565b6100cc6101a2366004610b98565b6104ad565b610119600081565b6100f46104d6565b6101747f000000000000000000000000000000000000000000000000000000000000000081565b6100f46101ec366004610b98565b610516565b60006001600160e01b03198216637965db0b60e01b148061022257506301ffc9a760e01b6001600160e01b03198316145b92915050565b6000610234813361053c565b6040516370a0823160e01b81523060048201526000906001600160a01b038416906370a0823190602401602060405180830381865afa15801561027b573d6000803e3d6000fd5b505050506040513d601f19601f8201168201806040525081019061029f9190610bc8565b905080156102bb576102bb6001600160a01b03841633836105a0565b505050565b6000828152602081905260409020600101546102dc813361053c565b6102bb8383610603565b6001600160a01b038116331461035b5760405162461bcd60e51b815260206004820152602f60248201527f416363657373436f6e74726f6c3a2063616e206f6e6c792072656e6f756e636560448201526e103937b632b9903337b91039b2b63360891b60648201526084015b60405180910390fd5b6103658282610687565b5050565b6000336040516370a0823160e01b81526001600160a01b0380831660048301529192506000917f000000000000000000000000000000000000000000000000000000000000000016906370a0823190602401602060405180830381865afa1580156103d8573d6000803e3d6000fd5b505050506040513d601f19601f820116820180604052508101906103fc9190610bc8565b90506104336001600160a01b037f0000000000000000000000000000000000000000000000000000000000000000168330846106ec565b6104676001600160a01b037f00000000000000000000000000000000000000000000000000000000000000001683836105a0565b604080516001600160a01b0384168152602081018390527f8b80bd19aea7b735bc6d75db8d6adbe18b28c30d62b3555245eb67b2340caedc910160405180910390a15050565b6000918252602082815260408084206001600160a01b0393909316845291905290205460ff1690565b60006104e2813361053c565b47801561036557604051339082156108fc029083906000818181858888f193505050501580156102bb573d6000803e3d6000fd5b600082815260208190526040902060010154610532813361053c565b6102bb8383610687565b61054682826104ad565b6103655761055e816001600160a01b0316601461072a565b61056983602061072a565b60405160200161057a929190610c05565b60408051601f198184030181529082905262461bcd60e51b825261035291600401610c7a565b6040516001600160a01b0383166024820152604481018290526102bb90849063a9059cbb60e01b906064015b60408051601f198184030181529190526020810180516001600160e01b03166001600160e01b0319909316929092179091526108cd565b61060d82826104ad565b610365576000828152602081815260408083206001600160a01b03851684529091529020805460ff191660011790556106433390565b6001600160a01b0316816001600160a01b0316837f2f8788117e7eff1d82e926ec794901d17c78024a50270940304540a733656f0d60405160405180910390a45050565b61069182826104ad565b15610365576000828152602081815260408083206001600160a01b0385168085529252808320805460ff1916905551339285917ff6391f5c32d9c69d2a47ea670b442974b53935d1edc7fd64eb21e047a839171b9190a45050565b6040516001600160a01b03808516602483015283166044820152606481018290526107249085906323b872dd60e01b906084016105cc565b50505050565b60606000610739836002610cc3565b610744906002610ce2565b67ffffffffffffffff81111561075c5761075c610cf5565b6040519080825280601f01601f191660200182016040528015610786576020820181803683370190505b509050600360fc1b816000815181106107a1576107a1610d0b565b60200101906001600160f81b031916908160001a905350600f60fb1b816001815181106107d0576107d0610d0b565b60200101906001600160f81b031916908160001a90535060006107f4846002610cc3565b6107ff906001610ce2565b90505b6001811115610877576f181899199a1a9b1b9c1cb0b131b232b360811b85600f166010811061083357610833610d0b565b1a60f81b82828151811061084957610849610d0b565b60200101906001600160f81b031916908160001a90535060049490941c9361087081610d21565b9050610802565b5083156108c65760405162461bcd60e51b815260206004820181905260248201527f537472696e67733a20686578206c656e67746820696e73756666696369656e746044820152606401610352565b9392505050565b6000610922826040518060400160405280602081526020017f5361666545524332303a206c6f772d6c6576656c2063616c6c206661696c6564815250856001600160a01b031661099f9092919063ffffffff16565b8051909150156102bb57808060200190518101906109409190610d38565b6102bb5760405162461bcd60e51b815260206004820152602a60248201527f5361666545524332303a204552433230206f7065726174696f6e20646964206e6044820152691bdd081cdd58d8d9595960b21b6064820152608401610352565b60606109ae84846000856109b6565b949350505050565b606082471015610a175760405162461bcd60e51b815260206004820152602660248201527f416464726573733a20696e73756666696369656e742062616c616e636520666f6044820152651c8818d85b1b60d21b6064820152608401610352565b6001600160a01b0385163b610a6e5760405162461bcd60e51b815260206004820152601d60248201527f416464726573733a2063616c6c20746f206e6f6e2d636f6e74726163740000006044820152606401610352565b600080866001600160a01b03168587604051610a8a9190610d5a565b60006040518083038185875af1925050503d8060008114610ac7576040519150601f19603f3d011682016040523d82523d6000602084013e610acc565b606091505b5091509150610adc828286610ae7565b979650505050505050565b60608315610af65750816108c6565b825115610b065782518084602001fd5b8160405162461bcd60e51b81526004016103529190610c7a565b600060208284031215610b3257600080fd5b81356001600160e01b0319811681146108c657600080fd5b6001600160a01b0381168114610b5f57600080fd5b50565b600060208284031215610b7457600080fd5b81356108c681610b4a565b600060208284031215610b9157600080fd5b5035919050565b60008060408385031215610bab57600080fd5b823591506020830135610bbd81610b4a565b809150509250929050565b600060208284031215610bda57600080fd5b5051919050565b60005b83811015610bfc578181015183820152602001610be4565b50506000910152565b7f416363657373436f6e74726f6c3a206163636f756e7420000000000000000000815260008351610c3d816017850160208801610be1565b7001034b99036b4b9b9b4b733903937b6329607d1b6017918401918201528351610c6e816028840160208801610be1565b01602801949350505050565b6020815260008251806020840152610c99816040850160208701610be1565b601f01601f19169190910160400192915050565b634e487b7160e01b600052601160045260246000fd5b6000816000190483118215151615610cdd57610cdd610cad565b500290565b8082018082111561022257610222610cad565b634e487b7160e01b600052604160045260246000fd5b634e487b7160e01b600052603260045260246000fd5b600081610d3057610d30610cad565b506000190190565b600060208284031215610d4a57600080fd5b815180151581146108c657600080fd5b60008251610d6c818460208701610be1565b919091019291505056fea26469706673582212204ba192959c51f9feaae7d8c06e104841e1fe0c3bab3e2f4b18aa2b4713cae37b64736f6c63430008100033",
  "linkReferences": {},
  "deployedLinkReferences": {}
}