{
  "_format": "hh-sol-artifact-1",
  "contractName": "ZunamiForwarder",
  "sourceName": "contracts/crosschain/ZunamiForwarder.sol",
  "abi": [
    {
      "inputs": [
        {
          "internalType": "contract IERC20Metadata[3]",
          "name": "_tokens",
          "type": "address[3]"
        },
        {
          "internalType": "uint256",
          "name": "_tokenPoolId",
          "type": "uint256"
        },
        {
          "internalType": "address",
          "name": "_zunami",
          "type": "address"
        },
        {
          "internalType": "address",
          "name": "_curveExchange",
          "type": "address"
        },
        {
          "internalType": "address",
          "name": "_stargateRouter",
          "type": "address"
        },
        {
          "internalType": "address",
          "name": "_layerZeroEndpoint",
          "type": "address"
        }
      ],
      "stateMutability": "nonpayable",
      "type": "constructor"
    },
    {
      "anonymous": false,
      "inputs": [
        {
          "indexed": true,
          "internalType": "uint256",
          "name": "id",
          "type": "uint256"
        },
        {
          "indexed": false,
          "internalType": "uint256",
          "name": "tokenId",
          "type": "uint256"
        },
        {
          "indexed": false,
          "internalType": "uint256",
          "name": "tokenAmount",
          "type": "uint256"
        }
      ],
      "name": "CreatedPendingDeposit",
      "type": "event"
    },
    {
      "anonymous": false,
      "inputs": [
        {
          "indexed": true,
          "internalType": "uint256",
          "name": "id",
          "type": "uint256"
        },
        {
          "indexed": false,
          "internalType": "uint256",
          "name": "lpShares",
          "type": "uint256"
        }
      ],
      "name": "CreatedPendingWithdrawal",
      "type": "event"
    },
    {
      "anonymous": false,
      "inputs": [
        {
          "indexed": true,
          "internalType": "uint256",
          "name": "id",
          "type": "uint256"
        },
        {
          "indexed": false,
          "internalType": "uint256",
          "name": "lpShares",
          "type": "uint256"
        }
      ],
      "name": "Deposited",
      "type": "event"
    },
    {
      "anonymous": false,
      "inputs": [
        {
          "indexed": true,
          "internalType": "uint256",
          "name": "id",
          "type": "uint256"
        },
        {
          "indexed": false,
          "internalType": "uint256",
          "name": "tokenId",
          "type": "uint256"
        },
        {
          "indexed": false,
          "internalType": "uint256",
          "name": "tokenAmount",
          "type": "uint256"
        }
      ],
      "name": "InitiatedCrossDeposit",
      "type": "event"
    },
    {
      "anonymous": false,
      "inputs": [
        {
          "indexed": true,
          "internalType": "bytes32",
          "name": "role",
          "type": "bytes32"
        },
        {
          "indexed": true,
          "internalType": "bytes32",
          "name": "previousAdminRole",
          "type": "bytes32"
        },
        {
          "indexed": true,
          "internalType": "bytes32",
          "name": "newAdminRole",
          "type": "bytes32"
        }
      ],
      "name": "RoleAdminChanged",
      "type": "event"
    },
    {
      "anonymous": false,
      "inputs": [
        {
          "indexed": true,
          "internalType": "bytes32",
          "name": "role",
          "type": "bytes32"
        },
        {
          "indexed": true,
          "internalType": "address",
          "name": "account",
          "type": "address"
        },
        {
          "indexed": true,
          "internalType": "address",
          "name": "sender",
          "type": "address"
        }
      ],
      "name": "RoleGranted",
      "type": "event"
    },
    {
      "anonymous": false,
      "inputs": [
        {
          "indexed": true,
          "internalType": "bytes32",
          "name": "role",
          "type": "bytes32"
        },
        {
          "indexed": true,
          "internalType": "address",
          "name": "account",
          "type": "address"
        },
        {
          "indexed": true,
          "internalType": "address",
          "name": "sender",
          "type": "address"
        }
      ],
      "name": "RoleRevoked",
      "type": "event"
    },
    {
      "anonymous": false,
      "inputs": [
        {
          "indexed": false,
          "internalType": "uint256",
          "name": "chainId",
          "type": "uint256"
        },
        {
          "indexed": false,
          "internalType": "address",
          "name": "gateway",
          "type": "address"
        },
        {
          "indexed": false,
          "internalType": "uint256",
          "name": "tokenPoolId",
          "type": "uint256"
        }
      ],
      "name": "SetGatewayParams",
      "type": "event"
    },
    {
      "anonymous": false,
      "inputs": [
        {
          "indexed": false,
          "internalType": "uint256",
          "name": "crossDepositGas",
          "type": "uint256"
        },
        {
          "indexed": false,
          "internalType": "uint256",
          "name": "crossWithdrawalGas",
          "type": "uint256"
        },
        {
          "indexed": false,
          "internalType": "uint256",
          "name": "crossProvisionGas",
          "type": "uint256"
        }
      ],
      "name": "SetLayerZeroMessagesGas",
      "type": "event"
    },
    {
      "anonymous": false,
      "inputs": [
        {
          "indexed": false,
          "internalType": "uint256",
          "name": "slippage",
          "type": "uint256"
        }
      ],
      "name": "SetStargateSlippage",
      "type": "event"
    },
    {
      "anonymous": false,
      "inputs": [
        {
          "indexed": false,
          "internalType": "uint16",
          "name": "_srcChainId",
          "type": "uint16"
        },
        {
          "indexed": false,
          "internalType": "bytes",
          "name": "_srcAddress",
          "type": "bytes"
        }
      ],
      "name": "SetTrustedRemote",
      "type": "event"
    },
    {
      "anonymous": false,
      "inputs": [
        {
          "indexed": false,
          "internalType": "address",
          "name": "zrePaymentAddress",
          "type": "address"
        }
      ],
      "name": "SetZrePaymentAddress",
      "type": "event"
    },
    {
      "anonymous": false,
      "inputs": [
        {
          "indexed": true,
          "internalType": "uint256",
          "name": "id",
          "type": "uint256"
        },
        {
          "indexed": false,
          "internalType": "uint256",
          "name": "tokenId",
          "type": "uint256"
        },
        {
          "indexed": false,
          "internalType": "uint256",
          "name": "tokenAmount",
          "type": "uint256"
        }
      ],
      "name": "Withdrawn",
      "type": "event"
    },
    {
      "inputs": [],
      "name": "DAI_TOKEN_ID",
      "outputs": [
        {
          "internalType": "int128",
          "name": "",
          "type": "int128"
        }
      ],
      "stateMutability": "view",
      "type": "function"
    },
    {
      "inputs": [],
      "name": "DEFAULT_ADMIN_ROLE",
      "outputs": [
        {
          "internalType": "bytes32",
          "name": "",
          "type": "bytes32"
        }
      ],
      "stateMutability": "view",
      "type": "function"
    },
    {
      "inputs": [],
      "name": "OPERATOR_ROLE",
      "outputs": [
        {
          "internalType": "bytes32",
          "name": "",
          "type": "bytes32"
        }
      ],
      "stateMutability": "view",
      "type": "function"
    },
    {
      "inputs": [],
      "name": "POOL_ASSETS",
      "outputs": [
        {
          "internalType": "uint8",
          "name": "",
          "type": "uint8"
        }
      ],
      "stateMutability": "view",
      "type": "function"
    },
    {
      "inputs": [],
      "name": "SG_SLIPPAGE_DIVIDER",
      "outputs": [
        {
          "internalType": "uint256",
          "name": "",
          "type": "uint256"
        }
      ],
      "stateMutability": "view",
      "type": "function"
    },
    {
      "inputs": [],
      "name": "USDC_TOKEN_ID",
      "outputs": [
        {
          "internalType": "int128",
          "name": "",
          "type": "int128"
        }
      ],
      "stateMutability": "view",
      "type": "function"
    },
    {
      "inputs": [],
      "name": "USDT_TOKEN_ID",
      "outputs": [
        {
          "internalType": "uint128",
          "name": "",
          "type": "uint128"
        }
      ],
      "stateMutability": "view",
      "type": "function"
    },
    {
      "inputs": [],
      "name": "completeCrossDeposit",
      "outputs": [],
      "stateMutability": "payable",
      "type": "function"
    },
    {
      "inputs": [],
      "name": "completeCrossWithdrawal",
      "outputs": [],
      "stateMutability": "payable",
      "type": "function"
    },
    {
      "inputs": [
        {
          "internalType": "uint256",
          "name": "_value",
          "type": "uint256"
        },
        {
          "internalType": "uint8",
          "name": "_decimalsFrom",
          "type": "uint8"
        },
        {
          "internalType": "uint8",
          "name": "_decimalsTo",
          "type": "uint8"
        }
      ],
      "name": "convertDecimals",
      "outputs": [
        {
          "internalType": "uint256",
          "name": "",
          "type": "uint256"
        }
      ],
      "stateMutability": "view",
      "type": "function"
    },
    {
      "inputs": [
        {
          "internalType": "uint256",
          "name": "_value",
          "type": "uint256"
        },
        {
          "internalType": "uint8",
          "name": "_decimalsFrom",
          "type": "uint8"
        },
        {
          "internalType": "uint8",
          "name": "_decimalsTo",
          "type": "uint8"
        }
      ],
      "name": "convertDownDecimals",
      "outputs": [
        {
          "internalType": "uint256",
          "name": "",
          "type": "uint256"
        }
      ],
      "stateMutability": "pure",
      "type": "function"
    },
    {
      "inputs": [
        {
          "internalType": "uint256",
          "name": "_value",
          "type": "uint256"
        },
        {
          "internalType": "uint8",
          "name": "_decimalsFrom",
          "type": "uint8"
        },
        {
          "internalType": "uint8",
          "name": "_decimalsTo",
          "type": "uint8"
        }
      ],
      "name": "convertUpDecimals",
      "outputs": [
        {
          "internalType": "uint256",
          "name": "",
          "type": "uint256"
        }
      ],
      "stateMutability": "pure",
      "type": "function"
    },
    {
      "inputs": [],
      "name": "crossDepositGas",
      "outputs": [
        {
          "internalType": "uint256",
          "name": "",
          "type": "uint256"
        }
      ],
      "stateMutability": "view",
      "type": "function"
    },
    {
      "inputs": [],
      "name": "crossProvisionGas",
      "outputs": [
        {
          "internalType": "uint256",
          "name": "",
          "type": "uint256"
        }
      ],
      "stateMutability": "view",
      "type": "function"
    },
    {
      "inputs": [],
      "name": "crossWithdrawalGas",
      "outputs": [
        {
          "internalType": "uint256",
          "name": "",
          "type": "uint256"
        }
      ],
      "stateMutability": "view",
      "type": "function"
    },
    {
      "inputs": [],
      "name": "currentDepositAmount",
      "outputs": [
        {
          "internalType": "uint256",
          "name": "",
          "type": "uint256"
        }
      ],
      "stateMutability": "view",
      "type": "function"
    },
    {
      "inputs": [],
      "name": "currentDepositId",
      "outputs": [
        {
          "internalType": "uint256",
          "name": "",
          "type": "uint256"
        }
      ],
      "stateMutability": "view",
      "type": "function"
    },
    {
      "inputs": [],
      "name": "currentWithdrawalAmount",
      "outputs": [
        {
          "internalType": "uint256",
          "name": "",
          "type": "uint256"
        }
      ],
      "stateMutability": "view",
      "type": "function"
    },
    {
      "inputs": [],
      "name": "currentWithdrawalId",
      "outputs": [
        {
          "internalType": "uint256",
          "name": "",
          "type": "uint256"
        }
      ],
      "stateMutability": "view",
      "type": "function"
    },
    {
      "inputs": [],
      "name": "curveExchange",
      "outputs": [
        {
          "internalType": "contract ICurvePool",
          "name": "",
          "type": "address"
        }
      ],
      "stateMutability": "view",
      "type": "function"
    },
    {
      "inputs": [],
      "name": "delegateCrossDeposit",
      "outputs": [],
      "stateMutability": "nonpayable",
      "type": "function"
    },
    {
      "inputs": [
        {
          "internalType": "uint16",
          "name": "_srcChainId",
          "type": "uint16"
        },
        {
          "internalType": "bytes",
          "name": "_srcAddress",
          "type": "bytes"
        }
      ],
      "name": "forceResumeReceive",
      "outputs": [],
      "stateMutability": "nonpayable",
      "type": "function"
    },
    {
      "inputs": [],
      "name": "gatewayAddress",
      "outputs": [
        {
          "internalType": "address",
          "name": "",
          "type": "address"
        }
      ],
      "stateMutability": "view",
      "type": "function"
    },
    {
      "inputs": [],
      "name": "gatewayChainId",
      "outputs": [
        {
          "internalType": "uint16",
          "name": "",
          "type": "uint16"
        }
      ],
      "stateMutability": "view",
      "type": "function"
    },
    {
      "inputs": [],
      "name": "gatewayTokenPoolId",
      "outputs": [
        {
          "internalType": "uint256",
          "name": "",
          "type": "uint256"
        }
      ],
      "stateMutability": "view",
      "type": "function"
    },
    {
      "inputs": [
        {
          "internalType": "uint16",
          "name": "_version",
          "type": "uint16"
        },
        {
          "internalType": "uint16",
          "name": "_chainId",
          "type": "uint16"
        },
        {
          "internalType": "address",
          "name": "",
          "type": "address"
        },
        {
          "internalType": "uint256",
          "name": "_configType",
          "type": "uint256"
        }
      ],
      "name": "getConfig",
      "outputs": [
        {
          "internalType": "bytes",
          "name": "",
          "type": "bytes"
        }
      ],
      "stateMutability": "view",
      "type": "function"
    },
    {
      "inputs": [
        {
          "internalType": "bytes32",
          "name": "role",
          "type": "bytes32"
        }
      ],
      "name": "getRoleAdmin",
      "outputs": [
        {
          "internalType": "bytes32",
          "name": "",
          "type": "bytes32"
        }
      ],
      "stateMutability": "view",
      "type": "function"
    },
    {
      "inputs": [
        {
          "internalType": "bytes32",
          "name": "role",
          "type": "bytes32"
        },
        {
          "internalType": "address",
          "name": "account",
          "type": "address"
        }
      ],
      "name": "grantRole",
      "outputs": [],
      "stateMutability": "nonpayable",
      "type": "function"
    },
    {
      "inputs": [
        {
          "internalType": "bytes32",
          "name": "role",
          "type": "bytes32"
        },
        {
          "internalType": "address",
          "name": "account",
          "type": "address"
        }
      ],
      "name": "hasRole",
      "outputs": [
        {
          "internalType": "bool",
          "name": "",
          "type": "bool"
        }
      ],
      "stateMutability": "view",
      "type": "function"
    },
    {
      "inputs": [
        {
          "internalType": "uint16",
          "name": "_srcChainId",
          "type": "uint16"
        },
        {
          "internalType": "bytes",
          "name": "_srcAddress",
          "type": "bytes"
        }
      ],
      "name": "isTrustedRemote",
      "outputs": [
        {
          "internalType": "bool",
          "name": "",
          "type": "bool"
        }
      ],
      "stateMutability": "view",
      "type": "function"
    },
    {
      "inputs": [],
      "name": "lzEndpoint",
      "outputs": [
        {
          "internalType": "contract ILayerZeroEndpoint",
          "name": "",
          "type": "address"
        }
      ],
      "stateMutability": "view",
      "type": "function"
    },
    {
      "inputs": [
        {
          "internalType": "uint16",
          "name": "_srcChainId",
          "type": "uint16"
        },
        {
          "internalType": "bytes",
          "name": "_srcAddress",
          "type": "bytes"
        },
        {
          "internalType": "uint64",
          "name": "_nonce",
          "type": "uint64"
        },
        {
          "internalType": "bytes",
          "name": "_payload",
          "type": "bytes"
        }
      ],
      "name": "lzReceive",
      "outputs": [],
      "stateMutability": "nonpayable",
      "type": "function"
    },
    {
      "inputs": [
        {
          "internalType": "bytes32",
          "name": "role",
          "type": "bytes32"
        },
        {
          "internalType": "address",
          "name": "account",
          "type": "address"
        }
      ],
      "name": "renounceRole",
      "outputs": [],
      "stateMutability": "nonpayable",
      "type": "function"
    },
    {
      "inputs": [
        {
          "internalType": "bytes32",
          "name": "role",
          "type": "bytes32"
        },
        {
          "internalType": "address",
          "name": "account",
          "type": "address"
        }
      ],
      "name": "revokeRole",
      "outputs": [],
      "stateMutability": "nonpayable",
      "type": "function"
    },
    {
      "inputs": [
        {
          "internalType": "uint16",
          "name": "_version",
          "type": "uint16"
        },
        {
          "internalType": "uint16",
          "name": "_chainId",
          "type": "uint16"
        },
        {
          "internalType": "uint256",
          "name": "_configType",
          "type": "uint256"
        },
        {
          "internalType": "bytes",
          "name": "_config",
          "type": "bytes"
        }
      ],
      "name": "setConfig",
      "outputs": [],
      "stateMutability": "nonpayable",
      "type": "function"
    },
    {
      "inputs": [
        {
          "internalType": "uint16",
          "name": "_chainId",
          "type": "uint16"
        },
        {
          "internalType": "address",
          "name": "_address",
          "type": "address"
        },
        {
          "internalType": "uint256",
          "name": "_tokenPoolId",
          "type": "uint256"
        }
      ],
      "name": "setGatewayParams",
      "outputs": [],
      "stateMutability": "nonpayable",
      "type": "function"
    },
    {
      "inputs": [
        {
          "internalType": "uint256",
          "name": "_crossDepositGas",
          "type": "uint256"
        },
        {
          "internalType": "uint256",
          "name": "_crossWithdrawalGas",
          "type": "uint256"
        },
        {
          "internalType": "uint256",
          "name": "_crossProvisionGas",
          "type": "uint256"
        }
      ],
      "name": "setLayerZeroMessagesGas",
      "outputs": [],
      "stateMutability": "nonpayable",
      "type": "function"
    },
    {
      "inputs": [
        {
          "internalType": "uint16",
          "name": "_version",
          "type": "uint16"
        }
      ],
      "name": "setReceiveVersion",
      "outputs": [],
      "stateMutability": "nonpayable",
      "type": "function"
    },
    {
      "inputs": [
        {
          "internalType": "uint16",
          "name": "_version",
          "type": "uint16"
        }
      ],
      "name": "setSendVersion",
      "outputs": [],
      "stateMutability": "nonpayable",
      "type": "function"
    },
    {
      "inputs": [
        {
          "internalType": "uint16",
          "name": "_slippage",
          "type": "uint16"
        }
      ],
      "name": "setStargateSlippage",
      "outputs": [],
      "stateMutability": "nonpayable",
      "type": "function"
    },
    {
      "inputs": [
        {
          "internalType": "uint16",
          "name": "_srcChainId",
          "type": "uint16"
        },
        {
          "internalType": "bytes",
          "name": "_srcAddress",
          "type": "bytes"
        }
      ],
      "name": "setTrustedRemote",
      "outputs": [],
      "stateMutability": "nonpayable",
      "type": "function"
    },
    {
      "inputs": [
        {
          "internalType": "address",
          "name": "_zrePaymentAddress",
          "type": "address"
        }
      ],
      "name": "setZrePaymentAddress",
      "outputs": [],
      "stateMutability": "nonpayable",
      "type": "function"
    },
    {
      "inputs": [],
      "name": "stargateRouter",
      "outputs": [
        {
          "internalType": "contract IStargateRouter",
          "name": "",
          "type": "address"
        }
      ],
      "stateMutability": "view",
      "type": "function"
    },
    {
      "inputs": [],
      "name": "stargateSlippage",
      "outputs": [
        {
          "internalType": "uint256",
          "name": "",
          "type": "uint256"
        }
      ],
      "stateMutability": "view",
      "type": "function"
    },
    {
      "inputs": [],
      "name": "storedLpShares",
      "outputs": [
        {
          "internalType": "uint256",
          "name": "",
          "type": "uint256"
        }
      ],
      "stateMutability": "view",
      "type": "function"
    },
    {
      "inputs": [
        {
          "internalType": "bytes4",
          "name": "interfaceId",
          "type": "bytes4"
        }
      ],
      "name": "supportsInterface",
      "outputs": [
        {
          "internalType": "bool",
          "name": "",
          "type": "bool"
        }
      ],
      "stateMutability": "view",
      "type": "function"
    },
    {
      "inputs": [],
      "name": "tokenPoolId",
      "outputs": [
        {
          "internalType": "uint256",
          "name": "",
          "type": "uint256"
        }
      ],
      "stateMutability": "view",
      "type": "function"
    },
    {
      "inputs": [
        {
          "internalType": "uint256",
          "name": "",
          "type": "uint256"
        }
      ],
      "name": "tokens",
      "outputs": [
        {
          "internalType": "contract IERC20Metadata",
          "name": "",
          "type": "address"
        }
      ],
      "stateMutability": "view",
      "type": "function"
    },
    {
      "inputs": [
        {
          "internalType": "uint16",
          "name": "",
          "type": "uint16"
        }
      ],
      "name": "trustedRemoteLookup",
      "outputs": [
        {
          "internalType": "bytes",
          "name": "",
          "type": "bytes"
        }
      ],
      "stateMutability": "view",
      "type": "function"
    },
    {
      "inputs": [],
      "name": "withdrawStuckNative",
      "outputs": [],
      "stateMutability": "nonpayable",
      "type": "function"
    },
    {
      "inputs": [
        {
          "internalType": "contract IERC20Metadata",
          "name": "_token",
          "type": "address"
        }
      ],
      "name": "withdrawStuckToken",
      "outputs": [],
      "stateMutability": "nonpayable",
      "type": "function"
    },
    {
      "inputs": [],
      "name": "zrePaymentAddress",
      "outputs": [
        {
          "internalType": "address",
          "name": "",
          "type": "address"
        }
      ],
      "stateMutability": "view",
      "type": "function"
    },
    {
      "inputs": [],
      "name": "zunami",
      "outputs": [
        {
          "internalType": "contract IZunami",
          "name": "",
          "type": "address"
        }
      ],
      "stateMutability": "view",
      "type": "function"
    },
    {
      "stateMutability": "payable",
      "type": "receive"
    }
  ],
  "bytecode": "0x610120604052600180546001600160a01b0319169055603260035561c350600e819055600f55619c406010553480156200003857600080fd5b5060405162003ad938038062003ad98339810160408190526200005b916200022f565b8062000069600033620000d8565b6001600160a01b0316608052620000a17f97667070c54ef182b0f5858b034beac1b6f3089aa2d3188bb1e8929f4fa9b92933620000d8565b620000b0600487600362000188565b5050610100939093526001600160a01b0391821660a05291811660e0521660c052506200030e565b620000e48282620000e8565b5050565b6000828152602081815260408083206001600160a01b038516845290915290205460ff16620000e4576000828152602081815260408083206001600160a01b03851684529091529020805460ff19166001179055620001443390565b6001600160a01b0316816001600160a01b0316837f2f8788117e7eff1d82e926ec794901d17c78024a50270940304540a733656f0d60405160405180910390a45050565b8260038101928215620001d3579160200282015b82811115620001d357825182546001600160a01b0319166001600160a01b039091161782556020909201916001909101906200019c565b50620001e1929150620001e5565b5090565b5b80821115620001e15760008155600101620001e6565b634e487b7160e01b600052604160045260246000fd5b80516001600160a01b03811681146200022a57600080fd5b919050565b60008060008060008061010087890312156200024a57600080fd5b87601f8801126200025a57600080fd5b604051606081016001600160401b03811182821017156200027f576200027f620001fc565b60405280606089018a8111156200029557600080fd5b895b81811015620002ba57620002ab8162000212565b83526020928301920162000297565b5051919750909550620002d290506080880162000212565b9350620002e260a0880162000212565b9250620002f260c0880162000212565b91506200030260e0880162000212565b90509295509295509295565b60805160a05160c05160e05161010051613708620003d16000396000818161095401526117ce01526000818161079c01528181611762015261178d0152600081816107530152818161276001526127ca01526000818161067401528181610e680152818161152301528181611577015281816119da0152611fa8015260008181610805015281816109f101528181610c9e01528181610d2c015281816111e401528181611c4301528181611e16015281816123a801526124ac01526137086000f3fe60806040526004361061031c5760003560e01c80638b851b95116101ab578063c3304100116100f7578063d771c67411610095578063eb8d72b71161006f578063eb8d72b714610976578063f5b541a614610996578063f5ecbdbc146109b8578063fff0514e146109d857600080fd5b8063d771c674146108ff578063e28586e01461092c578063e9b6d5991461094257600080fd5b8063cab65c6f116100d1578063cab65c6f14610889578063cbed8b9c1461089f578063cd75b1f7146108bf578063d547741f146108df57600080fd5b8063c33041001461083d578063c533ec291461085d578063c6834d1c1461087357600080fd5b80639fd8f21611610164578063b1c2cd1e1161013e578063b1c2cd1e146107be578063b314cfd5146107de578063b353aaa7146107f3578063b4104d101461082757600080fd5b80639fd8f21614610741578063a217fddf14610775578063a9e56f3c1461078a57600080fd5b80638b851b95146106965780638d3f2cb8146106bc5780638d485a70146106dc57806391d1485414610704578063952e76bc146107245780639de99e4f1461073957600080fd5b806335247a231161026a578063514e0429116102235780637533d788116101fd5780637533d788146105f957806375451b4f14610626578063755b75df1461064d57806381ff3e8b1461066257600080fd5b8063514e0429146105a357806363aa04a0146105b95780636ae64905146105d957600080fd5b806335247a23146104d557806336568abe146104f55780633d8b38f61461051557806342d65a8d14610535578063431082ca146105555780634f64b2be1461056b57600080fd5b806310ddb137116102d75780631998f243116102b15780631998f24314610467578063248a9ca31461046f5780632f2ff15d1461049f5780633413f1c1146104bf57600080fd5b806310ddb1371461041157806315136396146104315780631688fa451461044757600080fd5b80621d356714610328578062c7d4db1461034a57806301784bd31461037d57806301ffc9a7146103a1578063068acf6c146103d157806307e0db17146103f157600080fd5b3661032357005b600080fd5b34801561033457600080fd5b50610348610343366004612c01565b6109ee565b005b34801561035657600080fd5b50600c546103659061ffff1681565b60405161ffff90911681526020015b60405180910390f35b34801561038957600080fd5b5061039360075481565b604051908152602001610374565b3480156103ad57600080fd5b506103c16103bc366004612c9b565b610baa565b6040519015158152602001610374565b3480156103dd57600080fd5b506103486103ec366004612cdd565b610be1565b3480156103fd57600080fd5b5061034861040c366004612cfa565b610c79565b34801561041d57600080fd5b5061034861042c366004612cfa565b610d07565b34801561043d57600080fd5b50610393600e5481565b34801561045357600080fd5b50610393610462366004612d24565b610d63565b610348610dcf565b34801561047b57600080fd5b5061039361048a366004612d66565b60009081526020819052604090206001015490565b3480156104ab57600080fd5b506103486104ba366004612d7f565b610fef565b3480156104cb57600080fd5b5061039360035481565b3480156104e157600080fd5b506103486104f0366004612cdd565b611015565b34801561050157600080fd5b50610348610510366004612d7f565b611077565b34801561052157600080fd5b506103c1610530366004612daf565b6110f5565b34801561054157600080fd5b50610348610550366004612daf565b6111c1565b34801561056157600080fd5b50610393600f5481565b34801561057757600080fd5b5061058b610586366004612d66565b611255565b6040516001600160a01b039091168152602001610374565b3480156105af57600080fd5b50610393600a5481565b3480156105c557600080fd5b506103486105d4366004612e02565b611275565b3480156105e557600080fd5b506103936105f4366004612d24565b6112d8565b34801561060557600080fd5b50610619610614366004612cfa565b611319565b6040516103749190612e7e565b34801561063257600080fd5b5061063b600381565b60405160ff9091168152602001610374565b34801561065957600080fd5b506103486113b3565b34801561066e57600080fd5b5061058b7f000000000000000000000000000000000000000000000000000000000000000081565b3480156106a257600080fd5b50600c5461058b906201000090046001600160a01b031681565b3480156106c857600080fd5b5060015461058b906001600160a01b031681565b3480156106e857600080fd5b506106f1600181565b604051600f9190910b8152602001610374565b34801561071057600080fd5b506103c161071f366004612d7f565b61162a565b34801561073057600080fd5b506106f1600081565b610348611653565b34801561074d57600080fd5b5061058b7f000000000000000000000000000000000000000000000000000000000000000081565b34801561078157600080fd5b50610393600081565b34801561079657600080fd5b5061058b7f000000000000000000000000000000000000000000000000000000000000000081565b3480156107ca57600080fd5b506103486107d9366004612e91565b611aff565b3480156107ea57600080fd5b50610348611b7e565b3480156107ff57600080fd5b5061058b7f000000000000000000000000000000000000000000000000000000000000000081565b34801561083357600080fd5b5061039360085481565b34801561084957600080fd5b50610393610858366004612d24565b611bbe565b34801561086957600080fd5b50610393600b5481565b34801561087f57600080fd5b5061039360095481565b34801561089557600080fd5b5061039361271081565b3480156108ab57600080fd5b506103486108ba366004612ed0565b611c20565b3480156108cb57600080fd5b506103486108da366004612cfa565b611cba565b3480156108eb57600080fd5b506103486108fa366004612d7f565b611d61565b34801561090b57600080fd5b50610914600281565b6040516001600160801b039091168152602001610374565b34801561093857600080fd5b5061039360105481565b34801561094e57600080fd5b506103937f000000000000000000000000000000000000000000000000000000000000000081565b34801561098257600080fd5b50610348610991366004612daf565b611d87565b3480156109a257600080fd5b506103936000805160206136b383398151915281565b3480156109c457600080fd5b506106196109d3366004612f3f565b611de5565b3480156109e457600080fd5b50610393600d5481565b337f00000000000000000000000000000000000000000000000000000000000000006001600160a01b031614610a6b5760405162461bcd60e51b815260206004820152601e60248201527f4c7a4170703a20696e76616c696420656e64706f696e742063616c6c6572000060448201526064015b60405180910390fd5b61ffff861660009081526002602052604081208054610a8990612f8c565b80601f0160208091040260200160405190810160405280929190818152602001828054610ab590612f8c565b8015610b025780601f10610ad757610100808354040283529160200191610b02565b820191906000526020600020905b815481529060010190602001808311610ae557829003601f168201915b50505050509050805186869050148015610b38575080516020820120604051610b2e9088908890612fc6565b6040518091039020145b610b935760405162461bcd60e51b815260206004820152602660248201527f4c7a4170703a20696e76616c696420736f757263652073656e64696e6720636f6044820152651b9d1c9858dd60d21b6064820152608401610a62565b610ba1878787878787611e96565b50505050505050565b60006001600160e01b03198216637965db0b60e01b1480610bdb57506301ffc9a760e01b6001600160e01b03198316145b92915050565b6000610bed8133612195565b6040516370a0823160e01b81523060048201526000906001600160a01b038416906370a0823190602401602060405180830381865afa158015610c34573d6000803e3d6000fd5b505050506040513d601f19601f82011682018060405250810190610c589190612fd6565b90508015610c7457610c746001600160a01b03841633836121f9565b505050565b6000610c858133612195565b6040516307e0db1760e01b815261ffff831660048201527f00000000000000000000000000000000000000000000000000000000000000006001600160a01b0316906307e0db17906024015b600060405180830381600087803b158015610ceb57600080fd5b505af1158015610cff573d6000803e3d6000fd5b505050505050565b6000610d138133612195565b6040516310ddb13760e01b815261ffff831660048201527f00000000000000000000000000000000000000000000000000000000000000006001600160a01b0316906310ddb13790602401610cd1565b60008160ff168360ff161115610da65760405162461bcd60e51b8152602060048201526008602482015267424144444543494d60c01b6044820152606401610a62565b610db08383613005565b610dbb90600a613102565b610dc59085613111565b90505b9392505050565b6000805160206136b3833981519152610de88133612195565b600854600003610e445760405162461bcd60e51b815260206004820152602160248201527f466f727761726465723a206465706f736974206e6f742070726f63657373696e6044820152606760f81b6064820152608401610a62565b6007546040516370a0823160e01b8152306004820152600091906001600160a01b037f000000000000000000000000000000000000000000000000000000000000000016906370a0823190602401602060405180830381865afa158015610eaf573d6000803e3d6000fd5b505050506040513d601f19601f82011682018060405250810190610ed39190612fd6565b610edd9190613130565b905060008111610f455760405162461bcd60e51b815260206004820152602d60248201527f466f727761726465723a206465706f736974207761736e277420636f6d706c6560448201526c746564206174205a756e616d6960981b6064820152608401610a62565b8060076000828254610f579190613143565b90915550506008546040805160006020820152808201929092526060820183905260126080808401919091528151808403909101815260a09092019052600c54600e54610faa9161ffff1690839061225c565b6008546040518381527f06da3309189fa49284f335d2c2bcb4cb0b8ad2a59ad92a9bdebeeb8f1ceba5119060200160405180910390a250506000600881905560095550565b60008281526020819052604090206001015461100b8133612195565b610c748383612529565b60006110218133612195565b600180546001600160a01b0319166001600160a01b0384169081179091556040519081527fa2b1df3328f43edff1744e2cba02afe78a7f8725dcacf9e8331a3ffa4ff4ab56906020015b60405180910390a15050565b6001600160a01b03811633146110e75760405162461bcd60e51b815260206004820152602f60248201527f416363657373436f6e74726f6c3a2063616e206f6e6c792072656e6f756e636560448201526e103937b632b9903337b91039b2b63360891b6064820152608401610a62565b6110f182826125ad565b5050565b61ffff83166000908152600260205260408120805482919061111690612f8c565b80601f016020809104026020016040519081016040528092919081815260200182805461114290612f8c565b801561118f5780601f106111645761010080835404028352916020019161118f565b820191906000526020600020905b81548152906001019060200180831161117257829003601f168201915b5050505050905083836040516111a6929190612fc6565b60405180910390208180519060200120149150509392505050565b60006111cd8133612195565b6040516342d65a8d60e01b81526001600160a01b037f000000000000000000000000000000000000000000000000000000000000000016906342d65a8d9061121d9087908790879060040161317f565b600060405180830381600087803b15801561123757600080fd5b505af115801561124b573d6000803e3d6000fd5b5050505050505050565b6004816003811061126557600080fd5b01546001600160a01b0316905081565b60006112818133612195565b600e849055600f839055601082905560408051858152602081018590529081018390527fad238535834c6cee6606795be03482696947f8ced05fac1719337396cb988803906060015b60405180910390a150505050565b60008160ff168360ff16036112ee575082610dc8565b8160ff168360ff16111561130e57611307848484611bbe565b9050610dc8565b610dc5848484610d63565b6002602052600090815260409020805461133290612f8c565b80601f016020809104026020016040519081016040528092919081815260200182805461135e90612f8c565b80156113ab5780601f10611380576101008083540402835291602001916113ab565b820191906000526020600020905b81548152906001019060200180831161138e57829003601f168201915b505050505081565b6000805160206136b38339815191526113cc8133612195565b600854158015906113de575060095415155b6114365760405162461bcd60e51b815260206004820152602360248201527f466f727761726465723a206465706f736974207761736e277420696e697469616044820152621d195960ea1b6064820152608401610a62565b6006546040516370a0823160e01b81523060048201526000916001600160a01b0316906370a0823190602401602060405180830381865afa15801561147f573d6000803e3d6000fd5b505050506040513d601f19601f820116820180604052508101906114a39190612fd6565b90506127106003546127106114b89190613130565b6009546114c59190613111565b6114cf91906131b3565b81101561151e5760405162461bcd60e51b815260206004820152601f60248201527f466f727761726465723a206e6f7420656e6f7567682070726f766973696f6e006044820152606401610a62565b61155a7f000000000000000000000000000000000000000000000000000000000000000082600460025b01546001600160a01b03169190612612565b611562612b83565b60408082018390525163e287950560e01b81527f00000000000000000000000000000000000000000000000000000000000000006001600160a01b03169063e2879505906115b49084906004016131f8565b600060405180830381600087803b1580156115ce57600080fd5b505af11580156115e2573d6000803e3d6000fd5b50506008546040805160028152602081018790529193507f3f4eb095aadf98bfed0e13af381b2a72a3e0883b728d662a8b56bc410f2c170192500160405180910390a2505050565b6000918252602082815260408084206001600160a01b0393909316845291905290205460ff1690565b6000805160206136b383398151915261166c8133612195565b600a541580159061167e5750600b5415155b6116da5760405162461bcd60e51b815260206004820152602760248201527f466f727761726465723a207769746864726177616c206973206e6f742070726f60448201526663657373696e6760c81b6064820152608401610a62565b6116e460006126ca565b6116ee60016126ca565b6006546040516370a0823160e01b81523060048201526000916001600160a01b0316906370a0823190602401602060405180830381865afa158015611737573d6000803e3d6000fd5b505050506040513d601f19601f8201168201806040525081019061175b9190612fd6565b905061178b7f00000000000000000000000000000000000000000000000000000000000000008260046002611548565b7f00000000000000000000000000000000000000000000000000000000000000006001600160a01b0316639fbf10fc47600c60009054906101000a900461ffff167f0000000000000000000000000000000000000000000000000000000000000000600d5430876127106003546127106118059190613130565b61180f908b613111565b61181991906131b3565b604080516060808201835260105482526000602080840191909152835180850185526002815261060f60f31b8183015283850152600c5493516201000090940490911b6bffffffffffffffffffffffff191690830152906034016040516020818303038152906040526040518a63ffffffff1660e01b81526004016118a5989796959493929190613206565b6000604051808303818588803b1580156118be57600080fd5b505af11580156118d2573d6000803e3d6000fd5b5060009350600192506118e3915050565b600a546006546040805163313ce56760e01b8152905186926001600160a01b03169163313ce5679160048281019260209291908290030181865afa15801561192f573d6000803e3d6000fd5b505050506040513d601f19601f8201168201806040525081019061195391906132a1565b6040805160ff9586166020820152908101939093526060830191909152909116608082015260a00160405160208183030381529060405290506119a9600c60009054906101000a900461ffff1682600f5461225c565b600b54600760008282546119bd9190613130565b90915550506007546040516370a0823160e01b81523060048201527f00000000000000000000000000000000000000000000000000000000000000006001600160a01b0316906370a0823190602401602060405180830381865afa158015611a29573d6000803e3d6000fd5b505050506040513d601f19601f82011682018060405250810190611a4d9190612fd6565b14611ab35760405162461bcd60e51b815260206004820152603060248201527f466f727761726465723a207769746864726177616c207761736e277420636f6d60448201526f706c6574656420696e205a756e616d6960801b6064820152608401610a62565b600a546040805160028152602081018590527fabd2ab552bc04cdbfa4a54107fa44ac8c9cb06f6d21da11933ac05a653be19e9910160405180910390a250506000600a819055600b5550565b6000611b0b8133612195565b600c805461ffff86166001600160b01b03199091168117620100006001600160a01b03871690810291909117909255600d8490556040805191825260208201929092529081018390527fdb85d13614082578c190eebfa3580e3a42fed95fd283016a00919e4691e953e3906060016112ca565b6000611b8a8133612195565b4780156110f157604051339082156108fc029083906000818181858888f19350505050158015610c74573d6000803e3d6000fd5b60008160ff168360ff161015611c015760405162461bcd60e51b8152602060048201526008602482015267424144444543494d60c01b6044820152606401610a62565b611c0b8284613005565b611c1690600a613102565b610dc590856131b3565b6000611c2c8133612195565b6040516332fb62e760e21b81526001600160a01b037f0000000000000000000000000000000000000000000000000000000000000000169063cbed8b9c90611c8090899089908990899089906004016132be565b600060405180830381600087803b158015611c9a57600080fd5b505af1158015611cae573d6000803e3d6000fd5b50505050505050505050565b6000611cc68133612195565b6127108261ffff161115611d275760405162461bcd60e51b815260206004820152602260248201527f466f727761726465723a2077726f6e6720737461726761746520736c69707061604482015261676560f01b6064820152608401610a62565b61ffff821660038190556040519081527fb5cd78aab69202b3af2c4e5171dc7dbb7dd29b301421a6cb87458308944a3ae89060200161106b565b600082815260208190526040902060010154611d7d8133612195565b610c7483836125ad565b6000611d938133612195565b61ffff84166000908152600260205260409020611db1838583613348565b507ffa41487ad5d6728f0b19276fa1eddc16558578f5109fc39d2dc33c3230470dab8484846040516112ca9392919061317f565b604051633d7b2f6f60e21b815261ffff808616600483015284166024820152306044820152606481018290526060907f00000000000000000000000000000000000000000000000000000000000000006001600160a01b03169063f5ecbdbc90608401600060405180830381865afa158015611e65573d6000803e3d6000fd5b505050506040513d6000823e601f3d908101601f19168201604052611e8d9190810190613409565b95945050505050565b600c5461ffff878116911614611eee5760405162461bcd60e51b815260206004820181905260248201527f466f727761726465723a2077726f6e6720736f7572636520636861696e2069646044820152606401610a62565b6000808080611eff858701876134ab565b9296509094509250905060001960ff85160161205357600a54158015611f255750600b54155b611f805760405162461bcd60e51b815260206004820152602660248201527f466f727761726465723a2070726576696f7573207769746864726177616c20656044820152651e1a5cdd195960d21b6064820152608401610a62565b600a839055600b829055611f92612b83565b60405162955d4360e71b81526001600160a01b037f00000000000000000000000000000000000000000000000000000000000000001690634aaea18090611fdf90869085906004016134f5565b600060405180830381600087803b158015611ff957600080fd5b505af115801561200d573d6000803e3d6000fd5b50505050600a547fb044668583d811edbcfe183ec48395b7910a50f3d531f3f1301233706acd64f48460405161204591815260200190565b60405180910390a250611cae565b60ff8416611cae5760085415801561206b5750600954155b6120c35760405162461bcd60e51b815260206004820152602360248201527f466f727761726465723a2070726576696f7573206465706f73697420657869736044820152621d195960ea1b6064820152608401610a62565b60088390556121478282600460020160009054906101000a90046001600160a01b03166001600160a01b031663313ce5676040518163ffffffff1660e01b8152600401602060405180830381865afa158015612123573d6000803e3d6000fd5b505050506040513d601f19601f820116820180604052508101906105f491906132a1565b60098190556040805160028152602081019290925284917f25990e0e5bb65a961ebec1a35e6891c5c5f94aff0a997150df43a158b8cad9b9910160405180910390a250505050505050505050565b61219f828261162a565b6110f1576121b7816001600160a01b03166014612801565b6121c2836020612801565b6040516020016121d3929190613509565b60408051601f198184030181529082905262461bcd60e51b8252610a6291600401612e7e565b6040516001600160a01b038316602482015260448101829052610c7490849063a9059cbb60e01b906064015b60408051601f198184030181529190526020810180516001600160e01b03166001600160e01b03199093169290921790915261299d565b61ffff83166000908152600260205260408120805461227a90612f8c565b80601f01602080910402602001604051908101604052809291908181526020018280546122a690612f8c565b80156122f35780601f106122c8576101008083540402835291602001916122f3565b820191906000526020600020905b8154815290600101906020018083116122d657829003601f168201915b5050505050905080516000036123645760405162461bcd60e51b815260206004820152603060248201527f4c7a4170703a2064657374696e6174696f6e20636861696e206973206e6f742060448201526f61207472757374656420736f7572636560801b6064820152608401610a62565b604051600160f01b60208201526022810183905260009060420160408051601f198184030181529082905263040a7bb160e41b825291506000906001600160a01b037f000000000000000000000000000000000000000000000000000000000000000016906340a7bb10906123e590899030908a908790899060040161357e565b6040805180830381865afa158015612401573d6000803e3d6000fd5b505050506040513d601f19601f8201168201806040525081019061242591906135d2565b509050804710156124935760405162461bcd60e51b815260206004820152603260248201527f4c7a4170703a206e6f7420656e6f756768206e617469766520746f6b656e20666044820152716f722073656e64696e67206d65737361676560701b6064820152608401610a62565b60015460405162c5803160e81b81526001600160a01b037f000000000000000000000000000000000000000000000000000000000000000081169263c58031009285926124ef928c928a928d9230929116908b906004016135f6565b6000604051808303818588803b15801561250857600080fd5b505af115801561251c573d6000803e3d6000fd5b5050505050505050505050565b612533828261162a565b6110f1576000828152602081815260408083206001600160a01b03851684529091529020805460ff191660011790556125693390565b6001600160a01b0316816001600160a01b0316837f2f8788117e7eff1d82e926ec794901d17c78024a50270940304540a733656f0d60405160405180910390a45050565b6125b7828261162a565b156110f1576000828152602081815260408083206001600160a01b0385168085529252808320805460ff1916905551339285917ff6391f5c32d9c69d2a47ea670b442974b53935d1edc7fd64eb21e047a839171b9190a45050565b604051636eb1769f60e11b81523060048201526001600160a01b038381166024830152600091839186169063dd62ed3e90604401602060405180830381865afa158015612663573d6000803e3d6000fd5b505050506040513d601f19601f820116820180604052508101906126879190612fd6565b6126919190613143565b6040516001600160a01b0385166024820152604481018290529091506126c490859063095ea7b360e01b90606401612225565b50505050565b60006004826001600160801b0316600381106126e8576126e861319d565b01546040516370a0823160e01b81523060048201526001600160a01b03909116906370a0823190602401602060405180830381865afa15801561272f573d6000803e3d6000fd5b505050506040513d601f19601f820116820180604052508101906127539190612fd6565b905080156110f15761279c7f0000000000000000000000000000000000000000000000000000000000000000826004856001600160801b0316600381106115485761154861319d565b604051630f7c084960e21b8152600f83900b60048201526002602482015260448101829052600060648201527f00000000000000000000000000000000000000000000000000000000000000006001600160a01b031690633df0212490608401610cd1565b60606000612810836002613111565b61281b906002613143565b67ffffffffffffffff811115612833576128336132ec565b6040519080825280601f01601f19166020018201604052801561285d576020820181803683370190505b509050600360fc1b816000815181106128785761287861319d565b60200101906001600160f81b031916908160001a905350600f60fb1b816001815181106128a7576128a761319d565b60200101906001600160f81b031916908160001a90535060006128cb846002613111565b6128d6906001613143565b90505b600181111561294e576f181899199a1a9b1b9c1cb0b131b232b360811b85600f166010811061290a5761290a61319d565b1a60f81b8282815181106129205761292061319d565b60200101906001600160f81b031916908160001a90535060049490941c936129478161365d565b90506128d9565b508315610dc85760405162461bcd60e51b815260206004820181905260248201527f537472696e67733a20686578206c656e67746820696e73756666696369656e746044820152606401610a62565b60006129f2826040518060400160405280602081526020017f5361666545524332303a206c6f772d6c6576656c2063616c6c206661696c6564815250856001600160a01b0316612a6f9092919063ffffffff16565b805190915015610c745780806020019051810190612a109190613674565b610c745760405162461bcd60e51b815260206004820152602a60248201527f5361666545524332303a204552433230206f7065726174696f6e20646964206e6044820152691bdd081cdd58d8d9595960b21b6064820152608401610a62565b6060610dc58484600085856001600160a01b0385163b612ad15760405162461bcd60e51b815260206004820152601d60248201527f416464726573733a2063616c6c20746f206e6f6e2d636f6e74726163740000006044820152606401610a62565b600080866001600160a01b03168587604051612aed9190613696565b60006040518083038185875af1925050503d8060008114612b2a576040519150601f19603f3d011682016040523d82523d6000602084013e612b2f565b606091505b5091509150612b3f828286612b4a565b979650505050505050565b60608315612b59575081610dc8565b825115612b695782518084602001fd5b8160405162461bcd60e51b8152600401610a629190612e7e565b60405180606001604052806003906020820280368337509192915050565b803561ffff81168114612bb357600080fd5b919050565b60008083601f840112612bca57600080fd5b50813567ffffffffffffffff811115612be257600080fd5b602083019150836020828501011115612bfa57600080fd5b9250929050565b60008060008060008060808789031215612c1a57600080fd5b612c2387612ba1565b9550602087013567ffffffffffffffff80821115612c4057600080fd5b612c4c8a838b01612bb8565b9097509550604089013591508082168214612c6657600080fd5b90935060608801359080821115612c7c57600080fd5b50612c8989828a01612bb8565b979a9699509497509295939492505050565b600060208284031215612cad57600080fd5b81356001600160e01b031981168114610dc857600080fd5b6001600160a01b0381168114612cda57600080fd5b50565b600060208284031215612cef57600080fd5b8135610dc881612cc5565b600060208284031215612d0c57600080fd5b610dc882612ba1565b60ff81168114612cda57600080fd5b600080600060608486031215612d3957600080fd5b833592506020840135612d4b81612d15565b91506040840135612d5b81612d15565b809150509250925092565b600060208284031215612d7857600080fd5b5035919050565b60008060408385031215612d9257600080fd5b823591506020830135612da481612cc5565b809150509250929050565b600080600060408486031215612dc457600080fd5b612dcd84612ba1565b9250602084013567ffffffffffffffff811115612de957600080fd5b612df586828701612bb8565b9497909650939450505050565b600080600060608486031215612e1757600080fd5b505081359360208301359350604090920135919050565b60005b83811015612e49578181015183820152602001612e31565b50506000910152565b60008151808452612e6a816020860160208601612e2e565b601f01601f19169290920160200192915050565b602081526000610dc86020830184612e52565b600080600060608486031215612ea657600080fd5b612eaf84612ba1565b92506020840135612ebf81612cc5565b929592945050506040919091013590565b600080600080600060808688031215612ee857600080fd5b612ef186612ba1565b9450612eff60208701612ba1565b935060408601359250606086013567ffffffffffffffff811115612f2257600080fd5b612f2e88828901612bb8565b969995985093965092949392505050565b60008060008060808587031215612f5557600080fd5b612f5e85612ba1565b9350612f6c60208601612ba1565b92506040850135612f7c81612cc5565b9396929550929360600135925050565b600181811c90821680612fa057607f821691505b602082108103612fc057634e487b7160e01b600052602260045260246000fd5b50919050565b8183823760009101908152919050565b600060208284031215612fe857600080fd5b5051919050565b634e487b7160e01b600052601160045260246000fd5b60ff8281168282160390811115610bdb57610bdb612fef565b600181815b8085111561305957816000190482111561303f5761303f612fef565b8085161561304c57918102915b93841c9390800290613023565b509250929050565b60008261307057506001610bdb565b8161307d57506000610bdb565b8160018114613093576002811461309d576130b9565b6001915050610bdb565b60ff8411156130ae576130ae612fef565b50506001821b610bdb565b5060208310610133831016604e8410600b84101617156130dc575081810a610bdb565b6130e6838361301e565b80600019048211156130fa576130fa612fef565b029392505050565b6000610dc860ff841683613061565b600081600019048311821515161561312b5761312b612fef565b500290565b81810381811115610bdb57610bdb612fef565b80820180821115610bdb57610bdb612fef565b81835281816020850137506000828201602090810191909152601f909101601f19169091010190565b61ffff84168152604060208201526000611e8d604083018486613156565b634e487b7160e01b600052603260045260246000fd5b6000826131d057634e487b7160e01b600052601260045260246000fd5b500490565b8060005b60038110156126c45781518452602093840193909101906001016131d9565b60608101610bdb82846131d5565b600061012061ffff8b16835289602084015288604084015260018060a01b03881660608401528660808401528560a08401528060c08401528451818401525060208401516101408301526040840151606061016084015261326b610180840182612e52565b905082810360e084015261327f8185612e52565b838103610100850152600081529050602081019b9a5050505050505050505050565b6000602082840312156132b357600080fd5b8151610dc881612d15565b600061ffff808816835280871660208401525084604083015260806060830152612b3f608083018486613156565b634e487b7160e01b600052604160045260246000fd5b601f821115610c7457600081815260208120601f850160051c810160208610156133295750805b601f850160051c820191505b81811015610cff57828155600101613335565b67ffffffffffffffff831115613360576133606132ec565b6133748361336e8354612f8c565b83613302565b6000601f8411600181146133a857600085156133905750838201355b600019600387901b1c1916600186901b178355613402565b600083815260209020601f19861690835b828110156133d957868501358255602094850194600190920191016133b9565b50868210156133f65760001960f88860031b161c19848701351681555b505060018560011b0183555b5050505050565b60006020828403121561341b57600080fd5b815167ffffffffffffffff8082111561343357600080fd5b818401915084601f83011261344757600080fd5b815181811115613459576134596132ec565b604051601f8201601f19908116603f01168101908382118183101715613481576134816132ec565b8160405282815287602084870101111561349a57600080fd5b612b3f836020830160208801612e2e565b600080600080608085870312156134c157600080fd5b84356134cc81612d15565b9350602085013592506040850135915060608501356134ea81612d15565b939692955090935050565b82815260808101610dc860208301846131d5565b7f416363657373436f6e74726f6c3a206163636f756e7420000000000000000000815260008351613541816017850160208801612e2e565b7001034b99036b4b9b9b4b733903937b6329607d1b6017918401918201528351613572816028840160208801612e2e565b01602801949350505050565b61ffff861681526001600160a01b038516602082015260a0604082018190526000906135ac90830186612e52565b841515606084015282810360808401526135c68185612e52565b98975050505050505050565b600080604083850312156135e557600080fd5b505080516020909101519092909150565b61ffff8716815260c06020820152600061361360c0830188612e52565b82810360408401526136258188612e52565b6001600160a01b0387811660608601528616608085015283810360a085015290506136508185612e52565b9998505050505050505050565b60008161366c5761366c612fef565b506000190190565b60006020828403121561368657600080fd5b81518015158114610dc857600080fd5b600082516136a8818460208701612e2e565b919091019291505056fe97667070c54ef182b0f5858b034beac1b6f3089aa2d3188bb1e8929f4fa9b929a26469706673582212200810646bcf4217108d41833f58682349e8a28219eae5ca99b048ce6ab3bd1c3364736f6c63430008100033",
  "linkReferences": {},
  "deployedLinkReferences": {}
}