{
  "_format": "hh-sol-artifact-1",
  "contractName": "ZunamiDepositorBUSD",
  "sourceName": "contracts/crosschain/depositor/ZunamiDepositorBUSD.sol",
  "abi": [
    {
      "inputs": [
        {
          "internalType": "address",
          "name": "_gateway",
          "type": "address"
        }
      ],
      "stateMutability": "nonpayable",
      "type": "constructor"
    },
    {
      "anonymous": false,
      "inputs": [
        {
          "indexed": true,
          "internalType": "address",
          "name": "depositor",
          "type": "address"
        },
        {
          "indexed": false,
          "internalType": "address",
          "name": "inToken",
          "type": "address"
        },
        {
          "indexed": false,
          "internalType": "uint256",
          "name": "inAmount",
          "type": "uint256"
        },
        {
          "indexed": false,
          "internalType": "address",
          "name": "outToken",
          "type": "address"
        },
        {
          "indexed": false,
          "internalType": "uint256",
          "name": "outAmount",
          "type": "uint256"
        }
      ],
      "name": "ConvertedDeposit",
      "type": "event"
    },
    {
      "inputs": [
        {
          "internalType": "uint256",
          "name": "amountIn",
          "type": "uint256"
        },
        {
          "internalType": "uint256",
          "name": "amountOutMin",
          "type": "uint256"
        }
      ],
      "name": "delegateDepositWithConversion",
      "outputs": [],
      "stateMutability": "nonpayable",
      "type": "function"
    },
    {
      "inputs": [],
      "name": "gateway",
      "outputs": [
        {
          "internalType": "contract IZunamiGateway",
          "name": "",
          "type": "address"
        }
      ],
      "stateMutability": "view",
      "type": "function"
    },
    {
      "inputs": [
        {
          "internalType": "uint256",
          "name": "amountIn",
          "type": "uint256"
        }
      ],
      "name": "getAmountOut",
      "outputs": [
        {
          "internalType": "uint256",
          "name": "",
          "type": "uint256"
        }
      ],
      "stateMutability": "view",
      "type": "function"
    },
    {
      "inputs": [],
      "name": "router",
      "outputs": [
        {
          "internalType": "contract IUniswapRouter",
          "name": "",
          "type": "address"
        }
      ],
      "stateMutability": "view",
      "type": "function"
    },
    {
      "inputs": [],
      "name": "tokenIn",
      "outputs": [
        {
          "internalType": "contract IERC20",
          "name": "",
          "type": "address"
        }
      ],
      "stateMutability": "view",
      "type": "function"
    },
    {
      "inputs": [],
      "name": "tokenOut",
      "outputs": [
        {
          "internalType": "contract IERC20",
          "name": "",
          "type": "address"
        }
      ],
      "stateMutability": "view",
      "type": "function"
    }
  ],
  "bytecode": "0x61010060405234801561001157600080fd5b50604051610db7380380610db783398101604081905261003091610135565b73e9e7cea3dedca5984780bafc599bd69add087d5660808190527355d398326f99059ff775485246999027b319795560a08190526001600160a01b03831660c0527310ed43c718714eb63d5aa57b78b54704e256024e60e081905260408051808201909152838152602081018390528491906100b09060009060026100bb565b505050505050610165565b828054828255906000526020600020908101928215610110579160200282015b8281111561011057825182546001600160a01b0319166001600160a01b039091161782556020909201916001909101906100db565b5061011c929150610120565b5090565b5b8082111561011c5760008155600101610121565b60006020828403121561014757600080fd5b81516001600160a01b038116811461015e57600080fd5b9392505050565b60805160a05160c05160e051610bce6101e960003960008181610134015281816102040152818161023301526104e6015260008181606c0152818161038d01526103ce01526000818161010d015281816102e90152818161036b015261046b01526000818160e6015281816101ad015281816101e201526104360152610bce6000f3fe608060405234801561001057600080fd5b50600436106100625760003560e01c8063116191b614610067578063583a84d3146100ab5780635c195217146100c05780636daf390b146100e1578063d0202d3b14610108578063f887ea401461012f575b600080fd5b61008e7f000000000000000000000000000000000000000000000000000000000000000081565b6040516001600160a01b0390911681526020015b60405180910390f35b6100be6100b9366004610900565b610156565b005b6100d36100ce366004610922565b6104cc565b6040519081526020016100a2565b61008e7f000000000000000000000000000000000000000000000000000000000000000081565b61008e7f000000000000000000000000000000000000000000000000000000000000000081565b61008e7f000000000000000000000000000000000000000000000000000000000000000081565b600082116101a05760405162461bcd60e51b815260206004820152601260248201527116995c9bc81a5b951bdad95b905b5bdd5b9d60721b60448201526064015b60405180910390fd5b6101d56001600160a01b037f000000000000000000000000000000000000000000000000000000000000000016333085610583565b6102296001600160a01b037f0000000000000000000000000000000000000000000000000000000000000000167f0000000000000000000000000000000000000000000000000000000000000000846105f4565b6001600160a01b037f0000000000000000000000000000000000000000000000000000000000000000166338ed173983836000306102696107d04261093b565b6040518663ffffffff1660e01b81526004016102899594939291906109ab565b6000604051808303816000875af11580156102a8573d6000803e3d6000fd5b505050506040513d6000823e601f3d908101601f191682016040526102d091908101906109fd565b506040516370a0823160e01b81523060048201526000907f00000000000000000000000000000000000000000000000000000000000000006001600160a01b0316906370a0823190602401602060405180830381865afa158015610338573d6000803e3d6000fd5b505050506040513d601f19601f8201168201806040525081019061035c9190610abb565b90506103b26001600160a01b037f0000000000000000000000000000000000000000000000000000000000000000167f0000000000000000000000000000000000000000000000000000000000000000836105f4565b604051635dc7712360e01b8152336004820152602481018290527f00000000000000000000000000000000000000000000000000000000000000006001600160a01b031690635dc7712390604401600060405180830381600087803b15801561041a57600080fd5b505af115801561042e573d6000803e3d6000fd5b5050604080517f00000000000000000000000000000000000000000000000000000000000000006001600160a01b039081168252602082018890527f000000000000000000000000000000000000000000000000000000000000000016818301526060810185905290513393507f796f97ba2557c1d5a8c6fea024d0232c5020d72239cb9f7ff5e0969c99a86c2692509081900360800190a2505050565b60405163d06ca61f60e01b81526000906001600160a01b037f0000000000000000000000000000000000000000000000000000000000000000169063d06ca61f9061051d9085908590600401610ad4565b600060405180830381865afa15801561053a573d6000803e3d6000fd5b505050506040513d6000823e601f3d908101601f1916820160405261056291908101906109fd565b60018151811061057457610574610aed565b60200260200101519050919050565b6040516001600160a01b03808516602483015283166044820152606481018290526105ee9085906323b872dd60e01b906084015b60408051601f198184030181529190526020810180516001600160e01b03166001600160e01b0319909316929092179091526106a6565b50505050565b604051636eb1769f60e11b81523060048201526001600160a01b038381166024830152600091839186169063dd62ed3e90604401602060405180830381865afa158015610645573d6000803e3d6000fd5b505050506040513d601f19601f820116820180604052508101906106699190610abb565b610673919061093b565b6040516001600160a01b0385166024820152604481018290529091506105ee90859063095ea7b360e01b906064016105b7565b60006106fb826040518060400160405280602081526020017f5361666545524332303a206c6f772d6c6576656c2063616c6c206661696c6564815250856001600160a01b031661077d9092919063ffffffff16565b80519091501561077857808060200190518101906107199190610b03565b6107785760405162461bcd60e51b815260206004820152602a60248201527f5361666545524332303a204552433230206f7065726174696f6e20646964206e6044820152691bdd081cdd58d8d9595960b21b6064820152608401610197565b505050565b606061078c8484600085610796565b90505b9392505050565b6060824710156107f75760405162461bcd60e51b815260206004820152602660248201527f416464726573733a20696e73756666696369656e742062616c616e636520666f6044820152651c8818d85b1b60d21b6064820152608401610197565b6001600160a01b0385163b61084e5760405162461bcd60e51b815260206004820152601d60248201527f416464726573733a2063616c6c20746f206e6f6e2d636f6e74726163740000006044820152606401610197565b600080866001600160a01b0316858760405161086a9190610b49565b60006040518083038185875af1925050503d80600081146108a7576040519150601f19603f3d011682016040523d82523d6000602084013e6108ac565b606091505b50915091506108bc8282866108c7565b979650505050505050565b606083156108d657508161078f565b8251156108e65782518084602001fd5b8160405162461bcd60e51b81526004016101979190610b65565b6000806040838503121561091357600080fd5b50508035926020909101359150565b60006020828403121561093457600080fd5b5035919050565b8082018082111561095c57634e487b7160e01b600052601160045260246000fd5b92915050565b6000815480845260208085019450836000528060002060005b838110156109a05781546001600160a01b03168752958201956001918201910161097b565b509495945050505050565b85815284602082015260a0604082015260006109ca60a0830186610962565b6001600160a01b0394909416606083015250608001529392505050565b634e487b7160e01b600052604160045260246000fd5b60006020808385031215610a1057600080fd5b825167ffffffffffffffff80821115610a2857600080fd5b818501915085601f830112610a3c57600080fd5b815181811115610a4e57610a4e6109e7565b8060051b604051601f19603f83011681018181108582111715610a7357610a736109e7565b604052918252848201925083810185019188831115610a9157600080fd5b938501935b82851015610aaf57845184529385019392850192610a96565b98975050505050505050565b600060208284031215610acd57600080fd5b5051919050565b82815260406020820152600061078c6040830184610962565b634e487b7160e01b600052603260045260246000fd5b600060208284031215610b1557600080fd5b8151801515811461078f57600080fd5b60005b83811015610b40578181015183820152602001610b28565b50506000910152565b60008251610b5b818460208701610b25565b9190910192915050565b6020815260008251806020840152610b84816040850160208701610b25565b601f01601f1916919091016040019291505056fea26469706673582212209a1c219d0189e77973b814d7ede95fafa9c97d0ec892c6f991d673369f67312064736f6c63430008100033",
  "linkReferences": {},
  "deployedLinkReferences": {}
}