{
  "_format": "hh-sol-artifact-1",
  "contractName": "ZunamiGateway",
  "sourceName": "contracts/crosschain/ZunamiGateway.sol",
  "abi": [
    {
      "inputs": [
        {
          "internalType": "address",
          "name": "_token",
          "type": "address"
        },
        {
          "internalType": "uint256",
          "name": "_tokenPoolId",
          "type": "uint256"
        },
        {
          "internalType": "address",
          "name": "_stargateRouter",
          "type": "address"
        },
        {
          "internalType": "address",
          "name": "_layerZeroEndpoint",
          "type": "address"
        }
      ],
      "stateMutability": "nonpayable",
      "type": "constructor"
    },
    {
      "anonymous": false,
      "inputs": [
        {
          "indexed": true,
          "internalType": "address",
          "name": "owner",
          "type": "address"
        },
        {
          "indexed": true,
          "internalType": "address",
          "name": "spender",
          "type": "address"
        },
        {
          "indexed": false,
          "internalType": "uint256",
          "name": "value",
          "type": "uint256"
        }
      ],
      "name": "Approval",
      "type": "event"
    },
    {
      "anonymous": false,
      "inputs": [
        {
          "indexed": true,
          "internalType": "address",
          "name": "depositor",
          "type": "address"
        },
        {
          "indexed": false,
          "internalType": "uint256",
          "name": "amount",
          "type": "uint256"
        }
      ],
      "name": "CreatedPendingDeposit",
      "type": "event"
    },
    {
      "anonymous": false,
      "inputs": [
        {
          "indexed": true,
          "internalType": "address",
          "name": "withdrawer",
          "type": "address"
        },
        {
          "indexed": false,
          "internalType": "uint256",
          "name": "lpShares",
          "type": "uint256"
        }
      ],
      "name": "CreatedPendingWithdrawal",
      "type": "event"
    },
    {
      "anonymous": false,
      "inputs": [
        {
          "indexed": true,
          "internalType": "address",
          "name": "depositor",
          "type": "address"
        },
        {
          "indexed": false,
          "internalType": "uint256",
          "name": "tokenAmount",
          "type": "uint256"
        },
        {
          "indexed": false,
          "internalType": "uint256",
          "name": "lpShares",
          "type": "uint256"
        }
      ],
      "name": "Deposited",
      "type": "event"
    },
    {
      "anonymous": false,
      "inputs": [
        {
          "indexed": false,
          "internalType": "address",
          "name": "account",
          "type": "address"
        }
      ],
      "name": "Paused",
      "type": "event"
    },
    {
      "anonymous": false,
      "inputs": [
        {
          "indexed": true,
          "internalType": "uint256",
          "name": "id",
          "type": "uint256"
        },
        {
          "indexed": false,
          "internalType": "uint256",
          "name": "lpShares",
          "type": "uint256"
        }
      ],
      "name": "ReceivedCrossDepositResult",
      "type": "event"
    },
    {
      "anonymous": false,
      "inputs": [
        {
          "indexed": false,
          "internalType": "uint256",
          "name": "tokenAmount",
          "type": "uint256"
        }
      ],
      "name": "ReceivedCrossWithdrawalProvision",
      "type": "event"
    },
    {
      "anonymous": false,
      "inputs": [
        {
          "indexed": true,
          "internalType": "uint256",
          "name": "id",
          "type": "uint256"
        },
        {
          "indexed": false,
          "internalType": "uint256",
          "name": "tokenAmount",
          "type": "uint256"
        }
      ],
      "name": "ReceivedCrossWithdrawalResult",
      "type": "event"
    },
    {
      "anonymous": false,
      "inputs": [
        {
          "indexed": true,
          "internalType": "address",
          "name": "depositor",
          "type": "address"
        }
      ],
      "name": "RemovedPendingDeposit",
      "type": "event"
    },
    {
      "anonymous": false,
      "inputs": [
        {
          "indexed": true,
          "internalType": "address",
          "name": "depositor",
          "type": "address"
        }
      ],
      "name": "RemovedPendingWithdrawal",
      "type": "event"
    },
    {
      "anonymous": false,
      "inputs": [
        {
          "indexed": true,
          "internalType": "uint256",
          "name": "id",
          "type": "uint256"
        },
        {
          "indexed": false,
          "internalType": "uint256",
          "name": "tokenAmount",
          "type": "uint256"
        }
      ],
      "name": "ResetCrossDeposit",
      "type": "event"
    },
    {
      "anonymous": false,
      "inputs": [
        {
          "indexed": true,
          "internalType": "uint256",
          "name": "id",
          "type": "uint256"
        },
        {
          "indexed": false,
          "internalType": "uint256",
          "name": "tokenAmount",
          "type": "uint256"
        }
      ],
      "name": "ResetCrossWithdrawal",
      "type": "event"
    },
    {
      "anonymous": false,
      "inputs": [
        {
          "indexed": true,
          "internalType": "bytes32",
          "name": "role",
          "type": "bytes32"
        },
        {
          "indexed": true,
          "internalType": "bytes32",
          "name": "previousAdminRole",
          "type": "bytes32"
        },
        {
          "indexed": true,
          "internalType": "bytes32",
          "name": "newAdminRole",
          "type": "bytes32"
        }
      ],
      "name": "RoleAdminChanged",
      "type": "event"
    },
    {
      "anonymous": false,
      "inputs": [
        {
          "indexed": true,
          "internalType": "bytes32",
          "name": "role",
          "type": "bytes32"
        },
        {
          "indexed": true,
          "internalType": "address",
          "name": "account",
          "type": "address"
        },
        {
          "indexed": true,
          "internalType": "address",
          "name": "sender",
          "type": "address"
        }
      ],
      "name": "RoleGranted",
      "type": "event"
    },
    {
      "anonymous": false,
      "inputs": [
        {
          "indexed": true,
          "internalType": "bytes32",
          "name": "role",
          "type": "bytes32"
        },
        {
          "indexed": true,
          "internalType": "address",
          "name": "account",
          "type": "address"
        },
        {
          "indexed": true,
          "internalType": "address",
          "name": "sender",
          "type": "address"
        }
      ],
      "name": "RoleRevoked",
      "type": "event"
    },
    {
      "anonymous": false,
      "inputs": [
        {
          "indexed": true,
          "internalType": "uint256",
          "name": "id",
          "type": "uint256"
        },
        {
          "indexed": false,
          "internalType": "uint256",
          "name": "totalTokenAmount",
          "type": "uint256"
        }
      ],
      "name": "SentCrossDeposit",
      "type": "event"
    },
    {
      "anonymous": false,
      "inputs": [
        {
          "indexed": true,
          "internalType": "uint256",
          "name": "id",
          "type": "uint256"
        },
        {
          "indexed": false,
          "internalType": "uint256",
          "name": "totalLpShares",
          "type": "uint256"
        }
      ],
      "name": "SentCrossWithdrawal",
      "type": "event"
    },
    {
      "anonymous": false,
      "inputs": [
        {
          "indexed": false,
          "internalType": "uint256",
          "name": "_chainId",
          "type": "uint256"
        },
        {
          "indexed": false,
          "internalType": "address",
          "name": "_address",
          "type": "address"
        },
        {
          "indexed": false,
          "internalType": "uint256",
          "name": "_tokenPoolId",
          "type": "uint256"
        }
      ],
      "name": "SetForwarderParams",
      "type": "event"
    },
    {
      "anonymous": false,
      "inputs": [
        {
          "indexed": false,
          "internalType": "uint256",
          "name": "crossDepositGas",
          "type": "uint256"
        },
        {
          "indexed": false,
          "internalType": "uint256",
          "name": "crossWithdrawalGas",
          "type": "uint256"
        },
        {
          "indexed": false,
          "internalType": "uint256",
          "name": "crossProvisionGas",
          "type": "uint256"
        }
      ],
      "name": "SetLayerZeroMessagesGas",
      "type": "event"
    },
    {
      "anonymous": false,
      "inputs": [
        {
          "indexed": false,
          "internalType": "uint256",
          "name": "slippage",
          "type": "uint256"
        }
      ],
      "name": "SetStargateSlippage",
      "type": "event"
    },
    {
      "anonymous": false,
      "inputs": [
        {
          "indexed": false,
          "internalType": "uint16",
          "name": "_srcChainId",
          "type": "uint16"
        },
        {
          "indexed": false,
          "internalType": "bytes",
          "name": "_srcAddress",
          "type": "bytes"
        }
      ],
      "name": "SetTrustedRemote",
      "type": "event"
    },
    {
      "anonymous": false,
      "inputs": [
        {
          "indexed": false,
          "internalType": "address",
          "name": "zrePaymentAddress",
          "type": "address"
        }
      ],
      "name": "SetZrePaymentAddress",
      "type": "event"
    },
    {
      "anonymous": false,
      "inputs": [
        {
          "indexed": true,
          "internalType": "address",
          "name": "from",
          "type": "address"
        },
        {
          "indexed": true,
          "internalType": "address",
          "name": "to",
          "type": "address"
        },
        {
          "indexed": false,
          "internalType": "uint256",
          "name": "value",
          "type": "uint256"
        }
      ],
      "name": "Transfer",
      "type": "event"
    },
    {
      "anonymous": false,
      "inputs": [
        {
          "indexed": false,
          "internalType": "address",
          "name": "account",
          "type": "address"
        }
      ],
      "name": "Unpaused",
      "type": "event"
    },
    {
      "anonymous": false,
      "inputs": [
        {
          "indexed": true,
          "internalType": "address",
          "name": "withdrawer",
          "type": "address"
        },
        {
          "indexed": false,
          "internalType": "uint256",
          "name": "tokenAmount",
          "type": "uint256"
        },
        {
          "indexed": false,
          "internalType": "uint256",
          "name": "lpShares",
          "type": "uint256"
        }
      ],
      "name": "Withdrawn",
      "type": "event"
    },
    {
      "inputs": [],
      "name": "DEFAULT_ADMIN_ROLE",
      "outputs": [
        {
          "internalType": "bytes32",
          "name": "",
          "type": "bytes32"
        }
      ],
      "stateMutability": "view",
      "type": "function"
    },
    {
      "inputs": [],
      "name": "OPERATOR_ROLE",
      "outputs": [
        {
          "internalType": "bytes32",
          "name": "",
          "type": "bytes32"
        }
      ],
      "stateMutability": "view",
      "type": "function"
    },
    {
      "inputs": [],
      "name": "SG_SLIPPAGE_DIVIDER",
      "outputs": [
        {
          "internalType": "uint256",
          "name": "",
          "type": "uint256"
        }
      ],
      "stateMutability": "view",
      "type": "function"
    },
    {
      "inputs": [],
      "name": "USDT_TOKEN_ID",
      "outputs": [
        {
          "internalType": "uint8",
          "name": "",
          "type": "uint8"
        }
      ],
      "stateMutability": "view",
      "type": "function"
    },
    {
      "inputs": [
        {
          "internalType": "address",
          "name": "owner",
          "type": "address"
        },
        {
          "internalType": "address",
          "name": "spender",
          "type": "address"
        }
      ],
      "name": "allowance",
      "outputs": [
        {
          "internalType": "uint256",
          "name": "",
          "type": "uint256"
        }
      ],
      "stateMutability": "view",
      "type": "function"
    },
    {
      "inputs": [
        {
          "internalType": "address",
          "name": "spender",
          "type": "address"
        },
        {
          "internalType": "uint256",
          "name": "amount",
          "type": "uint256"
        }
      ],
      "name": "approve",
      "outputs": [
        {
          "internalType": "bool",
          "name": "",
          "type": "bool"
        }
      ],
      "stateMutability": "nonpayable",
      "type": "function"
    },
    {
      "inputs": [
        {
          "internalType": "address",
          "name": "account",
          "type": "address"
        }
      ],
      "name": "balanceOf",
      "outputs": [
        {
          "internalType": "uint256",
          "name": "",
          "type": "uint256"
        }
      ],
      "stateMutability": "view",
      "type": "function"
    },
    {
      "inputs": [
        {
          "internalType": "uint256",
          "name": "_value",
          "type": "uint256"
        },
        {
          "internalType": "uint8",
          "name": "_decimalsFrom",
          "type": "uint8"
        },
        {
          "internalType": "uint8",
          "name": "_decimalsTo",
          "type": "uint8"
        }
      ],
      "name": "convertDecimals",
      "outputs": [
        {
          "internalType": "uint256",
          "name": "",
          "type": "uint256"
        }
      ],
      "stateMutability": "view",
      "type": "function"
    },
    {
      "inputs": [
        {
          "internalType": "uint256",
          "name": "_value",
          "type": "uint256"
        },
        {
          "internalType": "uint8",
          "name": "_decimalsFrom",
          "type": "uint8"
        },
        {
          "internalType": "uint8",
          "name": "_decimalsTo",
          "type": "uint8"
        }
      ],
      "name": "convertDownDecimals",
      "outputs": [
        {
          "internalType": "uint256",
          "name": "",
          "type": "uint256"
        }
      ],
      "stateMutability": "pure",
      "type": "function"
    },
    {
      "inputs": [
        {
          "internalType": "uint256",
          "name": "_value",
          "type": "uint256"
        },
        {
          "internalType": "uint8",
          "name": "_decimalsFrom",
          "type": "uint8"
        },
        {
          "internalType": "uint8",
          "name": "_decimalsTo",
          "type": "uint8"
        }
      ],
      "name": "convertUpDecimals",
      "outputs": [
        {
          "internalType": "uint256",
          "name": "",
          "type": "uint256"
        }
      ],
      "stateMutability": "pure",
      "type": "function"
    },
    {
      "inputs": [],
      "name": "crossDepositGas",
      "outputs": [
        {
          "internalType": "uint256",
          "name": "",
          "type": "uint256"
        }
      ],
      "stateMutability": "view",
      "type": "function"
    },
    {
      "inputs": [],
      "name": "crossProvisionGas",
      "outputs": [
        {
          "internalType": "uint256",
          "name": "",
          "type": "uint256"
        }
      ],
      "stateMutability": "view",
      "type": "function"
    },
    {
      "inputs": [],
      "name": "crossWithdrawalGas",
      "outputs": [
        {
          "internalType": "uint256",
          "name": "",
          "type": "uint256"
        }
      ],
      "stateMutability": "view",
      "type": "function"
    },
    {
      "inputs": [],
      "name": "currentCrossDeposit",
      "outputs": [
        {
          "internalType": "uint256",
          "name": "id",
          "type": "uint256"
        },
        {
          "internalType": "uint256",
          "name": "totalTokenAmount",
          "type": "uint256"
        },
        {
          "internalType": "uint256",
          "name": "totalLpShares",
          "type": "uint256"
        }
      ],
      "stateMutability": "view",
      "type": "function"
    },
    {
      "inputs": [],
      "name": "currentCrossWithdrawal",
      "outputs": [
        {
          "internalType": "uint256",
          "name": "id",
          "type": "uint256"
        },
        {
          "internalType": "uint256",
          "name": "totalLpShares",
          "type": "uint256"
        },
        {
          "internalType": "uint256",
          "name": "totalTokenAmount",
          "type": "uint256"
        }
      ],
      "stateMutability": "view",
      "type": "function"
    },
    {
      "inputs": [],
      "name": "decimals",
      "outputs": [
        {
          "internalType": "uint8",
          "name": "",
          "type": "uint8"
        }
      ],
      "stateMutability": "view",
      "type": "function"
    },
    {
      "inputs": [
        {
          "internalType": "address",
          "name": "spender",
          "type": "address"
        },
        {
          "internalType": "uint256",
          "name": "subtractedValue",
          "type": "uint256"
        }
      ],
      "name": "decreaseAllowance",
      "outputs": [
        {
          "internalType": "bool",
          "name": "",
          "type": "bool"
        }
      ],
      "stateMutability": "nonpayable",
      "type": "function"
    },
    {
      "inputs": [
        {
          "internalType": "uint256",
          "name": "amount",
          "type": "uint256"
        }
      ],
      "name": "delegateDeposit",
      "outputs": [],
      "stateMutability": "nonpayable",
      "type": "function"
    },
    {
      "inputs": [
        {
          "internalType": "address",
          "name": "beneficiary",
          "type": "address"
        },
        {
          "internalType": "uint256",
          "name": "amount",
          "type": "uint256"
        }
      ],
      "name": "delegateDepositFor",
      "outputs": [],
      "stateMutability": "nonpayable",
      "type": "function"
    },
    {
      "inputs": [
        {
          "internalType": "uint256",
          "name": "lpShares",
          "type": "uint256"
        }
      ],
      "name": "delegateWithdrawal",
      "outputs": [],
      "stateMutability": "nonpayable",
      "type": "function"
    },
    {
      "inputs": [],
      "name": "finalizeCrossDeposit",
      "outputs": [],
      "stateMutability": "nonpayable",
      "type": "function"
    },
    {
      "inputs": [],
      "name": "finalizeCrossWithdrawal",
      "outputs": [],
      "stateMutability": "nonpayable",
      "type": "function"
    },
    {
      "inputs": [
        {
          "internalType": "uint16",
          "name": "_srcChainId",
          "type": "uint16"
        },
        {
          "internalType": "bytes",
          "name": "_srcAddress",
          "type": "bytes"
        }
      ],
      "name": "forceResumeReceive",
      "outputs": [],
      "stateMutability": "nonpayable",
      "type": "function"
    },
    {
      "inputs": [],
      "name": "forwarderAddress",
      "outputs": [
        {
          "internalType": "address",
          "name": "",
          "type": "address"
        }
      ],
      "stateMutability": "view",
      "type": "function"
    },
    {
      "inputs": [],
      "name": "forwarderChainId",
      "outputs": [
        {
          "internalType": "uint16",
          "name": "",
          "type": "uint16"
        }
      ],
      "stateMutability": "view",
      "type": "function"
    },
    {
      "inputs": [],
      "name": "forwarderTokenPoolId",
      "outputs": [
        {
          "internalType": "uint256",
          "name": "",
          "type": "uint256"
        }
      ],
      "stateMutability": "view",
      "type": "function"
    },
    {
      "inputs": [
        {
          "internalType": "uint16",
          "name": "_version",
          "type": "uint16"
        },
        {
          "internalType": "uint16",
          "name": "_chainId",
          "type": "uint16"
        },
        {
          "internalType": "address",
          "name": "",
          "type": "address"
        },
        {
          "internalType": "uint256",
          "name": "_configType",
          "type": "uint256"
        }
      ],
      "name": "getConfig",
      "outputs": [
        {
          "internalType": "bytes",
          "name": "",
          "type": "bytes"
        }
      ],
      "stateMutability": "view",
      "type": "function"
    },
    {
      "inputs": [
        {
          "internalType": "bytes32",
          "name": "role",
          "type": "bytes32"
        }
      ],
      "name": "getRoleAdmin",
      "outputs": [
        {
          "internalType": "bytes32",
          "name": "",
          "type": "bytes32"
        }
      ],
      "stateMutability": "view",
      "type": "function"
    },
    {
      "inputs": [
        {
          "internalType": "bytes32",
          "name": "role",
          "type": "bytes32"
        },
        {
          "internalType": "address",
          "name": "account",
          "type": "address"
        }
      ],
      "name": "grantRole",
      "outputs": [],
      "stateMutability": "nonpayable",
      "type": "function"
    },
    {
      "inputs": [
        {
          "internalType": "bytes32",
          "name": "role",
          "type": "bytes32"
        },
        {
          "internalType": "address",
          "name": "account",
          "type": "address"
        }
      ],
      "name": "hasRole",
      "outputs": [
        {
          "internalType": "bool",
          "name": "",
          "type": "bool"
        }
      ],
      "stateMutability": "view",
      "type": "function"
    },
    {
      "inputs": [
        {
          "internalType": "address",
          "name": "spender",
          "type": "address"
        },
        {
          "internalType": "uint256",
          "name": "addedValue",
          "type": "uint256"
        }
      ],
      "name": "increaseAllowance",
      "outputs": [
        {
          "internalType": "bool",
          "name": "",
          "type": "bool"
        }
      ],
      "stateMutability": "nonpayable",
      "type": "function"
    },
    {
      "inputs": [
        {
          "internalType": "uint16",
          "name": "_srcChainId",
          "type": "uint16"
        },
        {
          "internalType": "bytes",
          "name": "_srcAddress",
          "type": "bytes"
        }
      ],
      "name": "isTrustedRemote",
      "outputs": [
        {
          "internalType": "bool",
          "name": "",
          "type": "bool"
        }
      ],
      "stateMutability": "view",
      "type": "function"
    },
    {
      "inputs": [],
      "name": "lzEndpoint",
      "outputs": [
        {
          "internalType": "contract ILayerZeroEndpoint",
          "name": "",
          "type": "address"
        }
      ],
      "stateMutability": "view",
      "type": "function"
    },
    {
      "inputs": [
        {
          "internalType": "uint16",
          "name": "_srcChainId",
          "type": "uint16"
        },
        {
          "internalType": "bytes",
          "name": "_srcAddress",
          "type": "bytes"
        },
        {
          "internalType": "uint64",
          "name": "_nonce",
          "type": "uint64"
        },
        {
          "internalType": "bytes",
          "name": "_payload",
          "type": "bytes"
        }
      ],
      "name": "lzReceive",
      "outputs": [],
      "stateMutability": "nonpayable",
      "type": "function"
    },
    {
      "inputs": [],
      "name": "name",
      "outputs": [
        {
          "internalType": "string",
          "name": "",
          "type": "string"
        }
      ],
      "stateMutability": "view",
      "type": "function"
    },
    {
      "inputs": [],
      "name": "pause",
      "outputs": [],
      "stateMutability": "nonpayable",
      "type": "function"
    },
    {
      "inputs": [],
      "name": "paused",
      "outputs": [
        {
          "internalType": "bool",
          "name": "",
          "type": "bool"
        }
      ],
      "stateMutability": "view",
      "type": "function"
    },
    {
      "inputs": [
        {
          "internalType": "address",
          "name": "user",
          "type": "address"
        }
      ],
      "name": "pendingDeposits",
      "outputs": [
        {
          "internalType": "uint256",
          "name": "",
          "type": "uint256"
        }
      ],
      "stateMutability": "view",
      "type": "function"
    },
    {
      "inputs": [
        {
          "internalType": "address",
          "name": "user",
          "type": "address"
        }
      ],
      "name": "pendingWithdrawals",
      "outputs": [
        {
          "internalType": "uint256",
          "name": "",
          "type": "uint256"
        }
      ],
      "stateMutability": "view",
      "type": "function"
    },
    {
      "inputs": [],
      "name": "removePendingDeposit",
      "outputs": [],
      "stateMutability": "nonpayable",
      "type": "function"
    },
    {
      "inputs": [],
      "name": "removePendingWithdrawal",
      "outputs": [],
      "stateMutability": "nonpayable",
      "type": "function"
    },
    {
      "inputs": [
        {
          "internalType": "bytes32",
          "name": "role",
          "type": "bytes32"
        },
        {
          "internalType": "address",
          "name": "account",
          "type": "address"
        }
      ],
      "name": "renounceRole",
      "outputs": [],
      "stateMutability": "nonpayable",
      "type": "function"
    },
    {
      "inputs": [],
      "name": "resetCrossDeposit",
      "outputs": [],
      "stateMutability": "nonpayable",
      "type": "function"
    },
    {
      "inputs": [],
      "name": "resetCrossWithdrawal",
      "outputs": [],
      "stateMutability": "nonpayable",
      "type": "function"
    },
    {
      "inputs": [
        {
          "internalType": "bytes32",
          "name": "role",
          "type": "bytes32"
        },
        {
          "internalType": "address",
          "name": "account",
          "type": "address"
        }
      ],
      "name": "revokeRole",
      "outputs": [],
      "stateMutability": "nonpayable",
      "type": "function"
    },
    {
      "inputs": [
        {
          "internalType": "address[]",
          "name": "userList",
          "type": "address[]"
        }
      ],
      "name": "sendCrossDeposit",
      "outputs": [],
      "stateMutability": "payable",
      "type": "function"
    },
    {
      "inputs": [
        {
          "internalType": "address[]",
          "name": "userList",
          "type": "address[]"
        }
      ],
      "name": "sendCrossWithdrawal",
      "outputs": [],
      "stateMutability": "payable",
      "type": "function"
    },
    {
      "inputs": [
        {
          "internalType": "uint16",
          "name": "_version",
          "type": "uint16"
        },
        {
          "internalType": "uint16",
          "name": "_chainId",
          "type": "uint16"
        },
        {
          "internalType": "uint256",
          "name": "_configType",
          "type": "uint256"
        },
        {
          "internalType": "bytes",
          "name": "_config",
          "type": "bytes"
        }
      ],
      "name": "setConfig",
      "outputs": [],
      "stateMutability": "nonpayable",
      "type": "function"
    },
    {
      "inputs": [
        {
          "internalType": "uint16",
          "name": "_chainId",
          "type": "uint16"
        },
        {
          "internalType": "address",
          "name": "_address",
          "type": "address"
        },
        {
          "internalType": "uint256",
          "name": "_tokenPoolId",
          "type": "uint256"
        }
      ],
      "name": "setForwarderParams",
      "outputs": [],
      "stateMutability": "nonpayable",
      "type": "function"
    },
    {
      "inputs": [
        {
          "internalType": "uint256",
          "name": "_crossDepositGas",
          "type": "uint256"
        },
        {
          "internalType": "uint256",
          "name": "_crossWithdrawalGas",
          "type": "uint256"
        },
        {
          "internalType": "uint256",
          "name": "_crossProvisionGas",
          "type": "uint256"
        }
      ],
      "name": "setLayerZeroMessagesGas",
      "outputs": [],
      "stateMutability": "nonpayable",
      "type": "function"
    },
    {
      "inputs": [
        {
          "internalType": "uint16",
          "name": "_version",
          "type": "uint16"
        }
      ],
      "name": "setReceiveVersion",
      "outputs": [],
      "stateMutability": "nonpayable",
      "type": "function"
    },
    {
      "inputs": [
        {
          "internalType": "uint16",
          "name": "_version",
          "type": "uint16"
        }
      ],
      "name": "setSendVersion",
      "outputs": [],
      "stateMutability": "nonpayable",
      "type": "function"
    },
    {
      "inputs": [
        {
          "internalType": "uint16",
          "name": "_slippage",
          "type": "uint16"
        }
      ],
      "name": "setStargateSlippage",
      "outputs": [],
      "stateMutability": "nonpayable",
      "type": "function"
    },
    {
      "inputs": [
        {
          "internalType": "uint16",
          "name": "_srcChainId",
          "type": "uint16"
        },
        {
          "internalType": "bytes",
          "name": "_srcAddress",
          "type": "bytes"
        }
      ],
      "name": "setTrustedRemote",
      "outputs": [],
      "stateMutability": "nonpayable",
      "type": "function"
    },
    {
      "inputs": [
        {
          "internalType": "address",
          "name": "_zrePaymentAddress",
          "type": "address"
        }
      ],
      "name": "setZrePaymentAddress",
      "outputs": [],
      "stateMutability": "nonpayable",
      "type": "function"
    },
    {
      "inputs": [
        {
          "internalType": "uint16",
          "name": "_srcChainId",
          "type": "uint16"
        },
        {
          "internalType": "bytes",
          "name": "_srcAddress",
          "type": "bytes"
        },
        {
          "internalType": "uint256",
          "name": "_nonce",
          "type": "uint256"
        },
        {
          "internalType": "address",
          "name": "_token",
          "type": "address"
        },
        {
          "internalType": "uint256",
          "name": "_amountLD",
          "type": "uint256"
        },
        {
          "internalType": "bytes",
          "name": "_payload",
          "type": "bytes"
        }
      ],
      "name": "sgReceive",
      "outputs": [],
      "stateMutability": "nonpayable",
      "type": "function"
    },
    {
      "inputs": [],
      "name": "stargateRouter",
      "outputs": [
        {
          "internalType": "contract IStargateRouter",
          "name": "",
          "type": "address"
        }
      ],
      "stateMutability": "view",
      "type": "function"
    },
    {
      "inputs": [],
      "name": "stargateSlippage",
      "outputs": [
        {
          "internalType": "uint256",
          "name": "",
          "type": "uint256"
        }
      ],
      "stateMutability": "view",
      "type": "function"
    },
    {
      "inputs": [
        {
          "internalType": "bytes4",
          "name": "interfaceId",
          "type": "bytes4"
        }
      ],
      "name": "supportsInterface",
      "outputs": [
        {
          "internalType": "bool",
          "name": "",
          "type": "bool"
        }
      ],
      "stateMutability": "view",
      "type": "function"
    },
    {
      "inputs": [],
      "name": "symbol",
      "outputs": [
        {
          "internalType": "string",
          "name": "",
          "type": "string"
        }
      ],
      "stateMutability": "view",
      "type": "function"
    },
    {
      "inputs": [],
      "name": "token",
      "outputs": [
        {
          "internalType": "contract IERC20Metadata",
          "name": "",
          "type": "address"
        }
      ],
      "stateMutability": "view",
      "type": "function"
    },
    {
      "inputs": [],
      "name": "tokenPoolId",
      "outputs": [
        {
          "internalType": "uint256",
          "name": "",
          "type": "uint256"
        }
      ],
      "stateMutability": "view",
      "type": "function"
    },
    {
      "inputs": [],
      "name": "totalDepositedAmount",
      "outputs": [
        {
          "internalType": "uint256",
          "name": "",
          "type": "uint256"
        }
      ],
      "stateMutability": "view",
      "type": "function"
    },
    {
      "inputs": [],
      "name": "totalSupply",
      "outputs": [
        {
          "internalType": "uint256",
          "name": "",
          "type": "uint256"
        }
      ],
      "stateMutability": "view",
      "type": "function"
    },
    {
      "inputs": [
        {
          "internalType": "address",
          "name": "to",
          "type": "address"
        },
        {
          "internalType": "uint256",
          "name": "amount",
          "type": "uint256"
        }
      ],
      "name": "transfer",
      "outputs": [
        {
          "internalType": "bool",
          "name": "",
          "type": "bool"
        }
      ],
      "stateMutability": "nonpayable",
      "type": "function"
    },
    {
      "inputs": [
        {
          "internalType": "address",
          "name": "from",
          "type": "address"
        },
        {
          "internalType": "address",
          "name": "to",
          "type": "address"
        },
        {
          "internalType": "uint256",
          "name": "amount",
          "type": "uint256"
        }
      ],
      "name": "transferFrom",
      "outputs": [
        {
          "internalType": "bool",
          "name": "",
          "type": "bool"
        }
      ],
      "stateMutability": "nonpayable",
      "type": "function"
    },
    {
      "inputs": [
        {
          "internalType": "uint16",
          "name": "",
          "type": "uint16"
        }
      ],
      "name": "trustedRemoteLookup",
      "outputs": [
        {
          "internalType": "bytes",
          "name": "",
          "type": "bytes"
        }
      ],
      "stateMutability": "view",
      "type": "function"
    },
    {
      "inputs": [],
      "name": "unpause",
      "outputs": [],
      "stateMutability": "nonpayable",
      "type": "function"
    },
    {
      "inputs": [],
      "name": "withdrawStuckNative",
      "outputs": [],
      "stateMutability": "nonpayable",
      "type": "function"
    },
    {
      "inputs": [
        {
          "internalType": "contract IERC20Metadata",
          "name": "_token",
          "type": "address"
        }
      ],
      "name": "withdrawStuckToken",
      "outputs": [],
      "stateMutability": "nonpayable",
      "type": "function"
    },
    {
      "inputs": [],
      "name": "zrePaymentAddress",
      "outputs": [
        {
          "internalType": "address",
          "name": "",
          "type": "address"
        }
      ],
      "stateMutability": "view",
      "type": "function"
    },
    {
      "stateMutability": "payable",
      "type": "receive"
    }
  ],
  "bytecode": "0x610100604052600780546001600160a01b031916905560326009556201fbd0601955620186a0601a55619c40601b553480156200003b57600080fd5b5060405162005185380380620051858339810160408190526200005e9162000208565b8060405180604001604052806011815260200170047617465776179205a756e616d69204c5607c1b815250604051806040016040528060048152602001630475a4c560e41b8152508160039081620000b7919062000301565b506004620000c6828262000301565b50506005805460ff1916905550620000e060003362000137565b6001600160a01b0316608052620001187f97667070c54ef182b0f5858b034beac1b6f3089aa2d3188bb1e8929f4fa9b9293362000137565b506001600160a01b0392831660c05260e0919091521660a052620003cd565b62000143828262000147565b5050565b60008281526006602090815260408083206001600160a01b038516845290915290205460ff16620001435760008281526006602090815260408083206001600160a01b03851684529091529020805460ff19166001179055620001a73390565b6001600160a01b0316816001600160a01b0316837f2f8788117e7eff1d82e926ec794901d17c78024a50270940304540a733656f0d60405160405180910390a45050565b80516001600160a01b03811681146200020357600080fd5b919050565b600080600080608085870312156200021f57600080fd5b6200022a85620001eb565b9350602085015192506200024160408601620001eb565b91506200025160608601620001eb565b905092959194509250565b634e487b7160e01b600052604160045260246000fd5b600181811c908216806200028757607f821691505b602082108103620002a857634e487b7160e01b600052602260045260246000fd5b50919050565b601f821115620002fc57600081815260208120601f850160051c81016020861015620002d75750805b601f850160051c820191505b81811015620002f857828155600101620002e3565b5050505b505050565b81516001600160401b038111156200031d576200031d6200025c565b62000335816200032e845462000272565b84620002ae565b602080601f8311600181146200036d5760008415620003545750858301515b600019600386901b1c1916600185901b178555620002f8565b600085815260208120601f198616915b828110156200039e578886015182559484019460019091019084016200037d565b5085821015620003bd5787850151600019600388901b60f8161c191681555b5050505050600190811b01905550565b60805160a05160c05160e051614cf96200048c60003960008181610be701526122b1015260008181610d1e01528181611c8f01528181612227015281816123d9015281816128b801528181612a0001528181612d2401526138c20152600081816109c501528181611dd0015281816122490152612270015260008181610a2e01528181610d43015281816110820152818161112801528181611657015281816125e501528181612bd70152818161372e01526138320152614cf96000f3fe6080604052600436106104135760003560e01c806372f254a81161021e578063cbed8b9c11610123578063e9b6d599116100ab578063f202865b1161007a578063f202865b14610c74578063f3f4370314610c94578063f5b541a614610cca578063f5ecbdbc14610cec578063fc0c546a14610d0c57600080fd5b8063e9b6d59914610bd5578063eb3349b914610c09578063eb8d72b714610c3f578063ed33127414610c5f57600080fd5b8063d572b2b5116100f2578063d572b2b514610b24578063d771c67414610b44578063d79575a714610b59578063dd62ed3e14610b79578063e28586e014610bbf57600080fd5b8063cbed8b9c14610aae578063cd75b1f714610ace578063cf68427814610aee578063d547741f14610b0457600080fd5b8063a9059cbb116101a6578063b353aaa711610175578063b353aaa714610a1c578063bc377fe014610a50578063c330410014610a63578063c4883fc314610a83578063cab65c6f14610a9857600080fd5b8063a9059cbb14610993578063a9e56f3c146109b3578063ab8236f3146109e7578063b314cfd514610a0757600080fd5b806391d14854116101ed57806391d148541461091457806395d89b4114610934578063a217fddf14610949578063a2ab15a41461095e578063a457c2d71461097357600080fd5b806372f254a8146108a05780637533d788146108bf5780638456cb59146108df5780638d3f2cb8146108f457600080fd5b80633413f1c11161032457806342d65a8d116102ac5780635c975abb1161027b5780635c975abb146107f25780635dc771231461080a57806363aa04a01461082a5780636ae649051461084a57806370a082311461086a57600080fd5b806342d65a8d14610794578063431082ca146107b4578063487ff879146107ca5780634b6d0095146107df57600080fd5b80633d8b38f6116102f35780633d8b38f6146106e25780633e685e32146107025780633ec3be50146107305780633f4ba83a1461076a578063410b664e1461077f57600080fd5b80633413f1c11461066c57806335247a231461068257806336568abe146106a257806339509351146106c257600080fd5b80631688fa45116103a757806323b872dd1161037657806323b872dd146105c5578063248a9ca3146105e55780632e73e578146106155780632f2ff15d1461062a578063313ce5671461064a57600080fd5b80631688fa451461053c578063172958941461055c578063174ab8891461057257806318160ddd146105b057600080fd5b806307e0db17116103e357806307e0db17146104b8578063095ea7b3146104d857806310ddb137146104f8578063151363961461051857600080fd5b80621d35671461041f57806301ffc9a714610441578063068acf6c1461047657806306fdde031461049657600080fd5b3661041a57005b600080fd5b34801561042b57600080fd5b5061043f61043a366004613f6e565b610d40565b005b34801561044d57600080fd5b5061046161045c366004614007565b610efc565b60405190151581526020015b60405180910390f35b34801561048257600080fd5b5061043f610491366004614046565b610f33565b3480156104a257600080fd5b506104ab610fcb565b60405161046d91906140bb565b3480156104c457600080fd5b5061043f6104d33660046140ce565b61105d565b3480156104e457600080fd5b506104616104f33660046140e9565b6110eb565b34801561050457600080fd5b5061043f6105133660046140ce565b611103565b34801561052457600080fd5b5061052e60195481565b60405190815260200161046d565b34801561054857600080fd5b5061052e610557366004614124565b61115f565b34801561056857600080fd5b5061052e600c5481565b34801561057e57600080fd5b50600a54610598906201000090046001600160a01b031681565b6040516001600160a01b03909116815260200161046d565b3480156105bc57600080fd5b5060025461052e565b3480156105d157600080fd5b506104616105e0366004614166565b6111cb565b3480156105f157600080fd5b5061052e6106003660046141a7565b60009081526006602052604090206001015490565b34801561062157600080fd5b5061043f6111ef565b34801561063657600080fd5b5061043f6106453660046141c0565b611267565b34801561065657600080fd5b5060125b60405160ff909116815260200161046d565b34801561067857600080fd5b5061052e60095481565b34801561068e57600080fd5b5061043f61069d366004614046565b61128d565b3480156106ae57600080fd5b5061043f6106bd3660046141c0565b6112ef565b3480156106ce57600080fd5b506104616106dd3660046140e9565b61136d565b3480156106ee57600080fd5b506104616106fd3660046141f0565b6113ac565b34801561070e57600080fd5b50600a5461071d9061ffff1681565b60405161ffff909116815260200161046d565b34801561073c57600080fd5b5060125460135460165461074f92919083565b6040805193845260208401929092529082015260600161046d565b34801561077657600080fd5b5061043f611478565b34801561078b57600080fd5b5061043f61148f565b3480156107a057600080fd5b5061043f6107af3660046141f0565b611634565b3480156107c057600080fd5b5061052e601a5481565b3480156107d657600080fd5b5061043f6116c8565b61043f6107ed366004614288565b611725565b3480156107fe57600080fd5b5060055460ff16610461565b34801561081657600080fd5b5061043f6108253660046140e9565b611aa0565b34801561083657600080fd5b5061043f610845366004614339565b611ace565b34801561085657600080fd5b5061052e610865366004614124565b611b31565b34801561087657600080fd5b5061052e610885366004614046565b6001600160a01b031660009081526020819052604090205490565b3480156108ac57600080fd5b50600d54600e5460115461074f92919083565b3480156108cb57600080fd5b506104ab6108da3660046140ce565b611b72565b3480156108eb57600080fd5b5061043f611c0c565b34801561090057600080fd5b50600754610598906001600160a01b031681565b34801561092057600080fd5b5061046161092f3660046141c0565b611c20565b34801561094057600080fd5b506104ab611c4b565b34801561095557600080fd5b5061052e600081565b34801561096a57600080fd5b5061043f611c5a565b34801561097f57600080fd5b5061046161098e3660046140e9565b611d2d565b34801561099f57600080fd5b506104616109ae3660046140e9565b611dbf565b3480156109bf57600080fd5b506105987f000000000000000000000000000000000000000000000000000000000000000081565b3480156109f357600080fd5b5061043f610a023660046143e2565b611dcd565b348015610a1357600080fd5b5061043f611ef2565b348015610a2857600080fd5b506105987f000000000000000000000000000000000000000000000000000000000000000081565b61043f610a5e366004614288565b611f32565b348015610a6f57600080fd5b5061052e610a7e366004614124565b6124e1565b348015610a8f57600080fd5b5061043f612543565b348015610aa457600080fd5b5061052e61271081565b348015610aba57600080fd5b5061043f610ac936600461447c565b6125c2565b348015610ada57600080fd5b5061043f610ae93660046140ce565b61265c565b348015610afa57600080fd5b5061052e600b5481565b348015610b1057600080fd5b5061043f610b1f3660046141c0565b6126f8565b348015610b3057600080fd5b5061043f610b3f3660046144ea565b61271e565b348015610b5057600080fd5b5061065a600281565b348015610b6557600080fd5b5061043f610b743660046141a7565b61279d565b348015610b8557600080fd5b5061052e610b94366004614508565b6001600160a01b03918216600090815260016020908152604080832093909416825291909152205490565b348015610bcb57600080fd5b5061052e601b5481565b348015610be157600080fd5b5061052e7f000000000000000000000000000000000000000000000000000000000000000081565b348015610c1557600080fd5b5061052e610c24366004614046565b6001600160a01b031660009081526017602052604090205490565b348015610c4b57600080fd5b5061043f610c5a3660046141f0565b6127cb565b348015610c6b57600080fd5b5061043f612829565b348015610c8057600080fd5b5061043f610c8f3660046141a7565b612ab6565b348015610ca057600080fd5b5061052e610caf366004614046565b6001600160a01b031660009081526018602052604090205490565b348015610cd657600080fd5b5061052e600080516020614ca483398151915281565b348015610cf857600080fd5b506104ab610d07366004614536565b612ba6565b348015610d1857600080fd5b506105987f000000000000000000000000000000000000000000000000000000000000000081565b337f00000000000000000000000000000000000000000000000000000000000000006001600160a01b031614610dbd5760405162461bcd60e51b815260206004820152601e60248201527f4c7a4170703a20696e76616c696420656e64706f696e742063616c6c6572000060448201526064015b60405180910390fd5b61ffff861660009081526008602052604081208054610ddb90614583565b80601f0160208091040260200160405190810160405280929190818152602001828054610e0790614583565b8015610e545780601f10610e2957610100808354040283529160200191610e54565b820191906000526020600020905b815481529060010190602001808311610e3757829003601f168201915b50505050509050805186869050148015610e8a575080516020820120604051610e8090889088906145bd565b6040518091039020145b610ee55760405162461bcd60e51b815260206004820152602660248201527f4c7a4170703a20696e76616c696420736f757263652073656e64696e6720636f6044820152651b9d1c9858dd60d21b6064820152608401610db4565b610ef3878787878787612c57565b50505050505050565b60006001600160e01b03198216637965db0b60e01b1480610f2d57506301ffc9a760e01b6001600160e01b03198316145b92915050565b6000610f3f8133612dea565b6040516370a0823160e01b81523060048201526000906001600160a01b038416906370a0823190602401602060405180830381865afa158015610f86573d6000803e3d6000fd5b505050506040513d601f19601f82011682018060405250810190610faa91906145cd565b90508015610fc657610fc66001600160a01b0384163383612e4e565b505050565b606060038054610fda90614583565b80601f016020809104026020016040519081016040528092919081815260200182805461100690614583565b80156110535780601f1061102857610100808354040283529160200191611053565b820191906000526020600020905b81548152906001019060200180831161103657829003601f168201915b5050505050905090565b60006110698133612dea565b6040516307e0db1760e01b815261ffff831660048201527f00000000000000000000000000000000000000000000000000000000000000006001600160a01b0316906307e0db17906024015b600060405180830381600087803b1580156110cf57600080fd5b505af11580156110e3573d6000803e3d6000fd5b505050505050565b6000336110f9818585612eb1565b5060019392505050565b600061110f8133612dea565b6040516310ddb13760e01b815261ffff831660048201527f00000000000000000000000000000000000000000000000000000000000000006001600160a01b0316906310ddb137906024016110b5565b60008160ff168360ff1611156111a25760405162461bcd60e51b8152602060048201526008602482015267424144444543494d60c01b6044820152606401610db4565b6111ac83836145fc565b6111b790600a614703565b6111c19085614712565b90505b9392505050565b6000336111d9858285612fd5565b6111e4858585613067565b506001949350505050565b60006111fb8133612dea565b6012546013546040519081527fc1834b7b8e63b3b0f178f6db5029a0b263538f97efd46f23593db4b1d08b76cb9060200160405180910390a26000601281815560138290559061124c601482613e3c565b61125a600383016000613e3c565b6004820160009055505050565b6000828152600660205260409020600101546112838133612dea565b610fc68383613235565b60006112998133612dea565b600780546001600160a01b0319166001600160a01b0384169081179091556040519081527fa2b1df3328f43edff1744e2cba02afe78a7f8725dcacf9e8331a3ffa4ff4ab56906020015b60405180910390a15050565b6001600160a01b038116331461135f5760405162461bcd60e51b815260206004820152602f60248201527f416363657373436f6e74726f6c3a2063616e206f6e6c792072656e6f756e636560448201526e103937b632b9903337b91039b2b63360891b6064820152608401610db4565b61136982826132bb565b5050565b3360008181526001602090815260408083206001600160a01b03871684529091528120549091906110f990829086906113a7908790614731565b612eb1565b61ffff8316600090815260086020526040812080548291906113cd90614583565b80601f01602080910402602001604051908101604052809291908181526020018280546113f990614583565b80156114465780601f1061141b57610100808354040283529160200191611446565b820191906000526020600020905b81548152906001019060200180831161142957829003601f168201915b50505050509050838360405161145d9291906145bd565b60405180910390208180519060200120149150509392505050565b60006114848133612dea565b61148c613322565b50565b600080516020614ca48339815191526114a88133612dea565b600d546000036114fa5760405162461bcd60e51b815260206004820152601d60248201527f476174657761793a206465706f73697420776173206e6f742073656e740000006044820152606401610db4565b60115460000361151c5760405162461bcd60e51b8152600401610db490614749565b60005b600f5481101561161b576000600d60030182815481106115415761154161478a565b6000918252602082200154600e5460115491935090611561908490614712565b61156b91906147a0565b90506115a1600d60020184815481106115865761158661478a565b6000918252602090912001546001600160a01b0316826133b5565b600f8054849081106115b5576115b561478a565b60009182526020918290200154604080518581529283018490526001600160a01b03909116917f73a19dd210f1a7f902193214c0ee91dd35ee5b4d920cba8d519eca65a7b488ca910160405180910390a250508080611613906147c2565b91505061151f565b506000600d818155600e8290559061124c600f82613e3c565b60006116408133612dea565b6040516342d65a8d60e01b81526001600160a01b037f000000000000000000000000000000000000000000000000000000000000000016906342d65a8d9061169090879087908790600401614804565b600060405180830381600087803b1580156116aa57600080fd5b505af11580156116be573d6000803e3d6000fd5b5050505050505050565b60006116d48133612dea565b600d54600e546040519081527f465eb03889085ca8d09f8273b70606e977604c53922b48797046c5553b78f2409060200160405180910390a26000600d818155600e8290559061124c600f82613e3c565b600080516020614ca483398151915261173e8133612dea565b600082511161178a5760405162461bcd60e51b815260206004820152601860248201527711d85d195dd85e4e88195b5c1d1e481d5cd95c881b1a5cdd60421b6044820152606401610db4565b601254156117e95760405162461bcd60e51b815260206004820152602660248201527f476174657761793a206f6e6c79206f6e65207769746864726177616c20617661604482015265696c61626c6560d01b6064820152608401610db4565b600d54156118475760405162461bcd60e51b815260206004820152602560248201527f476174657761793a206e6f206465706f73697420647572696e672077697468646044820152641c985dd85b60da1b6064820152608401610db4565b600043905060008084516001600160401b0381111561186857611868614242565b604051908082528060200260200182016040528015611891578160200160208202803683370190505b50905060005b855181101561199e5760008682815181106118b4576118b461478a565b60200260200101519050600060186000836001600160a01b03166001600160a01b03168152602001908152602001600020549050600081116119475760405162461bcd60e51b815260206004820152602660248201527f476174657761793a2077726f6e67207769746864726177616c20746f6b656e20604482015265185b5bdd5b9d60d21b6064820152608401610db4565b8084848151811061195a5761195a61478a565b602090810291909101015261196f8186614731565b6001600160a01b0390921660009081526018602052604081205550925080611996816147c2565b915050611897565b506119a93083613494565b6040805160a08101825284815260208082018590529181018790526060810183905260006080820152601285815560138590558751919290916119f291601491908a0190613e5a565b5060608201518051611a0e916003840191602090910190613ebf565b506080918201516004909101556040805160016020820152808201869052606081018590526012818401528151808203909301835260a0019052600a54601a54611a5e9161ffff169083906135e2565b837fca93029d8b85756be63378bbe39f4c5d787000dd5045194ffa315f85abaffe8184604051611a9091815260200190565b60405180910390a2505050505050565b60055460ff1615611ac35760405162461bcd60e51b8152600401610db490614822565b6113693383836138af565b6000611ada8133612dea565b6019849055601b829055601a83905560408051858152602081018590529081018390527fad238535834c6cee6606795be03482696947f8ced05fac1719337396cb988803906060015b60405180910390a150505050565b60008160ff168360ff1603611b475750826111c4565b8160ff168360ff161115611b6757611b608484846124e1565b90506111c4565b6111c184848461115f565b60086020526000908152604090208054611b8b90614583565b80601f0160208091040260200160405190810160405280929190818152602001828054611bb790614583565b8015611c045780601f10611bd957610100808354040283529160200191611c04565b820191906000526020600020905b815481529060010190602001808311611be757829003601f168201915b505050505081565b6000611c188133612dea565b61148c613979565b60009182526006602090815260408084206001600160a01b0393909316845291905290205460ff1690565b606060048054610fda90614583565b3360008181526017602052604090205415611ce9576001600160a01b03808216600090815260176020526040902054611cb7917f000000000000000000000000000000000000000000000000000000000000000016908390612e4e565b6001600160a01b038116600090815260176020526040812054600c805491929091611ce390849061484c565b90915550505b6001600160a01b038116600081815260176020526040808220829055517f8e6791922f0af048953266d35003db7f19a7c0c3e762206073924390ed2e44a19190a250565b3360008181526001602090815260408083206001600160a01b038716845290915281205490919083811015611db25760405162461bcd60e51b815260206004820152602560248201527f45524332303a2064656372656173656420616c6c6f77616e63652062656c6f77604482015264207a65726f60d81b6064820152608401610db4565b6111e48286868403612eb1565b6000336110f9818585613067565b337f00000000000000000000000000000000000000000000000000000000000000006001600160a01b031614611e5f5760405162461bcd60e51b815260206004820152603160248201527f476174657761793a206f6e6c7920737461726761746520726f757465722063616044820152706e2063616c6c207367526563656976652160781b6064820152608401610db4565b600a5461ffff878116911614611eb75760405162461bcd60e51b815260206004820152601e60248201527f476174657761793a2077726f6e6720736f7572636520636861696e20696400006044820152606401610db4565b6040518281527ffe49bb21bfe67c5c94557d35aa51d9809bc9d095559eba193c0121064b645f019060200160405180910390a1505050505050565b6000611efe8133612dea565b47801561136957604051339082156108fc029083906000818181858888f19350505050158015610fc6573d6000803e3d6000fd5b600080516020614ca4833981519152611f4b8133612dea565b6000825111611f975760405162461bcd60e51b815260206004820152601860248201527711d85d195dd85e4e88195b5c1d1e481d5cd95c881b1a5cdd60421b6044820152606401610db4565b600d5415611ff35760405162461bcd60e51b815260206004820152602360248201527f476174657761793a206f6e6c79206f6e65206465706f73697420617661696c61604482015262626c6560e81b6064820152608401610db4565b601254156120515760405162461bcd60e51b815260206004820152602560248201527f476174657761793a206e6f207769746864726177616c20647572696e672064656044820152641c1bdcda5d60da1b6064820152608401610db4565b600043905060008084516001600160401b0381111561207257612072614242565b60405190808252806020026020018201604052801561209b578160200160208202803683370190505b50905060005b85518110156121a65760008682815181106120be576120be61478a565b60200260200101519050600060176000836001600160a01b03166001600160a01b03168152602001908152602001600020549050808484815181106121055761210561478a565b6020026020010181815250506000811161216d5760405162461bcd60e51b815260206004820152602360248201527f476174657761793a2077726f6e67206465706f73697420746f6b656e20616d6f6044820152621d5b9d60ea1b6064820152608401610db4565b6121778186614731565b6001600160a01b039092166000908152601760205260408120555092508061219e816147c2565b9150506120a1565b506040805160a08101825284815260208082018590529181018790526060810183905260006080820152600d858155600e8590558751919290916121f091600f91908a0190613e5a565b506060820151805161220c916003840191602090910190613ebf565b506080919091015160049091015561226e6001600160a01b037f0000000000000000000000000000000000000000000000000000000000000000167f0000000000000000000000000000000000000000000000000000000000000000846139d1565b7f00000000000000000000000000000000000000000000000000000000000000006001600160a01b0316639fbf10fc47600a60009054906101000a900461ffff167f0000000000000000000000000000000000000000000000000000000000000000600b5430886127106009546127106122e8919061484c565b6122f2908c614712565b6122fc91906147a0565b6040805160608082018352601b5482526000602080840191909152835180850185526002815261060f60f31b8183015283850152600a5493516201000090940490911b6bffffffffffffffffffffffff191690830152906034016040516020818303038152906040526040518a63ffffffff1660e01b8152600401612388989796959493929190614863565b6000604051808303818588803b1580156123a157600080fd5b505af11580156123b5573d6000803e3d6000fd5b505050505081600c60008282546123cc919061484c565b90915550600090508084847f00000000000000000000000000000000000000000000000000000000000000006001600160a01b031663313ce5676040518163ffffffff1660e01b8152600401602060405180830381865afa158015612435573d6000803e3d6000fd5b505050506040513d601f19601f8201168201806040525081019061245991906148fe565b6040805160ff9586166020820152908101939093526060830191909152909116608082015260a00160405160208183030381529060405290506124af600a60009054906101000a900461ffff16826019546135e2565b837f249b5b40f3ee110998261a31938a3f3cde15c67ea4b4e49e0e65396b1b699a5f84604051611a9091815260200190565b60008160ff168360ff1610156125245760405162461bcd60e51b8152602060048201526008602482015267424144444543494d60c01b6044820152606401610db4565b61252e82846145fc565b61253990600a614703565b6111c190856147a0565b336000818152601860205260409020541561257e576001600160a01b03811660009081526018602052604090205461257e9030908390612e4e565b6001600160a01b038116600081815260186020526040808220829055517fd26c0705ec1b540c110fcc4cba0e7c0608b7e17a1bb09af3ae5876f361829d7a9190a250565b60006125ce8133612dea565b6040516332fb62e760e21b81526001600160a01b037f0000000000000000000000000000000000000000000000000000000000000000169063cbed8b9c90612622908990899089908990899060040161491b565b600060405180830381600087803b15801561263c57600080fd5b505af1158015612650573d6000803e3d6000fd5b50505050505050505050565b60006126688133612dea565b6127108261ffff1611156126be5760405162461bcd60e51b815260206004820181905260248201527f476174657761793a2077726f6e6720737461726761746520736c6970706167656044820152606401610db4565b61ffff821660098190556040519081527fb5cd78aab69202b3af2c4e5171dc7dbb7dd29b301421a6cb87458308944a3ae8906020016112e3565b6000828152600660205260409020600101546127148133612dea565b610fc683836132bb565b600061272a8133612dea565b600a805461ffff86166001600160b01b03199091168117620100006001600160a01b03871690810291909117909255600b8490556040805191825260208201929092529081018390527f8760e029f8273c23323e7a43cffeacf013a8df5507d300900cb546d654c77e5890606001611b23565b60055460ff16156127c05760405162461bcd60e51b8152600401610db490614822565b61148c3333836138af565b60006127d78133612dea565b61ffff841660009081526008602052604090206127f583858361498f565b507ffa41487ad5d6728f0b19276fa1eddc16558578f5109fc39d2dc33c3230470dab848484604051611b2393929190614804565b600080516020614ca48339815191526128428133612dea565b6012546000036128945760405162461bcd60e51b815260206004820181905260248201527f476174657761793a207769746864726177616c20776173206e6f742073656e746044820152606401610db4565b600c546040516370a0823160e01b8152306004820152600091906001600160a01b037f000000000000000000000000000000000000000000000000000000000000000016906370a0823190602401602060405180830381865afa1580156128ff573d6000803e3d6000fd5b505050506040513d601f19601f8201168201806040525081019061292391906145cd565b61292d919061484c565b9050612710600954612710612942919061484c565b60165461294f9190614712565b61295991906147a0565b8110156129785760405162461bcd60e51b8152600401610db490614749565b60005b601454811015612a815760006012600301828154811061299d5761299d61478a565b906000526020600020015490506000601260020183815481106129c2576129c261478a565b60009182526020822001546013546001600160a01b0390911692506129e78487614712565b6129f191906147a0565b9050612a276001600160a01b037f0000000000000000000000000000000000000000000000000000000000000000168383612e4e565b60408051828152602081018590526001600160a01b038416917f92ccf450a286a957af52509bc1c9939d1a6a481783e142e41e2499f0bb66ebc6910160405180910390a25050508080612a79906147c2565b91505061297b565b5060006012818155601382905590612a9a601482613e3c565b612aa8600383016000613e3c565b600482016000905550505050565b60055460ff1615612ad95760405162461bcd60e51b8152600401610db490614822565b60008111612b345760405162461bcd60e51b815260206004820152602260248201527f476174657761793a206c70416d6f756e74206d75737420626520686967686572604482015261020360f41b6064820152608401610db4565b612b4030338184613a83565b3360008181526018602052604081208054849290612b5f908490614731565b90915550506040518281526001600160a01b038216907f37386f192734abb6bb6d2c7a0fbad1e3bfb00e35eec911737c17c02f9d32fb9f9060200160405180910390a25050565b604051633d7b2f6f60e21b815261ffff808616600483015284166024820152306044820152606481018290526060907f00000000000000000000000000000000000000000000000000000000000000006001600160a01b03169063f5ecbdbc90608401600060405180830381865afa158015612c26573d6000803e3d6000fd5b505050506040513d6000823e601f3d908101601f19168201604052612c4e9190810190614a4f565b95945050505050565b600a5461ffff878116911614612caf5760405162461bcd60e51b815260206004820152601e60248201527f476174657761793a2077726f6e6720736f7572636520636861696e20696400006044820152606401610db4565b6000808080612cc085870187614abc565b9296509094509250905060ff8416612d1157601182905560405182815283907f49e3baffe51e7973c17faf6e5d19baca704f4d2d94c976d35f1975aeb4972c719060200160405180910390a2612650565b60001960ff85160161265057612da482827f00000000000000000000000000000000000000000000000000000000000000006001600160a01b031663313ce5676040518163ffffffff1660e01b8152600401602060405180830381865afa158015612d80573d6000803e3d6000fd5b505050506040513d601f19601f8201168201806040525081019061086591906148fe565b601681905560405190815283907f4512adbb32f94d3ef3966e741359df426c6ea4798f439f2e86aba8511d7f355e9060200160405180910390a250505050505050505050565b612df48282611c20565b61136957612e0c816001600160a01b03166014613abb565b612e17836020613abb565b604051602001612e28929190614b06565b60408051601f198184030181529082905262461bcd60e51b8252610db4916004016140bb565b6040516001600160a01b038316602482015260448101829052610fc690849063a9059cbb60e01b906064015b60408051601f198184030181529190526020810180516001600160e01b03166001600160e01b031990931692909217909152613c56565b6001600160a01b038316612f135760405162461bcd60e51b8152602060048201526024808201527f45524332303a20617070726f76652066726f6d20746865207a65726f206164646044820152637265737360e01b6064820152608401610db4565b6001600160a01b038216612f745760405162461bcd60e51b815260206004820152602260248201527f45524332303a20617070726f766520746f20746865207a65726f206164647265604482015261737360f01b6064820152608401610db4565b6001600160a01b0383811660008181526001602090815260408083209487168084529482529182902085905590518481527f8c5be1e5ebec7d5bd14f71427d1e84f3dd0314c0f7b2291e5b200ac8c7c3b925910160405180910390a3505050565b6001600160a01b03838116600090815260016020908152604080832093861683529290522054600019811461306157818110156130545760405162461bcd60e51b815260206004820152601d60248201527f45524332303a20696e73756666696369656e7420616c6c6f77616e63650000006044820152606401610db4565b6130618484848403612eb1565b50505050565b6001600160a01b0383166130cb5760405162461bcd60e51b815260206004820152602560248201527f45524332303a207472616e736665722066726f6d20746865207a65726f206164604482015264647265737360d81b6064820152608401610db4565b6001600160a01b03821661312d5760405162461bcd60e51b815260206004820152602360248201527f45524332303a207472616e7366657220746f20746865207a65726f206164647260448201526265737360e81b6064820152608401610db4565b6001600160a01b038316600090815260208190526040902054818110156131a55760405162461bcd60e51b815260206004820152602660248201527f45524332303a207472616e7366657220616d6f756e7420657863656564732062604482015265616c616e636560d01b6064820152608401610db4565b6001600160a01b038085166000908152602081905260408082208585039055918516815290812080548492906131dc908490614731565b92505081905550826001600160a01b0316846001600160a01b03167fddf252ad1be2c89b69c2b068fc378daa952ba7f163c4a11628f55a4df523b3ef8460405161322891815260200190565b60405180910390a3613061565b61323f8282611c20565b6113695760008281526006602090815260408083206001600160a01b03851684529091529020805460ff191660011790556132773390565b6001600160a01b0316816001600160a01b0316837f2f8788117e7eff1d82e926ec794901d17c78024a50270940304540a733656f0d60405160405180910390a45050565b6132c58282611c20565b156113695760008281526006602090815260408083206001600160a01b0385168085529252808320805460ff1916905551339285917ff6391f5c32d9c69d2a47ea670b442974b53935d1edc7fd64eb21e047a839171b9190a45050565b60055460ff1661336b5760405162461bcd60e51b815260206004820152601460248201527314185d5cd8589b194e881b9bdd081c185d5cd95960621b6044820152606401610db4565b6005805460ff191690557f5db9ee0a495bf2e6ff9c91a7834c1ba4fdd244a5e8aa4e537bd38aeae4b073aa335b6040516001600160a01b03909116815260200160405180910390a1565b6001600160a01b03821661340b5760405162461bcd60e51b815260206004820152601f60248201527f45524332303a206d696e7420746f20746865207a65726f2061646472657373006044820152606401610db4565b806002600082825461341d9190614731565b90915550506001600160a01b0382166000908152602081905260408120805483929061344a908490614731565b90915550506040518181526001600160a01b038316906000907fddf252ad1be2c89b69c2b068fc378daa952ba7f163c4a11628f55a4df523b3ef9060200160405180910390a35050565b6001600160a01b0382166134f45760405162461bcd60e51b815260206004820152602160248201527f45524332303a206275726e2066726f6d20746865207a65726f206164647265736044820152607360f81b6064820152608401610db4565b6001600160a01b038216600090815260208190526040902054818110156135685760405162461bcd60e51b815260206004820152602260248201527f45524332303a206275726e20616d6f756e7420657863656564732062616c616e604482015261636560f01b6064820152608401610db4565b6001600160a01b038316600090815260208190526040812083830390556002805484929061359790849061484c565b90915550506040518281526000906001600160a01b038516907fddf252ad1be2c89b69c2b068fc378daa952ba7f163c4a11628f55a4df523b3ef9060200160405180910390a3505050565b61ffff83166000908152600860205260408120805461360090614583565b80601f016020809104026020016040519081016040528092919081815260200182805461362c90614583565b80156136795780601f1061364e57610100808354040283529160200191613679565b820191906000526020600020905b81548152906001019060200180831161365c57829003601f168201915b5050505050905080516000036136ea5760405162461bcd60e51b815260206004820152603060248201527f4c7a4170703a2064657374696e6174696f6e20636861696e206973206e6f742060448201526f61207472757374656420736f7572636560801b6064820152608401610db4565b604051600160f01b60208201526022810183905260009060420160408051601f198184030181529082905263040a7bb160e41b825291506000906001600160a01b037f000000000000000000000000000000000000000000000000000000000000000016906340a7bb109061376b90899030908a9087908990600401614b7b565b6040805180830381865afa158015613787573d6000803e3d6000fd5b505050506040513d601f19601f820116820180604052508101906137ab9190614bc3565b509050804710156138195760405162461bcd60e51b815260206004820152603260248201527f4c7a4170703a206e6f7420656e6f756768206e617469766520746f6b656e20666044820152716f722073656e64696e67206d65737361676560701b6064820152608401610db4565b60075460405162c5803160e81b81526001600160a01b037f000000000000000000000000000000000000000000000000000000000000000081169263c5803100928592613875928c928a928d9230929116908b90600401614be7565b6000604051808303818588803b15801561388e57600080fd5b505af11580156138a2573d6000803e3d6000fd5b5050505050505050505050565b8015613931576138ea6001600160a01b037f000000000000000000000000000000000000000000000000000000000000000016843084613a83565b6001600160a01b03821660009081526017602052604081208054839290613912908490614731565b9250508190555080600c600082825461392b9190614731565b90915550505b816001600160a01b03167fe5fbbd94268e59434a5d90c30d6d5f20f302ebbcc75887f60552c7cd664709738260405161396c91815260200190565b60405180910390a2505050565b60055460ff161561399c5760405162461bcd60e51b8152600401610db490614822565b6005805460ff191660011790557f62e78cea01bee320cd4e420270b5ea74000d11b0c9f74754ebdbfc544b05a2586133983390565b604051636eb1769f60e11b81523060048201526001600160a01b038381166024830152600091839186169063dd62ed3e90604401602060405180830381865afa158015613a22573d6000803e3d6000fd5b505050506040513d601f19601f82011682018060405250810190613a4691906145cd565b613a509190614731565b6040516001600160a01b03851660248201526044810182905290915061306190859063095ea7b360e01b90606401612e7a565b6040516001600160a01b03808516602483015283166044820152606481018290526130619085906323b872dd60e01b90608401612e7a565b60606000613aca836002614712565b613ad5906002614731565b6001600160401b03811115613aec57613aec614242565b6040519080825280601f01601f191660200182016040528015613b16576020820181803683370190505b509050600360fc1b81600081518110613b3157613b3161478a565b60200101906001600160f81b031916908160001a905350600f60fb1b81600181518110613b6057613b6061478a565b60200101906001600160f81b031916908160001a9053506000613b84846002614712565b613b8f906001614731565b90505b6001811115613c07576f181899199a1a9b1b9c1cb0b131b232b360811b85600f1660108110613bc357613bc361478a565b1a60f81b828281518110613bd957613bd961478a565b60200101906001600160f81b031916908160001a90535060049490941c93613c0081614c4e565b9050613b92565b5083156111c45760405162461bcd60e51b815260206004820181905260248201527f537472696e67733a20686578206c656e67746820696e73756666696369656e746044820152606401610db4565b6000613cab826040518060400160405280602081526020017f5361666545524332303a206c6f772d6c6576656c2063616c6c206661696c6564815250856001600160a01b0316613d289092919063ffffffff16565b805190915015610fc65780806020019051810190613cc99190614c65565b610fc65760405162461bcd60e51b815260206004820152602a60248201527f5361666545524332303a204552433230206f7065726174696f6e20646964206e6044820152691bdd081cdd58d8d9595960b21b6064820152608401610db4565b60606111c18484600085856001600160a01b0385163b613d8a5760405162461bcd60e51b815260206004820152601d60248201527f416464726573733a2063616c6c20746f206e6f6e2d636f6e74726163740000006044820152606401610db4565b600080866001600160a01b03168587604051613da69190614c87565b60006040518083038185875af1925050503d8060008114613de3576040519150601f19603f3d011682016040523d82523d6000602084013e613de8565b606091505b5091509150613df8828286613e03565b979650505050505050565b60608315613e125750816111c4565b825115613e225782518084602001fd5b8160405162461bcd60e51b8152600401610db491906140bb565b508054600082559060005260206000209081019061148c9190613efa565b828054828255906000526020600020908101928215613eaf579160200282015b82811115613eaf57825182546001600160a01b0319166001600160a01b03909116178255602090920191600190910190613e7a565b50613ebb929150613efa565b5090565b828054828255906000526020600020908101928215613eaf579160200282015b82811115613eaf578251825591602001919060010190613edf565b5b80821115613ebb5760008155600101613efb565b803561ffff81168114613f2157600080fd5b919050565b60008083601f840112613f3857600080fd5b5081356001600160401b03811115613f4f57600080fd5b602083019150836020828501011115613f6757600080fd5b9250929050565b60008060008060008060808789031215613f8757600080fd5b613f9087613f0f565b955060208701356001600160401b0380821115613fac57600080fd5b613fb88a838b01613f26565b9097509550604089013591508082168214613fd257600080fd5b90935060608801359080821115613fe857600080fd5b50613ff589828a01613f26565b979a9699509497509295939492505050565b60006020828403121561401957600080fd5b81356001600160e01b0319811681146111c457600080fd5b6001600160a01b038116811461148c57600080fd5b60006020828403121561405857600080fd5b81356111c481614031565b60005b8381101561407e578181015183820152602001614066565b838111156130615750506000910152565b600081518084526140a7816020860160208601614063565b601f01601f19169290920160200192915050565b6020815260006111c4602083018461408f565b6000602082840312156140e057600080fd5b6111c482613f0f565b600080604083850312156140fc57600080fd5b823561410781614031565b946020939093013593505050565b60ff8116811461148c57600080fd5b60008060006060848603121561413957600080fd5b83359250602084013561414b81614115565b9150604084013561415b81614115565b809150509250925092565b60008060006060848603121561417b57600080fd5b833561418681614031565b9250602084013561419681614031565b929592945050506040919091013590565b6000602082840312156141b957600080fd5b5035919050565b600080604083850312156141d357600080fd5b8235915060208301356141e581614031565b809150509250929050565b60008060006040848603121561420557600080fd5b61420e84613f0f565b925060208401356001600160401b0381111561422957600080fd5b61423586828701613f26565b9497909650939450505050565b634e487b7160e01b600052604160045260246000fd5b604051601f8201601f191681016001600160401b038111828210171561428057614280614242565b604052919050565b6000602080838503121561429b57600080fd5b82356001600160401b03808211156142b257600080fd5b818501915085601f8301126142c657600080fd5b8135818111156142d8576142d8614242565b8060051b91506142e9848301614258565b818152918301840191848101908884111561430357600080fd5b938501935b8385101561432d578435925061431d83614031565b8282529385019390850190614308565b98975050505050505050565b60008060006060848603121561434e57600080fd5b505081359360208301359350604090920135919050565b60006001600160401b0382111561437e5761437e614242565b50601f01601f191660200190565b600082601f83011261439d57600080fd5b81356143b06143ab82614365565b614258565b8181528460208386010111156143c557600080fd5b816020850160208301376000918101602001919091529392505050565b60008060008060008060c087890312156143fb57600080fd5b61440487613f0f565b955060208701356001600160401b038082111561442057600080fd5b61442c8a838b0161438c565b9650604089013595506060890135915061444582614031565b9093506080880135925060a0880135908082111561446257600080fd5b5061446f89828a0161438c565b9150509295509295509295565b60008060008060006080868803121561449457600080fd5b61449d86613f0f565b94506144ab60208701613f0f565b93506040860135925060608601356001600160401b038111156144cd57600080fd5b6144d988828901613f26565b969995985093965092949392505050565b6000806000606084860312156144ff57600080fd5b61418684613f0f565b6000806040838503121561451b57600080fd5b823561452681614031565b915060208301356141e581614031565b6000806000806080858703121561454c57600080fd5b61455585613f0f565b935061456360208601613f0f565b9250604085013561457381614031565b9396929550929360600135925050565b600181811c9082168061459757607f821691505b6020821081036145b757634e487b7160e01b600052602260045260246000fd5b50919050565b8183823760009101908152919050565b6000602082840312156145df57600080fd5b5051919050565b634e487b7160e01b600052601160045260246000fd5b600060ff821660ff841680821015614616576146166145e6565b90039392505050565b600181815b8085111561465a578160001904821115614640576146406145e6565b8085161561464d57918102915b93841c9390800290614624565b509250929050565b60008261467157506001610f2d565b8161467e57506000610f2d565b8160018114614694576002811461469e576146ba565b6001915050610f2d565b60ff8411156146af576146af6145e6565b50506001821b610f2d565b5060208310610133831016604e8410600b84101617156146dd575081810a610f2d565b6146e7838361461f565b80600019048211156146fb576146fb6145e6565b029392505050565b60006111c460ff841683614662565b600081600019048311821515161561472c5761472c6145e6565b500290565b60008219821115614744576147446145e6565b500190565b60208082526021908201527f476174657761793a2063616c6c6261636b207761736e277420726563656976656040820152601960fa1b606082015260800190565b634e487b7160e01b600052603260045260246000fd5b6000826147bd57634e487b7160e01b600052601260045260246000fd5b500490565b6000600182016147d4576147d46145e6565b5060010190565b81835281816020850137506000828201602090810191909152601f909101601f19169091010190565b61ffff84168152604060208201526000612c4e6040830184866147db565b60208082526010908201526f14185d5cd8589b194e881c185d5cd95960821b604082015260600190565b60008282101561485e5761485e6145e6565b500390565b600061012061ffff8b16835289602084015288604084015260018060a01b03881660608401528660808401528560a08401528060c0840152845181840152506020840151610140830152604084015160606101608401526148c861018084018261408f565b905082810360e08401526148dc818561408f565b838103610100850152600081529050602081019b9a5050505050505050505050565b60006020828403121561491057600080fd5b81516111c481614115565b600061ffff808816835280871660208401525084604083015260806060830152613df86080830184866147db565b601f821115610fc657600081815260208120601f850160051c810160208610156149705750805b601f850160051c820191505b818110156110e35782815560010161497c565b6001600160401b038311156149a6576149a6614242565b6149ba836149b48354614583565b83614949565b6000601f8411600181146149ee57600085156149d65750838201355b600019600387901b1c1916600186901b178355614a48565b600083815260209020601f19861690835b82811015614a1f57868501358255602094850194600190920191016149ff565b5086821015614a3c5760001960f88860031b161c19848701351681555b505060018560011b0183555b5050505050565b600060208284031215614a6157600080fd5b81516001600160401b03811115614a7757600080fd5b8201601f81018413614a8857600080fd5b8051614a966143ab82614365565b818152856020838501011115614aab57600080fd5b612c4e826020830160208601614063565b60008060008060808587031215614ad257600080fd5b8435614add81614115565b935060208501359250604085013591506060850135614afb81614115565b939692955090935050565b7f416363657373436f6e74726f6c3a206163636f756e7420000000000000000000815260008351614b3e816017850160208801614063565b7001034b99036b4b9b9b4b733903937b6329607d1b6017918401918201528351614b6f816028840160208801614063565b01602801949350505050565b61ffff861681526001600160a01b038516602082015260a060408201819052600090614ba99083018661408f565b8415156060840152828103608084015261432d818561408f565b60008060408385031215614bd657600080fd5b505080516020909101519092909150565b61ffff8716815260c060208201526000614c0460c083018861408f565b8281036040840152614c16818861408f565b6001600160a01b0387811660608601528616608085015283810360a08501529050614c41818561408f565b9998505050505050505050565b600081614c5d57614c5d6145e6565b506000190190565b600060208284031215614c7757600080fd5b815180151581146111c457600080fd5b60008251614c99818460208701614063565b919091019291505056fe97667070c54ef182b0f5858b034beac1b6f3089aa2d3188bb1e8929f4fa9b929a2646970667358221220618b11cdbac1040dea7897f624bc26242b8ab12163827e8f0ff26f9f9a270e3e64736f6c634300080f0033",
  "linkReferences": {},
  "deployedLinkReferences": {}
}