{
  "_format": "hh-sol-artifact-1",
  "contractName": "ZunamiGateway",
  "sourceName": "contracts/crosschain/ZunamiGateway.sol",
  "abi": [
    {
      "inputs": [
        {
          "internalType": "address",
          "name": "_token",
          "type": "address"
        },
        {
          "internalType": "uint256",
          "name": "_tokenPoolId",
          "type": "uint256"
        },
        {
          "internalType": "address",
          "name": "_stargateRouter",
          "type": "address"
        },
        {
          "internalType": "address",
          "name": "_layerZeroEndpoint",
          "type": "address"
        }
      ],
      "stateMutability": "nonpayable",
      "type": "constructor"
    },
    {
      "anonymous": false,
      "inputs": [
        {
          "indexed": true,
          "internalType": "address",
          "name": "owner",
          "type": "address"
        },
        {
          "indexed": true,
          "internalType": "address",
          "name": "spender",
          "type": "address"
        },
        {
          "indexed": false,
          "internalType": "uint256",
          "name": "value",
          "type": "uint256"
        }
      ],
      "name": "Approval",
      "type": "event"
    },
    {
      "anonymous": false,
      "inputs": [
        {
          "indexed": true,
          "internalType": "address",
          "name": "depositor",
          "type": "address"
        },
        {
          "indexed": false,
          "internalType": "uint256",
          "name": "amount",
          "type": "uint256"
        }
      ],
      "name": "CreatedPendingDeposit",
      "type": "event"
    },
    {
      "anonymous": false,
      "inputs": [
        {
          "indexed": true,
          "internalType": "address",
          "name": "withdrawer",
          "type": "address"
        },
        {
          "indexed": false,
          "internalType": "uint256",
          "name": "lpShares",
          "type": "uint256"
        }
      ],
      "name": "CreatedPendingWithdrawal",
      "type": "event"
    },
    {
      "anonymous": false,
      "inputs": [
        {
          "indexed": true,
          "internalType": "address",
          "name": "depositor",
          "type": "address"
        },
        {
          "indexed": false,
          "internalType": "uint256",
          "name": "tokenAmount",
          "type": "uint256"
        },
        {
          "indexed": false,
          "internalType": "uint256",
          "name": "lpShares",
          "type": "uint256"
        }
      ],
      "name": "Deposited",
      "type": "event"
    },
    {
      "anonymous": false,
      "inputs": [
        {
          "indexed": false,
          "internalType": "address",
          "name": "account",
          "type": "address"
        }
      ],
      "name": "Paused",
      "type": "event"
    },
    {
      "anonymous": false,
      "inputs": [
        {
          "indexed": true,
          "internalType": "uint256",
          "name": "id",
          "type": "uint256"
        },
        {
          "indexed": false,
          "internalType": "uint256",
          "name": "lpShares",
          "type": "uint256"
        }
      ],
      "name": "ReceivedCrossDepositResult",
      "type": "event"
    },
    {
      "anonymous": false,
      "inputs": [
        {
          "indexed": true,
          "internalType": "uint256",
          "name": "id",
          "type": "uint256"
        },
        {
          "indexed": false,
          "internalType": "uint256",
          "name": "tokenAmount",
          "type": "uint256"
        }
      ],
      "name": "ReceivedCrossWithdrawalProvision",
      "type": "event"
    },
    {
      "anonymous": false,
      "inputs": [
        {
          "indexed": true,
          "internalType": "uint256",
          "name": "id",
          "type": "uint256"
        },
        {
          "indexed": false,
          "internalType": "uint256",
          "name": "tokenAmount",
          "type": "uint256"
        }
      ],
      "name": "ReceivedCrossWithdrawalResult",
      "type": "event"
    },
    {
      "anonymous": false,
      "inputs": [
        {
          "indexed": true,
          "internalType": "address",
          "name": "depositor",
          "type": "address"
        }
      ],
      "name": "RemovedPendingDeposit",
      "type": "event"
    },
    {
      "anonymous": false,
      "inputs": [
        {
          "indexed": true,
          "internalType": "address",
          "name": "depositor",
          "type": "address"
        }
      ],
      "name": "RemovedPendingWithdrawal",
      "type": "event"
    },
    {
      "anonymous": false,
      "inputs": [
        {
          "indexed": true,
          "internalType": "uint256",
          "name": "id",
          "type": "uint256"
        },
        {
          "indexed": false,
          "internalType": "uint256",
          "name": "tokenAmount",
          "type": "uint256"
        }
      ],
      "name": "ResetCrossDeposit",
      "type": "event"
    },
    {
      "anonymous": false,
      "inputs": [
        {
          "indexed": true,
          "internalType": "uint256",
          "name": "id",
          "type": "uint256"
        },
        {
          "indexed": false,
          "internalType": "uint256",
          "name": "tokenAmount",
          "type": "uint256"
        }
      ],
      "name": "ResetCrossWithdrawal",
      "type": "event"
    },
    {
      "anonymous": false,
      "inputs": [
        {
          "indexed": true,
          "internalType": "bytes32",
          "name": "role",
          "type": "bytes32"
        },
        {
          "indexed": true,
          "internalType": "bytes32",
          "name": "previousAdminRole",
          "type": "bytes32"
        },
        {
          "indexed": true,
          "internalType": "bytes32",
          "name": "newAdminRole",
          "type": "bytes32"
        }
      ],
      "name": "RoleAdminChanged",
      "type": "event"
    },
    {
      "anonymous": false,
      "inputs": [
        {
          "indexed": true,
          "internalType": "bytes32",
          "name": "role",
          "type": "bytes32"
        },
        {
          "indexed": true,
          "internalType": "address",
          "name": "account",
          "type": "address"
        },
        {
          "indexed": true,
          "internalType": "address",
          "name": "sender",
          "type": "address"
        }
      ],
      "name": "RoleGranted",
      "type": "event"
    },
    {
      "anonymous": false,
      "inputs": [
        {
          "indexed": true,
          "internalType": "bytes32",
          "name": "role",
          "type": "bytes32"
        },
        {
          "indexed": true,
          "internalType": "address",
          "name": "account",
          "type": "address"
        },
        {
          "indexed": true,
          "internalType": "address",
          "name": "sender",
          "type": "address"
        }
      ],
      "name": "RoleRevoked",
      "type": "event"
    },
    {
      "anonymous": false,
      "inputs": [
        {
          "indexed": true,
          "internalType": "uint256",
          "name": "id",
          "type": "uint256"
        },
        {
          "indexed": false,
          "internalType": "uint256",
          "name": "totalTokenAmount",
          "type": "uint256"
        }
      ],
      "name": "SentCrossDeposit",
      "type": "event"
    },
    {
      "anonymous": false,
      "inputs": [
        {
          "indexed": true,
          "internalType": "uint256",
          "name": "id",
          "type": "uint256"
        },
        {
          "indexed": false,
          "internalType": "uint256",
          "name": "totalLpShares",
          "type": "uint256"
        }
      ],
      "name": "SentCrossWithdrawal",
      "type": "event"
    },
    {
      "anonymous": false,
      "inputs": [
        {
          "indexed": false,
          "internalType": "uint256",
          "name": "_chainId",
          "type": "uint256"
        },
        {
          "indexed": false,
          "internalType": "address",
          "name": "_address",
          "type": "address"
        },
        {
          "indexed": false,
          "internalType": "uint256",
          "name": "_tokenPoolId",
          "type": "uint256"
        },
        {
          "indexed": false,
          "internalType": "address",
          "name": "_bridgeAddress",
          "type": "address"
        }
      ],
      "name": "SetForwarderParams",
      "type": "event"
    },
    {
      "anonymous": false,
      "inputs": [
        {
          "indexed": false,
          "internalType": "uint256",
          "name": "slippage",
          "type": "uint256"
        }
      ],
      "name": "SetStargateSlippage",
      "type": "event"
    },
    {
      "anonymous": false,
      "inputs": [
        {
          "indexed": true,
          "internalType": "address",
          "name": "from",
          "type": "address"
        },
        {
          "indexed": true,
          "internalType": "address",
          "name": "to",
          "type": "address"
        },
        {
          "indexed": false,
          "internalType": "uint256",
          "name": "value",
          "type": "uint256"
        }
      ],
      "name": "Transfer",
      "type": "event"
    },
    {
      "anonymous": false,
      "inputs": [
        {
          "indexed": false,
          "internalType": "address",
          "name": "account",
          "type": "address"
        }
      ],
      "name": "Unpaused",
      "type": "event"
    },
    {
      "anonymous": false,
      "inputs": [
        {
          "indexed": true,
          "internalType": "address",
          "name": "withdrawer",
          "type": "address"
        },
        {
          "indexed": false,
          "internalType": "uint256",
          "name": "tokenAmount",
          "type": "uint256"
        },
        {
          "indexed": false,
          "internalType": "uint256",
          "name": "lpShares",
          "type": "uint256"
        }
      ],
      "name": "Withdrawn",
      "type": "event"
    },
    {
      "inputs": [],
      "name": "DEFAULT_ADMIN_ROLE",
      "outputs": [
        {
          "internalType": "bytes32",
          "name": "",
          "type": "bytes32"
        }
      ],
      "stateMutability": "view",
      "type": "function"
    },
    {
      "inputs": [],
      "name": "OPERATOR_ROLE",
      "outputs": [
        {
          "internalType": "bytes32",
          "name": "",
          "type": "bytes32"
        }
      ],
      "stateMutability": "view",
      "type": "function"
    },
    {
      "inputs": [],
      "name": "SG_SLIPPAGE_DIVIDER",
      "outputs": [
        {
          "internalType": "uint256",
          "name": "",
          "type": "uint256"
        }
      ],
      "stateMutability": "view",
      "type": "function"
    },
    {
      "inputs": [],
      "name": "USDT_TOKEN_ID",
      "outputs": [
        {
          "internalType": "uint8",
          "name": "",
          "type": "uint8"
        }
      ],
      "stateMutability": "view",
      "type": "function"
    },
    {
      "inputs": [
        {
          "internalType": "address",
          "name": "owner",
          "type": "address"
        },
        {
          "internalType": "address",
          "name": "spender",
          "type": "address"
        }
      ],
      "name": "allowance",
      "outputs": [
        {
          "internalType": "uint256",
          "name": "",
          "type": "uint256"
        }
      ],
      "stateMutability": "view",
      "type": "function"
    },
    {
      "inputs": [
        {
          "internalType": "address",
          "name": "spender",
          "type": "address"
        },
        {
          "internalType": "uint256",
          "name": "amount",
          "type": "uint256"
        }
      ],
      "name": "approve",
      "outputs": [
        {
          "internalType": "bool",
          "name": "",
          "type": "bool"
        }
      ],
      "stateMutability": "nonpayable",
      "type": "function"
    },
    {
      "inputs": [
        {
          "internalType": "address",
          "name": "account",
          "type": "address"
        }
      ],
      "name": "balanceOf",
      "outputs": [
        {
          "internalType": "uint256",
          "name": "",
          "type": "uint256"
        }
      ],
      "stateMutability": "view",
      "type": "function"
    },
    {
      "inputs": [
        {
          "internalType": "uint256",
          "name": "_value",
          "type": "uint256"
        },
        {
          "internalType": "uint8",
          "name": "_decimalsFrom",
          "type": "uint8"
        },
        {
          "internalType": "uint8",
          "name": "_decimalsTo",
          "type": "uint8"
        }
      ],
      "name": "convertDecimals",
      "outputs": [
        {
          "internalType": "uint256",
          "name": "",
          "type": "uint256"
        }
      ],
      "stateMutability": "view",
      "type": "function"
    },
    {
      "inputs": [
        {
          "internalType": "uint256",
          "name": "_value",
          "type": "uint256"
        },
        {
          "internalType": "uint8",
          "name": "_decimalsFrom",
          "type": "uint8"
        },
        {
          "internalType": "uint8",
          "name": "_decimalsTo",
          "type": "uint8"
        }
      ],
      "name": "convertDownDecimals",
      "outputs": [
        {
          "internalType": "uint256",
          "name": "",
          "type": "uint256"
        }
      ],
      "stateMutability": "pure",
      "type": "function"
    },
    {
      "inputs": [
        {
          "internalType": "uint256",
          "name": "_value",
          "type": "uint256"
        },
        {
          "internalType": "uint8",
          "name": "_decimalsFrom",
          "type": "uint8"
        },
        {
          "internalType": "uint8",
          "name": "_decimalsTo",
          "type": "uint8"
        }
      ],
      "name": "convertUpDecimals",
      "outputs": [
        {
          "internalType": "uint256",
          "name": "",
          "type": "uint256"
        }
      ],
      "stateMutability": "pure",
      "type": "function"
    },
    {
      "inputs": [],
      "name": "currentCrossDeposit",
      "outputs": [
        {
          "internalType": "uint256",
          "name": "id",
          "type": "uint256"
        },
        {
          "internalType": "uint256",
          "name": "totalTokenAmount",
          "type": "uint256"
        },
        {
          "internalType": "uint256",
          "name": "totalLpShares",
          "type": "uint256"
        }
      ],
      "stateMutability": "view",
      "type": "function"
    },
    {
      "inputs": [],
      "name": "currentCrossWithdrawal",
      "outputs": [
        {
          "internalType": "uint256",
          "name": "id",
          "type": "uint256"
        },
        {
          "internalType": "uint256",
          "name": "totalLpShares",
          "type": "uint256"
        },
        {
          "internalType": "uint256",
          "name": "totalTokenAmount",
          "type": "uint256"
        }
      ],
      "stateMutability": "view",
      "type": "function"
    },
    {
      "inputs": [],
      "name": "decimals",
      "outputs": [
        {
          "internalType": "uint8",
          "name": "",
          "type": "uint8"
        }
      ],
      "stateMutability": "view",
      "type": "function"
    },
    {
      "inputs": [
        {
          "internalType": "address",
          "name": "spender",
          "type": "address"
        },
        {
          "internalType": "uint256",
          "name": "subtractedValue",
          "type": "uint256"
        }
      ],
      "name": "decreaseAllowance",
      "outputs": [
        {
          "internalType": "bool",
          "name": "",
          "type": "bool"
        }
      ],
      "stateMutability": "nonpayable",
      "type": "function"
    },
    {
      "inputs": [
        {
          "internalType": "uint256",
          "name": "amount",
          "type": "uint256"
        }
      ],
      "name": "delegateDeposit",
      "outputs": [],
      "stateMutability": "nonpayable",
      "type": "function"
    },
    {
      "inputs": [
        {
          "internalType": "address",
          "name": "beneficiary",
          "type": "address"
        },
        {
          "internalType": "uint256",
          "name": "amount",
          "type": "uint256"
        }
      ],
      "name": "delegateDepositFor",
      "outputs": [],
      "stateMutability": "nonpayable",
      "type": "function"
    },
    {
      "inputs": [
        {
          "internalType": "uint256",
          "name": "lpShares",
          "type": "uint256"
        }
      ],
      "name": "delegateWithdrawal",
      "outputs": [],
      "stateMutability": "nonpayable",
      "type": "function"
    },
    {
      "inputs": [],
      "name": "finalizeCrossDeposit",
      "outputs": [],
      "stateMutability": "nonpayable",
      "type": "function"
    },
    {
      "inputs": [],
      "name": "finalizeCrossWithdrawal",
      "outputs": [],
      "stateMutability": "nonpayable",
      "type": "function"
    },
    {
      "inputs": [],
      "name": "forwarderAddress",
      "outputs": [
        {
          "internalType": "address",
          "name": "",
          "type": "address"
        }
      ],
      "stateMutability": "view",
      "type": "function"
    },
    {
      "inputs": [],
      "name": "forwarderChainId",
      "outputs": [
        {
          "internalType": "uint16",
          "name": "",
          "type": "uint16"
        }
      ],
      "stateMutability": "view",
      "type": "function"
    },
    {
      "inputs": [],
      "name": "forwarderStargateBridge",
      "outputs": [
        {
          "internalType": "address",
          "name": "",
          "type": "address"
        }
      ],
      "stateMutability": "view",
      "type": "function"
    },
    {
      "inputs": [],
      "name": "forwarderTokenPoolId",
      "outputs": [
        {
          "internalType": "uint256",
          "name": "",
          "type": "uint256"
        }
      ],
      "stateMutability": "view",
      "type": "function"
    },
    {
      "inputs": [
        {
          "internalType": "bytes32",
          "name": "role",
          "type": "bytes32"
        }
      ],
      "name": "getRoleAdmin",
      "outputs": [
        {
          "internalType": "bytes32",
          "name": "",
          "type": "bytes32"
        }
      ],
      "stateMutability": "view",
      "type": "function"
    },
    {
      "inputs": [
        {
          "internalType": "bytes32",
          "name": "role",
          "type": "bytes32"
        },
        {
          "internalType": "address",
          "name": "account",
          "type": "address"
        }
      ],
      "name": "grantRole",
      "outputs": [],
      "stateMutability": "nonpayable",
      "type": "function"
    },
    {
      "inputs": [
        {
          "internalType": "bytes32",
          "name": "role",
          "type": "bytes32"
        },
        {
          "internalType": "address",
          "name": "account",
          "type": "address"
        }
      ],
      "name": "hasRole",
      "outputs": [
        {
          "internalType": "bool",
          "name": "",
          "type": "bool"
        }
      ],
      "stateMutability": "view",
      "type": "function"
    },
    {
      "inputs": [
        {
          "internalType": "address",
          "name": "spender",
          "type": "address"
        },
        {
          "internalType": "uint256",
          "name": "addedValue",
          "type": "uint256"
        }
      ],
      "name": "increaseAllowance",
      "outputs": [
        {
          "internalType": "bool",
          "name": "",
          "type": "bool"
        }
      ],
      "stateMutability": "nonpayable",
      "type": "function"
    },
    {
      "inputs": [],
      "name": "layerZeroEndpoint",
      "outputs": [
        {
          "internalType": "contract ILayerZeroEndpoint",
          "name": "",
          "type": "address"
        }
      ],
      "stateMutability": "view",
      "type": "function"
    },
    {
      "inputs": [
        {
          "internalType": "uint16",
          "name": "_srcChainId",
          "type": "uint16"
        },
        {
          "internalType": "bytes",
          "name": "_srcAddress",
          "type": "bytes"
        },
        {
          "internalType": "uint64",
          "name": "_nonce",
          "type": "uint64"
        },
        {
          "internalType": "bytes",
          "name": "_payload",
          "type": "bytes"
        }
      ],
      "name": "lzReceive",
      "outputs": [],
      "stateMutability": "nonpayable",
      "type": "function"
    },
    {
      "inputs": [],
      "name": "name",
      "outputs": [
        {
          "internalType": "string",
          "name": "",
          "type": "string"
        }
      ],
      "stateMutability": "view",
      "type": "function"
    },
    {
      "inputs": [],
      "name": "pause",
      "outputs": [],
      "stateMutability": "nonpayable",
      "type": "function"
    },
    {
      "inputs": [],
      "name": "paused",
      "outputs": [
        {
          "internalType": "bool",
          "name": "",
          "type": "bool"
        }
      ],
      "stateMutability": "view",
      "type": "function"
    },
    {
      "inputs": [
        {
          "internalType": "address",
          "name": "user",
          "type": "address"
        }
      ],
      "name": "pendingDeposits",
      "outputs": [
        {
          "internalType": "uint256",
          "name": "",
          "type": "uint256"
        }
      ],
      "stateMutability": "view",
      "type": "function"
    },
    {
      "inputs": [
        {
          "internalType": "address",
          "name": "user",
          "type": "address"
        }
      ],
      "name": "pendingWithdrawals",
      "outputs": [
        {
          "internalType": "uint256",
          "name": "",
          "type": "uint256"
        }
      ],
      "stateMutability": "view",
      "type": "function"
    },
    {
      "inputs": [],
      "name": "removePendingDeposit",
      "outputs": [],
      "stateMutability": "nonpayable",
      "type": "function"
    },
    {
      "inputs": [],
      "name": "removePendingWithdrawal",
      "outputs": [],
      "stateMutability": "nonpayable",
      "type": "function"
    },
    {
      "inputs": [
        {
          "internalType": "bytes32",
          "name": "role",
          "type": "bytes32"
        },
        {
          "internalType": "address",
          "name": "account",
          "type": "address"
        }
      ],
      "name": "renounceRole",
      "outputs": [],
      "stateMutability": "nonpayable",
      "type": "function"
    },
    {
      "inputs": [],
      "name": "resetCrossDeposit",
      "outputs": [],
      "stateMutability": "nonpayable",
      "type": "function"
    },
    {
      "inputs": [],
      "name": "resetCrossWithdrawal",
      "outputs": [],
      "stateMutability": "nonpayable",
      "type": "function"
    },
    {
      "inputs": [
        {
          "internalType": "bytes32",
          "name": "role",
          "type": "bytes32"
        },
        {
          "internalType": "address",
          "name": "account",
          "type": "address"
        }
      ],
      "name": "revokeRole",
      "outputs": [],
      "stateMutability": "nonpayable",
      "type": "function"
    },
    {
      "inputs": [
        {
          "internalType": "address[]",
          "name": "userList",
          "type": "address[]"
        }
      ],
      "name": "sendCrossDeposit",
      "outputs": [],
      "stateMutability": "payable",
      "type": "function"
    },
    {
      "inputs": [
        {
          "internalType": "address[]",
          "name": "userList",
          "type": "address[]"
        }
      ],
      "name": "sendCrossWithdrawal",
      "outputs": [],
      "stateMutability": "payable",
      "type": "function"
    },
    {
      "inputs": [
        {
          "internalType": "uint16",
          "name": "_chainId",
          "type": "uint16"
        },
        {
          "internalType": "address",
          "name": "_address",
          "type": "address"
        },
        {
          "internalType": "uint256",
          "name": "_tokenPoolId",
          "type": "uint256"
        },
        {
          "internalType": "address",
          "name": "_stargateBridge",
          "type": "address"
        }
      ],
      "name": "setForwarderParams",
      "outputs": [],
      "stateMutability": "nonpayable",
      "type": "function"
    },
    {
      "inputs": [
        {
          "internalType": "uint16",
          "name": "_slippage",
          "type": "uint16"
        }
      ],
      "name": "setStargateSlippage",
      "outputs": [],
      "stateMutability": "nonpayable",
      "type": "function"
    },
    {
      "inputs": [
        {
          "internalType": "uint16",
          "name": "_srcChainId",
          "type": "uint16"
        },
        {
          "internalType": "bytes",
          "name": "_srcAddress",
          "type": "bytes"
        },
        {
          "internalType": "uint256",
          "name": "_nonce",
          "type": "uint256"
        },
        {
          "internalType": "address",
          "name": "_token",
          "type": "address"
        },
        {
          "internalType": "uint256",
          "name": "_amountLD",
          "type": "uint256"
        },
        {
          "internalType": "bytes",
          "name": "_payload",
          "type": "bytes"
        }
      ],
      "name": "sgReceive",
      "outputs": [],
      "stateMutability": "nonpayable",
      "type": "function"
    },
    {
      "inputs": [],
      "name": "stargateRouter",
      "outputs": [
        {
          "internalType": "contract IStargateRouter",
          "name": "",
          "type": "address"
        }
      ],
      "stateMutability": "view",
      "type": "function"
    },
    {
      "inputs": [],
      "name": "stargateSlippage",
      "outputs": [
        {
          "internalType": "uint256",
          "name": "",
          "type": "uint256"
        }
      ],
      "stateMutability": "view",
      "type": "function"
    },
    {
      "inputs": [
        {
          "internalType": "bytes4",
          "name": "interfaceId",
          "type": "bytes4"
        }
      ],
      "name": "supportsInterface",
      "outputs": [
        {
          "internalType": "bool",
          "name": "",
          "type": "bool"
        }
      ],
      "stateMutability": "view",
      "type": "function"
    },
    {
      "inputs": [],
      "name": "symbol",
      "outputs": [
        {
          "internalType": "string",
          "name": "",
          "type": "string"
        }
      ],
      "stateMutability": "view",
      "type": "function"
    },
    {
      "inputs": [],
      "name": "token",
      "outputs": [
        {
          "internalType": "contract IERC20Metadata",
          "name": "",
          "type": "address"
        }
      ],
      "stateMutability": "view",
      "type": "function"
    },
    {
      "inputs": [],
      "name": "tokenPoolId",
      "outputs": [
        {
          "internalType": "uint256",
          "name": "",
          "type": "uint256"
        }
      ],
      "stateMutability": "view",
      "type": "function"
    },
    {
      "inputs": [],
      "name": "totalDepositedAmount",
      "outputs": [
        {
          "internalType": "uint256",
          "name": "",
          "type": "uint256"
        }
      ],
      "stateMutability": "view",
      "type": "function"
    },
    {
      "inputs": [],
      "name": "totalSupply",
      "outputs": [
        {
          "internalType": "uint256",
          "name": "",
          "type": "uint256"
        }
      ],
      "stateMutability": "view",
      "type": "function"
    },
    {
      "inputs": [
        {
          "internalType": "address",
          "name": "to",
          "type": "address"
        },
        {
          "internalType": "uint256",
          "name": "amount",
          "type": "uint256"
        }
      ],
      "name": "transfer",
      "outputs": [
        {
          "internalType": "bool",
          "name": "",
          "type": "bool"
        }
      ],
      "stateMutability": "nonpayable",
      "type": "function"
    },
    {
      "inputs": [
        {
          "internalType": "address",
          "name": "from",
          "type": "address"
        },
        {
          "internalType": "address",
          "name": "to",
          "type": "address"
        },
        {
          "internalType": "uint256",
          "name": "amount",
          "type": "uint256"
        }
      ],
      "name": "transferFrom",
      "outputs": [
        {
          "internalType": "bool",
          "name": "",
          "type": "bool"
        }
      ],
      "stateMutability": "nonpayable",
      "type": "function"
    },
    {
      "inputs": [],
      "name": "unpause",
      "outputs": [],
      "stateMutability": "nonpayable",
      "type": "function"
    },
    {
      "inputs": [],
      "name": "withdrawStuckNative",
      "outputs": [],
      "stateMutability": "nonpayable",
      "type": "function"
    },
    {
      "inputs": [
        {
          "internalType": "contract IERC20Metadata",
          "name": "_token",
          "type": "address"
        }
      ],
      "name": "withdrawStuckToken",
      "outputs": [],
      "stateMutability": "nonpayable",
      "type": "function"
    },
    {
      "stateMutability": "payable",
      "type": "receive"
    }
  ],
  "bytecode": "0x61010060405260146007553480156200001757600080fd5b50604051620044dd380380620044dd8339810160408190526200003a91620001db565b60405180604001604052806011815260200170047617465776179205a756e616d69204c5607c1b815250604051806040016040528060048152602001630475a4c560e41b8152508160039081620000929190620002d4565b506004620000a18282620002d4565b50506005805460ff1916905550620000bb6000336200010a565b620000e77f97667070c54ef182b0f5858b034beac1b6f3089aa2d3188bb1e8929f4fa9b929336200010a565b6001600160a01b0393841660c05260e09290925282166080521660a052620003a0565b6200011682826200011a565b5050565b60008281526006602090815260408083206001600160a01b038516845290915290205460ff16620001165760008281526006602090815260408083206001600160a01b03851684529091529020805460ff191660011790556200017a3390565b6001600160a01b0316816001600160a01b0316837f2f8788117e7eff1d82e926ec794901d17c78024a50270940304540a733656f0d60405160405180910390a45050565b80516001600160a01b0381168114620001d657600080fd5b919050565b60008060008060808587031215620001f257600080fd5b620001fd85620001be565b9350602085015192506200021460408601620001be565b91506200022460608601620001be565b905092959194509250565b634e487b7160e01b600052604160045260246000fd5b600181811c908216806200025a57607f821691505b6020821081036200027b57634e487b7160e01b600052602260045260246000fd5b50919050565b601f821115620002cf57600081815260208120601f850160051c81016020861015620002aa5750805b601f850160051c820191505b81811015620002cb57828155600101620002b6565b5050505b505050565b81516001600160401b03811115620002f057620002f06200022f565b620003088162000301845462000245565b8462000281565b602080601f831160018114620003405760008415620003275750858301515b600019600386901b1c1916600185901b178555620002cb565b600085815260208120601f198616915b82811015620003715788860151825594840194600190910190840162000350565b5085821015620003905787850151600019600388901b60f8161c191681555b5050505050600190811b01905550565b60805160a05160c05160e0516140a862000435600039600081816109f60152611ea4015260008181610aed01528181610d30015281816117da01528181611e1a01528181611ff4015281816123f8015281816125400152612fbd01526000818161043b01528181610b320152612ef801526000818161083e0152818161191b01528181611e3c0152611e6301526140a86000f3fe6080604052600436106103845760003560e01c80638456cb59116101d1578063cd75b1f711610102578063e9b6d599116100a0578063f3f437031161006f578063f3f4370314610a83578063f5b541a614610ab9578063fc0c546a14610adb578063fee5b40b14610b0f57600080fd5b8063e9b6d599146109e4578063eb3349b914610a18578063ed33127414610a4e578063f202865b14610a6357600080fd5b8063d547741f116100dc578063d547741f14610949578063d771c67414610969578063d79575a71461097e578063dd62ed3e1461099e57600080fd5b8063cd75b1f7146108f3578063ce4defd314610913578063cf6842781461093357600080fd5b8063a9e56f3c1161016f578063bc377fe011610149578063bc377fe014610895578063c3304100146108a8578063c4883fc3146108c8578063cab65c6f146108dd57600080fd5b8063a9e56f3c1461082c578063ab8236f314610860578063b314cfd51461088057600080fd5b8063a217fddf116101ab578063a217fddf146107c2578063a2ab15a4146107d7578063a457c2d7146107ec578063a9059cbb1461080c57600080fd5b80638456cb591461077857806391d148541461078d57806395d89b41146107ad57600080fd5b8063313ce567116102b6578063410b664e116102545780635dc77123116102235780635dc77123146106e35780636ae649051461070357806370a082311461072357806372f254a81461075957600080fd5b8063410b664e1461068e578063487ff879146106a35780634b6d0095146106b85780635c975abb146106cb57600080fd5b8063395093511161029057806339509351146105f15780633e685e32146106115780633ec3be501461063f5780633f4ba83a1461067957600080fd5b8063313ce567146105995780633413f1c1146105bb57806336568abe146105d157600080fd5b8063172958941161032357806323b872dd116102fd57806323b872dd14610514578063248a9ca3146105345780632e73e578146105645780632f2ff15d1461057957600080fd5b806317295894146104c3578063174ab889146104d957806318160ddd146104ff57600080fd5b806306fdde031161035f57806306fdde031461040757806307968db114610429578063095ea7b3146104755780631688fa451461049557600080fd5b80621d35671461039057806301ffc9a7146103b2578063068acf6c146103e757600080fd5b3661038b57005b600080fd5b34801561039c57600080fd5b506103b06103ab36600461366b565b610b2f565b005b3480156103be57600080fd5b506103d26103cd366004613705565b610df7565b60405190151581526020015b60405180910390f35b3480156103f357600080fd5b506103b0610402366004613744565b610e2e565b34801561041357600080fd5b5061041c610ec6565b6040516103de91906137b9565b34801561043557600080fd5b5061045d7f000000000000000000000000000000000000000000000000000000000000000081565b6040516001600160a01b0390911681526020016103de565b34801561048157600080fd5b506103d26104903660046137cc565b610f58565b3480156104a157600080fd5b506104b56104b0366004613807565b610f70565b6040519081526020016103de565b3480156104cf57600080fd5b506104b5600b5481565b3480156104e557600080fd5b5060085461045d906201000090046001600160a01b031681565b34801561050b57600080fd5b506002546104b5565b34801561052057600080fd5b506103d261052f366004613849565b610fdc565b34801561054057600080fd5b506104b561054f36600461388a565b60009081526006602052604090206001015490565b34801561057057600080fd5b506103b0611000565b34801561058557600080fd5b506103b06105943660046138a3565b611078565b3480156105a557600080fd5b5060125b60405160ff90911681526020016103de565b3480156105c757600080fd5b506104b560075481565b3480156105dd57600080fd5b506103b06105ec3660046138a3565b61109e565b3480156105fd57600080fd5b506103d261060c3660046137cc565b61111c565b34801561061d57600080fd5b5060085461062c9061ffff1681565b60405161ffff90911681526020016103de565b34801561064b57600080fd5b5060115460125460155461065e92919083565b604080519384526020840192909252908201526060016103de565b34801561068557600080fd5b506103b061115b565b34801561069a57600080fd5b506103b0611172565b3480156106af57600080fd5b506103b0611317565b6103b06106c636600461391a565b611374565b3480156106d757600080fd5b5060055460ff166103d2565b3480156106ef57600080fd5b506103b06106fe3660046137cc565b6116e8565b34801561070f57600080fd5b506104b561071e366004613807565b611716565b34801561072f57600080fd5b506104b561073e366004613744565b6001600160a01b031660009081526020819052604090205490565b34801561076557600080fd5b50600c54600d5460105461065e92919083565b34801561078457600080fd5b506103b0611757565b34801561079957600080fd5b506103d26107a83660046138a3565b61176b565b3480156107b957600080fd5b5061041c611796565b3480156107ce57600080fd5b506104b5600081565b3480156107e357600080fd5b506103b06117a5565b3480156107f857600080fd5b506103d26108073660046137cc565b611878565b34801561081857600080fd5b506103d26108273660046137cc565b61190a565b34801561083857600080fd5b5061045d7f000000000000000000000000000000000000000000000000000000000000000081565b34801561086c57600080fd5b506103b061087b366004613a3c565b611918565b34801561088c57600080fd5b506103b0611ae4565b6103b06108a336600461391a565b611b24565b3480156108b457600080fd5b506104b56108c3366004613807565b6120ec565b3480156108d457600080fd5b506103b061214e565b3480156108e957600080fd5b506104b561271081565b3480156108ff57600080fd5b506103b061090e366004613ad7565b6121cd565b34801561091f57600080fd5b506103b061092e366004613af2565b612270565b34801561093f57600080fd5b506104b560095481565b34801561095557600080fd5b506103b06109643660046138a3565b612315565b34801561097557600080fd5b506105a9600281565b34801561098a57600080fd5b506103b061099936600461388a565b61233b565b3480156109aa57600080fd5b506104b56109b9366004613b43565b6001600160a01b03918216600090815260016020908152604080832093909416825291909152205490565b3480156109f057600080fd5b506104b57f000000000000000000000000000000000000000000000000000000000000000081565b348015610a2457600080fd5b506104b5610a33366004613744565b6001600160a01b031660009081526016602052604090205490565b348015610a5a57600080fd5b506103b0612369565b348015610a6f57600080fd5b506103b0610a7e36600461388a565b6125f6565b348015610a8f57600080fd5b506104b5610a9e366004613744565b6001600160a01b031660009081526017602052604090205490565b348015610ac557600080fd5b506104b560008051602061405383398151915281565b348015610ae757600080fd5b5061045d7f000000000000000000000000000000000000000000000000000000000000000081565b348015610b1b57600080fd5b50600a5461045d906001600160a01b031681565b337f00000000000000000000000000000000000000000000000000000000000000006001600160a01b031614610bca5760405162461bcd60e51b815260206004820152603560248201527f476174657761793a206f6e6c79207a65726f206c6179657220656e64706f696e604482015274742063616e2063616c6c206c7a526563656976652160581b60648201526084015b60405180910390fd5b60085461ffff878116911614610c225760405162461bcd60e51b815260206004820152601e60248201527f476174657761793a2077726f6e6720736f7572636520636861696e20696400006044820152606401610bc1565b600854604051610c44916201000090046001600160a01b031690602001613b71565b604051602081830303815290604052805190602001208585604051610c6a929190613b8e565b604051809103902014610cbf5760405162461bcd60e51b815260206004820152601d60248201527f476174657761793a2077726f6e6720736f7572636520616464726573730000006044820152606401610bc1565b6000808080610cd085870187613b9e565b9296509094509250905060ff8416610d1d57601082905560405182815283907f49e3baffe51e7973c17faf6e5d19baca704f4d2d94c976d35f1975aeb4972c719060200160405180910390a25b60001960ff851601610deb57610db082827f00000000000000000000000000000000000000000000000000000000000000006001600160a01b031663313ce5676040518163ffffffff1660e01b8152600401602060405180830381865afa158015610d8c573d6000803e3d6000fd5b505050506040513d601f19601f8201168201806040525081019061071e9190613bdd565b601581905560405190815283907f4512adbb32f94d3ef3966e741359df426c6ea4798f439f2e86aba8511d7f355e9060200160405180910390a25b50505050505050505050565b60006001600160e01b03198216637965db0b60e01b1480610e2857506301ffc9a760e01b6001600160e01b03198316145b92915050565b6000610e3a81336126cc565b6040516370a0823160e01b81523060048201526000906001600160a01b038416906370a0823190602401602060405180830381865afa158015610e81573d6000803e3d6000fd5b505050506040513d601f19601f82011682018060405250810190610ea59190613bfa565b90508015610ec157610ec16001600160a01b0384163383612730565b505050565b606060038054610ed590613c13565b80601f0160208091040260200160405190810160405280929190818152602001828054610f0190613c13565b8015610f4e5780601f10610f2357610100808354040283529160200191610f4e565b820191906000526020600020905b815481529060010190602001808311610f3157829003601f168201915b5050505050905090565b600033610f66818585612793565b5060019392505050565b60008160ff168360ff161115610fb35760405162461bcd60e51b8152602060048201526008602482015267424144444543494d60c01b6044820152606401610bc1565b610fbd8383613c63565b610fc890600a613d6a565b610fd29085613d79565b90505b9392505050565b600033610fea8582856128b7565b610ff5858585612949565b506001949350505050565b600061100c81336126cc565b6011546012546040519081527fc1834b7b8e63b3b0f178f6db5029a0b263538f97efd46f23593db4b1d08b76cb9060200160405180910390a26000601181815560128290559061105d601382613538565b61106b600383016000613538565b6004820160009055505050565b60008281526006602052604090206001015461109481336126cc565b610ec18383612b17565b6001600160a01b038116331461110e5760405162461bcd60e51b815260206004820152602f60248201527f416363657373436f6e74726f6c3a2063616e206f6e6c792072656e6f756e636560448201526e103937b632b9903337b91039b2b63360891b6064820152608401610bc1565b6111188282612b9d565b5050565b3360008181526001602090815260408083206001600160a01b0387168452909152812054909190610f669082908690611156908790613d98565b612793565b600061116781336126cc565b61116f612c04565b50565b60008051602061405383398151915261118b81336126cc565b600c546000036111dd5760405162461bcd60e51b815260206004820152601d60248201527f476174657761793a206465706f73697420776173206e6f742073656e740000006044820152606401610bc1565b6010546000036111ff5760405162461bcd60e51b8152600401610bc190613db0565b60005b600e548110156112fe576000600c600301828154811061122457611224613df1565b6000918252602082200154600d5460105491935090611244908490613d79565b61124e9190613e07565b9050611284600c600201848154811061126957611269613df1565b6000918252602090912001546001600160a01b031682612c97565b600e80548490811061129857611298613df1565b60009182526020918290200154604080518581529283018490526001600160a01b03909116917f73a19dd210f1a7f902193214c0ee91dd35ee5b4d920cba8d519eca65a7b488ca910160405180910390a2505080806112f690613e29565b915050611202565b506000600c818155600d8290559061105d600e82613538565b600061132381336126cc565b600c54600d546040519081527f465eb03889085ca8d09f8273b70606e977604c53922b48797046c5553b78f2409060200160405180910390a26000600c818155600d8290559061105d600e82613538565b60008051602061405383398151915261138d81336126cc565b60008251116113d95760405162461bcd60e51b815260206004820152601860248201527711d85d195dd85e4e88195b5c1d1e481d5cd95c881b1a5cdd60421b6044820152606401610bc1565b601154156114385760405162461bcd60e51b815260206004820152602660248201527f476174657761793a206f6e6c79206f6e65207769746864726177616c20617661604482015265696c61626c6560d01b6064820152608401610bc1565b600c54156114965760405162461bcd60e51b815260206004820152602560248201527f476174657761793a206e6f206465706f73697420647572696e672077697468646044820152641c985dd85b60da1b6064820152608401610bc1565b6000439050600080845167ffffffffffffffff8111156114b8576114b86138d3565b6040519080825280602002602001820160405280156114e1578160200160208202803683370190505b50905060005b85518110156115ef57600086828151811061150457611504613df1565b60200260200101519050600060176000836001600160a01b03166001600160a01b031681526020019081526020016000205490508084848151811061154b5761154b613df1565b602002602001018181525050600081116115b65760405162461bcd60e51b815260206004820152602660248201527f476174657761793a2077726f6e67207769746864726177616c20746f6b656e20604482015265185b5bdd5b9d60d21b6064820152608401610bc1565b6115c08186613d98565b6001600160a01b03909216600090815260176020526040812055509250806115e781613e29565b9150506114e7565b506115fa3083612d76565b6040805160a081018252848152602080820185905291810187905260608101839052600060808201526011858155601285905587519192909161164391601391908a0190613556565b506060820151805161165f9160038401916020909101906135bb565b506080918201516004909101556040805160016020820152808201869052606081018590526012818401528151808203909301835260a00190526116a681620249f0612ec4565b837fca93029d8b85756be63378bbe39f4c5d787000dd5045194ffa315f85abaffe81846040516116d891815260200190565b60405180910390a2505050505050565b60055460ff161561170b5760405162461bcd60e51b8152600401610bc190613e42565b611118338383612faa565b60008160ff168360ff160361172c575082610fd5565b8160ff168360ff16111561174c576117458484846120ec565b9050610fd5565b610fd2848484610f70565b600061176381336126cc565b61116f613074565b60009182526006602090815260408084206001600160a01b0393909316845291905290205460ff1690565b606060048054610ed590613c13565b3360008181526016602052604090205415611834576001600160a01b03808216600090815260166020526040902054611802917f000000000000000000000000000000000000000000000000000000000000000016908390612730565b6001600160a01b038116600090815260166020526040812054600b80549192909161182e908490613e6c565b90915550505b6001600160a01b038116600081815260166020526040808220829055517f8e6791922f0af048953266d35003db7f19a7c0c3e762206073924390ed2e44a19190a250565b3360008181526001602090815260408083206001600160a01b0387168452909152812054909190838110156118fd5760405162461bcd60e51b815260206004820152602560248201527f45524332303a2064656372656173656420616c6c6f77616e63652062656c6f77604482015264207a65726f60d81b6064820152608401610bc1565b610ff58286868403612793565b600033610f66818585612949565b337f00000000000000000000000000000000000000000000000000000000000000006001600160a01b0316146119aa5760405162461bcd60e51b815260206004820152603160248201527f476174657761793a206f6e6c7920737461726761746520726f757465722063616044820152706e2063616c6c207367526563656976652160781b6064820152608401610bc1565b60085461ffff878116911614611a025760405162461bcd60e51b815260206004820152601e60248201527f476174657761793a2077726f6e6720736f7572636520636861696e20696400006044820152606401610bc1565b600a54604051611a1e916001600160a01b031690602001613b71565b60405160208183030381529060405280519060200120858051906020012014611a895760405162461bcd60e51b815260206004820152601d60248201527f476174657761793a2077726f6e6720736f7572636520616464726573730000006044820152606401610bc1565b600081806020019051810190611a9f9190613bfa565b9050807f67d602bdc07cf358ae32970f3a606dd90c3db875cabc5fe8e989668e5d6d52c484604051611ad391815260200190565b60405180910390a250505050505050565b6000611af081336126cc565b47801561111857604051339082156108fc029083906000818181858888f19350505050158015610ec1573d6000803e3d6000fd5b600080516020614053833981519152611b3d81336126cc565b6000825111611b895760405162461bcd60e51b815260206004820152601860248201527711d85d195dd85e4e88195b5c1d1e481d5cd95c881b1a5cdd60421b6044820152606401610bc1565b600c5415611be55760405162461bcd60e51b815260206004820152602360248201527f476174657761793a206f6e6c79206f6e65206465706f73697420617661696c61604482015262626c6560e81b6064820152608401610bc1565b60115415611c435760405162461bcd60e51b815260206004820152602560248201527f476174657761793a206e6f207769746864726177616c20647572696e672064656044820152641c1bdcda5d60da1b6064820152608401610bc1565b6000439050600080845167ffffffffffffffff811115611c6557611c656138d3565b604051908082528060200260200182016040528015611c8e578160200160208202803683370190505b50905060005b8551811015611d99576000868281518110611cb157611cb1613df1565b60200260200101519050600060166000836001600160a01b03166001600160a01b0316815260200190815260200160002054905080848481518110611cf857611cf8613df1565b60200260200101818152505060008111611d605760405162461bcd60e51b815260206004820152602360248201527f476174657761793a2077726f6e67206465706f73697420746f6b656e20616d6f6044820152621d5b9d60ea1b6064820152608401610bc1565b611d6a8186613d98565b6001600160a01b0390921660009081526016602052604081205550925080611d9181613e29565b915050611c94565b506040805160a08101825284815260208082018590529181018790526060810183905260006080820152600c858155600d859055875191929091611de391600e91908a0190613556565b5060608201518051611dff9160038401916020909101906135bb565b5060809190910151600490910155611e616001600160a01b037f0000000000000000000000000000000000000000000000000000000000000000167f0000000000000000000000000000000000000000000000000000000000000000846130cc565b7f00000000000000000000000000000000000000000000000000000000000000006001600160a01b0316639fbf10fc47600860009054906101000a900461ffff167f00000000000000000000000000000000000000000000000000000000000000006009543088612710600754612710611edb9190613e6c565b611ee5908c613d79565b611eef9190613e07565b6040518060600160405280620249f081526020016000815260200160405180604001604052806002815260200161060f60f31b815250815250600860029054906101000a90046001600160a01b0316604051602001611f4e9190613b71565b6040516020818303038152906040528d604051602001611f7091815260200190565b6040516020818303038152906040526040518b63ffffffff1660e01b8152600401611fa399989796959493929190613e83565b6000604051808303818588803b158015611fbc57600080fd5b505af1158015611fd0573d6000803e3d6000fd5b505050505081600b6000828254611fe79190613e6c565b90915550600090508084847f00000000000000000000000000000000000000000000000000000000000000006001600160a01b031663313ce5676040518163ffffffff1660e01b8152600401602060405180830381865afa158015612050573d6000803e3d6000fd5b505050506040513d601f19601f820116820180604052508101906120749190613bdd565b6040805160ff9586166020820152908101939093526060830191909152909116608082015260a00160405160208183030381529060405290506120ba81620249f0612ec4565b837f249b5b40f3ee110998261a31938a3f3cde15c67ea4b4e49e0e65396b1b699a5f846040516116d891815260200190565b60008160ff168360ff16101561212f5760405162461bcd60e51b8152602060048201526008602482015267424144444543494d60c01b6044820152606401610bc1565b6121398284613c63565b61214490600a613d6a565b610fd29085613e07565b3360008181526017602052604090205415612189576001600160a01b0381166000908152601760205260409020546121899030908390612730565b6001600160a01b038116600081815260176020526040808220829055517fd26c0705ec1b540c110fcc4cba0e7c0608b7e17a1bb09af3ae5876f361829d7a9190a250565b60006121d981336126cc565b6127108261ffff16111561222f5760405162461bcd60e51b815260206004820181905260248201527f476174657761793a2077726f6e6720737461726761746520736c6970706167656044820152606401610bc1565b61ffff821660078190556040519081527fb5cd78aab69202b3af2c4e5171dc7dbb7dd29b301421a6cb87458308944a3ae89060200160405180910390a15050565b600061227c81336126cc565b600880546001600160a01b038681166201000081026001600160b01b031990931661ffff8a16908117939093179093556009869055600a80549186166001600160a01b031990921682179055604080519283526020830193909352818301869052606082015290517f37c902377d6a9dfacbcadf68a38de63e23379a90c73a3813c3edf398b4951a6c9181900360800190a15050505050565b60008281526006602052604090206001015461233181336126cc565b610ec18383612b9d565b60055460ff161561235e5760405162461bcd60e51b8152600401610bc190613e42565b61116f333383612faa565b60008051602061405383398151915261238281336126cc565b6011546000036123d45760405162461bcd60e51b815260206004820181905260248201527f476174657761793a207769746864726177616c20776173206e6f742073656e746044820152606401610bc1565b600b546040516370a0823160e01b8152306004820152600091906001600160a01b037f000000000000000000000000000000000000000000000000000000000000000016906370a0823190602401602060405180830381865afa15801561243f573d6000803e3d6000fd5b505050506040513d601f19601f820116820180604052508101906124639190613bfa565b61246d9190613e6c565b90506127106007546127106124829190613e6c565b60155461248f9190613d79565b6124999190613e07565b8110156124b85760405162461bcd60e51b8152600401610bc190613db0565b60005b6013548110156125c1576000601160030182815481106124dd576124dd613df1565b9060005260206000200154905060006011600201838154811061250257612502613df1565b60009182526020822001546012546001600160a01b0390911692506125278487613d79565b6125319190613e07565b90506125676001600160a01b037f0000000000000000000000000000000000000000000000000000000000000000168383612730565b60408051828152602081018590526001600160a01b038416917f92ccf450a286a957af52509bc1c9939d1a6a481783e142e41e2499f0bb66ebc6910160405180910390a250505080806125b990613e29565b9150506124bb565b50600060118181556012829055906125da601382613538565b6125e8600383016000613538565b600482016000905550505050565b60055460ff16156126195760405162461bcd60e51b8152600401610bc190613e42565b600081116126745760405162461bcd60e51b815260206004820152602260248201527f476174657761793a206c70416d6f756e74206d75737420626520686967686572604482015261020360f41b6064820152608401610bc1565b6126803033818461317e565b33600081815260176020908152604091829020849055905183815282917f37386f192734abb6bb6d2c7a0fbad1e3bfb00e35eec911737c17c02f9d32fb9f910160405180910390a25050565b6126d6828261176b565b611118576126ee816001600160a01b031660146131b6565b6126f98360206131b6565b60405160200161270a929190613f21565b60408051601f198184030181529082905262461bcd60e51b8252610bc1916004016137b9565b6040516001600160a01b038316602482015260448101829052610ec190849063a9059cbb60e01b906064015b60408051601f198184030181529190526020810180516001600160e01b03166001600160e01b031990931692909217909152613352565b6001600160a01b0383166127f55760405162461bcd60e51b8152602060048201526024808201527f45524332303a20617070726f76652066726f6d20746865207a65726f206164646044820152637265737360e01b6064820152608401610bc1565b6001600160a01b0382166128565760405162461bcd60e51b815260206004820152602260248201527f45524332303a20617070726f766520746f20746865207a65726f206164647265604482015261737360f01b6064820152608401610bc1565b6001600160a01b0383811660008181526001602090815260408083209487168084529482529182902085905590518481527f8c5be1e5ebec7d5bd14f71427d1e84f3dd0314c0f7b2291e5b200ac8c7c3b925910160405180910390a3505050565b6001600160a01b03838116600090815260016020908152604080832093861683529290522054600019811461294357818110156129365760405162461bcd60e51b815260206004820152601d60248201527f45524332303a20696e73756666696369656e7420616c6c6f77616e63650000006044820152606401610bc1565b6129438484848403612793565b50505050565b6001600160a01b0383166129ad5760405162461bcd60e51b815260206004820152602560248201527f45524332303a207472616e736665722066726f6d20746865207a65726f206164604482015264647265737360d81b6064820152608401610bc1565b6001600160a01b038216612a0f5760405162461bcd60e51b815260206004820152602360248201527f45524332303a207472616e7366657220746f20746865207a65726f206164647260448201526265737360e81b6064820152608401610bc1565b6001600160a01b03831660009081526020819052604090205481811015612a875760405162461bcd60e51b815260206004820152602660248201527f45524332303a207472616e7366657220616d6f756e7420657863656564732062604482015265616c616e636560d01b6064820152608401610bc1565b6001600160a01b03808516600090815260208190526040808220858503905591851681529081208054849290612abe908490613d98565b92505081905550826001600160a01b0316846001600160a01b03167fddf252ad1be2c89b69c2b068fc378daa952ba7f163c4a11628f55a4df523b3ef84604051612b0a91815260200190565b60405180910390a3612943565b612b21828261176b565b6111185760008281526006602090815260408083206001600160a01b03851684529091529020805460ff19166001179055612b593390565b6001600160a01b0316816001600160a01b0316837f2f8788117e7eff1d82e926ec794901d17c78024a50270940304540a733656f0d60405160405180910390a45050565b612ba7828261176b565b156111185760008281526006602090815260408083206001600160a01b0385168085529252808320805460ff1916905551339285917ff6391f5c32d9c69d2a47ea670b442974b53935d1edc7fd64eb21e047a839171b9190a45050565b60055460ff16612c4d5760405162461bcd60e51b815260206004820152601460248201527314185d5cd8589b194e881b9bdd081c185d5cd95960621b6044820152606401610bc1565b6005805460ff191690557f5db9ee0a495bf2e6ff9c91a7834c1ba4fdd244a5e8aa4e537bd38aeae4b073aa335b6040516001600160a01b03909116815260200160405180910390a1565b6001600160a01b038216612ced5760405162461bcd60e51b815260206004820152601f60248201527f45524332303a206d696e7420746f20746865207a65726f2061646472657373006044820152606401610bc1565b8060026000828254612cff9190613d98565b90915550506001600160a01b03821660009081526020819052604081208054839290612d2c908490613d98565b90915550506040518181526001600160a01b038316906000907fddf252ad1be2c89b69c2b068fc378daa952ba7f163c4a11628f55a4df523b3ef9060200160405180910390a35050565b6001600160a01b038216612dd65760405162461bcd60e51b815260206004820152602160248201527f45524332303a206275726e2066726f6d20746865207a65726f206164647265736044820152607360f81b6064820152608401610bc1565b6001600160a01b03821660009081526020819052604090205481811015612e4a5760405162461bcd60e51b815260206004820152602260248201527f45524332303a206275726e20616d6f756e7420657863656564732062616c616e604482015261636560f01b6064820152608401610bc1565b6001600160a01b0383166000908152602081905260408120838303905560028054849290612e79908490613e6c565b90915550506040518281526000906001600160a01b038516907fddf252ad1be2c89b69c2b068fc378daa952ba7f163c4a11628f55a4df523b3ef9060200160405180910390a3505050565b60408051600160f01b6020820152602280820184905282518083039091018152604282019092526008546001600160a01b037f000000000000000000000000000000000000000000000000000000000000000081169263c580310092479261ffff821692612f3e9262010000900490911690606201613b71565b60405160208183030381529060405287306000886040518863ffffffff1660e01b8152600401612f7396959493929190613f96565b6000604051808303818588803b158015612f8c57600080fd5b505af1158015612fa0573d6000803e3d6000fd5b5050505050505050565b801561302c57612fe56001600160a01b037f00000000000000000000000000000000000000000000000000000000000000001684308461317e565b6001600160a01b0382166000908152601660205260408120805483929061300d908490613d98565b9250508190555080600b60008282546130269190613d98565b90915550505b816001600160a01b03167fe5fbbd94268e59434a5d90c30d6d5f20f302ebbcc75887f60552c7cd664709738260405161306791815260200190565b60405180910390a2505050565b60055460ff16156130975760405162461bcd60e51b8152600401610bc190613e42565b6005805460ff191660011790557f62e78cea01bee320cd4e420270b5ea74000d11b0c9f74754ebdbfc544b05a258612c7a3390565b604051636eb1769f60e11b81523060048201526001600160a01b038381166024830152600091839186169063dd62ed3e90604401602060405180830381865afa15801561311d573d6000803e3d6000fd5b505050506040513d601f19601f820116820180604052508101906131419190613bfa565b61314b9190613d98565b6040516001600160a01b03851660248201526044810182905290915061294390859063095ea7b360e01b9060640161275c565b6040516001600160a01b03808516602483015283166044820152606481018290526129439085906323b872dd60e01b9060840161275c565b606060006131c5836002613d79565b6131d0906002613d98565b67ffffffffffffffff8111156131e8576131e86138d3565b6040519080825280601f01601f191660200182016040528015613212576020820181803683370190505b509050600360fc1b8160008151811061322d5761322d613df1565b60200101906001600160f81b031916908160001a905350600f60fb1b8160018151811061325c5761325c613df1565b60200101906001600160f81b031916908160001a9053506000613280846002613d79565b61328b906001613d98565b90505b6001811115613303576f181899199a1a9b1b9c1cb0b131b232b360811b85600f16601081106132bf576132bf613df1565b1a60f81b8282815181106132d5576132d5613df1565b60200101906001600160f81b031916908160001a90535060049490941c936132fc81613ffd565b905061328e565b508315610fd55760405162461bcd60e51b815260206004820181905260248201527f537472696e67733a20686578206c656e67746820696e73756666696369656e746044820152606401610bc1565b60006133a7826040518060400160405280602081526020017f5361666545524332303a206c6f772d6c6576656c2063616c6c206661696c6564815250856001600160a01b03166134249092919063ffffffff16565b805190915015610ec157808060200190518101906133c59190614014565b610ec15760405162461bcd60e51b815260206004820152602a60248201527f5361666545524332303a204552433230206f7065726174696f6e20646964206e6044820152691bdd081cdd58d8d9595960b21b6064820152608401610bc1565b6060610fd28484600085856001600160a01b0385163b6134865760405162461bcd60e51b815260206004820152601d60248201527f416464726573733a2063616c6c20746f206e6f6e2d636f6e74726163740000006044820152606401610bc1565b600080866001600160a01b031685876040516134a29190614036565b60006040518083038185875af1925050503d80600081146134df576040519150601f19603f3d011682016040523d82523d6000602084013e6134e4565b606091505b50915091506134f48282866134ff565b979650505050505050565b6060831561350e575081610fd5565b82511561351e5782518084602001fd5b8160405162461bcd60e51b8152600401610bc191906137b9565b508054600082559060005260206000209081019061116f91906135f6565b8280548282559060005260206000209081019282156135ab579160200282015b828111156135ab57825182546001600160a01b0319166001600160a01b03909116178255602090920191600190910190613576565b506135b79291506135f6565b5090565b8280548282559060005260206000209081019282156135ab579160200282015b828111156135ab5782518255916020019190600101906135db565b5b808211156135b757600081556001016135f7565b803561ffff8116811461361d57600080fd5b919050565b60008083601f84011261363457600080fd5b50813567ffffffffffffffff81111561364c57600080fd5b60208301915083602082850101111561366457600080fd5b9250929050565b6000806000806000806080878903121561368457600080fd5b61368d8761360b565b9550602087013567ffffffffffffffff808211156136aa57600080fd5b6136b68a838b01613622565b90975095506040890135915080821682146136d057600080fd5b909350606088013590808211156136e657600080fd5b506136f389828a01613622565b979a9699509497509295939492505050565b60006020828403121561371757600080fd5b81356001600160e01b031981168114610fd557600080fd5b6001600160a01b038116811461116f57600080fd5b60006020828403121561375657600080fd5b8135610fd58161372f565b60005b8381101561377c578181015183820152602001613764565b838111156129435750506000910152565b600081518084526137a5816020860160208601613761565b601f01601f19169290920160200192915050565b602081526000610fd5602083018461378d565b600080604083850312156137df57600080fd5b82356137ea8161372f565b946020939093013593505050565b60ff8116811461116f57600080fd5b60008060006060848603121561381c57600080fd5b83359250602084013561382e816137f8565b9150604084013561383e816137f8565b809150509250925092565b60008060006060848603121561385e57600080fd5b83356138698161372f565b925060208401356138798161372f565b929592945050506040919091013590565b60006020828403121561389c57600080fd5b5035919050565b600080604083850312156138b657600080fd5b8235915060208301356138c88161372f565b809150509250929050565b634e487b7160e01b600052604160045260246000fd5b604051601f8201601f1916810167ffffffffffffffff81118282101715613912576139126138d3565b604052919050565b6000602080838503121561392d57600080fd5b823567ffffffffffffffff8082111561394557600080fd5b818501915085601f83011261395957600080fd5b81358181111561396b5761396b6138d3565b8060051b915061397c8483016138e9565b818152918301840191848101908884111561399657600080fd5b938501935b838510156139c057843592506139b08361372f565b828252938501939085019061399b565b98975050505050505050565b600082601f8301126139dd57600080fd5b813567ffffffffffffffff8111156139f7576139f76138d3565b613a0a601f8201601f19166020016138e9565b818152846020838601011115613a1f57600080fd5b816020850160208301376000918101602001919091529392505050565b60008060008060008060c08789031215613a5557600080fd5b613a5e8761360b565b9550602087013567ffffffffffffffff80821115613a7b57600080fd5b613a878a838b016139cc565b96506040890135955060608901359150613aa08261372f565b9093506080880135925060a08801359080821115613abd57600080fd5b50613aca89828a016139cc565b9150509295509295509295565b600060208284031215613ae957600080fd5b610fd58261360b565b60008060008060808587031215613b0857600080fd5b613b118561360b565b93506020850135613b218161372f565b9250604085013591506060850135613b388161372f565b939692955090935050565b60008060408385031215613b5657600080fd5b8235613b618161372f565b915060208301356138c88161372f565b60609190911b6bffffffffffffffffffffffff1916815260140190565b8183823760009101908152919050565b60008060008060808587031215613bb457600080fd5b8435613bbf816137f8565b935060208501359250604085013591506060850135613b38816137f8565b600060208284031215613bef57600080fd5b8151610fd5816137f8565b600060208284031215613c0c57600080fd5b5051919050565b600181811c90821680613c2757607f821691505b602082108103613c4757634e487b7160e01b600052602260045260246000fd5b50919050565b634e487b7160e01b600052601160045260246000fd5b600060ff821660ff841680821015613c7d57613c7d613c4d565b90039392505050565b600181815b80851115613cc1578160001904821115613ca757613ca7613c4d565b80851615613cb457918102915b93841c9390800290613c8b565b509250929050565b600082613cd857506001610e28565b81613ce557506000610e28565b8160018114613cfb5760028114613d0557613d21565b6001915050610e28565b60ff841115613d1657613d16613c4d565b50506001821b610e28565b5060208310610133831016604e8410600b8410161715613d44575081810a610e28565b613d4e8383613c86565b8060001904821115613d6257613d62613c4d565b029392505050565b6000610fd560ff841683613cc9565b6000816000190483118215151615613d9357613d93613c4d565b500290565b60008219821115613dab57613dab613c4d565b500190565b60208082526021908201527f476174657761793a2063616c6c6261636b207761736e277420726563656976656040820152601960fa1b606082015260800190565b634e487b7160e01b600052603260045260246000fd5b600082613e2457634e487b7160e01b600052601260045260246000fd5b500490565b600060018201613e3b57613e3b613c4d565b5060010190565b60208082526010908201526f14185d5cd8589b194e881c185d5cd95960821b604082015260600190565b600082821015613e7e57613e7e613c4d565b500390565b600061012061ffff8c1683528a602084015289604084015260018060a01b03891660608401528760808401528660a08401528060c084015285518184015250602085015161014083015260408501516060610160840152613ee861018084018261378d565b905082810360e0840152613efc818661378d565b9050828103610100840152613f11818561378d565b9c9b505050505050505050505050565b7f416363657373436f6e74726f6c3a206163636f756e7420000000000000000000815260008351613f59816017850160208801613761565b7001034b99036b4b9b9b4b733903937b6329607d1b6017918401918201528351613f8a816028840160208801613761565b01602801949350505050565b61ffff8716815260c060208201526000613fb360c083018861378d565b8281036040840152613fc5818861378d565b6001600160a01b0387811660608601528616608085015283810360a08501529050613ff0818561378d565b9998505050505050505050565b60008161400c5761400c613c4d565b506000190190565b60006020828403121561402657600080fd5b81518015158114610fd557600080fd5b60008251614048818460208701613761565b919091019291505056fe97667070c54ef182b0f5858b034beac1b6f3089aa2d3188bb1e8929f4fa9b929a26469706673582212200d50e7f271ef1489bc7e6205078f5f8ee22680e46adda3e2dd3501606d62335364736f6c634300080f0033",
  "linkReferences": {},
  "deployedLinkReferences": {}
}