{
  "_format": "hh-sol-artifact-1",
  "contractName": "RebalancingStrat",
  "sourceName": "contracts/strategies/utility/RebalancingStrat.sol",
  "abi": [
    {
      "inputs": [
        {
          "internalType": "contract IERC20Metadata[3]",
          "name": "_tokens",
          "type": "address[3]"
        }
      ],
      "stateMutability": "nonpayable",
      "type": "constructor"
    },
    {
      "anonymous": false,
      "inputs": [
        {
          "indexed": true,
          "internalType": "address",
          "name": "previousOwner",
          "type": "address"
        },
        {
          "indexed": true,
          "internalType": "address",
          "name": "newOwner",
          "type": "address"
        }
      ],
      "name": "OwnershipTransferred",
      "type": "event"
    },
    {
      "inputs": [],
      "name": "PRICE_DENOMINATOR",
      "outputs": [
        {
          "internalType": "uint256",
          "name": "",
          "type": "uint256"
        }
      ],
      "stateMutability": "view",
      "type": "function"
    },
    {
      "inputs": [],
      "name": "autoCompound",
      "outputs": [],
      "stateMutability": "nonpayable",
      "type": "function"
    },
    {
      "inputs": [],
      "name": "claimManagementFees",
      "outputs": [
        {
          "internalType": "uint256",
          "name": "",
          "type": "uint256"
        }
      ],
      "stateMutability": "nonpayable",
      "type": "function"
    },
    {
      "inputs": [
        {
          "internalType": "uint256",
          "name": "",
          "type": "uint256"
        }
      ],
      "name": "decimalsMultipliers",
      "outputs": [
        {
          "internalType": "uint256",
          "name": "",
          "type": "uint256"
        }
      ],
      "stateMutability": "view",
      "type": "function"
    },
    {
      "inputs": [
        {
          "internalType": "uint256[3]",
          "name": "amounts",
          "type": "uint256[3]"
        }
      ],
      "name": "deposit",
      "outputs": [
        {
          "internalType": "uint256",
          "name": "",
          "type": "uint256"
        }
      ],
      "stateMutability": "nonpayable",
      "type": "function"
    },
    {
      "inputs": [],
      "name": "managementFees",
      "outputs": [
        {
          "internalType": "uint256",
          "name": "",
          "type": "uint256"
        }
      ],
      "stateMutability": "view",
      "type": "function"
    },
    {
      "inputs": [],
      "name": "minDepositAmount",
      "outputs": [
        {
          "internalType": "uint256",
          "name": "",
          "type": "uint256"
        }
      ],
      "stateMutability": "view",
      "type": "function"
    },
    {
      "inputs": [],
      "name": "owner",
      "outputs": [
        {
          "internalType": "address",
          "name": "",
          "type": "address"
        }
      ],
      "stateMutability": "view",
      "type": "function"
    },
    {
      "inputs": [],
      "name": "renounceOwnership",
      "outputs": [],
      "stateMutability": "view",
      "type": "function"
    },
    {
      "inputs": [
        {
          "internalType": "address",
          "name": "zunamiAddr",
          "type": "address"
        }
      ],
      "name": "setZunami",
      "outputs": [],
      "stateMutability": "nonpayable",
      "type": "function"
    },
    {
      "inputs": [
        {
          "internalType": "uint256",
          "name": "",
          "type": "uint256"
        }
      ],
      "name": "tokens",
      "outputs": [
        {
          "internalType": "contract IERC20Metadata",
          "name": "",
          "type": "address"
        }
      ],
      "stateMutability": "view",
      "type": "function"
    },
    {
      "inputs": [],
      "name": "totalHoldings",
      "outputs": [
        {
          "internalType": "uint256",
          "name": "",
          "type": "uint256"
        }
      ],
      "stateMutability": "view",
      "type": "function"
    },
    {
      "inputs": [
        {
          "internalType": "address",
          "name": "newOwner",
          "type": "address"
        }
      ],
      "name": "transferOwnership",
      "outputs": [],
      "stateMutability": "nonpayable",
      "type": "function"
    },
    {
      "inputs": [
        {
          "internalType": "uint256",
          "name": "_minDepositAmount",
          "type": "uint256"
        }
      ],
      "name": "updateMinDepositAmount",
      "outputs": [],
      "stateMutability": "nonpayable",
      "type": "function"
    },
    {
      "inputs": [
        {
          "internalType": "address",
          "name": "withdrawer",
          "type": "address"
        },
        {
          "internalType": "uint256",
          "name": "userRatioOfCrvLps",
          "type": "uint256"
        },
        {
          "internalType": "uint256[3]",
          "name": "tokenAmounts",
          "type": "uint256[3]"
        },
        {
          "internalType": "enum RebalancingStrat.WithdrawalType",
          "name": "withdrawalType",
          "type": "uint8"
        },
        {
          "internalType": "uint128",
          "name": "tokenIndex",
          "type": "uint128"
        }
      ],
      "name": "withdraw",
      "outputs": [
        {
          "internalType": "bool",
          "name": "",
          "type": "bool"
        }
      ],
      "stateMutability": "nonpayable",
      "type": "function"
    },
    {
      "inputs": [],
      "name": "withdrawAll",
      "outputs": [],
      "stateMutability": "nonpayable",
      "type": "function"
    },
    {
      "inputs": [
        {
          "internalType": "contract IERC20Metadata",
          "name": "_token",
          "type": "address"
        }
      ],
      "name": "withdrawStuckToken",
      "outputs": [],
      "stateMutability": "nonpayable",
      "type": "function"
    },
    {
      "inputs": [
        {
          "internalType": "address",
          "name": "_token",
          "type": "address"
        },
        {
          "internalType": "uint256",
          "name": "_amount",
          "type": "uint256"
        },
        {
          "internalType": "address",
          "name": "_to",
          "type": "address"
        }
      ],
      "name": "withdrawStuckTokenTo",
      "outputs": [],
      "stateMutability": "nonpayable",
      "type": "function"
    },
    {
      "inputs": [],
      "name": "zunami",
      "outputs": [
        {
          "internalType": "contract IZunami",
          "name": "",
          "type": "address"
        }
      ],
      "stateMutability": "view",
      "type": "function"
    }
  ],
  "bytecode": "0x608060405260006005556126f76006553480156200001c57600080fd5b506040516200164f3803806200164f8339810160408190526200003f91620002a2565b6200004a33620000c7565b62000059600282600362000211565b5060005b6003811015620000bf5762000092600282600381106200008157620000816200033c565b01546001600160a01b031662000117565b60078260048110620000a857620000a86200033c565b015580620000b68162000368565b9150506200005d565b5050620004e1565b600080546001600160a01b038381166001600160a01b0319831681178455604051919092169283917f8be0079c531659141344cd1fd0a4f28419497f9722a3daafe3b4186f6b6457e09190a35050565b600080826001600160a01b031663313ce5676040518163ffffffff1660e01b8152600401602060405180830381865afa15801562000159573d6000803e3d6000fd5b505050506040513d601f19601f820116820180604052508101906200017f919062000386565b905060128160ff161115620001da5760405162461bcd60e51b815260206004820152601c60248201527f5a756e616d693a2077726f6e6720746f6b656e20646563696d616c7300000000604482015260640160405180910390fd5b8060ff1660121415620001f05750600192915050565b620001fd816012620003ab565b6200020a90600a620004d0565b9392505050565b82600381019282156200025c579160200282015b828111156200025c57825182546001600160a01b0319166001600160a01b0390911617825560209092019160019091019062000225565b506200026a9291506200026e565b5090565b5b808211156200026a57600081556001016200026f565b80516001600160a01b03811681146200029d57600080fd5b919050565b600060608284031215620002b557600080fd5b82601f830112620002c557600080fd5b604051606081016001600160401b0381118282101715620002f657634e487b7160e01b600052604160045260246000fd5b6040528060608401858111156200030c57600080fd5b845b818110156200033157620003228162000285565b8352602092830192016200030e565b509195945050505050565b634e487b7160e01b600052603260045260246000fd5b634e487b7160e01b600052601160045260246000fd5b60006000198214156200037f576200037f62000352565b5060010190565b6000602082840312156200039957600080fd5b815160ff811681146200020a57600080fd5b600060ff821660ff841680821015620003c857620003c862000352565b90039392505050565b600181815b8085111562000412578160001904821115620003f657620003f662000352565b808516156200040457918102915b93841c9390800290620003d6565b509250929050565b6000826200042b57506001620004ca565b816200043a57506000620004ca565b81600181146200045357600281146200045e576200047e565b6001915050620004ca565b60ff84111562000472576200047262000352565b50506001821b620004ca565b5060208310610133831016604e8410600b8410161715620004a3575081810a620004ca565b620004af8383620003d1565b8060001904821115620004c657620004c662000352565b0290505b92915050565b60006200020a60ff8416836200041a565b61115e80620004f16000396000f3fe608060405234801561001057600080fd5b50600436106101215760003560e01c806381ff3e8b116100ad5780638da5cb5b116100715780638da5cb5b14610224578063d4e20b0114610235578063e9ec2e9914610248578063f2fde38b14610250578063f3dab52f1461026357600080fd5b806381ff3e8b146101db578063821c0576146101ee57806384780205146101f6578063853828b6146102095780638c744e721461021157600080fd5b80635cdfd08c116100f45780635cdfd08c1461018f578063645006ca146101985780636c1516e1146101a1578063715018a6146101b057806378a59a25146101b857600080fd5b8063068acf6c146101265780633b99c8fe1461013b5780634f64b2be1461014e5780635c91bba01461017e575b600080fd5b610139610134366004610db6565b610276565b005b610139610149366004610db6565b610334565b61016161015c366004610dd3565b610380565b6040516001600160a01b0390911681526020015b60405180910390f35b60005b604051908152602001610175565b61018160055481565b61018160065481565b610181670de0b6b3a764000081565b6101396103a0565b6101cb6101c6366004610e68565b610412565b6040519015158152602001610175565b600154610161906001600160a01b031681565b610139610500565b610139610204366004610dd3565b610535565b6101396105b2565b61018161021f366004610dd3565b6105fa565b6000546001600160a01b0316610161565b610181610243366004610ee8565b610611565b61018161069b565b61013961025e366004610db6565b61076a565b610139610271366004610f04565b610805565b6000546001600160a01b031633146102a95760405162461bcd60e51b81526004016102a090610f46565b60405180910390fd5b6040516370a0823160e01b81523060048201526000906001600160a01b038316906370a0823190602401602060405180830381865afa1580156102f0573d6000803e3d6000fd5b505050506040513d601f19601f820116820180604052508101906103149190610f7b565b90508015610330576103306001600160a01b03831633836108fa565b5050565b6000546001600160a01b0316331461035e5760405162461bcd60e51b81526004016102a090610f46565b600180546001600160a01b0319166001600160a01b0392909216919091179055565b6002816003811061039057600080fd5b01546001600160a01b0316905081565b6000546001600160a01b031633146103ca5760405162461bcd60e51b81526004016102a090610f46565b60405162461bcd60e51b815260206004820152601f60248201527f546865207374726174656779206d757374206861766520616e206f776e65720060448201526064016102a0565b6001546000906001600160a01b0316336001600160a01b0316146104485760405162461bcd60e51b81526004016102a090610f94565b6000851180156104605750670de0b6b3a76400008511155b61049d5760405162461bcd60e51b815260206004820152600e60248201526d57726f6e67206c7020526174696f60901b60448201526064016102a0565b60008360018111156104b1576104b1610fd5565b146104ea5760405162461bcd60e51b81526020600482015260096024820152684f6e6c79206261736560b81b60448201526064016102a0565b6104f4868661094c565b50600195945050505050565b6001546001600160a01b0316336001600160a01b0316146105335760405162461bcd60e51b81526004016102a090610f94565b565b6000546001600160a01b0316331461055f5760405162461bcd60e51b81526004016102a090610f46565b60008111801561057157506127108111155b6105ad5760405162461bcd60e51b815260206004820152600d60248201526c57726f6e6720616d6f756e742160981b60448201526064016102a0565b600655565b6001546001600160a01b0316336001600160a01b0316146105e55760405162461bcd60e51b81526004016102a090610f94565b600154610533906001600160a01b0316610a3f565b6007816004811061060a57600080fd5b0154905081565b60008060005b600381101561069457600084826003811061063457610634610feb565b60200201511115610682576007816004811061065257610652610feb565b015484826003811061066657610666610feb565b60200201516106759190611017565b61067f9083611036565b91505b8061068c8161104e565b915050610617565b5092915050565b600080805b600381101561076457600781600481106106bc576106bc610feb565b0154600282600381106106d1576106d1610feb565b01546040516370a0823160e01b81523060048201526001600160a01b03909116906370a0823190602401602060405180830381865afa158015610718573d6000803e3d6000fd5b505050506040513d601f19601f8201168201806040525081019061073c9190610f7b565b6107469190611017565b6107509083611036565b91508061075c8161104e565b9150506106a0565b50919050565b6000546001600160a01b031633146107945760405162461bcd60e51b81526004016102a090610f46565b6001600160a01b0381166107f95760405162461bcd60e51b815260206004820152602660248201527f4f776e61626c653a206e6577206f776e657220697320746865207a65726f206160448201526564647265737360d01b60648201526084016102a0565b61080281610afc565b50565b6000546001600160a01b0316331461082f5760405162461bcd60e51b81526004016102a090610f46565b6001600160a01b03831661086d5760405162461bcd60e51b81526020600482015260056024820152642a27a5a2a760d91b60448201526064016102a0565b600082116108a65760405162461bcd60e51b8152602060048201526006602482015265105353d5539560d21b60448201526064016102a0565b6001600160a01b0381166108e15760405162461bcd60e51b8152602060048201526002602482015261544f60f01b60448201526064016102a0565b6108f56001600160a01b03841682846108fa565b505050565b604080516001600160a01b038416602482015260448082018490528251808303909101815260649091019091526020810180516001600160e01b031663a9059cbb60e01b1790526108f5908490610b4c565b6000805b6003811015610a3957670de0b6b3a7640000836002836003811061097657610976610feb565b01546040516370a0823160e01b81523060048201526001600160a01b03909116906370a0823190602401602060405180830381865afa1580156109bd573d6000803e3d6000fd5b505050506040513d601f19601f820116820180604052508101906109e19190610f7b565b6109eb9190611017565b6109f59190611069565b91508115610a2757610a27848360028460038110610a1557610a15610feb565b01546001600160a01b031691906108fa565b80610a318161104e565b915050610950565b50505050565b6000805b60038110156108f55760028160038110610a5f57610a5f610feb565b01546040516370a0823160e01b81523060048201526001600160a01b03909116906370a0823190602401602060405180830381865afa158015610aa6573d6000803e3d6000fd5b505050506040513d601f19601f82011682018060405250810190610aca9190610f7b565b91508115610aea57610aea838360028460038110610a1557610a15610feb565b80610af48161104e565b915050610a43565b600080546001600160a01b038381166001600160a01b0319831681178455604051919092169283917f8be0079c531659141344cd1fd0a4f28419497f9722a3daafe3b4186f6b6457e09190a35050565b6000610ba1826040518060400160405280602081526020017f5361666545524332303a206c6f772d6c6576656c2063616c6c206661696c6564815250856001600160a01b0316610c1e9092919063ffffffff16565b8051909150156108f55780806020019051810190610bbf919061108b565b6108f55760405162461bcd60e51b815260206004820152602a60248201527f5361666545524332303a204552433230206f7065726174696f6e20646964206e6044820152691bdd081cdd58d8d9595960b21b60648201526084016102a0565b6060610c2d8484600085610c37565b90505b9392505050565b606082471015610c985760405162461bcd60e51b815260206004820152602660248201527f416464726573733a20696e73756666696369656e742062616c616e636520666f6044820152651c8818d85b1b60d21b60648201526084016102a0565b6001600160a01b0385163b610cef5760405162461bcd60e51b815260206004820152601d60248201527f416464726573733a2063616c6c20746f206e6f6e2d636f6e747261637400000060448201526064016102a0565b600080866001600160a01b03168587604051610d0b91906110d9565b60006040518083038185875af1925050503d8060008114610d48576040519150601f19603f3d011682016040523d82523d6000602084013e610d4d565b606091505b5091509150610d5d828286610d68565b979650505050505050565b60608315610d77575081610c30565b825115610d875782518084602001fd5b8160405162461bcd60e51b81526004016102a091906110f5565b6001600160a01b038116811461080257600080fd5b600060208284031215610dc857600080fd5b8135610c3081610da1565b600060208284031215610de557600080fd5b5035919050565b600082601f830112610dfd57600080fd5b6040516060810181811067ffffffffffffffff82111715610e2e57634e487b7160e01b600052604160045260246000fd5b604052806060840185811115610e4357600080fd5b845b81811015610e5d578035835260209283019201610e45565b509195945050505050565b600080600080600060e08688031215610e8057600080fd5b8535610e8b81610da1565b945060208601359350610ea18760408801610dec565b925060a086013560028110610eb557600080fd5b915060c08601356fffffffffffffffffffffffffffffffff81168114610eda57600080fd5b809150509295509295909350565b600060608284031215610efa57600080fd5b610c308383610dec565b600080600060608486031215610f1957600080fd5b8335610f2481610da1565b9250602084013591506040840135610f3b81610da1565b809150509250925092565b6020808252818101527f4f776e61626c653a2063616c6c6572206973206e6f7420746865206f776e6572604082015260600190565b600060208284031215610f8d57600080fd5b5051919050565b60208082526021908201527f6d7573742062652063616c6c6564206279205a756e616d6920636f6e747261636040820152601d60fa1b606082015260800190565b634e487b7160e01b600052602160045260246000fd5b634e487b7160e01b600052603260045260246000fd5b634e487b7160e01b600052601160045260246000fd5b600081600019048311821515161561103157611031611001565b500290565b6000821982111561104957611049611001565b500190565b600060001982141561106257611062611001565b5060010190565b60008261108657634e487b7160e01b600052601260045260246000fd5b500490565b60006020828403121561109d57600080fd5b81518015158114610c3057600080fd5b60005b838110156110c85781810151838201526020016110b0565b83811115610a395750506000910152565b600082516110eb8184602087016110ad565b9190910192915050565b60208152600082518060208401526111148160408501602087016110ad565b601f01601f1916919091016040019291505056fea2646970667358221220393c89ee8d8d4e03148f630a388f45fe57b15c6e4990a4bd0a7065e33985cd3564736f6c634300080c0033",
  "linkReferences": {},
  "deployedLinkReferences": {}
}