{
  "_format": "hh-sol-artifact-1",
  "contractName": "ZunamiForwarder",
  "sourceName": "contracts/crosschain/ZunamiForwarder.sol",
  "abi": [
    {
      "inputs": [
        {
          "internalType": "contract IERC20Metadata[3]",
          "name": "_tokens",
          "type": "address[3]"
        },
        {
          "internalType": "uint256",
          "name": "_tokenPoolId",
          "type": "uint256"
        },
        {
          "internalType": "address",
          "name": "_zunami",
          "type": "address"
        },
        {
          "internalType": "address",
          "name": "_curveExchange",
          "type": "address"
        },
        {
          "internalType": "address",
          "name": "_stargateRouter",
          "type": "address"
        },
        {
          "internalType": "address",
          "name": "_layerZeroEndpoint",
          "type": "address"
        }
      ],
      "stateMutability": "nonpayable",
      "type": "constructor"
    },
    {
      "anonymous": false,
      "inputs": [
        {
          "indexed": true,
          "internalType": "uint256",
          "name": "id",
          "type": "uint256"
        },
        {
          "indexed": false,
          "internalType": "uint256",
          "name": "tokenId",
          "type": "uint256"
        },
        {
          "indexed": false,
          "internalType": "uint256",
          "name": "tokenAmount",
          "type": "uint256"
        }
      ],
      "name": "CreatedPendingDeposit",
      "type": "event"
    },
    {
      "anonymous": false,
      "inputs": [
        {
          "indexed": true,
          "internalType": "uint256",
          "name": "id",
          "type": "uint256"
        },
        {
          "indexed": false,
          "internalType": "uint256",
          "name": "lpShares",
          "type": "uint256"
        }
      ],
      "name": "CreatedPendingWithdrawal",
      "type": "event"
    },
    {
      "anonymous": false,
      "inputs": [
        {
          "indexed": true,
          "internalType": "uint256",
          "name": "id",
          "type": "uint256"
        },
        {
          "indexed": false,
          "internalType": "uint256",
          "name": "lpShares",
          "type": "uint256"
        }
      ],
      "name": "Deposited",
      "type": "event"
    },
    {
      "anonymous": false,
      "inputs": [
        {
          "indexed": true,
          "internalType": "bytes32",
          "name": "role",
          "type": "bytes32"
        },
        {
          "indexed": true,
          "internalType": "bytes32",
          "name": "previousAdminRole",
          "type": "bytes32"
        },
        {
          "indexed": true,
          "internalType": "bytes32",
          "name": "newAdminRole",
          "type": "bytes32"
        }
      ],
      "name": "RoleAdminChanged",
      "type": "event"
    },
    {
      "anonymous": false,
      "inputs": [
        {
          "indexed": true,
          "internalType": "bytes32",
          "name": "role",
          "type": "bytes32"
        },
        {
          "indexed": true,
          "internalType": "address",
          "name": "account",
          "type": "address"
        },
        {
          "indexed": true,
          "internalType": "address",
          "name": "sender",
          "type": "address"
        }
      ],
      "name": "RoleGranted",
      "type": "event"
    },
    {
      "anonymous": false,
      "inputs": [
        {
          "indexed": true,
          "internalType": "bytes32",
          "name": "role",
          "type": "bytes32"
        },
        {
          "indexed": true,
          "internalType": "address",
          "name": "account",
          "type": "address"
        },
        {
          "indexed": true,
          "internalType": "address",
          "name": "sender",
          "type": "address"
        }
      ],
      "name": "RoleRevoked",
      "type": "event"
    },
    {
      "anonymous": false,
      "inputs": [
        {
          "indexed": false,
          "internalType": "uint256",
          "name": "chainId",
          "type": "uint256"
        },
        {
          "indexed": false,
          "internalType": "address",
          "name": "gateway",
          "type": "address"
        },
        {
          "indexed": false,
          "internalType": "uint256",
          "name": "tokenPoolId",
          "type": "uint256"
        }
      ],
      "name": "SetGatewayParams",
      "type": "event"
    },
    {
      "anonymous": false,
      "inputs": [
        {
          "indexed": true,
          "internalType": "uint256",
          "name": "id",
          "type": "uint256"
        },
        {
          "indexed": false,
          "internalType": "uint256",
          "name": "tokenId",
          "type": "uint256"
        },
        {
          "indexed": false,
          "internalType": "uint256",
          "name": "tokenAmount",
          "type": "uint256"
        }
      ],
      "name": "Withdrawn",
      "type": "event"
    },
    {
      "inputs": [],
      "name": "DAI_TOKEN_ID",
      "outputs": [
        {
          "internalType": "int128",
          "name": "",
          "type": "int128"
        }
      ],
      "stateMutability": "view",
      "type": "function"
    },
    {
      "inputs": [],
      "name": "DEFAULT_ADMIN_ROLE",
      "outputs": [
        {
          "internalType": "bytes32",
          "name": "",
          "type": "bytes32"
        }
      ],
      "stateMutability": "view",
      "type": "function"
    },
    {
      "inputs": [],
      "name": "OPERATOR_ROLE",
      "outputs": [
        {
          "internalType": "bytes32",
          "name": "",
          "type": "bytes32"
        }
      ],
      "stateMutability": "view",
      "type": "function"
    },
    {
      "inputs": [],
      "name": "POOL_ASSETS",
      "outputs": [
        {
          "internalType": "uint8",
          "name": "",
          "type": "uint8"
        }
      ],
      "stateMutability": "view",
      "type": "function"
    },
    {
      "inputs": [],
      "name": "SG_FEE_DIVIDER",
      "outputs": [
        {
          "internalType": "uint256",
          "name": "",
          "type": "uint256"
        }
      ],
      "stateMutability": "view",
      "type": "function"
    },
    {
      "inputs": [],
      "name": "SG_FEE_REDUCER",
      "outputs": [
        {
          "internalType": "uint256",
          "name": "",
          "type": "uint256"
        }
      ],
      "stateMutability": "view",
      "type": "function"
    },
    {
      "inputs": [],
      "name": "USDC_TOKEN_ID",
      "outputs": [
        {
          "internalType": "int128",
          "name": "",
          "type": "int128"
        }
      ],
      "stateMutability": "view",
      "type": "function"
    },
    {
      "inputs": [],
      "name": "USDT_TOKEN_ID",
      "outputs": [
        {
          "internalType": "uint128",
          "name": "",
          "type": "uint128"
        }
      ],
      "stateMutability": "view",
      "type": "function"
    },
    {
      "inputs": [
        {
          "internalType": "uint256",
          "name": "depositId",
          "type": "uint256"
        },
        {
          "internalType": "uint256",
          "name": "zlpTotalAmount",
          "type": "uint256"
        }
      ],
      "name": "completeCrosschainDeposit",
      "outputs": [],
      "stateMutability": "payable",
      "type": "function"
    },
    {
      "inputs": [
        {
          "internalType": "uint256",
          "name": "withdrawalId",
          "type": "uint256"
        }
      ],
      "name": "completeCrosschainWithdrawal",
      "outputs": [],
      "stateMutability": "payable",
      "type": "function"
    },
    {
      "inputs": [],
      "name": "curveExchange",
      "outputs": [
        {
          "internalType": "contract ICurvePool",
          "name": "",
          "type": "address"
        }
      ],
      "stateMutability": "view",
      "type": "function"
    },
    {
      "inputs": [],
      "name": "gatewayAddress",
      "outputs": [
        {
          "internalType": "address",
          "name": "",
          "type": "address"
        }
      ],
      "stateMutability": "view",
      "type": "function"
    },
    {
      "inputs": [],
      "name": "gatewayChainId",
      "outputs": [
        {
          "internalType": "uint16",
          "name": "",
          "type": "uint16"
        }
      ],
      "stateMutability": "view",
      "type": "function"
    },
    {
      "inputs": [],
      "name": "gatewayTokenPoolId",
      "outputs": [
        {
          "internalType": "uint256",
          "name": "",
          "type": "uint256"
        }
      ],
      "stateMutability": "view",
      "type": "function"
    },
    {
      "inputs": [
        {
          "internalType": "bytes32",
          "name": "role",
          "type": "bytes32"
        }
      ],
      "name": "getRoleAdmin",
      "outputs": [
        {
          "internalType": "bytes32",
          "name": "",
          "type": "bytes32"
        }
      ],
      "stateMutability": "view",
      "type": "function"
    },
    {
      "inputs": [
        {
          "internalType": "bytes32",
          "name": "role",
          "type": "bytes32"
        },
        {
          "internalType": "address",
          "name": "account",
          "type": "address"
        }
      ],
      "name": "grantRole",
      "outputs": [],
      "stateMutability": "nonpayable",
      "type": "function"
    },
    {
      "inputs": [
        {
          "internalType": "bytes32",
          "name": "role",
          "type": "bytes32"
        },
        {
          "internalType": "address",
          "name": "account",
          "type": "address"
        }
      ],
      "name": "hasRole",
      "outputs": [
        {
          "internalType": "bool",
          "name": "",
          "type": "bool"
        }
      ],
      "stateMutability": "view",
      "type": "function"
    },
    {
      "inputs": [],
      "name": "layerZeroEndpoint",
      "outputs": [
        {
          "internalType": "contract ILayerZeroEndpoint",
          "name": "",
          "type": "address"
        }
      ],
      "stateMutability": "view",
      "type": "function"
    },
    {
      "inputs": [
        {
          "internalType": "uint16",
          "name": "_srcChainId",
          "type": "uint16"
        },
        {
          "internalType": "bytes",
          "name": "_srcAddress",
          "type": "bytes"
        },
        {
          "internalType": "uint64",
          "name": "_nonce",
          "type": "uint64"
        },
        {
          "internalType": "bytes",
          "name": "_payload",
          "type": "bytes"
        }
      ],
      "name": "lzReceive",
      "outputs": [],
      "stateMutability": "nonpayable",
      "type": "function"
    },
    {
      "inputs": [
        {
          "internalType": "bytes32",
          "name": "role",
          "type": "bytes32"
        },
        {
          "internalType": "address",
          "name": "account",
          "type": "address"
        }
      ],
      "name": "renounceRole",
      "outputs": [],
      "stateMutability": "nonpayable",
      "type": "function"
    },
    {
      "inputs": [
        {
          "internalType": "bytes32",
          "name": "role",
          "type": "bytes32"
        },
        {
          "internalType": "address",
          "name": "account",
          "type": "address"
        }
      ],
      "name": "revokeRole",
      "outputs": [],
      "stateMutability": "nonpayable",
      "type": "function"
    },
    {
      "inputs": [
        {
          "internalType": "uint16",
          "name": "_chainId",
          "type": "uint16"
        },
        {
          "internalType": "address",
          "name": "_address",
          "type": "address"
        },
        {
          "internalType": "uint256",
          "name": "_tokenPoolId",
          "type": "uint256"
        }
      ],
      "name": "setGatewayParams",
      "outputs": [],
      "stateMutability": "nonpayable",
      "type": "function"
    },
    {
      "inputs": [
        {
          "internalType": "uint16",
          "name": "_srcChainId",
          "type": "uint16"
        },
        {
          "internalType": "bytes",
          "name": "_srcAddress",
          "type": "bytes"
        },
        {
          "internalType": "uint256",
          "name": "_nonce",
          "type": "uint256"
        },
        {
          "internalType": "address",
          "name": "_token",
          "type": "address"
        },
        {
          "internalType": "uint256",
          "name": "amountLD",
          "type": "uint256"
        },
        {
          "internalType": "bytes",
          "name": "payload",
          "type": "bytes"
        }
      ],
      "name": "sgReceive",
      "outputs": [],
      "stateMutability": "nonpayable",
      "type": "function"
    },
    {
      "inputs": [],
      "name": "stargateRouter",
      "outputs": [
        {
          "internalType": "contract IStargateRouter",
          "name": "",
          "type": "address"
        }
      ],
      "stateMutability": "view",
      "type": "function"
    },
    {
      "inputs": [
        {
          "internalType": "bytes4",
          "name": "interfaceId",
          "type": "bytes4"
        }
      ],
      "name": "supportsInterface",
      "outputs": [
        {
          "internalType": "bool",
          "name": "",
          "type": "bool"
        }
      ],
      "stateMutability": "view",
      "type": "function"
    },
    {
      "inputs": [],
      "name": "tokenPoolId",
      "outputs": [
        {
          "internalType": "uint256",
          "name": "",
          "type": "uint256"
        }
      ],
      "stateMutability": "view",
      "type": "function"
    },
    {
      "inputs": [
        {
          "internalType": "uint256",
          "name": "",
          "type": "uint256"
        }
      ],
      "name": "tokens",
      "outputs": [
        {
          "internalType": "contract IERC20Metadata",
          "name": "",
          "type": "address"
        }
      ],
      "stateMutability": "view",
      "type": "function"
    },
    {
      "inputs": [],
      "name": "withdrawStuckNative",
      "outputs": [],
      "stateMutability": "nonpayable",
      "type": "function"
    },
    {
      "inputs": [
        {
          "internalType": "contract IERC20Metadata",
          "name": "_token",
          "type": "address"
        }
      ],
      "name": "withdrawStuckToken",
      "outputs": [],
      "stateMutability": "nonpayable",
      "type": "function"
    },
    {
      "inputs": [],
      "name": "zunami",
      "outputs": [
        {
          "internalType": "contract IZunami",
          "name": "",
          "type": "address"
        }
      ],
      "stateMutability": "view",
      "type": "function"
    },
    {
      "stateMutability": "payable",
      "type": "receive"
    }
  ],
  "bytecode": "0x60806040523480156200001157600080fd5b50604051620022d7380380620022d783398101604081905262000034916200022c565b62000041600033620000d5565b6200006d7f97667070c54ef182b0f5858b034beac1b6f3089aa2d3188bb1e8929f4fa9b92933620000d5565b6200007c600587600362000185565b50600894909455600180546001600160a01b03199081166001600160a01b03958616179091556003805482169285169290921790915560048054821694841694909417909355600280549093169116179055506200030b565b620000e18282620000e5565b5050565b6000828152602081815260408083206001600160a01b038516845290915290205460ff16620000e1576000828152602081815260408083206001600160a01b03851684529091529020805460ff19166001179055620001413390565b6001600160a01b0316816001600160a01b0316837f2f8788117e7eff1d82e926ec794901d17c78024a50270940304540a733656f0d60405160405180910390a45050565b8260038101928215620001d0579160200282015b82811115620001d057825182546001600160a01b0319166001600160a01b0390911617825560209092019160019091019062000199565b50620001de929150620001e2565b5090565b5b80821115620001de5760008155600101620001e3565b634e487b7160e01b600052604160045260246000fd5b80516001600160a01b03811681146200022757600080fd5b919050565b60008060008060008061010087890312156200024757600080fd5b87601f8801126200025757600080fd5b604051606081016001600160401b03811182821017156200027c576200027c620001f9565b60405280606089018a8111156200029257600080fd5b895b81811015620002b757620002a8816200020f565b83526020928301920162000294565b5051919750909550620002cf9050608088016200020f565b9350620002df60a088016200020f565b9250620002ef60c088016200020f565b9150620002ff60e088016200020f565b90509295509295509295565b611fbc806200031b6000396000f3fe6080604052600436106101cf5760003560e01c806391d14854116100f7578063b1c2cd1e11610095578063dab867f911610064578063dab867f914610556578063e9b6d59914610569578063f5b541a61461057f578063fff0514e146105b357600080fd5b8063b1c2cd1e146104d4578063b314cfd5146104f4578063d547741f14610509578063d771c6741461052957600080fd5b80639fd8f216116100d15780639fd8f2161461045f578063a217fddf1461047f578063a9e56f3c14610494578063ab8236f3146104b457600080fd5b806391d14854146104145780639304f6f314610434578063952e76bc1461044a57600080fd5b806336568abe1161016f5780637bc5335a1161013e5780637bc5335a1461039357806381ff3e8b146103a65780638b851b95146103c65780638d485a70146103ec57600080fd5b806336568abe146103165780633a54a420146103365780634f64b2be1461034c57806375451b4f1461036c57600080fd5b8063068acf6c116101ab578063068acf6c1461026057806307968db114610280578063248a9ca3146102b85780632f2ff15d146102f657600080fd5b80621d3567146101db578062c7d4db146101fd57806301ffc9a71461023057600080fd5b366101d657005b600080fd5b3480156101e757600080fd5b506101fb6101f6366004611988565b6105c9565b005b34801561020957600080fd5b506009546102189061ffff1681565b60405161ffff90911681526020015b60405180910390f35b34801561023c57600080fd5b5061025061024b366004611a22565b610731565b6040519015158152602001610227565b34801561026c57600080fd5b506101fb61027b366004611a64565b610768565b34801561028c57600080fd5b506004546102a0906001600160a01b031681565b6040516001600160a01b039091168152602001610227565b3480156102c457600080fd5b506102e86102d3366004611a81565b60009081526020819052604090206001015490565b604051908152602001610227565b34801561030257600080fd5b506101fb610311366004611a9a565b610800565b34801561032257600080fd5b506101fb610331366004611a9a565b610826565b34801561034257600080fd5b506102e86103e881565b34801561035857600080fd5b506102a0610367366004611a81565b6108a4565b34801561037857600080fd5b50610381600381565b60405160ff9091168152602001610227565b6101fb6103a1366004611aca565b6108c4565b3480156103b257600080fd5b506001546102a0906001600160a01b031681565b3480156103d257600080fd5b506009546102a0906201000090046001600160a01b031681565b3480156103f857600080fd5b50610401600181565b604051600f9190910b8152602001610227565b34801561042057600080fd5b5061025061042f366004611a9a565b610aec565b34801561044057600080fd5b506102e86103e781565b34801561045657600080fd5b50610401600081565b34801561046b57600080fd5b506002546102a0906001600160a01b031681565b34801561048b57600080fd5b506102e8600081565b3480156104a057600080fd5b506003546102a0906001600160a01b031681565b3480156104c057600080fd5b506101fb6104cf366004611b8f565b610b15565b3480156104e057600080fd5b506101fb6104ef366004611c2a565b610d35565b34801561050057600080fd5b506101fb610dbd565b34801561051557600080fd5b506101fb610524366004611a9a565b610dfd565b34801561053557600080fd5b5061053e600281565b6040516001600160801b039091168152602001610227565b6101fb610564366004611a81565b610e23565b34801561057557600080fd5b506102e860085481565b34801561058b57600080fd5b506102e87f97667070c54ef182b0f5858b034beac1b6f3089aa2d3188bb1e8929f4fa9b92981565b3480156105bf57600080fd5b506102e8600a5481565b6004546001600160a01b0316336001600160a01b0316146106575760405162461bcd60e51b815260206004820152603760248201527f466f727761726465723a206f6e6c79207a65726f206c6179657220656e64706f60448201527f696e742063616e2063616c6c206c7a526563656976652100000000000000000060648201526084015b60405180910390fd5b60008061066683850185611aca565b9150915061067261190a565b600154610689906001600160a01b0316808461105f565b60015460405162955d4360e71b81526001600160a01b0390911690634aaea180906106ba9085908590600401611c8c565b600060405180830381600087803b1580156106d457600080fd5b505af11580156106e8573d6000803e3d6000fd5b50505050827fb044668583d811edbcfe183ec48395b7910a50f3d531f3f1301233706acd64f48360405161071e91815260200190565b60405180910390a2505050505050505050565b60006001600160e01b03198216637965db0b60e01b148061076257506301ffc9a760e01b6001600160e01b03198316145b92915050565b600061077481336111a7565b6040516370a0823160e01b81523060048201526000906001600160a01b038416906370a0823190602401602060405180830381865afa1580156107bb573d6000803e3d6000fd5b505050506040513d601f19601f820116820180604052508101906107df9190611ca0565b905080156107fb576107fb6001600160a01b038416338361120b565b505050565b60008281526020819052604090206001015461081c81336111a7565b6107fb838361123b565b6001600160a01b03811633146108965760405162461bcd60e51b815260206004820152602f60248201527f416363657373436f6e74726f6c3a2063616e206f6e6c792072656e6f756e636560448201526e103937b632b9903337b91039b2b63360891b606482015260840161064e565b6108a082826112bf565b5050565b600581600381106108b457600080fd5b01546001600160a01b0316905081565b7f97667070c54ef182b0f5858b034beac1b6f3089aa2d3188bb1e8929f4fa9b9296108ef81336111a7565b6001546040516370a0823160e01b815230600482015283916001600160a01b0316906370a0823190602401602060405180830381865afa158015610937573d6000803e3d6000fd5b505050506040513d601f19601f8201168201806040525081019061095b9190611ca0565b10156109a95760405162461bcd60e51b815260206004820152601960248201527f466f727761726465723a206e6f7420656e6f756768207a6c7000000000000000604482015260640161064e565b604080516020810185905290810183905260009060600160408051601f1981840301815290829052600160f01b602083015261c3506022830152915060009060420160408051808303601f19018152908290526004546009546bffffffffffffffffffffffff1962010000820460601b1660208501529193506001600160a01b03169163c580310091349161ffff9091169060340160405160208183030381529060405286610a553390565b6000886040518863ffffffff1660e01b8152600401610a7996959493929190611d11565b6000604051808303818588803b158015610a9257600080fd5b505af1158015610aa6573d6000803e3d6000fd5b5050505050847f06da3309189fa49284f335d2c2bcb4cb0b8ad2a59ad92a9bdebeeb8f1ceba51185604051610add91815260200190565b60405180910390a25050505050565b6000918252602082815260408084206001600160a01b0393909316845291905290205460ff1690565b6003546001600160a01b0316336001600160a01b031614610b945760405162461bcd60e51b815260206004820152603360248201527f466f727761726465723a206f6e6c7920737461726761746520726f757465722060448201527263616e2063616c6c207367526563656976652160681b606482015260840161064e565b60095461ffff878116911614610bec5760405162461bcd60e51b815260206004820181905260248201527f466f727761726465723a2077726f6e6720736f7572636520636861696e206964604482015260640161064e565b600081806020019051810190610c029190611ca0565b90506005600201546001600160a01b03858116911614610c645760405162461bcd60e51b815260206004820152601e60248201527f466f727761726465723a2077726f6e6720746f6b656e20616464726573730000604482015260640161064e565b610c6c61190a565b60408101849052600154610c8d906001600160a01b0387811691168661105f565b60015460405163e287950560e01b81526001600160a01b039091169063e287950590610cbd908490600401611d8e565b600060405180830381600087803b158015610cd757600080fd5b505af1158015610ceb573d6000803e3d6000fd5b50506040805160028152602081018890528593507f3f4eb095aadf98bfed0e13af381b2a72a3e0883b728d662a8b56bc410f2c170192500160405180910390a25050505050505050565b6000610d4181336111a7565b6009805461ffff86166001600160b01b03199091168117620100006001600160a01b03871690810291909117909255600a8490556040805191825260208201929092529081018390527fdb85d13614082578c190eebfa3580e3a42fed95fd283016a00919e4691e953e39060600160405180910390a150505050565b6000610dc981336111a7565b4780156108a057604051339082156108fc029083906000818181858888f193505050501580156107fb573d6000803e3d6000fd5b600082815260208190526040902060010154610e1981336111a7565b6107fb83836112bf565b7f97667070c54ef182b0f5858b034beac1b6f3089aa2d3188bb1e8929f4fa9b929610e4e81336111a7565b610e586000611324565b610e626001611324565b6007546040516370a0823160e01b81523060048201526000916001600160a01b0316906370a0823190602401602060405180830381865afa158015610eab573d6000803e3d6000fd5b505050506040513d601f19601f82011682018060405250810190610ecf9190611ca0565b600354909150610efa906001600160a01b031682600560025b01546001600160a01b0316919061145c565b600354600954600854600a546001600160a01b0390931692639fbf10fc92349261ffff9091169133876103e8610f326103e783611db2565b610f3c9190611dd1565b604080516060808201835261c35082526000602080840191909152835180850185526002815261060f60f31b818301528385015260095493516201000090940490911b6bffffffffffffffffffffffff191690830152906034016040516020818303038152906040528d604051602001610fb891815260200190565b6040516020818303038152906040526040518b63ffffffff1660e01b8152600401610feb99989796959493929190611df3565b6000604051808303818588803b15801561100457600080fd5b505af1158015611018573d6000803e3d6000fd5b50506040805160028152602081018690528794507fabd2ab552bc04cdbfa4a54107fa44ac8c9cb06f6d21da11933ac05a653be19e9935001905060405180910390a2505050565b8015806110d95750604051636eb1769f60e11b81523060048201526001600160a01b03838116602483015284169063dd62ed3e90604401602060405180830381865afa1580156110b3573d6000803e3d6000fd5b505050506040513d601f19601f820116820180604052508101906110d79190611ca0565b155b6111445760405162461bcd60e51b815260206004820152603660248201527f5361666545524332303a20617070726f76652066726f6d206e6f6e2d7a65726f60448201527520746f206e6f6e2d7a65726f20616c6c6f77616e636560501b606482015260840161064e565b6040516001600160a01b0383166024820152604481018290526107fb90849063095ea7b360e01b906064015b60408051601f198184030181529190526020810180516001600160e01b03166001600160e01b031990931692909217909152611514565b6111b18282610aec565b6108a0576111c9816001600160a01b031660146115e6565b6111d48360206115e6565b6040516020016111e5929190611e91565b60408051601f198184030181529082905262461bcd60e51b825261064e91600401611f06565b6040516001600160a01b0383166024820152604481018290526107fb90849063a9059cbb60e01b90606401611170565b6112458282610aec565b6108a0576000828152602081815260408083206001600160a01b03851684529091529020805460ff1916600117905561127b3390565b6001600160a01b0316816001600160a01b0316837f2f8788117e7eff1d82e926ec794901d17c78024a50270940304540a733656f0d60405160405180910390a45050565b6112c98282610aec565b156108a0576000828152602081815260408083206001600160a01b0385168085529252808320805460ff1916905551339285917ff6391f5c32d9c69d2a47ea670b442974b53935d1edc7fd64eb21e047a839171b9190a45050565b60006005826001600160801b03166003811061134257611342611d78565b01546040516370a0823160e01b81523060048201526001600160a01b03909116906370a0823190602401602060405180830381865afa158015611389573d6000803e3d6000fd5b505050506040513d601f19601f820116820180604052508101906113ad9190611ca0565b905080156108a0576002546113e2906001600160a01b03168260056001600160801b03861660038110610ee857610ee8611d78565b60028054604051630f7c084960e21b8152600f85900b6004820152602481019290925260448201839052600060648301526001600160a01b031690633df0212490608401600060405180830381600087803b15801561144057600080fd5b505af1158015611454573d6000803e3d6000fd5b505050505050565b604051636eb1769f60e11b81523060048201526001600160a01b038381166024830152600091839186169063dd62ed3e90604401602060405180830381865afa1580156114ad573d6000803e3d6000fd5b505050506040513d601f19601f820116820180604052508101906114d19190611ca0565b6114db9190611f19565b6040516001600160a01b03851660248201526044810182905290915061150e90859063095ea7b360e01b90606401611170565b50505050565b6000611569826040518060400160405280602081526020017f5361666545524332303a206c6f772d6c6576656c2063616c6c206661696c6564815250856001600160a01b03166117899092919063ffffffff16565b8051909150156107fb57808060200190518101906115879190611f31565b6107fb5760405162461bcd60e51b815260206004820152602a60248201527f5361666545524332303a204552433230206f7065726174696f6e20646964206e6044820152691bdd081cdd58d8d9595960b21b606482015260840161064e565b606060006115f5836002611db2565b611600906002611f19565b67ffffffffffffffff81111561161857611618611aec565b6040519080825280601f01601f191660200182016040528015611642576020820181803683370190505b509050600360fc1b8160008151811061165d5761165d611d78565b60200101906001600160f81b031916908160001a905350600f60fb1b8160018151811061168c5761168c611d78565b60200101906001600160f81b031916908160001a90535060006116b0846002611db2565b6116bb906001611f19565b90505b6001811115611733576f181899199a1a9b1b9c1cb0b131b232b360811b85600f16601081106116ef576116ef611d78565b1a60f81b82828151811061170557611705611d78565b60200101906001600160f81b031916908160001a90535060049490941c9361172c81611f53565b90506116be565b5083156117825760405162461bcd60e51b815260206004820181905260248201527f537472696e67733a20686578206c656e67746820696e73756666696369656e74604482015260640161064e565b9392505050565b606061179884846000856117a0565b949350505050565b6060824710156118015760405162461bcd60e51b815260206004820152602660248201527f416464726573733a20696e73756666696369656e742062616c616e636520666f6044820152651c8818d85b1b60d21b606482015260840161064e565b6001600160a01b0385163b6118585760405162461bcd60e51b815260206004820152601d60248201527f416464726573733a2063616c6c20746f206e6f6e2d636f6e7472616374000000604482015260640161064e565b600080866001600160a01b031685876040516118749190611f6a565b60006040518083038185875af1925050503d80600081146118b1576040519150601f19603f3d011682016040523d82523d6000602084013e6118b6565b606091505b50915091506118c68282866118d1565b979650505050505050565b606083156118e0575081611782565b8251156118f05782518084602001fd5b8160405162461bcd60e51b815260040161064e9190611f06565b60405180606001604052806003906020820280368337509192915050565b803561ffff8116811461193a57600080fd5b919050565b60008083601f84011261195157600080fd5b50813567ffffffffffffffff81111561196957600080fd5b60208301915083602082850101111561198157600080fd5b9250929050565b600080600080600080608087890312156119a157600080fd5b6119aa87611928565b9550602087013567ffffffffffffffff808211156119c757600080fd5b6119d38a838b0161193f565b90975095506040890135915080821682146119ed57600080fd5b90935060608801359080821115611a0357600080fd5b50611a1089828a0161193f565b979a9699509497509295939492505050565b600060208284031215611a3457600080fd5b81356001600160e01b03198116811461178257600080fd5b6001600160a01b0381168114611a6157600080fd5b50565b600060208284031215611a7657600080fd5b813561178281611a4c565b600060208284031215611a9357600080fd5b5035919050565b60008060408385031215611aad57600080fd5b823591506020830135611abf81611a4c565b809150509250929050565b60008060408385031215611add57600080fd5b50508035926020909101359150565b634e487b7160e01b600052604160045260246000fd5b600082601f830112611b1357600080fd5b813567ffffffffffffffff80821115611b2e57611b2e611aec565b604051601f8301601f19908116603f01168101908282118183101715611b5657611b56611aec565b81604052838152866020858801011115611b6f57600080fd5b836020870160208301376000602085830101528094505050505092915050565b60008060008060008060c08789031215611ba857600080fd5b611bb187611928565b9550602087013567ffffffffffffffff80821115611bce57600080fd5b611bda8a838b01611b02565b96506040890135955060608901359150611bf382611a4c565b9093506080880135925060a08801359080821115611c1057600080fd5b50611c1d89828a01611b02565b9150509295509295509295565b600080600060608486031215611c3f57600080fd5b611c4884611928565b92506020840135611c5881611a4c565b929592945050506040919091013590565b8060005b600381101561150e578151845260209384019390910190600101611c6d565b828152608081016117826020830184611c69565b600060208284031215611cb257600080fd5b5051919050565b60005b83811015611cd4578181015183820152602001611cbc565b8381111561150e5750506000910152565b60008151808452611cfd816020860160208601611cb9565b601f01601f19169290920160200192915050565b61ffff8716815260c060208201526000611d2e60c0830188611ce5565b8281036040840152611d408188611ce5565b6001600160a01b0387811660608601528616608085015283810360a08501529050611d6b8185611ce5565b9998505050505050505050565b634e487b7160e01b600052603260045260246000fd5b606081016107628284611c69565b634e487b7160e01b600052601160045260246000fd5b6000816000190483118215151615611dcc57611dcc611d9c565b500290565b600082611dee57634e487b7160e01b600052601260045260246000fd5b500490565b600061012061ffff8c1683528a602084015289604084015260018060a01b03891660608401528760808401528660a08401528060c084015285518184015250602085015161014083015260408501516060610160840152611e58610180840182611ce5565b905082810360e0840152611e6c8186611ce5565b9050828103610100840152611e818185611ce5565b9c9b505050505050505050505050565b7f416363657373436f6e74726f6c3a206163636f756e7420000000000000000000815260008351611ec9816017850160208801611cb9565b7001034b99036b4b9b9b4b733903937b6329607d1b6017918401918201528351611efa816028840160208801611cb9565b01602801949350505050565b6020815260006117826020830184611ce5565b60008219821115611f2c57611f2c611d9c565b500190565b600060208284031215611f4357600080fd5b8151801515811461178257600080fd5b600081611f6257611f62611d9c565b506000190190565b60008251611f7c818460208701611cb9565b919091019291505056fea26469706673582212204798aa2514d2ed715cbd8d2624632a320e8d18721628e68fcf974da170fd0c3c64736f6c634300080f0033",
  "linkReferences": {},
  "deployedLinkReferences": {}
}