{
  "_format": "hh-sol-artifact-1",
  "contractName": "ZunamiForwarder",
  "sourceName": "contracts/crosschain/ZunamiForwarder.sol",
  "abi": [
    {
      "inputs": [
        {
          "internalType": "contract IERC20Metadata[3]",
          "name": "_tokens",
          "type": "address[3]"
        },
        {
          "internalType": "uint256",
          "name": "_tokenPoolId",
          "type": "uint256"
        },
        {
          "internalType": "address",
          "name": "_zunami",
          "type": "address"
        },
        {
          "internalType": "address",
          "name": "_curveExchange",
          "type": "address"
        },
        {
          "internalType": "address",
          "name": "_stargateRouter",
          "type": "address"
        },
        {
          "internalType": "address",
          "name": "_layerZeroEndpoint",
          "type": "address"
        }
      ],
      "stateMutability": "nonpayable",
      "type": "constructor"
    },
    {
      "anonymous": false,
      "inputs": [
        {
          "indexed": true,
          "internalType": "uint256",
          "name": "id",
          "type": "uint256"
        },
        {
          "indexed": false,
          "internalType": "uint256",
          "name": "tokenId",
          "type": "uint256"
        },
        {
          "indexed": false,
          "internalType": "uint256",
          "name": "tokenAmount",
          "type": "uint256"
        }
      ],
      "name": "CreatedPendingDeposit",
      "type": "event"
    },
    {
      "anonymous": false,
      "inputs": [
        {
          "indexed": true,
          "internalType": "uint256",
          "name": "id",
          "type": "uint256"
        },
        {
          "indexed": false,
          "internalType": "uint256",
          "name": "lpShares",
          "type": "uint256"
        }
      ],
      "name": "CreatedPendingWithdrawal",
      "type": "event"
    },
    {
      "anonymous": false,
      "inputs": [
        {
          "indexed": true,
          "internalType": "uint256",
          "name": "id",
          "type": "uint256"
        },
        {
          "indexed": false,
          "internalType": "uint256",
          "name": "lpShares",
          "type": "uint256"
        }
      ],
      "name": "Deposited",
      "type": "event"
    },
    {
      "anonymous": false,
      "inputs": [
        {
          "indexed": true,
          "internalType": "bytes32",
          "name": "role",
          "type": "bytes32"
        },
        {
          "indexed": true,
          "internalType": "bytes32",
          "name": "previousAdminRole",
          "type": "bytes32"
        },
        {
          "indexed": true,
          "internalType": "bytes32",
          "name": "newAdminRole",
          "type": "bytes32"
        }
      ],
      "name": "RoleAdminChanged",
      "type": "event"
    },
    {
      "anonymous": false,
      "inputs": [
        {
          "indexed": true,
          "internalType": "bytes32",
          "name": "role",
          "type": "bytes32"
        },
        {
          "indexed": true,
          "internalType": "address",
          "name": "account",
          "type": "address"
        },
        {
          "indexed": true,
          "internalType": "address",
          "name": "sender",
          "type": "address"
        }
      ],
      "name": "RoleGranted",
      "type": "event"
    },
    {
      "anonymous": false,
      "inputs": [
        {
          "indexed": true,
          "internalType": "bytes32",
          "name": "role",
          "type": "bytes32"
        },
        {
          "indexed": true,
          "internalType": "address",
          "name": "account",
          "type": "address"
        },
        {
          "indexed": true,
          "internalType": "address",
          "name": "sender",
          "type": "address"
        }
      ],
      "name": "RoleRevoked",
      "type": "event"
    },
    {
      "anonymous": false,
      "inputs": [
        {
          "indexed": false,
          "internalType": "uint256",
          "name": "chainId",
          "type": "uint256"
        },
        {
          "indexed": false,
          "internalType": "address",
          "name": "gateway",
          "type": "address"
        },
        {
          "indexed": false,
          "internalType": "uint256",
          "name": "tokenPoolId",
          "type": "uint256"
        }
      ],
      "name": "SetGatewayParams",
      "type": "event"
    },
    {
      "anonymous": false,
      "inputs": [
        {
          "indexed": true,
          "internalType": "uint256",
          "name": "id",
          "type": "uint256"
        },
        {
          "indexed": false,
          "internalType": "uint256",
          "name": "tokenId",
          "type": "uint256"
        },
        {
          "indexed": false,
          "internalType": "uint256",
          "name": "tokenAmount",
          "type": "uint256"
        }
      ],
      "name": "Withdrawn",
      "type": "event"
    },
    {
      "inputs": [],
      "name": "DAI_TOKEN_ID",
      "outputs": [
        {
          "internalType": "int128",
          "name": "",
          "type": "int128"
        }
      ],
      "stateMutability": "view",
      "type": "function"
    },
    {
      "inputs": [],
      "name": "DEFAULT_ADMIN_ROLE",
      "outputs": [
        {
          "internalType": "bytes32",
          "name": "",
          "type": "bytes32"
        }
      ],
      "stateMutability": "view",
      "type": "function"
    },
    {
      "inputs": [],
      "name": "OPERATOR_ROLE",
      "outputs": [
        {
          "internalType": "bytes32",
          "name": "",
          "type": "bytes32"
        }
      ],
      "stateMutability": "view",
      "type": "function"
    },
    {
      "inputs": [],
      "name": "POOL_ASSETS",
      "outputs": [
        {
          "internalType": "uint8",
          "name": "",
          "type": "uint8"
        }
      ],
      "stateMutability": "view",
      "type": "function"
    },
    {
      "inputs": [],
      "name": "SG_FEE_DIVIDER",
      "outputs": [
        {
          "internalType": "uint256",
          "name": "",
          "type": "uint256"
        }
      ],
      "stateMutability": "view",
      "type": "function"
    },
    {
      "inputs": [],
      "name": "SG_FEE_REDUCER",
      "outputs": [
        {
          "internalType": "uint256",
          "name": "",
          "type": "uint256"
        }
      ],
      "stateMutability": "view",
      "type": "function"
    },
    {
      "inputs": [],
      "name": "USDC_TOKEN_ID",
      "outputs": [
        {
          "internalType": "int128",
          "name": "",
          "type": "int128"
        }
      ],
      "stateMutability": "view",
      "type": "function"
    },
    {
      "inputs": [],
      "name": "USDT_TOKEN_ID",
      "outputs": [
        {
          "internalType": "uint128",
          "name": "",
          "type": "uint128"
        }
      ],
      "stateMutability": "view",
      "type": "function"
    },
    {
      "inputs": [
        {
          "internalType": "uint256",
          "name": "depositId",
          "type": "uint256"
        }
      ],
      "name": "completeCrosschainDeposit",
      "outputs": [],
      "stateMutability": "payable",
      "type": "function"
    },
    {
      "inputs": [
        {
          "internalType": "uint256",
          "name": "withdrawalId",
          "type": "uint256"
        }
      ],
      "name": "completeCrosschainWithdrawal",
      "outputs": [],
      "stateMutability": "payable",
      "type": "function"
    },
    {
      "inputs": [],
      "name": "curveExchange",
      "outputs": [
        {
          "internalType": "contract ICurvePool",
          "name": "",
          "type": "address"
        }
      ],
      "stateMutability": "view",
      "type": "function"
    },
    {
      "inputs": [],
      "name": "gatewayAddress",
      "outputs": [
        {
          "internalType": "address",
          "name": "",
          "type": "address"
        }
      ],
      "stateMutability": "view",
      "type": "function"
    },
    {
      "inputs": [],
      "name": "gatewayChainId",
      "outputs": [
        {
          "internalType": "uint16",
          "name": "",
          "type": "uint16"
        }
      ],
      "stateMutability": "view",
      "type": "function"
    },
    {
      "inputs": [],
      "name": "gatewayTokenPoolId",
      "outputs": [
        {
          "internalType": "uint256",
          "name": "",
          "type": "uint256"
        }
      ],
      "stateMutability": "view",
      "type": "function"
    },
    {
      "inputs": [
        {
          "internalType": "bytes32",
          "name": "role",
          "type": "bytes32"
        }
      ],
      "name": "getRoleAdmin",
      "outputs": [
        {
          "internalType": "bytes32",
          "name": "",
          "type": "bytes32"
        }
      ],
      "stateMutability": "view",
      "type": "function"
    },
    {
      "inputs": [
        {
          "internalType": "bytes32",
          "name": "role",
          "type": "bytes32"
        },
        {
          "internalType": "address",
          "name": "account",
          "type": "address"
        }
      ],
      "name": "grantRole",
      "outputs": [],
      "stateMutability": "nonpayable",
      "type": "function"
    },
    {
      "inputs": [
        {
          "internalType": "bytes32",
          "name": "role",
          "type": "bytes32"
        },
        {
          "internalType": "address",
          "name": "account",
          "type": "address"
        }
      ],
      "name": "hasRole",
      "outputs": [
        {
          "internalType": "bool",
          "name": "",
          "type": "bool"
        }
      ],
      "stateMutability": "view",
      "type": "function"
    },
    {
      "inputs": [],
      "name": "layerZeroEndpoint",
      "outputs": [
        {
          "internalType": "contract ILayerZeroEndpoint",
          "name": "",
          "type": "address"
        }
      ],
      "stateMutability": "view",
      "type": "function"
    },
    {
      "inputs": [
        {
          "internalType": "uint16",
          "name": "_srcChainId",
          "type": "uint16"
        },
        {
          "internalType": "bytes",
          "name": "_srcAddress",
          "type": "bytes"
        },
        {
          "internalType": "uint64",
          "name": "_nonce",
          "type": "uint64"
        },
        {
          "internalType": "bytes",
          "name": "_payload",
          "type": "bytes"
        }
      ],
      "name": "lzReceive",
      "outputs": [],
      "stateMutability": "nonpayable",
      "type": "function"
    },
    {
      "inputs": [
        {
          "internalType": "bytes32",
          "name": "role",
          "type": "bytes32"
        },
        {
          "internalType": "address",
          "name": "account",
          "type": "address"
        }
      ],
      "name": "renounceRole",
      "outputs": [],
      "stateMutability": "nonpayable",
      "type": "function"
    },
    {
      "inputs": [
        {
          "internalType": "bytes32",
          "name": "role",
          "type": "bytes32"
        },
        {
          "internalType": "address",
          "name": "account",
          "type": "address"
        }
      ],
      "name": "revokeRole",
      "outputs": [],
      "stateMutability": "nonpayable",
      "type": "function"
    },
    {
      "inputs": [
        {
          "internalType": "uint16",
          "name": "_chainId",
          "type": "uint16"
        },
        {
          "internalType": "address",
          "name": "_address",
          "type": "address"
        },
        {
          "internalType": "uint256",
          "name": "_tokenPoolId",
          "type": "uint256"
        }
      ],
      "name": "setGatewayParams",
      "outputs": [],
      "stateMutability": "nonpayable",
      "type": "function"
    },
    {
      "inputs": [
        {
          "internalType": "uint16",
          "name": "_srcChainId",
          "type": "uint16"
        },
        {
          "internalType": "bytes",
          "name": "_srcAddress",
          "type": "bytes"
        },
        {
          "internalType": "uint256",
          "name": "_nonce",
          "type": "uint256"
        },
        {
          "internalType": "address",
          "name": "_token",
          "type": "address"
        },
        {
          "internalType": "uint256",
          "name": "amountLD",
          "type": "uint256"
        },
        {
          "internalType": "bytes",
          "name": "payload",
          "type": "bytes"
        }
      ],
      "name": "sgReceive",
      "outputs": [],
      "stateMutability": "nonpayable",
      "type": "function"
    },
    {
      "inputs": [],
      "name": "stargateRouter",
      "outputs": [
        {
          "internalType": "contract IStargateRouter",
          "name": "",
          "type": "address"
        }
      ],
      "stateMutability": "view",
      "type": "function"
    },
    {
      "inputs": [],
      "name": "storedLpShares",
      "outputs": [
        {
          "internalType": "uint256",
          "name": "",
          "type": "uint256"
        }
      ],
      "stateMutability": "view",
      "type": "function"
    },
    {
      "inputs": [
        {
          "internalType": "bytes4",
          "name": "interfaceId",
          "type": "bytes4"
        }
      ],
      "name": "supportsInterface",
      "outputs": [
        {
          "internalType": "bool",
          "name": "",
          "type": "bool"
        }
      ],
      "stateMutability": "view",
      "type": "function"
    },
    {
      "inputs": [],
      "name": "tokenPoolId",
      "outputs": [
        {
          "internalType": "uint256",
          "name": "",
          "type": "uint256"
        }
      ],
      "stateMutability": "view",
      "type": "function"
    },
    {
      "inputs": [
        {
          "internalType": "uint256",
          "name": "",
          "type": "uint256"
        }
      ],
      "name": "tokens",
      "outputs": [
        {
          "internalType": "contract IERC20Metadata",
          "name": "",
          "type": "address"
        }
      ],
      "stateMutability": "view",
      "type": "function"
    },
    {
      "inputs": [],
      "name": "withdrawStuckNative",
      "outputs": [],
      "stateMutability": "nonpayable",
      "type": "function"
    },
    {
      "inputs": [
        {
          "internalType": "contract IERC20Metadata",
          "name": "_token",
          "type": "address"
        }
      ],
      "name": "withdrawStuckToken",
      "outputs": [],
      "stateMutability": "nonpayable",
      "type": "function"
    },
    {
      "inputs": [],
      "name": "withdrawingLpShares",
      "outputs": [
        {
          "internalType": "uint256",
          "name": "",
          "type": "uint256"
        }
      ],
      "stateMutability": "view",
      "type": "function"
    },
    {
      "inputs": [],
      "name": "zunami",
      "outputs": [
        {
          "internalType": "contract IZunami",
          "name": "",
          "type": "address"
        }
      ],
      "stateMutability": "view",
      "type": "function"
    },
    {
      "stateMutability": "payable",
      "type": "receive"
    }
  ],
  "bytecode": "0x60806040523480156200001157600080fd5b50604051620024b6380380620024b683398101604081905262000034916200022c565b62000041600033620000d5565b6200006d7f97667070c54ef182b0f5858b034beac1b6f3089aa2d3188bb1e8929f4fa9b92933620000d5565b6200007c600587600362000185565b50600894909455600180546001600160a01b03199081166001600160a01b03958616179091556003805482169285169290921790915560048054821694841694909417909355600280549093169116179055506200030b565b620000e18282620000e5565b5050565b6000828152602081815260408083206001600160a01b038516845290915290205460ff16620000e1576000828152602081815260408083206001600160a01b03851684529091529020805460ff19166001179055620001413390565b6001600160a01b0316816001600160a01b0316837f2f8788117e7eff1d82e926ec794901d17c78024a50270940304540a733656f0d60405160405180910390a45050565b8260038101928215620001d0579160200282015b82811115620001d057825182546001600160a01b0319166001600160a01b0390911617825560209092019160019091019062000199565b50620001de929150620001e2565b5090565b5b80821115620001de5760008155600101620001e3565b634e487b7160e01b600052604160045260246000fd5b80516001600160a01b03811681146200022757600080fd5b919050565b60008060008060008061010087890312156200024757600080fd5b87601f8801126200025757600080fd5b604051606081016001600160401b03811182821017156200027c576200027c620001f9565b60405280606089018a8111156200029257600080fd5b895b81811015620002b757620002a8816200020f565b83526020928301920162000294565b5051919750909550620002cf9050608088016200020f565b9350620002df60a088016200020f565b9250620002ef60c088016200020f565b9150620002ff60e088016200020f565b90509295509295509295565b61219b806200031b6000396000f3fe6080604052600436106101e55760003560e01c80639304f6f311610102578063d547741f11610095578063df577f2511610064578063df577f2514610598578063e9b6d599146105ab578063f5b541a6146105c1578063fff0514e146105f557600080fd5b8063d547741f14610522578063d771c67414610542578063dab867f91461056f578063dab90cdc1461058257600080fd5b8063a9e56f3c116100d1578063a9e56f3c146104ad578063ab8236f3146104cd578063b1c2cd1e146104ed578063b314cfd51461050d57600080fd5b80639304f6f31461044d578063952e76bc146104635780639fd8f21614610478578063a217fddf1461049857600080fd5b806336568abe1161017a57806381ff3e8b1161014957806381ff3e8b146103bf5780638b851b95146103df5780638d485a701461040557806391d148541461042d57600080fd5b806336568abe146103425780633a54a420146103625780634f64b2be1461037857806375451b4f1461039857600080fd5b8063068acf6c116101b6578063068acf6c1461029a57806307968db1146102ba578063248a9ca3146102f25780632f2ff15d1461032257600080fd5b80621d3567146101f1578062c7d4db1461021357806301784bd31461024657806301ffc9a71461026a57600080fd5b366101ec57005b600080fd5b3480156101fd57600080fd5b5061021161020c366004611b50565b61060b565b005b34801561021f57600080fd5b50600b5461022e9061ffff1681565b60405161ffff90911681526020015b60405180910390f35b34801561025257600080fd5b5061025c60095481565b60405190815260200161023d565b34801561027657600080fd5b5061028a610285366004611bea565b6107d1565b604051901515815260200161023d565b3480156102a657600080fd5b506102116102b5366004611c2c565b610808565b3480156102c657600080fd5b506004546102da906001600160a01b031681565b6040516001600160a01b03909116815260200161023d565b3480156102fe57600080fd5b5061025c61030d366004611c49565b60009081526020819052604090206001015490565b34801561032e57600080fd5b5061021161033d366004611c62565b6108a0565b34801561034e57600080fd5b5061021161035d366004611c62565b6108c6565b34801561036e57600080fd5b5061025c6103e881565b34801561038457600080fd5b506102da610393366004611c49565b610944565b3480156103a457600080fd5b506103ad600381565b60405160ff909116815260200161023d565b3480156103cb57600080fd5b506001546102da906001600160a01b031681565b3480156103eb57600080fd5b50600b546102da906201000090046001600160a01b031681565b34801561041157600080fd5b5061041a600181565b604051600f9190910b815260200161023d565b34801561043957600080fd5b5061028a610448366004611c62565b610964565b34801561045957600080fd5b5061025c6103e781565b34801561046f57600080fd5b5061041a600081565b34801561048457600080fd5b506002546102da906001600160a01b031681565b3480156104a457600080fd5b5061025c600081565b3480156104b957600080fd5b506003546102da906001600160a01b031681565b3480156104d957600080fd5b506102116104e8366004611d35565b61098d565b3480156104f957600080fd5b50610211610508366004611dd0565b610bad565b34801561051957600080fd5b50610211610c35565b34801561052e57600080fd5b5061021161053d366004611c62565b610c75565b34801561054e57600080fd5b50610557600281565b6040516001600160801b03909116815260200161023d565b61021161057d366004611c49565b610c9b565b34801561058e57600080fd5b5061025c600a5481565b6102116105a6366004611c49565b610fc9565b3480156105b757600080fd5b5061025c60085481565b3480156105cd57600080fd5b5061025c7f97667070c54ef182b0f5858b034beac1b6f3089aa2d3188bb1e8929f4fa9b92981565b34801561060157600080fd5b5061025c600c5481565b6004546001600160a01b0316336001600160a01b0316146106995760405162461bcd60e51b815260206004820152603760248201527f466f727761726465723a206f6e6c79207a65726f206c6179657220656e64706f60448201527f696e742063616e2063616c6c206c7a526563656976652100000000000000000060648201526084015b60405180910390fd5b600a54156106f75760405162461bcd60e51b815260206004820152602560248201527f466f727761726465723a20646f75626c6564207769746864726177616c2072656044820152641c5d595cdd60da1b6064820152608401610690565b60008061070683850185611e0f565b91509150610712611ad2565b600154610729906001600160a01b03168084611227565b60015460405162955d4360e71b81526001600160a01b0390911690634aaea1809061075a9085908590600401611e54565b600060405180830381600087803b15801561077457600080fd5b505af1158015610788573d6000803e3d6000fd5b505050600a8390555060405182815283907fb044668583d811edbcfe183ec48395b7910a50f3d531f3f1301233706acd64f49060200160405180910390a2505050505050505050565b60006001600160e01b03198216637965db0b60e01b148061080257506301ffc9a760e01b6001600160e01b03198316145b92915050565b6000610814813361136f565b6040516370a0823160e01b81523060048201526000906001600160a01b038416906370a0823190602401602060405180830381865afa15801561085b573d6000803e3d6000fd5b505050506040513d601f19601f8201168201806040525081019061087f9190611e68565b9050801561089b5761089b6001600160a01b03841633836113d3565b505050565b6000828152602081905260409020600101546108bc813361136f565b61089b8383611403565b6001600160a01b03811633146109365760405162461bcd60e51b815260206004820152602f60248201527f416363657373436f6e74726f6c3a2063616e206f6e6c792072656e6f756e636560448201526e103937b632b9903337b91039b2b63360891b6064820152608401610690565b6109408282611487565b5050565b6005816003811061095457600080fd5b01546001600160a01b0316905081565b6000918252602082815260408084206001600160a01b0393909316845291905290205460ff1690565b6003546001600160a01b0316336001600160a01b031614610a0c5760405162461bcd60e51b815260206004820152603360248201527f466f727761726465723a206f6e6c7920737461726761746520726f757465722060448201527263616e2063616c6c207367526563656976652160681b6064820152608401610690565b600b5461ffff878116911614610a645760405162461bcd60e51b815260206004820181905260248201527f466f727761726465723a2077726f6e6720736f7572636520636861696e2069646044820152606401610690565b600081806020019051810190610a7a9190611e68565b90506005600201546001600160a01b03858116911614610adc5760405162461bcd60e51b815260206004820152601e60248201527f466f727761726465723a2077726f6e6720746f6b656e206164647265737300006044820152606401610690565b610ae4611ad2565b60408101849052600154610b05906001600160a01b03878116911686611227565b60015460405163e287950560e01b81526001600160a01b039091169063e287950590610b35908490600401611e97565b600060405180830381600087803b158015610b4f57600080fd5b505af1158015610b63573d6000803e3d6000fd5b50506040805160028152602081018890528593507f3f4eb095aadf98bfed0e13af381b2a72a3e0883b728d662a8b56bc410f2c170192500160405180910390a25050505050505050565b6000610bb9813361136f565b600b805461ffff86166001600160b01b03199091168117620100006001600160a01b03871690810291909117909255600c8490556040805191825260208201929092529081018390527fdb85d13614082578c190eebfa3580e3a42fed95fd283016a00919e4691e953e39060600160405180910390a150505050565b6000610c41813361136f565b47801561094057604051339082156108fc029083906000818181858888f1935050505015801561089b573d6000803e3d6000fd5b600082815260208190526040902060010154610c91813361136f565b61089b8383611487565b7f97667070c54ef182b0f5858b034beac1b6f3089aa2d3188bb1e8929f4fa9b929610cc6813361136f565b610cd060006114ec565b610cda60016114ec565b6007546040516370a0823160e01b81523060048201526000916001600160a01b0316906370a0823190602401602060405180830381865afa158015610d23573d6000803e3d6000fd5b505050506040513d601f19601f82011682018060405250810190610d479190611e68565b600354909150610d72906001600160a01b031682600560025b01546001600160a01b03169190611624565b600354600b54600854600c546001600160a01b0390931692639fbf10fc92479261ffff9091169130876103e8610daa6103e783611ebb565b610db49190611eda565b604080516060808201835261c35082526000602080840191909152835180850185526002815261060f60f31b8183015283850152600b5493516201000090940490911b6bffffffffffffffffffffffff191690830152906034016040516020818303038152906040528d604051602001610e3091815260200190565b6040516020818303038152906040526040518b63ffffffff1660e01b8152600401610e6399989796959493929190611f54565b6000604051808303818588803b158015610e7c57600080fd5b505af1158015610e90573d6000803e3d6000fd5b5050505050600a5460096000828254610ea99190611ff2565b90915550506009546001546040516370a0823160e01b81523060048201526001600160a01b03909116906370a0823190602401602060405180830381865afa158015610ef9573d6000803e3d6000fd5b505050506040513d601f19601f82011682018060405250810190610f1d9190611e68565b14610f835760405162461bcd60e51b815260206004820152603060248201527f466f727761726465723a207769746864726177616c207761736e277420636f6d60448201526f706c6574656420696e205a756e616d6960801b6064820152608401610690565b6000600a5560408051600281526020810183905284917fabd2ab552bc04cdbfa4a54107fa44ac8c9cb06f6d21da11933ac05a653be19e9910160405180910390a2505050565b7f97667070c54ef182b0f5858b034beac1b6f3089aa2d3188bb1e8929f4fa9b929610ff4813361136f565b6009546001546040516370a0823160e01b8152306004820152600092916001600160a01b0316906370a0823190602401602060405180830381865afa158015611041573d6000803e3d6000fd5b505050506040513d601f19601f820116820180604052508101906110659190611e68565b61106f9190611ff2565b9050600081116110d75760405162461bcd60e51b815260206004820152602d60248201527f466f727761726465723a206465706f736974207761736e277420636f6d706c6560448201526c746564206174205a756e616d6960981b6064820152608401610690565b80600960008282546110e99190612009565b90915550506009546040805160208101869052808201849052606080820193909352815180820384018152608082018352600160f01b60a083015261c35060a2808401919091528351808403909101815260c283018452600454600b5462010000810490961b6bffffffffffffffffffffffff191660e2850152845160d681860301815260f685019586905262c5803160e81b909552919490936001600160a01b039092169263c58031009247926111b49261ffff9091169190889030906000908a9060fa01612021565b6000604051808303818588803b1580156111cd57600080fd5b505af11580156111e1573d6000803e3d6000fd5b5050505050847f06da3309189fa49284f335d2c2bcb4cb0b8ad2a59ad92a9bdebeeb8f1ceba5118460405161121891815260200190565b60405180910390a25050505050565b8015806112a15750604051636eb1769f60e11b81523060048201526001600160a01b03838116602483015284169063dd62ed3e90604401602060405180830381865afa15801561127b573d6000803e3d6000fd5b505050506040513d601f19601f8201168201806040525081019061129f9190611e68565b155b61130c5760405162461bcd60e51b815260206004820152603660248201527f5361666545524332303a20617070726f76652066726f6d206e6f6e2d7a65726f60448201527520746f206e6f6e2d7a65726f20616c6c6f77616e636560501b6064820152608401610690565b6040516001600160a01b03831660248201526044810182905261089b90849063095ea7b360e01b906064015b60408051601f198184030181529190526020810180516001600160e01b03166001600160e01b0319909316929092179091526116dc565b6113798282610964565b61094057611391816001600160a01b031660146117ae565b61139c8360206117ae565b6040516020016113ad929190612088565b60408051601f198184030181529082905262461bcd60e51b8252610690916004016120fd565b6040516001600160a01b03831660248201526044810182905261089b90849063a9059cbb60e01b90606401611338565b61140d8282610964565b610940576000828152602081815260408083206001600160a01b03851684529091529020805460ff191660011790556114433390565b6001600160a01b0316816001600160a01b0316837f2f8788117e7eff1d82e926ec794901d17c78024a50270940304540a733656f0d60405160405180910390a45050565b6114918282610964565b15610940576000828152602081815260408083206001600160a01b0385168085529252808320805460ff1916905551339285917ff6391f5c32d9c69d2a47ea670b442974b53935d1edc7fd64eb21e047a839171b9190a45050565b60006005826001600160801b03166003811061150a5761150a611e81565b01546040516370a0823160e01b81523060048201526001600160a01b03909116906370a0823190602401602060405180830381865afa158015611551573d6000803e3d6000fd5b505050506040513d601f19601f820116820180604052508101906115759190611e68565b90508015610940576002546115aa906001600160a01b03168260056001600160801b03861660038110610d6057610d60611e81565b60028054604051630f7c084960e21b8152600f85900b6004820152602481019290925260448201839052600060648301526001600160a01b031690633df0212490608401600060405180830381600087803b15801561160857600080fd5b505af115801561161c573d6000803e3d6000fd5b505050505050565b604051636eb1769f60e11b81523060048201526001600160a01b038381166024830152600091839186169063dd62ed3e90604401602060405180830381865afa158015611675573d6000803e3d6000fd5b505050506040513d601f19601f820116820180604052508101906116999190611e68565b6116a39190612009565b6040516001600160a01b0385166024820152604481018290529091506116d690859063095ea7b360e01b90606401611338565b50505050565b6000611731826040518060400160405280602081526020017f5361666545524332303a206c6f772d6c6576656c2063616c6c206661696c6564815250856001600160a01b03166119519092919063ffffffff16565b80519091501561089b578080602001905181019061174f9190612110565b61089b5760405162461bcd60e51b815260206004820152602a60248201527f5361666545524332303a204552433230206f7065726174696f6e20646964206e6044820152691bdd081cdd58d8d9595960b21b6064820152608401610690565b606060006117bd836002611ebb565b6117c8906002612009565b67ffffffffffffffff8111156117e0576117e0611c92565b6040519080825280601f01601f19166020018201604052801561180a576020820181803683370190505b509050600360fc1b8160008151811061182557611825611e81565b60200101906001600160f81b031916908160001a905350600f60fb1b8160018151811061185457611854611e81565b60200101906001600160f81b031916908160001a9053506000611878846002611ebb565b611883906001612009565b90505b60018111156118fb576f181899199a1a9b1b9c1cb0b131b232b360811b85600f16601081106118b7576118b7611e81565b1a60f81b8282815181106118cd576118cd611e81565b60200101906001600160f81b031916908160001a90535060049490941c936118f481612132565b9050611886565b50831561194a5760405162461bcd60e51b815260206004820181905260248201527f537472696e67733a20686578206c656e67746820696e73756666696369656e746044820152606401610690565b9392505050565b60606119608484600085611968565b949350505050565b6060824710156119c95760405162461bcd60e51b815260206004820152602660248201527f416464726573733a20696e73756666696369656e742062616c616e636520666f6044820152651c8818d85b1b60d21b6064820152608401610690565b6001600160a01b0385163b611a205760405162461bcd60e51b815260206004820152601d60248201527f416464726573733a2063616c6c20746f206e6f6e2d636f6e74726163740000006044820152606401610690565b600080866001600160a01b03168587604051611a3c9190612149565b60006040518083038185875af1925050503d8060008114611a79576040519150601f19603f3d011682016040523d82523d6000602084013e611a7e565b606091505b5091509150611a8e828286611a99565b979650505050505050565b60608315611aa857508161194a565b825115611ab85782518084602001fd5b8160405162461bcd60e51b815260040161069091906120fd565b60405180606001604052806003906020820280368337509192915050565b803561ffff81168114611b0257600080fd5b919050565b60008083601f840112611b1957600080fd5b50813567ffffffffffffffff811115611b3157600080fd5b602083019150836020828501011115611b4957600080fd5b9250929050565b60008060008060008060808789031215611b6957600080fd5b611b7287611af0565b9550602087013567ffffffffffffffff80821115611b8f57600080fd5b611b9b8a838b01611b07565b9097509550604089013591508082168214611bb557600080fd5b90935060608801359080821115611bcb57600080fd5b50611bd889828a01611b07565b979a9699509497509295939492505050565b600060208284031215611bfc57600080fd5b81356001600160e01b03198116811461194a57600080fd5b6001600160a01b0381168114611c2957600080fd5b50565b600060208284031215611c3e57600080fd5b813561194a81611c14565b600060208284031215611c5b57600080fd5b5035919050565b60008060408385031215611c7557600080fd5b823591506020830135611c8781611c14565b809150509250929050565b634e487b7160e01b600052604160045260246000fd5b600082601f830112611cb957600080fd5b813567ffffffffffffffff80821115611cd457611cd4611c92565b604051601f8301601f19908116603f01168101908282118183101715611cfc57611cfc611c92565b81604052838152866020858801011115611d1557600080fd5b836020870160208301376000602085830101528094505050505092915050565b60008060008060008060c08789031215611d4e57600080fd5b611d5787611af0565b9550602087013567ffffffffffffffff80821115611d7457600080fd5b611d808a838b01611ca8565b96506040890135955060608901359150611d9982611c14565b9093506080880135925060a08801359080821115611db657600080fd5b50611dc389828a01611ca8565b9150509295509295509295565b600080600060608486031215611de557600080fd5b611dee84611af0565b92506020840135611dfe81611c14565b929592945050506040919091013590565b60008060408385031215611e2257600080fd5b50508035926020909101359150565b8060005b60038110156116d6578151845260209384019390910190600101611e35565b8281526080810161194a6020830184611e31565b600060208284031215611e7a57600080fd5b5051919050565b634e487b7160e01b600052603260045260246000fd5b606081016108028284611e31565b634e487b7160e01b600052601160045260246000fd5b6000816000190483118215151615611ed557611ed5611ea5565b500290565b600082611ef757634e487b7160e01b600052601260045260246000fd5b500490565b60005b83811015611f17578181015183820152602001611eff565b838111156116d65750506000910152565b60008151808452611f40816020860160208601611efc565b601f01601f19169290920160200192915050565b600061012061ffff8c1683528a602084015289604084015260018060a01b03891660608401528760808401528660a08401528060c084015285518184015250602085015161014083015260408501516060610160840152611fb9610180840182611f28565b905082810360e0840152611fcd8186611f28565b9050828103610100840152611fe28185611f28565b9c9b505050505050505050505050565b60008282101561200457612004611ea5565b500390565b6000821982111561201c5761201c611ea5565b500190565b61ffff8716815260c06020820152600061203e60c0830188611f28565b82810360408401526120508188611f28565b6001600160a01b0387811660608601528616608085015283810360a0850152905061207b8185611f28565b9998505050505050505050565b7f416363657373436f6e74726f6c3a206163636f756e74200000000000000000008152600083516120c0816017850160208801611efc565b7001034b99036b4b9b9b4b733903937b6329607d1b60179184019182015283516120f1816028840160208801611efc565b01602801949350505050565b60208152600061194a6020830184611f28565b60006020828403121561212257600080fd5b8151801515811461194a57600080fd5b60008161214157612141611ea5565b506000190190565b6000825161215b818460208701611efc565b919091019291505056fea26469706673582212206510a7786851771bcf5c660f8a4742e597325b202e065c4f8b0f75f13efc075764736f6c634300080f0033",
  "linkReferences": {},
  "deployedLinkReferences": {}
}