{
  "_format": "hh-sol-artifact-1",
  "contractName": "ZunamiForwarder",
  "sourceName": "contracts/crosschain/ZunamiForwarder.sol",
  "abi": [
    {
      "inputs": [
        {
          "internalType": "contract IERC20Metadata[3]",
          "name": "_tokens",
          "type": "address[3]"
        },
        {
          "internalType": "uint256",
          "name": "_tokenPoolId",
          "type": "uint256"
        },
        {
          "internalType": "address",
          "name": "_zunami",
          "type": "address"
        },
        {
          "internalType": "address",
          "name": "_curveExchange",
          "type": "address"
        },
        {
          "internalType": "address",
          "name": "_stargateRouter",
          "type": "address"
        },
        {
          "internalType": "address",
          "name": "_layerZeroEndpoint",
          "type": "address"
        }
      ],
      "stateMutability": "nonpayable",
      "type": "constructor"
    },
    {
      "anonymous": false,
      "inputs": [
        {
          "indexed": true,
          "internalType": "uint256",
          "name": "id",
          "type": "uint256"
        },
        {
          "indexed": false,
          "internalType": "uint256",
          "name": "tokenId",
          "type": "uint256"
        },
        {
          "indexed": false,
          "internalType": "uint256",
          "name": "tokenAmount",
          "type": "uint256"
        }
      ],
      "name": "CreatedPendingDeposit",
      "type": "event"
    },
    {
      "anonymous": false,
      "inputs": [
        {
          "indexed": true,
          "internalType": "uint256",
          "name": "id",
          "type": "uint256"
        },
        {
          "indexed": false,
          "internalType": "uint256",
          "name": "lpShares",
          "type": "uint256"
        }
      ],
      "name": "CreatedPendingWithdrawal",
      "type": "event"
    },
    {
      "anonymous": false,
      "inputs": [
        {
          "indexed": true,
          "internalType": "uint256",
          "name": "id",
          "type": "uint256"
        },
        {
          "indexed": false,
          "internalType": "uint256",
          "name": "lpShares",
          "type": "uint256"
        }
      ],
      "name": "Deposited",
      "type": "event"
    },
    {
      "anonymous": false,
      "inputs": [
        {
          "indexed": true,
          "internalType": "bytes32",
          "name": "role",
          "type": "bytes32"
        },
        {
          "indexed": true,
          "internalType": "bytes32",
          "name": "previousAdminRole",
          "type": "bytes32"
        },
        {
          "indexed": true,
          "internalType": "bytes32",
          "name": "newAdminRole",
          "type": "bytes32"
        }
      ],
      "name": "RoleAdminChanged",
      "type": "event"
    },
    {
      "anonymous": false,
      "inputs": [
        {
          "indexed": true,
          "internalType": "bytes32",
          "name": "role",
          "type": "bytes32"
        },
        {
          "indexed": true,
          "internalType": "address",
          "name": "account",
          "type": "address"
        },
        {
          "indexed": true,
          "internalType": "address",
          "name": "sender",
          "type": "address"
        }
      ],
      "name": "RoleGranted",
      "type": "event"
    },
    {
      "anonymous": false,
      "inputs": [
        {
          "indexed": true,
          "internalType": "bytes32",
          "name": "role",
          "type": "bytes32"
        },
        {
          "indexed": true,
          "internalType": "address",
          "name": "account",
          "type": "address"
        },
        {
          "indexed": true,
          "internalType": "address",
          "name": "sender",
          "type": "address"
        }
      ],
      "name": "RoleRevoked",
      "type": "event"
    },
    {
      "anonymous": false,
      "inputs": [
        {
          "indexed": false,
          "internalType": "uint256",
          "name": "chainId",
          "type": "uint256"
        },
        {
          "indexed": false,
          "internalType": "address",
          "name": "gateway",
          "type": "address"
        },
        {
          "indexed": false,
          "internalType": "uint256",
          "name": "tokenPoolId",
          "type": "uint256"
        }
      ],
      "name": "SetGatewayParams",
      "type": "event"
    },
    {
      "anonymous": false,
      "inputs": [
        {
          "indexed": false,
          "internalType": "uint256",
          "name": "slippage",
          "type": "uint256"
        }
      ],
      "name": "SetStargateSlippage",
      "type": "event"
    },
    {
      "anonymous": false,
      "inputs": [
        {
          "indexed": true,
          "internalType": "uint256",
          "name": "id",
          "type": "uint256"
        },
        {
          "indexed": false,
          "internalType": "uint256",
          "name": "tokenId",
          "type": "uint256"
        },
        {
          "indexed": false,
          "internalType": "uint256",
          "name": "tokenAmount",
          "type": "uint256"
        }
      ],
      "name": "Withdrawn",
      "type": "event"
    },
    {
      "inputs": [],
      "name": "DAI_TOKEN_ID",
      "outputs": [
        {
          "internalType": "int128",
          "name": "",
          "type": "int128"
        }
      ],
      "stateMutability": "view",
      "type": "function"
    },
    {
      "inputs": [],
      "name": "DEFAULT_ADMIN_ROLE",
      "outputs": [
        {
          "internalType": "bytes32",
          "name": "",
          "type": "bytes32"
        }
      ],
      "stateMutability": "view",
      "type": "function"
    },
    {
      "inputs": [],
      "name": "OPERATOR_ROLE",
      "outputs": [
        {
          "internalType": "bytes32",
          "name": "",
          "type": "bytes32"
        }
      ],
      "stateMutability": "view",
      "type": "function"
    },
    {
      "inputs": [],
      "name": "POOL_ASSETS",
      "outputs": [
        {
          "internalType": "uint8",
          "name": "",
          "type": "uint8"
        }
      ],
      "stateMutability": "view",
      "type": "function"
    },
    {
      "inputs": [],
      "name": "SG_SLIPPAGE_DIVIDER",
      "outputs": [
        {
          "internalType": "uint256",
          "name": "",
          "type": "uint256"
        }
      ],
      "stateMutability": "view",
      "type": "function"
    },
    {
      "inputs": [],
      "name": "USDC_TOKEN_ID",
      "outputs": [
        {
          "internalType": "int128",
          "name": "",
          "type": "int128"
        }
      ],
      "stateMutability": "view",
      "type": "function"
    },
    {
      "inputs": [],
      "name": "USDT_TOKEN_ID",
      "outputs": [
        {
          "internalType": "uint128",
          "name": "",
          "type": "uint128"
        }
      ],
      "stateMutability": "view",
      "type": "function"
    },
    {
      "inputs": [],
      "name": "completeCrossDeposit",
      "outputs": [],
      "stateMutability": "payable",
      "type": "function"
    },
    {
      "inputs": [],
      "name": "completeCrossWithdrawal",
      "outputs": [],
      "stateMutability": "payable",
      "type": "function"
    },
    {
      "inputs": [],
      "name": "curveExchange",
      "outputs": [
        {
          "internalType": "contract ICurvePool",
          "name": "",
          "type": "address"
        }
      ],
      "stateMutability": "view",
      "type": "function"
    },
    {
      "inputs": [],
      "name": "gatewayAddress",
      "outputs": [
        {
          "internalType": "address",
          "name": "",
          "type": "address"
        }
      ],
      "stateMutability": "view",
      "type": "function"
    },
    {
      "inputs": [],
      "name": "gatewayChainId",
      "outputs": [
        {
          "internalType": "uint16",
          "name": "",
          "type": "uint16"
        }
      ],
      "stateMutability": "view",
      "type": "function"
    },
    {
      "inputs": [],
      "name": "gatewayTokenPoolId",
      "outputs": [
        {
          "internalType": "uint256",
          "name": "",
          "type": "uint256"
        }
      ],
      "stateMutability": "view",
      "type": "function"
    },
    {
      "inputs": [
        {
          "internalType": "bytes32",
          "name": "role",
          "type": "bytes32"
        }
      ],
      "name": "getRoleAdmin",
      "outputs": [
        {
          "internalType": "bytes32",
          "name": "",
          "type": "bytes32"
        }
      ],
      "stateMutability": "view",
      "type": "function"
    },
    {
      "inputs": [
        {
          "internalType": "bytes32",
          "name": "role",
          "type": "bytes32"
        },
        {
          "internalType": "address",
          "name": "account",
          "type": "address"
        }
      ],
      "name": "grantRole",
      "outputs": [],
      "stateMutability": "nonpayable",
      "type": "function"
    },
    {
      "inputs": [
        {
          "internalType": "bytes32",
          "name": "role",
          "type": "bytes32"
        },
        {
          "internalType": "address",
          "name": "account",
          "type": "address"
        }
      ],
      "name": "hasRole",
      "outputs": [
        {
          "internalType": "bool",
          "name": "",
          "type": "bool"
        }
      ],
      "stateMutability": "view",
      "type": "function"
    },
    {
      "inputs": [],
      "name": "layerZeroEndpoint",
      "outputs": [
        {
          "internalType": "contract ILayerZeroEndpoint",
          "name": "",
          "type": "address"
        }
      ],
      "stateMutability": "view",
      "type": "function"
    },
    {
      "inputs": [
        {
          "internalType": "uint16",
          "name": "_srcChainId",
          "type": "uint16"
        },
        {
          "internalType": "bytes",
          "name": "_srcAddress",
          "type": "bytes"
        },
        {
          "internalType": "uint64",
          "name": "_nonce",
          "type": "uint64"
        },
        {
          "internalType": "bytes",
          "name": "_payload",
          "type": "bytes"
        }
      ],
      "name": "lzReceive",
      "outputs": [],
      "stateMutability": "nonpayable",
      "type": "function"
    },
    {
      "inputs": [],
      "name": "processingDepositId",
      "outputs": [
        {
          "internalType": "uint256",
          "name": "",
          "type": "uint256"
        }
      ],
      "stateMutability": "view",
      "type": "function"
    },
    {
      "inputs": [],
      "name": "processingWithdrawalId",
      "outputs": [
        {
          "internalType": "uint256",
          "name": "",
          "type": "uint256"
        }
      ],
      "stateMutability": "view",
      "type": "function"
    },
    {
      "inputs": [
        {
          "internalType": "bytes32",
          "name": "role",
          "type": "bytes32"
        },
        {
          "internalType": "address",
          "name": "account",
          "type": "address"
        }
      ],
      "name": "renounceRole",
      "outputs": [],
      "stateMutability": "nonpayable",
      "type": "function"
    },
    {
      "inputs": [
        {
          "internalType": "bytes32",
          "name": "role",
          "type": "bytes32"
        },
        {
          "internalType": "address",
          "name": "account",
          "type": "address"
        }
      ],
      "name": "revokeRole",
      "outputs": [],
      "stateMutability": "nonpayable",
      "type": "function"
    },
    {
      "inputs": [
        {
          "internalType": "uint16",
          "name": "_chainId",
          "type": "uint16"
        },
        {
          "internalType": "address",
          "name": "_address",
          "type": "address"
        },
        {
          "internalType": "uint256",
          "name": "_tokenPoolId",
          "type": "uint256"
        }
      ],
      "name": "setGatewayParams",
      "outputs": [],
      "stateMutability": "nonpayable",
      "type": "function"
    },
    {
      "inputs": [
        {
          "internalType": "uint16",
          "name": "_slippage",
          "type": "uint16"
        }
      ],
      "name": "setStargateSlippage",
      "outputs": [],
      "stateMutability": "nonpayable",
      "type": "function"
    },
    {
      "inputs": [
        {
          "internalType": "uint16",
          "name": "_srcChainId",
          "type": "uint16"
        },
        {
          "internalType": "bytes",
          "name": "_srcAddress",
          "type": "bytes"
        },
        {
          "internalType": "uint256",
          "name": "_nonce",
          "type": "uint256"
        },
        {
          "internalType": "address",
          "name": "_token",
          "type": "address"
        },
        {
          "internalType": "uint256",
          "name": "amountLD",
          "type": "uint256"
        },
        {
          "internalType": "bytes",
          "name": "payload",
          "type": "bytes"
        }
      ],
      "name": "sgReceive",
      "outputs": [],
      "stateMutability": "nonpayable",
      "type": "function"
    },
    {
      "inputs": [],
      "name": "stargateRouter",
      "outputs": [
        {
          "internalType": "contract IStargateRouter",
          "name": "",
          "type": "address"
        }
      ],
      "stateMutability": "view",
      "type": "function"
    },
    {
      "inputs": [],
      "name": "stargateSlippage",
      "outputs": [
        {
          "internalType": "uint256",
          "name": "",
          "type": "uint256"
        }
      ],
      "stateMutability": "view",
      "type": "function"
    },
    {
      "inputs": [],
      "name": "storedLpShares",
      "outputs": [
        {
          "internalType": "uint256",
          "name": "",
          "type": "uint256"
        }
      ],
      "stateMutability": "view",
      "type": "function"
    },
    {
      "inputs": [
        {
          "internalType": "bytes4",
          "name": "interfaceId",
          "type": "bytes4"
        }
      ],
      "name": "supportsInterface",
      "outputs": [
        {
          "internalType": "bool",
          "name": "",
          "type": "bool"
        }
      ],
      "stateMutability": "view",
      "type": "function"
    },
    {
      "inputs": [],
      "name": "tokenPoolId",
      "outputs": [
        {
          "internalType": "uint256",
          "name": "",
          "type": "uint256"
        }
      ],
      "stateMutability": "view",
      "type": "function"
    },
    {
      "inputs": [
        {
          "internalType": "uint256",
          "name": "",
          "type": "uint256"
        }
      ],
      "name": "tokens",
      "outputs": [
        {
          "internalType": "contract IERC20Metadata",
          "name": "",
          "type": "address"
        }
      ],
      "stateMutability": "view",
      "type": "function"
    },
    {
      "inputs": [],
      "name": "withdrawStuckNative",
      "outputs": [],
      "stateMutability": "nonpayable",
      "type": "function"
    },
    {
      "inputs": [
        {
          "internalType": "contract IERC20Metadata",
          "name": "_token",
          "type": "address"
        }
      ],
      "name": "withdrawStuckToken",
      "outputs": [],
      "stateMutability": "nonpayable",
      "type": "function"
    },
    {
      "inputs": [],
      "name": "withdrawingLpShares",
      "outputs": [
        {
          "internalType": "uint256",
          "name": "",
          "type": "uint256"
        }
      ],
      "stateMutability": "view",
      "type": "function"
    },
    {
      "inputs": [],
      "name": "zunami",
      "outputs": [
        {
          "internalType": "contract IZunami",
          "name": "",
          "type": "address"
        }
      ],
      "stateMutability": "view",
      "type": "function"
    },
    {
      "stateMutability": "payable",
      "type": "receive"
    }
  ],
  "bytecode": "0x608060405260146005553480156200001657600080fd5b50604051620028c5380380620028c5833981016040819052620000399162000231565b62000046600033620000da565b620000727f97667070c54ef182b0f5858b034beac1b6f3089aa2d3188bb1e8929f4fa9b92933620000da565b6200008160068760036200018a565b50600994909455600180546001600160a01b03199081166001600160a01b039586161790915560038054821692851692909217909155600480548216948416949094179093556002805490931691161790555062000310565b620000e68282620000ea565b5050565b6000828152602081815260408083206001600160a01b038516845290915290205460ff16620000e6576000828152602081815260408083206001600160a01b03851684529091529020805460ff19166001179055620001463390565b6001600160a01b0316816001600160a01b0316837f2f8788117e7eff1d82e926ec794901d17c78024a50270940304540a733656f0d60405160405180910390a45050565b8260038101928215620001d5579160200282015b82811115620001d557825182546001600160a01b0319166001600160a01b039091161782556020909201916001909101906200019e565b50620001e3929150620001e7565b5090565b5b80821115620001e35760008155600101620001e8565b634e487b7160e01b600052604160045260246000fd5b80516001600160a01b03811681146200022c57600080fd5b919050565b60008060008060008061010087890312156200024c57600080fd5b87601f8801126200025c57600080fd5b604051606081016001600160401b0381118282101715620002815762000281620001fe565b60405280606089018a8111156200029757600080fd5b895b81811015620002bc57620002ad8162000214565b83526020928301920162000299565b5051919750909550620002d490506080880162000214565b9350620002e460a0880162000214565b9250620002f460c0880162000214565b91506200030460e0880162000214565b90509295509295509295565b6125a580620003206000396000f3fe6080604052600436106102065760003560e01c806391d1485411610118578063b314cfd5116100a0578063d771c6741161006f578063d771c674146105bf578063dab90cdc146105ec578063e9b6d59914610602578063f5b541a614610618578063fff0514e1461064c57600080fd5b8063b314cfd514610554578063cab65c6f14610569578063cd75b1f71461057f578063d547741f1461059f57600080fd5b80639fd8f216116100e75780639fd8f216146104bf578063a217fddf146104df578063a9e56f3c146104f4578063ab8236f314610514578063b1c2cd1e1461053457600080fd5b806391d148541461046c578063952e76bc1461048c578063956f9e9e146104a15780639de99e4f146104b757600080fd5b8063248a9ca31161019b5780634f64b2be1161016a5780634f64b2be146103b757806375451b4f146103d757806381ff3e8b146103fe5780638b851b951461041e5780638d485a701461044457600080fd5b8063248a9ca3146103315780632f2ff15d146103615780633413f1c11461038157806336568abe1461039757600080fd5b806304ce8abb116101d757806304ce8abb146102bb578063068acf6c146102d157806307968db1146102f15780631998f2431461032957600080fd5b80621d356714610212578062c7d4db1461023457806301784bd31461026757806301ffc9a71461028b57600080fd5b3661020d57005b600080fd5b34801561021e57600080fd5b5061023261022d366004611f12565b610662565b005b34801561024057600080fd5b50600e5461024f9061ffff1681565b60405161ffff90911681526020015b60405180910390f35b34801561027357600080fd5b5061027d600a5481565b60405190815260200161025e565b34801561029757600080fd5b506102ab6102a6366004611fac565b61092a565b604051901515815260200161025e565b3480156102c757600080fd5b5061027d600d5481565b3480156102dd57600080fd5b506102326102ec366004611fee565b610961565b3480156102fd57600080fd5b50600454610311906001600160a01b031681565b6040516001600160a01b03909116815260200161025e565b6102326109f9565b34801561033d57600080fd5b5061027d61034c36600461200b565b60009081526020819052604090206001015490565b34801561036d57600080fd5b5061023261037c366004612024565b610cb8565b34801561038d57600080fd5b5061027d60055481565b3480156103a357600080fd5b506102326103b2366004612024565b610cde565b3480156103c357600080fd5b506103116103d236600461200b565b610d5c565b3480156103e357600080fd5b506103ec600381565b60405160ff909116815260200161025e565b34801561040a57600080fd5b50600154610311906001600160a01b031681565b34801561042a57600080fd5b50600e54610311906201000090046001600160a01b031681565b34801561045057600080fd5b50610459600181565b604051600f9190910b815260200161025e565b34801561047857600080fd5b506102ab610487366004612024565b610d7c565b34801561049857600080fd5b50610459600081565b3480156104ad57600080fd5b5061027d600c5481565b610232610da5565b3480156104cb57600080fd5b50600254610311906001600160a01b031681565b3480156104eb57600080fd5b5061027d600081565b34801561050057600080fd5b50600354610311906001600160a01b031681565b34801561052057600080fd5b5061023261052f3660046120f7565b611152565b34801561054057600080fd5b5061023261054f366004612192565b61144d565b34801561056057600080fd5b506102326114d5565b34801561057557600080fd5b5061027d61271081565b34801561058b57600080fd5b5061023261059a3660046121d1565b611515565b3480156105ab57600080fd5b506102326105ba366004612024565b6115c3565b3480156105cb57600080fd5b506105d4600281565b6040516001600160801b03909116815260200161025e565b3480156105f857600080fd5b5061027d600b5481565b34801561060e57600080fd5b5061027d60095481565b34801561062457600080fd5b5061027d7f97667070c54ef182b0f5858b034beac1b6f3089aa2d3188bb1e8929f4fa9b92981565b34801561065857600080fd5b5061027d600f5481565b6004546001600160a01b0316336001600160a01b0316146106f05760405162461bcd60e51b815260206004820152603760248201527f466f727761726465723a206f6e6c79207a65726f206c6179657220656e64706f60448201527f696e742063616e2063616c6c206c7a526563656976652100000000000000000060648201526084015b60405180910390fd5b600e5461ffff8781169116146107485760405162461bcd60e51b815260206004820181905260248201527f466f727761726465723a2077726f6e6720736f7572636520636861696e20696460448201526064016106e7565b600e5460405161076a916201000090046001600160a01b0316906020016121ec565b604051602081830303815290604052805190602001208585604051610790929190612209565b6040518091039020146107e55760405162461bcd60e51b815260206004820152601f60248201527f466f727761726465723a2077726f6e6720736f7572636520616464726573730060448201526064016106e7565b600d541580156107f55750600b54155b61084d5760405162461bcd60e51b815260206004820152602360248201527f466f727761726465723a207769746864726177616c2069732070726f63657373604482015262696e6760e81b60648201526084016106e7565b600061085b82840184612219565b600d91909155905061086b611e94565b600154610882906001600160a01b031680846115e9565b60015460405162955d4360e71b81526001600160a01b0390911690634aaea180906108b3908590859060040161225e565b600060405180830381600087803b1580156108cd57600080fd5b505af11580156108e1573d6000803e3d6000fd5b505050600b83905550600d546040518381527fb044668583d811edbcfe183ec48395b7910a50f3d531f3f1301233706acd64f49060200160405180910390a25050505050505050565b60006001600160e01b03198216637965db0b60e01b148061095b57506301ffc9a760e01b6001600160e01b03198316145b92915050565b600061096d8133611731565b6040516370a0823160e01b81523060048201526000906001600160a01b038416906370a0823190602401602060405180830381865afa1580156109b4573d6000803e3d6000fd5b505050506040513d601f19601f820116820180604052508101906109d89190612272565b905080156109f4576109f46001600160a01b0384163383611795565b505050565b7f97667070c54ef182b0f5858b034beac1b6f3089aa2d3188bb1e8929f4fa9b929610a248133611731565b600c54600003610a805760405162461bcd60e51b815260206004820152602160248201527f466f727761726465723a206465706f736974206e6f742070726f63657373696e6044820152606760f81b60648201526084016106e7565b600a546001546040516370a0823160e01b8152306004820152600092916001600160a01b0316906370a0823190602401602060405180830381865afa158015610acd573d6000803e3d6000fd5b505050506040513d601f19601f82011682018060405250810190610af19190612272565b610afb91906122a1565b905060008111610b635760405162461bcd60e51b815260206004820152602d60248201527f466f727761726465723a206465706f736974207761736e277420636f6d706c6560448201526c746564206174205a756e616d6960981b60648201526084016106e7565b80600a6000828254610b7591906122b8565b9091555050600c54604051600091610b9a918490602001918252602082015260400190565b60408051808303601f19018152828252600160f01b602084015261c3506022808501919091528251808503909101815260428401909252600454600e5491945091926001600160a01b039283169263c580310092479261ffff821692610c0a9262010000900416906062016121ec565b60405160208183030381529060405286306000886040518863ffffffff1660e01b8152600401610c3f96959493929190612328565b6000604051808303818588803b158015610c5857600080fd5b505af1158015610c6c573d6000803e3d6000fd5b5050505050600c547f06da3309189fa49284f335d2c2bcb4cb0b8ad2a59ad92a9bdebeeb8f1ceba51184604051610ca591815260200190565b60405180910390a250506000600c555050565b600082815260208190526040902060010154610cd48133611731565b6109f483836117c5565b6001600160a01b0381163314610d4e5760405162461bcd60e51b815260206004820152602f60248201527f416363657373436f6e74726f6c3a2063616e206f6e6c792072656e6f756e636560448201526e103937b632b9903337b91039b2b63360891b60648201526084016106e7565b610d588282611849565b5050565b60068160038110610d6c57600080fd5b01546001600160a01b0316905081565b6000918252602082815260408084206001600160a01b0393909316845291905290205460ff1690565b7f97667070c54ef182b0f5858b034beac1b6f3089aa2d3188bb1e8929f4fa9b929610dd08133611731565b600d5415801590610de25750600b5415155b610e3e5760405162461bcd60e51b815260206004820152602760248201527f466f727761726465723a207769746864726177616c206973206e6f742070726f60448201526663657373696e6760c81b60648201526084016106e7565b610e4860006118ae565b610e5260016118ae565b6008546040516370a0823160e01b81523060048201526000916001600160a01b0316906370a0823190602401602060405180830381865afa158015610e9b573d6000803e3d6000fd5b505050506040513d601f19601f82011682018060405250810190610ebf9190612272565b600354909150610eea906001600160a01b031682600660025b01546001600160a01b031691906119e6565b600354600e54600954600f546005546001600160a01b0390941693639fbf10fc93479361ffff9091169290913090889061271090610f2890826122a1565b610f32908b6123a5565b610f3c91906123c4565b604051806060016040528061c35081526020016000815260200160405180604001604052806002815260200161060f60f31b815250815250600e60029054906101000a90046001600160a01b0316604051602001610f9a91906121ec565b60408051601f19818403018152828252600d54602084015291016040516020818303038152906040526040518b63ffffffff1660e01b8152600401610fe7999897969594939291906123e6565b6000604051808303818588803b15801561100057600080fd5b505af1158015611014573d6000803e3d6000fd5b5050505050600b54600a600082825461102d91906122a1565b9091555050600a546001546040516370a0823160e01b81523060048201526001600160a01b03909116906370a0823190602401602060405180830381865afa15801561107d573d6000803e3d6000fd5b505050506040513d601f19601f820116820180604052508101906110a19190612272565b146111075760405162461bcd60e51b815260206004820152603060248201527f466f727761726465723a207769746864726177616c207761736e277420636f6d60448201526f706c6574656420696e205a756e616d6960801b60648201526084016106e7565b600d546040805160028152602081018490527fabd2ab552bc04cdbfa4a54107fa44ac8c9cb06f6d21da11933ac05a653be19e9910160405180910390a250506000600d819055600b55565b6003546001600160a01b0316336001600160a01b0316146111d15760405162461bcd60e51b815260206004820152603360248201527f466f727761726465723a206f6e6c7920737461726761746520726f757465722060448201527263616e2063616c6c207367526563656976652160681b60648201526084016106e7565b600c54156112215760405162461bcd60e51b815260206004820181905260248201527f466f727761726465723a206465706f7369742069732070726f63657373696e6760448201526064016106e7565b600e5461ffff8781169116146112795760405162461bcd60e51b815260206004820181905260248201527f466f727761726465723a2077726f6e6720736f7572636520636861696e20696460448201526064016106e7565b600e5460405161129b916201000090046001600160a01b0316906020016121ec565b604051602081830303815290604052805190602001208580519060200120146113065760405162461bcd60e51b815260206004820152601f60248201527f466f727761726465723a2077726f6e6720736f7572636520616464726573730060448201526064016106e7565b8080602001905181019061131a9190612272565b600c556008546001600160a01b0384811691161461137a5760405162461bcd60e51b815260206004820152601e60248201527f466f727761726465723a2077726f6e6720746f6b656e2061646472657373000060448201526064016106e7565b611382611e94565b604081018390526001546113a3906001600160a01b038681169116856115e9565b60015460405163e287950560e01b81526001600160a01b039091169063e2879505906113d3908490600401612484565b600060405180830381600087803b1580156113ed57600080fd5b505af1158015611401573d6000803e3d6000fd5b5050600c546040805160028152602081018890529193507f3f4eb095aadf98bfed0e13af381b2a72a3e0883b728d662a8b56bc410f2c170192500160405180910390a250505050505050565b60006114598133611731565b600e805461ffff86166001600160b01b03199091168117620100006001600160a01b03871690810291909117909255600f8490556040805191825260208201929092529081018390527fdb85d13614082578c190eebfa3580e3a42fed95fd283016a00919e4691e953e39060600160405180910390a150505050565b60006114e18133611731565b478015610d5857604051339082156108fc029083906000818181858888f193505050501580156109f4573d6000803e3d6000fd5b60006115218133611731565b6127108261ffff1611156115825760405162461bcd60e51b815260206004820152602260248201527f466f727761726465723a2077726f6e6720737461726761746520736c69707061604482015261676560f01b60648201526084016106e7565b61ffff821660058190556040519081527fb5cd78aab69202b3af2c4e5171dc7dbb7dd29b301421a6cb87458308944a3ae89060200160405180910390a15050565b6000828152602081905260409020600101546115df8133611731565b6109f48383611849565b8015806116635750604051636eb1769f60e11b81523060048201526001600160a01b03838116602483015284169063dd62ed3e90604401602060405180830381865afa15801561163d573d6000803e3d6000fd5b505050506040513d601f19601f820116820180604052508101906116619190612272565b155b6116ce5760405162461bcd60e51b815260206004820152603660248201527f5361666545524332303a20617070726f76652066726f6d206e6f6e2d7a65726f60448201527520746f206e6f6e2d7a65726f20616c6c6f77616e636560501b60648201526084016106e7565b6040516001600160a01b0383166024820152604481018290526109f490849063095ea7b360e01b906064015b60408051601f198184030181529190526020810180516001600160e01b03166001600160e01b031990931692909217909152611a9e565b61173b8282610d7c565b610d5857611753816001600160a01b03166014611b70565b61175e836020611b70565b60405160200161176f929190612492565b60408051601f198184030181529082905262461bcd60e51b82526106e791600401612507565b6040516001600160a01b0383166024820152604481018290526109f490849063a9059cbb60e01b906064016116fa565b6117cf8282610d7c565b610d58576000828152602081815260408083206001600160a01b03851684529091529020805460ff191660011790556118053390565b6001600160a01b0316816001600160a01b0316837f2f8788117e7eff1d82e926ec794901d17c78024a50270940304540a733656f0d60405160405180910390a45050565b6118538282610d7c565b15610d58576000828152602081815260408083206001600160a01b0385168085529252808320805460ff1916905551339285917ff6391f5c32d9c69d2a47ea670b442974b53935d1edc7fd64eb21e047a839171b9190a45050565b60006006826001600160801b0316600381106118cc576118cc61238f565b01546040516370a0823160e01b81523060048201526001600160a01b03909116906370a0823190602401602060405180830381865afa158015611913573d6000803e3d6000fd5b505050506040513d601f19601f820116820180604052508101906119379190612272565b90508015610d585760025461196c906001600160a01b03168260066001600160801b03861660038110610ed857610ed861238f565b60028054604051630f7c084960e21b8152600f85900b6004820152602481019290925260448201839052600060648301526001600160a01b031690633df0212490608401600060405180830381600087803b1580156119ca57600080fd5b505af11580156119de573d6000803e3d6000fd5b505050505050565b604051636eb1769f60e11b81523060048201526001600160a01b038381166024830152600091839186169063dd62ed3e90604401602060405180830381865afa158015611a37573d6000803e3d6000fd5b505050506040513d601f19601f82011682018060405250810190611a5b9190612272565b611a6591906122b8565b6040516001600160a01b038516602482015260448101829052909150611a9890859063095ea7b360e01b906064016116fa565b50505050565b6000611af3826040518060400160405280602081526020017f5361666545524332303a206c6f772d6c6576656c2063616c6c206661696c6564815250856001600160a01b0316611d139092919063ffffffff16565b8051909150156109f45780806020019051810190611b11919061251a565b6109f45760405162461bcd60e51b815260206004820152602a60248201527f5361666545524332303a204552433230206f7065726174696f6e20646964206e6044820152691bdd081cdd58d8d9595960b21b60648201526084016106e7565b60606000611b7f8360026123a5565b611b8a9060026122b8565b67ffffffffffffffff811115611ba257611ba2612054565b6040519080825280601f01601f191660200182016040528015611bcc576020820181803683370190505b509050600360fc1b81600081518110611be757611be761238f565b60200101906001600160f81b031916908160001a905350600f60fb1b81600181518110611c1657611c1661238f565b60200101906001600160f81b031916908160001a9053506000611c3a8460026123a5565b611c459060016122b8565b90505b6001811115611cbd576f181899199a1a9b1b9c1cb0b131b232b360811b85600f1660108110611c7957611c7961238f565b1a60f81b828281518110611c8f57611c8f61238f565b60200101906001600160f81b031916908160001a90535060049490941c93611cb68161253c565b9050611c48565b508315611d0c5760405162461bcd60e51b815260206004820181905260248201527f537472696e67733a20686578206c656e67746820696e73756666696369656e7460448201526064016106e7565b9392505050565b6060611d228484600085611d2a565b949350505050565b606082471015611d8b5760405162461bcd60e51b815260206004820152602660248201527f416464726573733a20696e73756666696369656e742062616c616e636520666f6044820152651c8818d85b1b60d21b60648201526084016106e7565b6001600160a01b0385163b611de25760405162461bcd60e51b815260206004820152601d60248201527f416464726573733a2063616c6c20746f206e6f6e2d636f6e747261637400000060448201526064016106e7565b600080866001600160a01b03168587604051611dfe9190612553565b60006040518083038185875af1925050503d8060008114611e3b576040519150601f19603f3d011682016040523d82523d6000602084013e611e40565b606091505b5091509150611e50828286611e5b565b979650505050505050565b60608315611e6a575081611d0c565b825115611e7a5782518084602001fd5b8160405162461bcd60e51b81526004016106e79190612507565b60405180606001604052806003906020820280368337509192915050565b803561ffff81168114611ec457600080fd5b919050565b60008083601f840112611edb57600080fd5b50813567ffffffffffffffff811115611ef357600080fd5b602083019150836020828501011115611f0b57600080fd5b9250929050565b60008060008060008060808789031215611f2b57600080fd5b611f3487611eb2565b9550602087013567ffffffffffffffff80821115611f5157600080fd5b611f5d8a838b01611ec9565b9097509550604089013591508082168214611f7757600080fd5b90935060608801359080821115611f8d57600080fd5b50611f9a89828a01611ec9565b979a9699509497509295939492505050565b600060208284031215611fbe57600080fd5b81356001600160e01b031981168114611d0c57600080fd5b6001600160a01b0381168114611feb57600080fd5b50565b60006020828403121561200057600080fd5b8135611d0c81611fd6565b60006020828403121561201d57600080fd5b5035919050565b6000806040838503121561203757600080fd5b82359150602083013561204981611fd6565b809150509250929050565b634e487b7160e01b600052604160045260246000fd5b600082601f83011261207b57600080fd5b813567ffffffffffffffff8082111561209657612096612054565b604051601f8301601f19908116603f011681019082821181831017156120be576120be612054565b816040528381528660208588010111156120d757600080fd5b836020870160208301376000602085830101528094505050505092915050565b60008060008060008060c0878903121561211057600080fd5b61211987611eb2565b9550602087013567ffffffffffffffff8082111561213657600080fd5b6121428a838b0161206a565b9650604089013595506060890135915061215b82611fd6565b9093506080880135925060a0880135908082111561217857600080fd5b5061218589828a0161206a565b9150509295509295509295565b6000806000606084860312156121a757600080fd5b6121b084611eb2565b925060208401356121c081611fd6565b929592945050506040919091013590565b6000602082840312156121e357600080fd5b611d0c82611eb2565b60609190911b6bffffffffffffffffffffffff1916815260140190565b8183823760009101908152919050565b6000806040838503121561222c57600080fd5b50508035926020909101359150565b8060005b6003811015611a9857815184526020938401939091019060010161223f565b82815260808101611d0c602083018461223b565b60006020828403121561228457600080fd5b5051919050565b634e487b7160e01b600052601160045260246000fd5b6000828210156122b3576122b361228b565b500390565b600082198211156122cb576122cb61228b565b500190565b60005b838110156122eb5781810151838201526020016122d3565b83811115611a985750506000910152565b600081518084526123148160208601602086016122d0565b601f01601f19169290920160200192915050565b61ffff8716815260c06020820152600061234560c08301886122fc565b828103604084015261235781886122fc565b6001600160a01b0387811660608601528616608085015283810360a0850152905061238281856122fc565b9998505050505050505050565b634e487b7160e01b600052603260045260246000fd5b60008160001904831182151516156123bf576123bf61228b565b500290565b6000826123e157634e487b7160e01b600052601260045260246000fd5b500490565b600061012061ffff8c1683528a602084015289604084015260018060a01b03891660608401528760808401528660a08401528060c08401528551818401525060208501516101408301526040850151606061016084015261244b6101808401826122fc565b905082810360e084015261245f81866122fc565b905082810361010084015261247481856122fc565b9c9b505050505050505050505050565b6060810161095b828461223b565b7f416363657373436f6e74726f6c3a206163636f756e74200000000000000000008152600083516124ca8160178501602088016122d0565b7001034b99036b4b9b9b4b733903937b6329607d1b60179184019182015283516124fb8160288401602088016122d0565b01602801949350505050565b602081526000611d0c60208301846122fc565b60006020828403121561252c57600080fd5b81518015158114611d0c57600080fd5b60008161254b5761254b61228b565b506000190190565b600082516125658184602087016122d0565b919091019291505056fea2646970667358221220976bd39e5b750ba4ca31e40f3856a6acd82c025a9591e049330c3c5f8f0015f164736f6c634300080f0033",
  "linkReferences": {},
  "deployedLinkReferences": {}
}