{
  "_format": "hh-sol-artifact-1",
  "contractName": "FraxUsdcStableConverter",
  "sourceName": "contracts/utils/FraxUsdcStableConverter.sol",
  "abi": [
    {
      "inputs": [],
      "stateMutability": "nonpayable",
      "type": "constructor"
    },
    {
      "inputs": [],
      "name": "SLIPPAGE_DENOMINATOR",
      "outputs": [
        {
          "internalType": "uint256",
          "name": "",
          "type": "uint256"
        }
      ],
      "stateMutability": "view",
      "type": "function"
    },
    {
      "inputs": [],
      "name": "defaultSlippage",
      "outputs": [
        {
          "internalType": "uint256",
          "name": "",
          "type": "uint256"
        }
      ],
      "stateMutability": "view",
      "type": "function"
    },
    {
      "inputs": [],
      "name": "fraxUsdcPool",
      "outputs": [
        {
          "internalType": "contract ICurvePool2",
          "name": "",
          "type": "address"
        }
      ],
      "stateMutability": "view",
      "type": "function"
    },
    {
      "inputs": [
        {
          "internalType": "address",
          "name": "",
          "type": "address"
        }
      ],
      "name": "fraxUsdcPoolStableDecimals",
      "outputs": [
        {
          "internalType": "int8",
          "name": "",
          "type": "int8"
        }
      ],
      "stateMutability": "view",
      "type": "function"
    },
    {
      "inputs": [
        {
          "internalType": "address",
          "name": "",
          "type": "address"
        }
      ],
      "name": "fraxUsdcPoolStableIndex",
      "outputs": [
        {
          "internalType": "int128",
          "name": "",
          "type": "int128"
        }
      ],
      "stateMutability": "view",
      "type": "function"
    },
    {
      "inputs": [
        {
          "internalType": "address",
          "name": "from",
          "type": "address"
        },
        {
          "internalType": "address",
          "name": "to",
          "type": "address"
        },
        {
          "internalType": "uint256",
          "name": "amount",
          "type": "uint256"
        },
        {
          "internalType": "uint256",
          "name": "slippage",
          "type": "uint256"
        }
      ],
      "name": "handle",
      "outputs": [],
      "stateMutability": "nonpayable",
      "type": "function"
    },
    {
      "inputs": [
        {
          "internalType": "address",
          "name": "from",
          "type": "address"
        },
        {
          "internalType": "address",
          "name": "to",
          "type": "address"
        },
        {
          "internalType": "uint256",
          "name": "amount",
          "type": "uint256"
        }
      ],
      "name": "valuate",
      "outputs": [
        {
          "internalType": "uint256",
          "name": "",
          "type": "uint256"
        }
      ],
      "stateMutability": "view",
      "type": "function"
    }
  ],
  "bytecode": "0x608060405234801561001057600080fd5b50600080546001600160a01b03191673dcef968d416a41cdac0ed8702fac8128a64241a21781557fc073b10c502b3f01125b3dfef4bd0638669a5201191d070143fc45999d49a4c480546001600160801b03199081169091557fa9b5f7000223e0ca732597d9475f99ef850557034ff58e5ff295c374f2f2de47805460ff1990811660121790915573a0b86991c6218b36c1d19d4a2e9eb0ce3606eb489092527f84893e0f271e5f8233d24aa85ba38e0d2ed8f0fc8f608c286ccee51e6c35dd6e8054909116600117905560026020527fb7598821b71eb990d952f174dec3507a6d48dc93be8e23cae785c98ca310bfbb80549091166006179055610b3b8061011a6000396000f3fe608060405234801561001057600080fd5b506004361061007d5760003560e01c80635487404a1161005b5780635487404a14610107578063ac9051141461011d578063b1b6407e14610126578063b28b49a01461015157600080fd5b80631697393b146100825780631a378db7146100bd57806340e965b3146100d2575b600080fd5b6100a56100903660046107a6565b600160205260009081526040902054600f0b81565b604051600f9190910b81526020015b60405180910390f35b6100d06100cb3660046107c1565b610164565b005b6100f46100e03660046107a6565b600260205260009081526040812054900b81565b60405160009190910b81526020016100b4565b61010f601e81565b6040519081526020016100b4565b61010f61271081565b600054610139906001600160a01b031681565b6040516001600160a01b0390911681526020016100b4565b61010f61015f366004610803565b6102f7565b81156102f157600054610184906001600160a01b038681169116846103a9565b600080546001600160a01b038681168084526001602090815260408086205489851680885282882054948852600290935281872054928752908620549390941694633df0212494600f90810b9493900b9288926101f39284928a926101ee9290810b91900b610855565b61048e565b6040516001600160e01b031960e087901b168152600f94850b60048201529290930b6024830152604482015260648101919091526084016020604051808303816000875af1158015610249573d6000803e3d6000fd5b505050506040513d601f19601f8201168201806040525081019061026d919061087c565b506040516370a0823160e01b815230600482015283906102ef9033906001600160a01b038416906370a0823190602401602060405180830381865afa1580156102ba573d6000803e3d6000fd5b505050506040513d601f19601f820116820180604052508101906102de919061087c565b6001600160a01b038416919061056f565b505b50505050565b600081600003610309575060006103a2565b600080546001600160a01b0386811683526001602052604080842054878316855293819020549051635e0d443f60e01b8152600f94850b6004820152930b6024840152604483018590521690635e0d443f90606401602060405180830381865afa15801561037b573d6000803e3d6000fd5b505050506040513d601f19601f8201168201806040525081019061039f919061087c565b90505b9392505050565b604051636eb1769f60e11b81523060048201526001600160a01b038381166024830152600091839186169063dd62ed3e90604401602060405180830381865afa1580156103fa573d6000803e3d6000fd5b505050506040513d601f19601f8201168201806040525081019061041e919061087c565b6104289190610895565b6040516001600160a01b0385166024820152604481018290529091506102f190859063095ea7b360e01b906064015b60408051601f198184030181529190526020810180516001600160e01b03166001600160e01b0319909316929092179091526105a4565b60006127108311156104d85760405162461bcd60e51b815260206004820152600e60248201526d57726f6e6720736c69707061676560901b60448201526064015b60405180910390fd5b826000036104e557601e92505b60006127106104f485826108a8565b6104fe90876108bb565b61050891906108da565b90508260000b60000361051c5790506103a2565b60008360000b121561055157610534836000196108fc565b61053f90600a610a61565b61054990826108da565b9150506103a2565b61055c83600a610a61565b61056690826108bb565b95945050505050565b6040516001600160a01b03831660248201526044810182905261059f90849063a9059cbb60e01b90606401610457565b505050565b60006105f9826040518060400160405280602081526020017f5361666545524332303a206c6f772d6c6576656c2063616c6c206661696c6564815250856001600160a01b03166106769092919063ffffffff16565b80519091501561059f57808060200190518101906106179190610a70565b61059f5760405162461bcd60e51b815260206004820152602a60248201527f5361666545524332303a204552433230206f7065726174696f6e20646964206e6044820152691bdd081cdd58d8d9595960b21b60648201526084016104cf565b606061039f8484600085856001600160a01b0385163b6106d85760405162461bcd60e51b815260206004820152601d60248201527f416464726573733a2063616c6c20746f206e6f6e2d636f6e747261637400000060448201526064016104cf565b600080866001600160a01b031685876040516106f49190610ab6565b60006040518083038185875af1925050503d8060008114610731576040519150601f19603f3d011682016040523d82523d6000602084013e610736565b606091505b5091509150610746828286610751565b979650505050505050565b606083156107605750816103a2565b8251156107705782518084602001fd5b8160405162461bcd60e51b81526004016104cf9190610ad2565b80356001600160a01b03811681146107a157600080fd5b919050565b6000602082840312156107b857600080fd5b6103a28261078a565b600080600080608085870312156107d757600080fd5b6107e08561078a565b93506107ee6020860161078a565b93969395505050506040820135916060013590565b60008060006060848603121561081857600080fd5b6108218461078a565b925061082f6020850161078a565b9150604084013590509250925092565b634e487b7160e01b600052601160045260246000fd5b600082810b9082900b03607f198112607f821317156108765761087661083f565b92915050565b60006020828403121561088e57600080fd5b5051919050565b808201808211156108765761087661083f565b818103818111156108765761087661083f565b60008160001904831182151516156108d5576108d561083f565b500290565b6000826108f757634e487b7160e01b600052601260045260246000fd5b500490565b60008082810b84820b82811383831382607f04841182821616156109225761092261083f565b607f198584128281168683058612161561093e5761093e61083f565b95851295838716858305871216156109585761095861083f565b84607f058612818816161561096f5761096f61083f565b505050910295945050505050565b600181815b808511156109b857816000190482111561099e5761099e61083f565b808516156109ab57918102915b93841c9390800290610982565b509250929050565b6000826109cf57506001610876565b816109dc57506000610876565b81600181146109f257600281146109fc57610a18565b6001915050610876565b60ff841115610a0d57610a0d61083f565b50506001821b610876565b5060208310610133831016604e8410600b8410161715610a3b575081810a610876565b610a45838361097d565b8060001904821115610a5957610a5961083f565b029392505050565b60006103a260ff8416836109c0565b600060208284031215610a8257600080fd5b815180151581146103a257600080fd5b60005b83811015610aad578181015183820152602001610a95565b50506000910152565b60008251610ac8818460208701610a92565b9190910192915050565b6020815260008251806020840152610af1816040850160208701610a92565b601f01601f1916919091016040019291505056fea2646970667358221220b6fd20b58f766683babc0ce8da8c4f1a46481f9ff7b750a32e6a869b836422a064736f6c63430008100033",
  "linkReferences": {},
  "deployedLinkReferences": {}
}