{
  "_format": "hh-sol-artifact-1",
  "contractName": "UzdFraxCurveStakeDao",
  "sourceName": "contracts/strategies/aps/curve/stakedao/fraxbp/UzdFraxCurveStakeDao.sol",
  "abi": [
    {
      "inputs": [
        {
          "components": [
            {
              "internalType": "contract IERC20Metadata",
              "name": "token",
              "type": "address"
            },
            {
              "internalType": "contract IERC20Metadata[]",
              "name": "rewards",
              "type": "address[]"
            }
          ],
          "internalType": "struct CurveStakeDaoApsStratBase.Config",
          "name": "config",
          "type": "tuple"
        }
      ],
      "stateMutability": "nonpayable",
      "type": "constructor"
    },
    {
      "anonymous": false,
      "inputs": [
        {
          "indexed": false,
          "internalType": "address",
          "name": "oldFeeDistributor",
          "type": "address"
        },
        {
          "indexed": false,
          "internalType": "address",
          "name": "newFeeDistributor",
          "type": "address"
        }
      ],
      "name": "FeeDistributorChanged",
      "type": "event"
    },
    {
      "anonymous": false,
      "inputs": [
        {
          "indexed": false,
          "internalType": "uint256",
          "name": "oldAmount",
          "type": "uint256"
        },
        {
          "indexed": false,
          "internalType": "uint256",
          "name": "newAmount",
          "type": "uint256"
        }
      ],
      "name": "MinDepositAmountUpdated",
      "type": "event"
    },
    {
      "anonymous": false,
      "inputs": [
        {
          "indexed": true,
          "internalType": "address",
          "name": "previousOwner",
          "type": "address"
        },
        {
          "indexed": true,
          "internalType": "address",
          "name": "newOwner",
          "type": "address"
        }
      ],
      "name": "OwnershipTransferred",
      "type": "event"
    },
    {
      "anonymous": false,
      "inputs": [
        {
          "indexed": false,
          "internalType": "address",
          "name": "rewardManager",
          "type": "address"
        }
      ],
      "name": "SetRewardManager",
      "type": "event"
    },
    {
      "inputs": [],
      "name": "CURVE_PRICE_DENOMINATOR",
      "outputs": [
        {
          "internalType": "uint256",
          "name": "",
          "type": "uint256"
        }
      ],
      "stateMutability": "view",
      "type": "function"
    },
    {
      "inputs": [],
      "name": "DEPOSIT_DENOMINATOR",
      "outputs": [
        {
          "internalType": "uint256",
          "name": "",
          "type": "uint256"
        }
      ],
      "stateMutability": "view",
      "type": "function"
    },
    {
      "inputs": [],
      "name": "UNISWAP_USD_MULTIPLIER",
      "outputs": [
        {
          "internalType": "uint256",
          "name": "",
          "type": "uint256"
        }
      ],
      "stateMutability": "view",
      "type": "function"
    },
    {
      "inputs": [],
      "name": "ZUNAMI_EXTRA_TOKEN_ID",
      "outputs": [
        {
          "internalType": "uint256",
          "name": "",
          "type": "uint256"
        }
      ],
      "stateMutability": "view",
      "type": "function"
    },
    {
      "inputs": [],
      "name": "autoCompound",
      "outputs": [],
      "stateMutability": "nonpayable",
      "type": "function"
    },
    {
      "inputs": [
        {
          "internalType": "uint256",
          "name": "tokenAmount",
          "type": "uint256"
        },
        {
          "internalType": "bool",
          "name": "isDeposit",
          "type": "bool"
        }
      ],
      "name": "calcSharesAmount",
      "outputs": [
        {
          "internalType": "uint256",
          "name": "",
          "type": "uint256"
        }
      ],
      "stateMutability": "view",
      "type": "function"
    },
    {
      "inputs": [
        {
          "internalType": "uint256",
          "name": "userRatioOfCrvLps",
          "type": "uint256"
        }
      ],
      "name": "calcWithdrawOneCoin",
      "outputs": [
        {
          "internalType": "uint256",
          "name": "",
          "type": "uint256"
        }
      ],
      "stateMutability": "view",
      "type": "function"
    },
    {
      "inputs": [
        {
          "internalType": "address",
          "name": "_feeDistributor",
          "type": "address"
        }
      ],
      "name": "changeFeeDistributor",
      "outputs": [],
      "stateMutability": "nonpayable",
      "type": "function"
    },
    {
      "inputs": [],
      "name": "claimManagementFees",
      "outputs": [
        {
          "internalType": "uint256",
          "name": "",
          "type": "uint256"
        }
      ],
      "stateMutability": "nonpayable",
      "type": "function"
    },
    {
      "inputs": [],
      "name": "config",
      "outputs": [
        {
          "components": [
            {
              "internalType": "contract IERC20Metadata",
              "name": "token",
              "type": "address"
            },
            {
              "internalType": "contract IERC20Metadata[]",
              "name": "rewards",
              "type": "address[]"
            }
          ],
          "internalType": "struct CurveStakeDaoApsStratBase.Config",
          "name": "",
          "type": "tuple"
        }
      ],
      "stateMutability": "view",
      "type": "function"
    },
    {
      "inputs": [],
      "name": "crvFraxTokenPool",
      "outputs": [
        {
          "internalType": "contract ICurvePool2",
          "name": "",
          "type": "address"
        }
      ],
      "stateMutability": "view",
      "type": "function"
    },
    {
      "inputs": [],
      "name": "crvFraxTokenPoolLp",
      "outputs": [
        {
          "internalType": "contract IERC20Metadata",
          "name": "",
          "type": "address"
        }
      ],
      "stateMutability": "view",
      "type": "function"
    },
    {
      "inputs": [
        {
          "internalType": "uint256",
          "name": "ratioOfCrvLps",
          "type": "uint256"
        },
        {
          "internalType": "uint256",
          "name": "minDeflateAmount",
          "type": "uint256"
        }
      ],
      "name": "deflate",
      "outputs": [],
      "stateMutability": "nonpayable",
      "type": "function"
    },
    {
      "inputs": [
        {
          "internalType": "uint256",
          "name": "amount",
          "type": "uint256"
        }
      ],
      "name": "deposit",
      "outputs": [
        {
          "internalType": "uint256",
          "name": "",
          "type": "uint256"
        }
      ],
      "stateMutability": "nonpayable",
      "type": "function"
    },
    {
      "inputs": [],
      "name": "extraRewardToken",
      "outputs": [
        {
          "internalType": "contract IERC20Metadata",
          "name": "",
          "type": "address"
        }
      ],
      "stateMutability": "view",
      "type": "function"
    },
    {
      "inputs": [],
      "name": "feeDistributor",
      "outputs": [
        {
          "internalType": "address",
          "name": "",
          "type": "address"
        }
      ],
      "stateMutability": "view",
      "type": "function"
    },
    {
      "inputs": [],
      "name": "fraxUsdcPool",
      "outputs": [
        {
          "internalType": "contract ICurvePool2",
          "name": "",
          "type": "address"
        }
      ],
      "stateMutability": "view",
      "type": "function"
    },
    {
      "inputs": [],
      "name": "fraxUsdcPoolLp",
      "outputs": [
        {
          "internalType": "contract IERC20Metadata",
          "name": "",
          "type": "address"
        }
      ],
      "stateMutability": "view",
      "type": "function"
    },
    {
      "inputs": [
        {
          "internalType": "uint256",
          "name": "ratioOfCrvLps",
          "type": "uint256"
        },
        {
          "internalType": "uint256",
          "name": "minInflatedAmount",
          "type": "uint256"
        }
      ],
      "name": "inflate",
      "outputs": [],
      "stateMutability": "nonpayable",
      "type": "function"
    },
    {
      "inputs": [],
      "name": "managementFees",
      "outputs": [
        {
          "internalType": "uint256",
          "name": "",
          "type": "uint256"
        }
      ],
      "stateMutability": "view",
      "type": "function"
    },
    {
      "inputs": [],
      "name": "minDepositAmount",
      "outputs": [
        {
          "internalType": "uint256",
          "name": "",
          "type": "uint256"
        }
      ],
      "stateMutability": "view",
      "type": "function"
    },
    {
      "inputs": [],
      "name": "owner",
      "outputs": [
        {
          "internalType": "address",
          "name": "",
          "type": "address"
        }
      ],
      "stateMutability": "view",
      "type": "function"
    },
    {
      "inputs": [],
      "name": "poolLP",
      "outputs": [
        {
          "internalType": "contract IERC20Metadata",
          "name": "",
          "type": "address"
        }
      ],
      "stateMutability": "view",
      "type": "function"
    },
    {
      "inputs": [],
      "name": "renounceOwnership",
      "outputs": [],
      "stateMutability": "view",
      "type": "function"
    },
    {
      "inputs": [],
      "name": "rewardManager",
      "outputs": [
        {
          "internalType": "contract IRewardManager",
          "name": "",
          "type": "address"
        }
      ],
      "stateMutability": "view",
      "type": "function"
    },
    {
      "inputs": [
        {
          "internalType": "address",
          "name": "rewardManagerAddr",
          "type": "address"
        }
      ],
      "name": "setRewardManager",
      "outputs": [],
      "stateMutability": "nonpayable",
      "type": "function"
    },
    {
      "inputs": [
        {
          "internalType": "address",
          "name": "zunamiAddr",
          "type": "address"
        }
      ],
      "name": "setZunami",
      "outputs": [],
      "stateMutability": "nonpayable",
      "type": "function"
    },
    {
      "inputs": [],
      "name": "token",
      "outputs": [
        {
          "internalType": "contract IERC20Metadata",
          "name": "",
          "type": "address"
        }
      ],
      "stateMutability": "view",
      "type": "function"
    },
    {
      "inputs": [],
      "name": "totalHoldings",
      "outputs": [
        {
          "internalType": "uint256",
          "name": "",
          "type": "uint256"
        }
      ],
      "stateMutability": "view",
      "type": "function"
    },
    {
      "inputs": [
        {
          "internalType": "address",
          "name": "newOwner",
          "type": "address"
        }
      ],
      "name": "transferOwnership",
      "outputs": [],
      "stateMutability": "nonpayable",
      "type": "function"
    },
    {
      "inputs": [
        {
          "internalType": "uint256",
          "name": "_minDepositAmount",
          "type": "uint256"
        }
      ],
      "name": "updateMinDepositAmount",
      "outputs": [],
      "stateMutability": "nonpayable",
      "type": "function"
    },
    {
      "inputs": [],
      "name": "vault",
      "outputs": [
        {
          "internalType": "contract IStakeDaoVault",
          "name": "",
          "type": "address"
        }
      ],
      "stateMutability": "view",
      "type": "function"
    },
    {
      "inputs": [
        {
          "internalType": "address",
          "name": "withdrawer",
          "type": "address"
        },
        {
          "internalType": "uint256",
          "name": "userRatioOfCrvLps",
          "type": "uint256"
        },
        {
          "internalType": "uint256",
          "name": "tokenAmount",
          "type": "uint256"
        }
      ],
      "name": "withdraw",
      "outputs": [
        {
          "internalType": "bool",
          "name": "",
          "type": "bool"
        }
      ],
      "stateMutability": "nonpayable",
      "type": "function"
    },
    {
      "inputs": [],
      "name": "withdrawAll",
      "outputs": [],
      "stateMutability": "nonpayable",
      "type": "function"
    },
    {
      "inputs": [
        {
          "internalType": "contract IERC20Metadata",
          "name": "_token",
          "type": "address"
        }
      ],
      "name": "withdrawStuckToken",
      "outputs": [],
      "stateMutability": "nonpayable",
      "type": "function"
    },
    {
      "inputs": [],
      "name": "zunami",
      "outputs": [
        {
          "internalType": "contract IZunami",
          "name": "",
          "type": "address"
        }
      ],
      "stateMutability": "view",
      "type": "function"
    },
    {
      "inputs": [],
      "name": "zunamiPool",
      "outputs": [
        {
          "internalType": "contract IZunamiVault",
          "name": "",
          "type": "address"
        }
      ],
      "stateMutability": "view",
      "type": "function"
    },
    {
      "inputs": [],
      "name": "zunamiStable",
      "outputs": [
        {
          "internalType": "contract IZunamiStableVault",
          "name": "",
          "type": "address"
        }
      ],
      "stateMutability": "view",
      "type": "function"
    }
  ],
  "bytecode": "0x6101006040526126f760055560006007553480156200001d57600080fd5b5060405162003ef038038062003ef0833981016040819052620000409162000423565b80732ffcc661011bec72e1a9524e12060983e74d14ce73b40b6608b2743e691c9b54ddbdee7bf03cd79f1c73dcef968d416a41cdac0ed8702fac8128a64241a2733175df0976dfa876431c2e9ee6bc45b65d3473cc7368934f60758243eafaf4d2cfed27bf8010bede3a8073bc61f6973ce564effb16cd79b5bc3916ead592e28560008983858484848484620000d633620001d7565b8251600180546001600160a01b0319166001600160a01b039092169190911781556020808501518051869392620001139260029291019062000311565b5050506001600160a01b03918216608052811660a052600680546001600160a01b0319163317905582811660e052831660c081905262000154915062000227565b6008555050600980546001600160a01b03199081166001600160a01b039e8f1617909155600a805482169c8e169c909c17909b555050600b80548a16988b16989098179097555050600c8054871694881694909417909355600d8054861692871692909217909155600e8054909416941693909317909155506200054d92505050565b600080546001600160a01b038381166001600160a01b0319831681178455604051919092169283917f8be0079c531659141344cd1fd0a4f28419497f9722a3daafe3b4186f6b6457e09190a35050565b600080826001600160a01b031663313ce5676040518163ffffffff1660e01b8152600401602060405180830381865afa15801562000269573d6000803e3d6000fd5b505050506040513d601f19601f820116820180604052508101906200028f919062000521565b905060128160ff161115620002ea5760405162461bcd60e51b815260206004820152601c60248201527f5a756e616d693a2077726f6e6720746f6b656e20646563696d616c7300000000604482015260640160405180910390fd5b8060ff16601203620002ff5750600192915050565b8060120360ff16600a0a915050919050565b82805482825590600052602060002090810192821562000369579160200282015b828111156200036957825182546001600160a01b0319166001600160a01b0390911617825560209092019160019091019062000332565b50620003779291506200037b565b5090565b5b808211156200037757600081556001016200037c565b634e487b7160e01b600052604160045260246000fd5b604080519081016001600160401b0381118282101715620003cd57620003cd62000392565b60405290565b604051601f8201601f191681016001600160401b0381118282101715620003fe57620003fe62000392565b604052919050565b80516001600160a01b03811681146200041e57600080fd5b919050565b600060208083850312156200043757600080fd5b82516001600160401b03808211156200044f57600080fd5b90840190604082870312156200046457600080fd5b6200046e620003a8565b620004798362000406565b815283830151828111156200048d57600080fd5b80840193505086601f840112620004a357600080fd5b825182811115620004b857620004b862000392565b8060051b9250620004cb858401620003d3565b8181529284018501928581019089851115620004e657600080fd5b948601945b848610156200050f57620004ff8662000406565b82529486019490860190620004eb565b95830195909552509695505050505050565b6000602082840312156200053457600080fd5b815160ff811681146200054657600080fd5b9392505050565b60805160a05160c05160e0516138ba6200063660003960008181610411015281816119aa01528181611a7801528181611b1001528181611baf0152818161307e015281816130c40152818161315501526131a701526000818161050901528181611c4b0152612033015260006104810152600081816104e20152818161069f015281816107b601528181610b0a01528181610c210152818161122e01528181611490015281816114bf01528181611622015281816118d3015281816119db015281816120f9015281816121410152818161273f01528181612b580152612cae01526138ba6000f3fe608060405234801561001057600080fd5b50600436106102325760003560e01c806381ff3e8b11610130578063b1b6407e116100b8578063e9ec2e991161007c578063e9ec2e99146104af578063f12b59c9146104b7578063f2fde38b146104ca578063fbfa77cf146104dd578063fc0c546a1461050457600080fd5b8063b1b6407e14610433578063b5c5f67214610446578063b6b55f2514610469578063bf9569f31461047c578063dbe39675146104a357600080fd5b8063853828b6116100ff578063853828b6146103cd5780638a68e316146103d55780638da5cb5b146103e85780638f995f99146103f9578063991932bb1461040c57600080fd5b806381ff3e8b1461039057806382028b82146103a3578063821c0576146103b257806384780205146103ba57600080fd5b80633b99c8fe116101be5780635cdfd08c116101825780635cdfd08c146103595780635ea5df6c14610362578063645006ca1461036a578063715018a61461037357806379502c551461037b57600080fd5b80633b99c8fe146103055780633e415d671461031857806345176f161461032b578063550f5c981461033e5780635c91bba01461035157600080fd5b80631977488a116102055780631977488a146102a2578063213c79d8146102b957806325122264146102cc5780632a938342146102df5780632ce7780b146102f257600080fd5b8063068acf6c146102375780630d43e8ad1461024c5780630f4ef8a61461027c578063153ee5541461028f575b600080fd5b61024a61024536600461344b565b61052b565b005b60065461025f906001600160a01b031681565b6040516001600160a01b0390911681526020015b60405180910390f35b60045461025f906001600160a01b031681565b61024a61029d36600461344b565b6105e9565b6102ab61271081565b604051908152602001610273565b60095461025f906001600160a01b031681565b61024a6102da366004613468565b610667565b61024a6102ed366004613468565b610ad2565b600d5461025f906001600160a01b031681565b61024a61031336600461344b565b610f5d565b600e5461025f906001600160a01b031681565b6102ab610339366004613498565b610fa9565b600a5461025f906001600160a01b031681565b6102ab611033565b6102ab60075481565b6102ab600181565b6102ab60055481565b61024a6110f2565b610383611164565b60405161027391906134c8565b60035461025f906001600160a01b031681565b6102ab670de0b6b3a764000081565b61024a6111f9565b61024a6103c8366004613530565b6113a2565b61024a61145b565b6102ab6103e3366004613530565b611613565b6000546001600160a01b031661025f565b600c5461025f906001600160a01b031681565b61025f7f000000000000000000000000000000000000000000000000000000000000000081565b600b5461025f906001600160a01b031681565b610459610454366004613549565b61179c565b6040519015158152602001610273565b6102ab610477366004613530565b61195a565b61025f7f000000000000000000000000000000000000000000000000000000000000000081565b6102ab64e8d4a5100081565b6102ab6119a5565b61024a6104c536600461344b565b611cf5565b61024a6104d836600461344b565b611d88565b61025f7f000000000000000000000000000000000000000000000000000000000000000081565b61025f7f000000000000000000000000000000000000000000000000000000000000000081565b6000546001600160a01b0316331461055e5760405162461bcd60e51b81526004016105559061357e565b60405180910390fd5b6040516370a0823160e01b81523060048201526000906001600160a01b038316906370a0823190602401602060405180830381865afa1580156105a5573d6000803e3d6000fd5b505050506040513d601f19601f820116820180604052508101906105c991906135b3565b905080156105e5576105e56001600160a01b0383163383611e20565b5050565b6000546001600160a01b031633146106135760405162461bcd60e51b81526004016105559061357e565b600480546001600160a01b0319166001600160a01b0383169081179091556040519081527fc05fa79926cd5600b1cc95c8d9d908b7685d3f058c34ea011f8ae3490968ad309060200160405180910390a150565b6000546001600160a01b031633146106915760405162461bcd60e51b81526004016105559061357e565b6000670de0b6b3a7640000837f00000000000000000000000000000000000000000000000000000000000000006001600160a01b031663f9a0be686040518163ffffffff1660e01b8152600401602060405180830381865afa1580156106fb573d6000803e3d6000fd5b505050506040513d601f19601f8201168201806040525081019061071f91906135cc565b6040516370a0823160e01b81523060048201526001600160a01b0391909116906370a0823190602401602060405180830381865afa158015610765573d6000803e3d6000fd5b505050506040513d601f19601f8201168201806040525081019061078991906135b3565b61079391906135ff565b61079d919061361e565b604051632e1a7d4d60e01b8152600481018290529091507f00000000000000000000000000000000000000000000000000000000000000006001600160a01b031690632e1a7d4d90602401600060405180830381600087803b15801561080257600080fd5b505af1158015610816573d6000803e3d6000fd5b5050600d54604051630d2680e960e11b8152600481018590526000602482018190526044820181905293506001600160a01b039091169150631a4d01d2906064016020604051808303816000875af1158015610876573d6000803e3d6000fd5b505050506040513d601f19601f8201168201806040525081019061089a91906135b3565b600a549091506108b4906001600160a01b03168083611e88565b600a54604051632d182be560e21b815260048101839052306024820181905260448201526001600160a01b039091169063b460af94906064016020604051808303816000875af115801561090c573d6000803e3d6000fd5b505050506040513d601f19601f8201168201806040525081019061093091906135b3565b506009546040516370a0823160e01b81523060048201526000916001600160a01b0316906370a0823190602401602060405180830381865afa15801561097a573d6000803e3d6000fd5b505050506040513d601f19601f8201168201806040525081019061099e91906135b3565b6009549091506109b8906001600160a01b03168083611e88565b6009546040805160608101825260008082526020820188905281830152905163616921e960e01b81526001600160a01b039092169163616921e991610a07918591906001908190600401613663565b600060405180830381600087803b158015610a2157600080fd5b505af1158015610a35573d6000803e3d6000fd5b50506040516370a0823160e01b81523060048201526000925073a0b86991c6218b36c1d19d4a2e9eb0ce3606eb4891506370a0823190602401602060405180830381865afa158015610a8b573d6000803e3d6000fd5b505050506040513d601f19601f82011682018060405250810190610aaf91906135b3565b9050610ac9600060075483610ac491906136bc565b611f40565b50505050505050565b6000546001600160a01b03163314610afc5760405162461bcd60e51b81526004016105559061357e565b6000670de0b6b3a7640000837f00000000000000000000000000000000000000000000000000000000000000006001600160a01b031663f9a0be686040518163ffffffff1660e01b8152600401602060405180830381865afa158015610b66573d6000803e3d6000fd5b505050506040513d601f19601f82011682018060405250810190610b8a91906135cc565b6040516370a0823160e01b81523060048201526001600160a01b0391909116906370a0823190602401602060405180830381865afa158015610bd0573d6000803e3d6000fd5b505050506040513d601f19601f82011682018060405250810190610bf491906135b3565b610bfe91906135ff565b610c08919061361e565b604051632e1a7d4d60e01b8152600481018290529091507f00000000000000000000000000000000000000000000000000000000000000006001600160a01b031690632e1a7d4d90602401600060405180830381600087803b158015610c6d57600080fd5b505af1158015610c81573d6000803e3d6000fd5b5050600d54604051630d2680e960e11b8152600481018590526001602482015260006044820181905293506001600160a01b039091169150631a4d01d2906064016020604051808303816000875af1158015610ce1573d6000803e3d6000fd5b505050506040513d601f19601f82011682018060405250810190610d0591906135b3565b600b54604051630d2680e960e11b81526004810183905260016024820152604481018690529192506000916001600160a01b0390911690631a4d01d2906064016020604051808303816000875af1158015610d64573d6000803e3d6000fd5b505050506040513d601f19601f82011682018060405250810190610d8891906135b3565b600954909150610db79073a0b86991c6218b36c1d19d4a2e9eb0ce3606eb48906001600160a01b031683611e88565b60095460408051606081018252600080825260208201859052818301819052915163d4e20b0160e01b815291926001600160a01b03169163d4e20b0191610e00916004016136cf565b6020604051808303816000875af1158015610e1f573d6000803e3d6000fd5b505050506040513d601f19601f82011682018060405250810190610e4391906135b3565b600a54600954919250610e63916001600160a01b03908116911683611e88565b600a54604051636e553f6560e01b8152600481018390523060248201526001600160a01b0390911690636e553f65906044016020604051808303816000875af1158015610eb4573d6000803e3d6000fd5b505050506040513d601f19601f82011682018060405250810190610ed891906135b3565b50600a546040516370a0823160e01b81523060048201526000916001600160a01b0316906370a0823190602401602060405180830381865afa158015610f22573d6000803e3d6000fd5b505050506040513d601f19601f82011682018060405250810190610f4691906135b3565b9050610f53816000611f40565b5050505050505050565b6000546001600160a01b03163314610f875760405162461bcd60e51b81526004016105559061357e565b600380546001600160a01b0319166001600160a01b0392909216919091179055565b6000610fb3613418565b838152600d5460405163ed8e84f360e01b81526001600160a01b039091169063ed8e84f390610fe89084908790600401613716565b602060405180830381865afa158015611005573d6000803e3d6000fd5b505050506040513d601f19601f8201168201806040525081019061102991906135b3565b9150505b92915050565b6007546040516370a0823160e01b815230600482015260009173a0b86991c6218b36c1d19d4a2e9eb0ce3606eb4891839083906370a0823190602401602060405180830381865afa15801561108c573d6000803e3d6000fd5b505050506040513d601f19601f820116820180604052508101906110b091906135b3565b905060008183116110c157826110c3565b815b905080156110e5576006546110e5906001600160a01b03868116911683611e20565b6000600755949350505050565b6000546001600160a01b0316331461111c5760405162461bcd60e51b81526004016105559061357e565b60405162461bcd60e51b815260206004820152601f60248201527f546865207374726174656779206d757374206861766520616e206f776e6572006044820152606401610555565b604080518082019091526000815260606020820152604080518082018252600180546001600160a01b031682526002805484516020828102820181019096528181529394929383860193909291908301828280156111eb57602002820191906000526020600020905b81546001600160a01b031681526001909101906020018083116111cd575b505050505081525050905090565b6003546001600160a01b0316336001600160a01b03161461122c5760405162461bcd60e51b815260040161055590613733565b7f00000000000000000000000000000000000000000000000000000000000000006001600160a01b031663f9a0be686040518163ffffffff1660e01b8152600401602060405180830381865afa15801561128a573d6000803e3d6000fd5b505050506040513d601f19601f820116820180604052508101906112ae91906135cc565b6001600160a01b031663e6f1daf26040518163ffffffff1660e01b8152600401600060405180830381600087803b1580156112e857600080fd5b505af11580156112fc573d6000803e3d6000fd5b505050506113086121ad565b6007546040516370a0823160e01b81523060048201526000919073a0b86991c6218b36c1d19d4a2e9eb0ce3606eb48906370a0823190602401602060405180830381865afa15801561135e573d6000803e3d6000fd5b505050506040513d601f19601f8201168201806040525081019061138291906135b3565b61138c91906136bc565b9050801561139f576105e5600082611f40565b50565b6000546001600160a01b031633146113cc5760405162461bcd60e51b81526004016105559061357e565b6000811180156113de57506127108111155b61141a5760405162461bcd60e51b815260206004820152600d60248201526c57726f6e6720616d6f756e742160981b6044820152606401610555565b60055460408051918252602082018390527f5fb4589fcdfab8bd40d9776abc10876bb1cb02c0edab28d05cc42869b40e0329910160405180910390a1600555565b6003546001600160a01b0316336001600160a01b03161461148e5760405162461bcd60e51b815260040161055590613733565b7f00000000000000000000000000000000000000000000000000000000000000006001600160a01b0316632e1a7d4d7f00000000000000000000000000000000000000000000000000000000000000006001600160a01b031663f9a0be686040518163ffffffff1660e01b8152600401602060405180830381865afa15801561151b573d6000803e3d6000fd5b505050506040513d601f19601f8201168201806040525081019061153f91906135cc565b6040516370a0823160e01b81523060048201526001600160a01b0391909116906370a0823190602401602060405180830381865afa158015611585573d6000803e3d6000fd5b505050506040513d601f19601f820116820180604052508101906115a991906135b3565b6040518263ffffffff1660e01b81526004016115c791815260200190565b600060405180830381600087803b1580156115e157600080fd5b505af11580156115f5573d6000803e3d6000fd5b505050506116016121ad565b61160961262d565b6116116126a2565b565b600080670de0b6b3a7640000837f00000000000000000000000000000000000000000000000000000000000000006001600160a01b031663f9a0be686040518163ffffffff1660e01b8152600401602060405180830381865afa15801561167e573d6000803e3d6000fd5b505050506040513d601f19601f820116820180604052508101906116a291906135cc565b6040516370a0823160e01b81523060048201526001600160a01b0391909116906370a0823190602401602060405180830381865afa1580156116e8573d6000803e3d6000fd5b505050506040513d601f19601f8201168201806040525081019061170c91906135b3565b61171691906135ff565b611720919061361e565b600d5460405163cc2b27d760e01b815260048101839052600060248201529192506001600160a01b03169063cc2b27d790604401602060405180830381865afa158015611771573d6000803e3d6000fd5b505050506040513d601f19601f8201168201806040525081019061179591906135b3565b9392505050565b6003546000906001600160a01b0316336001600160a01b0316146117d25760405162461bcd60e51b815260040161055590613733565b6000831180156117ea5750670de0b6b3a76400008311155b6118275760405162461bcd60e51b815260206004820152600e60248201526d57726f6e67206c7020526174696f60901b6044820152606401610555565b6000806000611836868661272e565b9250925092508261184d5760009350505050611795565b6001546040516370a0823160e01b81523060048201526000916001600160a01b0316906370a0823190602401602060405180830381865afa158015611896573d6000803e3d6000fd5b505050506040513d601f19601f820116820180604052508101906118ba91906135b3565b604051632e1a7d4d60e01b8152600481018590529091507f00000000000000000000000000000000000000000000000000000000000000006001600160a01b031690632e1a7d4d90602401600060405180830381600087803b15801561191f57600080fd5b505af1158015611933573d6000803e3d6000fd5b505050506119428383886128ec565b61194c88826128f6565b506001979650505050505050565b600061196582612990565b61197157506000919050565b600061197e836000611f40565b9050670de0b6b3a7640000611991612acf565b61199b90836135ff565b611795919061361e565b6000807f00000000000000000000000000000000000000000000000000000000000000006001600160a01b031615611c335760007f00000000000000000000000000000000000000000000000000000000000000006001600160a01b031663f9a0be686040518163ffffffff1660e01b8152600401602060405180830381865afa158015611a37573d6000803e3d6000fd5b505050506040513d601f19601f82011682018060405250810190611a5b91906135cc565b604051630cff5bdd60e21b81523060048201526001600160a01b037f00000000000000000000000000000000000000000000000000000000000000008116602483015291909116906333fd6f7490604401602060405180830381865afa158015611ac9573d6000803e3d6000fd5b505050506040513d601f19601f82011682018060405250810190611aed91906135b3565b6040516370a0823160e01b81523060048201529091506000906001600160a01b037f000000000000000000000000000000000000000000000000000000000000000016906370a0823190602401602060405180830381865afa158015611b57573d6000803e3d6000fd5b505050506040513d601f19601f82011682018060405250810190611b7b91906135b3565b611b859083613774565b600480546040516306b0416960e31b81529293506001600160a01b0316916335820b4891611bed917f000000000000000000000000000000000000000000000000000000000000000091869173a0b86991c6218b36c1d19d4a2e9eb0ce3606eb489101613787565b602060405180830381865afa158015611c0a573d6000803e3d6000fd5b505050506040513d601f19601f82011682018060405250810190611c2e91906135b3565b925050505b6008546040516370a0823160e01b81523060048201527f00000000000000000000000000000000000000000000000000000000000000006001600160a01b0316906370a0823190602401602060405180830381865afa158015611c9a573d6000803e3d6000fd5b505050506040513d601f19601f82011682018060405250810190611cbe91906135b3565b611cc891906135ff565b611cd382600c6135ff565b611cdb612b42565b611ce59190613774565b611cef9190613774565b91505090565b6000546001600160a01b03163314611d1f5760405162461bcd60e51b81526004016105559061357e565b600654604080516001600160a01b03928316815291831660208301527f1fb7c52dab61e9e9813f7aac38f62f9ae8ee57bf319134f2bde8758a7df5893d910160405180910390a1600680546001600160a01b0319166001600160a01b0392909216919091179055565b6000546001600160a01b03163314611db25760405162461bcd60e51b81526004016105559061357e565b6001600160a01b038116611e175760405162461bcd60e51b815260206004820152602660248201527f4f776e61626c653a206e6577206f776e657220697320746865207a65726f206160448201526564647265737360d01b6064820152608401610555565b61139f81612f5a565b6040516001600160a01b038316602482015260448101829052611e8390849063a9059cbb60e01b906064015b60408051601f198184030181529190526020810180516001600160e01b03166001600160e01b031990931692909217909152612faa565b505050565b604051636eb1769f60e11b81523060048201526001600160a01b038381166024830152600091839186169063dd62ed3e90604401602060405180830381865afa158015611ed9573d6000803e3d6000fd5b505050506040513d601f19601f82011682018060405250810190611efd91906135b3565b611f079190613774565b6040516001600160a01b038516602482015260448101829052909150611f3a90859063095ea7b360e01b90606401611e4c565b50505050565b600080821561201c57611f51613418565b60208101849052600b54611f849073a0b86991c6218b36c1d19d4a2e9eb0ce3606eb48906001600160a01b031686611e88565b600b54604051630b4c7e4d60e01b81526001600160a01b0390911690630b4c7e4d90611fb79084906000906004016137aa565b6020604051808303816000875af1158015611fd6573d6000803e3d6000fd5b505050506040513d601f19601f82011682018060405250810190611ffa91906135b3565b600d54600c5491935061201a916001600160a01b03908116911684611e88565b505b831561205c57600d5461205c906001600160a01b037f00000000000000000000000000000000000000000000000000000000000000008116911686611e88565b612064613418565b84815260208101829052600d54604051630b4c7e4d60e01b81526001600160a01b0390911690630b4c7e4d906120a19084906000906004016137aa565b6020604051808303816000875af11580156120c0573d6000803e3d6000fd5b505050506040513d601f19601f820116820180604052508101906120e491906135b3565b600e5490935061211e906001600160a01b03167f000000000000000000000000000000000000000000000000000000000000000085611e88565b6040516307dba22560e31b815230600482015260248101849052600160448201527f00000000000000000000000000000000000000000000000000000000000000006001600160a01b031690633edd112890606401600060405180830381600087803b15801561218d57600080fd5b505af11580156121a1573d6000803e3d6000fd5b50505050505092915050565b60025460008167ffffffffffffffff8111156121cb576121cb6137c5565b6040519080825280602002602001820160405280156121f4578160200160208202803683370190505b509050600160005b838110156122e4576002805482908110612218576122186136dd565b6000918252602090912001546040516370a0823160e01b81523060048201526001600160a01b03909116906370a0823190602401602060405180830381865afa158015612269573d6000803e3d6000fd5b505050506040513d601f19601f8201168201806040525081019061228d91906135b3565b83828151811061229f5761229f6136dd565b60200260200101818152505060008382815181106122bf576122bf6136dd565b602002602001015111156122d257600091505b806122dc816137db565b9150506121fc565b5080156122f057505050565b6040516370a0823160e01b815230600482015273a0b86991c6218b36c1d19d4a2e9eb0ce3606eb489060009082906370a0823190602401602060405180830381865afa158015612344573d6000803e3d6000fd5b505050506040513d601f19601f8201168201806040525081019061236891906135b3565b6004549091506001600160a01b03166000805b8781101561251a57868181518110612395576123956136dd565b6020026020010151600003156125085760028054829081106123b9576123b96136dd565b9060005260206000200160009054906101000a90046001600160a01b03169150816001600160a01b031663a9059cbb848984815181106123fb576123fb6136dd565b60200260200101516040518363ffffffff1660e01b81526004016124349291906001600160a01b03929092168252602082015260400190565b6020604051808303816000875af1158015612453573d6000803e3d6000fd5b505050506040513d601f19601f8201168201806040525081019061247791906137f4565b50826001600160a01b031663426688bc8389848151811061249a5761249a6136dd565b602002602001015173a0b86991c6218b36c1d19d4a2e9eb0ce3606eb486040518463ffffffff1660e01b81526004016124d593929190613787565b600060405180830381600087803b1580156124ef57600080fd5b505af1158015612503573d6000803e3d6000fd5b505050505b80612512816137db565b91505061237b565b5061252361307c565b6040516370a0823160e01b81523060048201526000906001600160a01b038616906370a0823190602401602060405180830381865afa15801561256a573d6000803e3d6000fd5b505050506040513d601f19601f8201168201806040525081019061258e91906135b3565b6003549091506001600160a01b0316635d4d77b86125ac86846136bc565b6040518263ffffffff1660e01b81526004016125ca91815260200190565b6020604051808303816000875af11580156125e9573d6000803e3d6000fd5b505050506040513d601f19601f8201168201806040525081019061260d91906135b3565b6007600082825461261e9190613774565b90915550505050505050505050565b600e546040516370a0823160e01b8152306004820152611611916001600160a01b0316906370a0823190602401602060405180830381865afa158015612677573d6000803e3d6000fd5b505050506040513d601f19601f8201168201806040525081019061269b91906135b3565b600061321a565b6001546040516370a0823160e01b81523060048201526000916001600160a01b0316906370a0823190602401602060405180830381865afa1580156126eb573d6000803e3d6000fd5b505050506040513d601f19601f8201168201806040525081019061270f91906135b3565b9050801561139f5761139f336001546001600160a01b03169083611e20565b6000806060670de0b6b3a7640000857f00000000000000000000000000000000000000000000000000000000000000006001600160a01b031663f9a0be686040518163ffffffff1660e01b8152600401602060405180830381865afa15801561279b573d6000803e3d6000fd5b505050506040513d601f19601f820116820180604052508101906127bf91906135cc565b6040516370a0823160e01b81523060048201526001600160a01b0391909116906370a0823190602401602060405180830381865afa158015612805573d6000803e3d6000fd5b505050506040513d601f19601f8201168201806040525081019061282991906135b3565b61283391906135ff565b61283d919061361e565b9150612847613418565b848152600d5460405163ed8e84f360e01b81526001600160a01b039091169063ed8e84f39061287d908490600090600401613716565b602060405180830381865afa15801561289a573d6000803e3d6000fd5b505050506040513d601f19601f820116820180604052508101906128be91906135b3565b6040805160028082526060820183529286101596509190602083019080368337019050509150509250925092565b611e83838261321a565b6001546040516370a0823160e01b815230600482015260009183916001600160a01b03909116906370a0823190602401602060405180830381865afa158015612943573d6000803e3d6000fd5b505050506040513d601f19601f8201168201806040525081019061296791906135b3565b61297191906136bc565b90508015611e8357600154611e83906001600160a01b03168483611e20565b600080612710600554846129a491906135ff565b6129ae919061361e565b90506129b8613418565b838152600d5460408051630176f71760e71b815290516000926001600160a01b03169163bb7b8b809160048083019260209291908290030181865afa158015612a05573d6000803e3d6000fd5b505050506040513d601f19601f82011682018060405250810190612a2991906135b3565b600d5460405163ed8e84f360e01b81529192506000916001600160a01b039091169063ed8e84f390612a62908690600190600401613716565b602060405180830381865afa158015612a7f573d6000803e3d6000fd5b505050506040513d601f19601f82011682018060405250810190612aa391906135b3565b905083670de0b6b3a7640000612ab984846135ff565b612ac3919061361e565b10159695505050505050565b600d5460408051630176f71760e71b815290516000926001600160a01b03169163bb7b8b809160048083019260209291908290030181865afa158015612b19573d6000803e3d6000fd5b505050506040513d601f19601f82011682018060405250810190612b3d91906135b3565b905090565b600080670de0b6b3a7640000612b56612acf565b7f00000000000000000000000000000000000000000000000000000000000000006001600160a01b031663f9a0be686040518163ffffffff1660e01b8152600401602060405180830381865afa158015612bb4573d6000803e3d6000fd5b505050506040513d601f19601f82011682018060405250810190612bd891906135cc565b6040516370a0823160e01b81523060048201526001600160a01b0391909116906370a0823190602401602060405180830381865afa158015612c1e573d6000803e3d6000fd5b505050506040513d601f19601f82011682018060405250810190612c4291906135b3565b612c4c91906135ff565b612c56919061361e565b60045490915060009081906001600160a01b0316815b600254811015612ec1576002805482908110612c8a57612c8a6136dd565b9060005260206000200160009054906101000a90046001600160a01b0316925060007f00000000000000000000000000000000000000000000000000000000000000006001600160a01b031663f9a0be686040518163ffffffff1660e01b8152600401602060405180830381865afa158015612d0a573d6000803e3d6000fd5b505050506040513d601f19601f82011682018060405250810190612d2e91906135cc565b604051630cff5bdd60e21b81523060048201526001600160a01b03868116602483015291909116906333fd6f7490604401602060405180830381865afa158015612d7c573d6000803e3d6000fd5b505050506040513d601f19601f82011682018060405250810190612da091906135b3565b6040516370a0823160e01b81523060048201529091506000906001600160a01b038616906370a0823190602401602060405180830381865afa158015612dea573d6000803e3d6000fd5b505050506040513d601f19601f82011682018060405250810190612e0e91906135b3565b612e189083613774565b6040516306b0416960e31b81529091506001600160a01b038516906335820b4890612e5f908890859073a0b86991c6218b36c1d19d4a2e9eb0ce3606eb4890600401613787565b602060405180830381865afa158015612e7c573d6000803e3d6000fd5b505050506040513d601f19601f82011682018060405250810190612ea091906135b3565b612eaa9087613774565b955050508080612eb9906137db565b915050612c6c565b506001546040516370a0823160e01b81523060048201526000916001600160a01b0316906370a0823190602401602060405180830381865afa158015612f0b573d6000803e3d6000fd5b505050506040513d601f19601f82011682018060405250810190612f2f91906135b3565b9050612f3c84600c6135ff565b612f468683613774565b612f509190613774565b9550505050505090565b600080546001600160a01b038381166001600160a01b0319831681178455604051919092169283917f8be0079c531659141344cd1fd0a4f28419497f9722a3daafe3b4186f6b6457e09190a35050565b6000612fff826040518060400160405280602081526020017f5361666545524332303a206c6f772d6c6576656c2063616c6c206661696c6564815250856001600160a01b03166132979092919063ffffffff16565b805190915015611e83578080602001905181019061301d91906137f4565b611e835760405162461bcd60e51b815260206004820152602a60248201527f5361666545524332303a204552433230206f7065726174696f6e20646964206e6044820152691bdd081cdd58d8d9595960b21b6064820152608401610555565b7f00000000000000000000000000000000000000000000000000000000000000006001600160a01b03166130ac57565b6040516370a0823160e01b81523060048201526000907f00000000000000000000000000000000000000000000000000000000000000006001600160a01b0316906370a0823190602401602060405180830381865afa158015613113573d6000803e3d6000fd5b505050506040513d601f19601f8201168201806040525081019061313791906135b3565b9050806000036131445750565b60045461317e906001600160a01b037f00000000000000000000000000000000000000000000000000000000000000008116911683611e20565b60048054604051631099a22f60e21b81526001600160a01b039091169163426688bc916131e5917f000000000000000000000000000000000000000000000000000000000000000091869173a0b86991c6218b36c1d19d4a2e9eb0ce3606eb489101613787565b600060405180830381600087803b1580156131ff57600080fd5b505af1158015613213573d6000803e3d6000fd5b5050505050565b600d54604051630d2680e960e11b81526004810184905260006024820152604481018390526001600160a01b0390911690631a4d01d2906064016020604051808303816000875af1158015613273573d6000803e3d6000fd5b505050506040513d601f19601f82011682018060405250810190611e8391906135b3565b60606132a684846000856132ae565b949350505050565b60608247101561330f5760405162461bcd60e51b815260206004820152602660248201527f416464726573733a20696e73756666696369656e742062616c616e636520666f6044820152651c8818d85b1b60d21b6064820152608401610555565b6001600160a01b0385163b6133665760405162461bcd60e51b815260206004820152601d60248201527f416464726573733a2063616c6c20746f206e6f6e2d636f6e74726163740000006044820152606401610555565b600080866001600160a01b031685876040516133829190613835565b60006040518083038185875af1925050503d80600081146133bf576040519150601f19603f3d011682016040523d82523d6000602084013e6133c4565b606091505b50915091506133d48282866133df565b979650505050505050565b606083156133ee575081611795565b8251156133fe5782518084602001fd5b8160405162461bcd60e51b81526004016105559190613851565b60405180604001604052806002906020820280368337509192915050565b6001600160a01b038116811461139f57600080fd5b60006020828403121561345d57600080fd5b813561179581613436565b6000806040838503121561347b57600080fd5b50508035926020909101359150565b801515811461139f57600080fd5b600080604083850312156134ab57600080fd5b8235915060208301356134bd8161348a565b809150509250929050565b602080825282516001600160a01b039081168383015283820151604080850152805160608501819052600093929183019190849060808701905b8083101561352457845184168252938501936001929092019190850190613502565b50979650505050505050565b60006020828403121561354257600080fd5b5035919050565b60008060006060848603121561355e57600080fd5b833561356981613436565b95602085013595506040909401359392505050565b6020808252818101527f4f776e61626c653a2063616c6c6572206973206e6f7420746865206f776e6572604082015260600190565b6000602082840312156135c557600080fd5b5051919050565b6000602082840312156135de57600080fd5b815161179581613436565b634e487b7160e01b600052601160045260246000fd5b6000816000190483118215151615613619576136196135e9565b500290565b60008261363b57634e487b7160e01b600052601260045260246000fd5b500490565b8060005b6003811015611f3a578151845260209384019390910190600101613644565b84815260c081016136776020830186613640565b6002841061369557634e487b7160e01b600052602160045260246000fd5b8360808301526fffffffffffffffffffffffffffffffff831660a083015295945050505050565b8181038181111561102d5761102d6135e9565b6060810161102d8284613640565b634e487b7160e01b600052603260045260246000fd5b8060005b6002811015611f3a5781518452602093840193909101906001016136f7565b6060810161372482856136f3565b82151560408301529392505050565b60208082526021908201527f6d7573742062652063616c6c6564206279205a756e616d6920636f6e747261636040820152601d60fa1b606082015260800190565b8082018082111561102d5761102d6135e9565b6001600160a01b0393841681526020810192909252909116604082015260600190565b606081016137b882856136f3565b8260408301529392505050565b634e487b7160e01b600052604160045260246000fd5b6000600182016137ed576137ed6135e9565b5060010190565b60006020828403121561380657600080fd5b81516117958161348a565b60005b8381101561382c578181015183820152602001613814565b50506000910152565b60008251613847818460208701613811565b9190910192915050565b6020815260008251806020840152613870816040850160208701613811565b601f01601f1916919091016040019291505056fea2646970667358221220a9b5a560382cfbed595ec592fa7da7b8cfe4267e5d9d7ae799dfd462f82d762e64736f6c63430008100033",
  "linkReferences": {},
  "deployedLinkReferences": {}
}