{
  "_format": "hh-sol-artifact-1",
  "contractName": "VaultAPSStrat",
  "sourceName": "contracts/strategies/utility/VaultAPSStrat.sol",
  "abi": [
    {
      "inputs": [
        {
          "internalType": "contract IERC20Metadata",
          "name": "_token",
          "type": "address"
        }
      ],
      "stateMutability": "nonpayable",
      "type": "constructor"
    },
    {
      "anonymous": false,
      "inputs": [
        {
          "indexed": true,
          "internalType": "address",
          "name": "previousOwner",
          "type": "address"
        },
        {
          "indexed": true,
          "internalType": "address",
          "name": "newOwner",
          "type": "address"
        }
      ],
      "name": "OwnershipTransferred",
      "type": "event"
    },
    {
      "inputs": [],
      "name": "PRICE_DENOMINATOR",
      "outputs": [
        {
          "internalType": "uint256",
          "name": "",
          "type": "uint256"
        }
      ],
      "stateMutability": "view",
      "type": "function"
    },
    {
      "inputs": [],
      "name": "autoCompound",
      "outputs": [],
      "stateMutability": "nonpayable",
      "type": "function"
    },
    {
      "inputs": [],
      "name": "claimManagementFees",
      "outputs": [
        {
          "internalType": "uint256",
          "name": "",
          "type": "uint256"
        }
      ],
      "stateMutability": "nonpayable",
      "type": "function"
    },
    {
      "inputs": [
        {
          "internalType": "uint256",
          "name": "amount",
          "type": "uint256"
        }
      ],
      "name": "deposit",
      "outputs": [
        {
          "internalType": "uint256",
          "name": "",
          "type": "uint256"
        }
      ],
      "stateMutability": "nonpayable",
      "type": "function"
    },
    {
      "inputs": [],
      "name": "managementFees",
      "outputs": [
        {
          "internalType": "uint256",
          "name": "",
          "type": "uint256"
        }
      ],
      "stateMutability": "view",
      "type": "function"
    },
    {
      "inputs": [],
      "name": "minDepositAmount",
      "outputs": [
        {
          "internalType": "uint256",
          "name": "",
          "type": "uint256"
        }
      ],
      "stateMutability": "view",
      "type": "function"
    },
    {
      "inputs": [],
      "name": "owner",
      "outputs": [
        {
          "internalType": "address",
          "name": "",
          "type": "address"
        }
      ],
      "stateMutability": "view",
      "type": "function"
    },
    {
      "inputs": [],
      "name": "renounceOwnership",
      "outputs": [],
      "stateMutability": "view",
      "type": "function"
    },
    {
      "inputs": [
        {
          "internalType": "address",
          "name": "zunamiAddr",
          "type": "address"
        }
      ],
      "name": "setZunami",
      "outputs": [],
      "stateMutability": "nonpayable",
      "type": "function"
    },
    {
      "inputs": [],
      "name": "totalHoldings",
      "outputs": [
        {
          "internalType": "uint256",
          "name": "",
          "type": "uint256"
        }
      ],
      "stateMutability": "view",
      "type": "function"
    },
    {
      "inputs": [
        {
          "internalType": "address",
          "name": "newOwner",
          "type": "address"
        }
      ],
      "name": "transferOwnership",
      "outputs": [],
      "stateMutability": "nonpayable",
      "type": "function"
    },
    {
      "inputs": [
        {
          "internalType": "uint256",
          "name": "_minDepositAmount",
          "type": "uint256"
        }
      ],
      "name": "updateMinDepositAmount",
      "outputs": [],
      "stateMutability": "nonpayable",
      "type": "function"
    },
    {
      "inputs": [
        {
          "internalType": "address",
          "name": "withdrawer",
          "type": "address"
        },
        {
          "internalType": "uint256",
          "name": "userRatioOfCrvLps",
          "type": "uint256"
        },
        {
          "internalType": "uint256",
          "name": "",
          "type": "uint256"
        }
      ],
      "name": "withdraw",
      "outputs": [
        {
          "internalType": "bool",
          "name": "",
          "type": "bool"
        }
      ],
      "stateMutability": "nonpayable",
      "type": "function"
    },
    {
      "inputs": [],
      "name": "withdrawAll",
      "outputs": [],
      "stateMutability": "nonpayable",
      "type": "function"
    },
    {
      "inputs": [],
      "name": "zunami",
      "outputs": [
        {
          "internalType": "contract IZunami",
          "name": "",
          "type": "address"
        }
      ],
      "stateMutability": "view",
      "type": "function"
    }
  ],
  "bytecode": "0x608060405260006003556126f760045534801561001b57600080fd5b50604051610cac380380610cac83398101604081905261003a916100b8565b61004333610068565b600280546001600160a01b0319166001600160a01b03929092169190911790556100e8565b600080546001600160a01b038381166001600160a01b0319831681178455604051919092169283917f8be0079c531659141344cd1fd0a4f28419497f9722a3daafe3b4186f6b6457e09190a35050565b6000602082840312156100ca57600080fd5b81516001600160a01b03811681146100e157600080fd5b9392505050565b610bb5806100f76000396000f3fe608060405234801561001057600080fd5b50600436106100f55760003560e01c8063821c057611610097578063b5c5f67211610066578063b5c5f672146101ad578063b6b55f25146101d0578063e9ec2e99146101e1578063f2fde38b146101e957600080fd5b8063821c0576146101795780638478020514610181578063853828b6146101945780638da5cb5b1461019c57600080fd5b8063645006ca116100d3578063645006ca1461012e5780636c1516e114610137578063715018a61461014657806381ff3e8b1461014e57600080fd5b80633b99c8fe146100fa5780635c91bba01461010f5780635cdfd08c14610125575b600080fd5b61010d6101083660046109a5565b6101fc565b005b60005b6040519081526020015b60405180910390f35b61011260035481565b61011260045481565b610112670de0b6b3a764000081565b61010d610251565b600154610161906001600160a01b031681565b6040516001600160a01b03909116815260200161011c565b61010d6102c3565b61010d61018f3660046109c0565b6102f8565b61010d610375565b6000546001600160a01b0316610161565b6101c06101bb3660046109d9565b6103bd565b604051901515815260200161011c565b6101126101de3660046109c0565b90565b61011261045d565b61010d6101f73660046109a5565b6104cf565b6000546001600160a01b0316331461022f5760405162461bcd60e51b815260040161022690610a0c565b60405180910390fd5b600180546001600160a01b0319166001600160a01b0392909216919091179055565b6000546001600160a01b0316331461027b5760405162461bcd60e51b815260040161022690610a0c565b60405162461bcd60e51b815260206004820152601f60248201527f546865207374726174656779206d757374206861766520616e206f776e6572006044820152606401610226565b6001546001600160a01b0316336001600160a01b0316146102f65760405162461bcd60e51b815260040161022690610a41565b565b6000546001600160a01b031633146103225760405162461bcd60e51b815260040161022690610a0c565b60008111801561033457506127108111155b6103705760405162461bcd60e51b815260206004820152600d60248201526c57726f6e6720616d6f756e742160981b6044820152606401610226565b600455565b6001546001600160a01b0316336001600160a01b0316146103a85760405162461bcd60e51b815260040161022690610a41565b6001546102f6906001600160a01b031661056a565b6001546000906001600160a01b0316336001600160a01b0316146103f35760405162461bcd60e51b815260040161022690610a41565b60008311801561040b5750670de0b6b3a76400008311155b6104485760405162461bcd60e51b815260206004820152600e60248201526d57726f6e67206c7020526174696f60901b6044820152606401610226565b61045284846105fa565b5060015b9392505050565b6002546040516370a0823160e01b81523060048201526000916001600160a01b0316906370a0823190602401602060405180830381865afa1580156104a6573d6000803e3d6000fd5b505050506040513d601f19601f820116820180604052508101906104ca9190610a82565b905090565b6000546001600160a01b031633146104f95760405162461bcd60e51b815260040161022690610a0c565b6001600160a01b03811661055e5760405162461bcd60e51b815260206004820152602660248201527f4f776e61626c653a206e6577206f776e657220697320746865207a65726f206160448201526564647265737360d01b6064820152608401610226565b610567816106ab565b50565b6002546040516370a0823160e01b81523060048201526000916001600160a01b0316906370a0823190602401602060405180830381865afa1580156105b3573d6000803e3d6000fd5b505050506040513d601f19601f820116820180604052508101906105d79190610a82565b905080156105f6576002546105f6906001600160a01b031683836106fb565b5050565b6002546040516370a0823160e01b8152306004820152600091670de0b6b3a76400009184916001600160a01b0316906370a0823190602401602060405180830381865afa15801561064f573d6000803e3d6000fd5b505050506040513d601f19601f820116820180604052508101906106739190610a82565b61067d9190610a9b565b6106879190610ac8565b905080156106a6576002546106a6906001600160a01b031684836106fb565b505050565b600080546001600160a01b038381166001600160a01b0319831681178455604051919092169283917f8be0079c531659141344cd1fd0a4f28419497f9722a3daafe3b4186f6b6457e09190a35050565b604080516001600160a01b03848116602483015260448083018590528351808403909101815260649092018352602080830180516001600160e01b031663a9059cbb60e01b17905283518085019094528084527f5361666545524332303a206c6f772d6c6576656c2063616c6c206661696c6564908401526106a69286929160009161078b918516908490610808565b8051909150156106a657808060200190518101906107a99190610aea565b6106a65760405162461bcd60e51b815260206004820152602a60248201527f5361666545524332303a204552433230206f7065726174696f6e20646964206e6044820152691bdd081cdd58d8d9595960b21b6064820152608401610226565b6060610817848460008561081f565b949350505050565b6060824710156108805760405162461bcd60e51b815260206004820152602660248201527f416464726573733a20696e73756666696369656e742062616c616e636520666f6044820152651c8818d85b1b60d21b6064820152608401610226565b6001600160a01b0385163b6108d75760405162461bcd60e51b815260206004820152601d60248201527f416464726573733a2063616c6c20746f206e6f6e2d636f6e74726163740000006044820152606401610226565b600080866001600160a01b031685876040516108f39190610b30565b60006040518083038185875af1925050503d8060008114610930576040519150601f19603f3d011682016040523d82523d6000602084013e610935565b606091505b5091509150610945828286610950565b979650505050505050565b6060831561095f575081610456565b82511561096f5782518084602001fd5b8160405162461bcd60e51b81526004016102269190610b4c565b80356001600160a01b03811681146109a057600080fd5b919050565b6000602082840312156109b757600080fd5b61045682610989565b6000602082840312156109d257600080fd5b5035919050565b6000806000606084860312156109ee57600080fd5b6109f784610989565b95602085013595506040909401359392505050565b6020808252818101527f4f776e61626c653a2063616c6c6572206973206e6f7420746865206f776e6572604082015260600190565b60208082526021908201527f6d7573742062652063616c6c6564206279205a756e616d6920636f6e747261636040820152601d60fa1b606082015260800190565b600060208284031215610a9457600080fd5b5051919050565b6000816000190483118215151615610ac357634e487b7160e01b600052601160045260246000fd5b500290565b600082610ae557634e487b7160e01b600052601260045260246000fd5b500490565b600060208284031215610afc57600080fd5b8151801515811461045657600080fd5b60005b83811015610b27578181015183820152602001610b0f565b50506000910152565b60008251610b42818460208701610b0c565b9190910192915050565b6020815260008251806020840152610b6b816040850160208701610b0c565b601f01601f1916919091016040019291505056fea264697066735822122074881478d3112559fb6af7379d982fd798ff3753212822e756b3b32616ca267164736f6c63430008100033",
  "linkReferences": {},
  "deployedLinkReferences": {}
}