{
  "_format": "hh-sol-artifact-1",
  "contractName": "XAIStakingFraxCurveConvex",
  "sourceName": "contracts/strategies/curve/convex/stakingFraxbp/XAIStakingFraxCurveConvex.sol",
  "abi": [
    {
      "inputs": [
        {
          "components": [
            {
              "internalType": "contract IERC20Metadata[3]",
              "name": "tokens",
              "type": "address[3]"
            },
            {
              "internalType": "contract IERC20Metadata[]",
              "name": "rewards",
              "type": "address[]"
            },
            {
              "internalType": "contract IConvexStakingBooster",
              "name": "booster",
              "type": "address"
            }
          ],
          "internalType": "struct StakingFraxCurveConvexStratBase.Config",
          "name": "config",
          "type": "tuple"
        }
      ],
      "stateMutability": "nonpayable",
      "type": "constructor"
    },
    {
      "anonymous": false,
      "inputs": [
        {
          "indexed": false,
          "internalType": "address",
          "name": "oldFeeDistributor",
          "type": "address"
        },
        {
          "indexed": false,
          "internalType": "address",
          "name": "newFeeDistributor",
          "type": "address"
        }
      ],
      "name": "FeeDistributorChanged",
      "type": "event"
    },
    {
      "anonymous": false,
      "inputs": [
        {
          "indexed": false,
          "internalType": "uint256",
          "name": "newLockTimestamp",
          "type": "uint256"
        }
      ],
      "name": "LockedLonger",
      "type": "event"
    },
    {
      "anonymous": false,
      "inputs": [
        {
          "indexed": false,
          "internalType": "uint256",
          "name": "oldAmount",
          "type": "uint256"
        },
        {
          "indexed": false,
          "internalType": "uint256",
          "name": "newAmount",
          "type": "uint256"
        }
      ],
      "name": "MinDepositAmountUpdated",
      "type": "event"
    },
    {
      "anonymous": false,
      "inputs": [
        {
          "indexed": true,
          "internalType": "address",
          "name": "previousOwner",
          "type": "address"
        },
        {
          "indexed": true,
          "internalType": "address",
          "name": "newOwner",
          "type": "address"
        }
      ],
      "name": "OwnershipTransferred",
      "type": "event"
    },
    {
      "anonymous": false,
      "inputs": [
        {
          "indexed": false,
          "internalType": "address",
          "name": "rewardManager",
          "type": "address"
        }
      ],
      "name": "SetRewardManager",
      "type": "event"
    },
    {
      "anonymous": false,
      "inputs": [
        {
          "indexed": false,
          "internalType": "address",
          "name": "stableConverter",
          "type": "address"
        }
      ],
      "name": "SetStableConverter",
      "type": "event"
    },
    {
      "inputs": [],
      "name": "CURVE_PRICE_DENOMINATOR",
      "outputs": [
        {
          "internalType": "uint256",
          "name": "",
          "type": "uint256"
        }
      ],
      "stateMutability": "view",
      "type": "function"
    },
    {
      "inputs": [],
      "name": "DEPOSIT_DENOMINATOR",
      "outputs": [
        {
          "internalType": "uint256",
          "name": "",
          "type": "uint256"
        }
      ],
      "stateMutability": "view",
      "type": "function"
    },
    {
      "inputs": [],
      "name": "ZUNAMI_DAI_TOKEN_ID",
      "outputs": [
        {
          "internalType": "uint256",
          "name": "",
          "type": "uint256"
        }
      ],
      "stateMutability": "view",
      "type": "function"
    },
    {
      "inputs": [],
      "name": "ZUNAMI_USDC_TOKEN_ID",
      "outputs": [
        {
          "internalType": "uint256",
          "name": "",
          "type": "uint256"
        }
      ],
      "stateMutability": "view",
      "type": "function"
    },
    {
      "inputs": [],
      "name": "ZUNAMI_USDT_TOKEN_ID",
      "outputs": [
        {
          "internalType": "uint256",
          "name": "",
          "type": "uint256"
        }
      ],
      "stateMutability": "view",
      "type": "function"
    },
    {
      "inputs": [],
      "name": "autoCompound",
      "outputs": [],
      "stateMutability": "nonpayable",
      "type": "function"
    },
    {
      "inputs": [
        {
          "internalType": "uint256[3]",
          "name": "tokenAmounts",
          "type": "uint256[3]"
        },
        {
          "internalType": "bool",
          "name": "isDeposit",
          "type": "bool"
        }
      ],
      "name": "calcSharesAmount",
      "outputs": [
        {
          "internalType": "uint256",
          "name": "",
          "type": "uint256"
        }
      ],
      "stateMutability": "view",
      "type": "function"
    },
    {
      "inputs": [
        {
          "internalType": "uint256",
          "name": "userRatioOfCrvLps",
          "type": "uint256"
        },
        {
          "internalType": "uint128",
          "name": "tokenIndex",
          "type": "uint128"
        }
      ],
      "name": "calcWithdrawOneCoin",
      "outputs": [
        {
          "internalType": "uint256",
          "name": "",
          "type": "uint256"
        }
      ],
      "stateMutability": "view",
      "type": "function"
    },
    {
      "inputs": [
        {
          "internalType": "address",
          "name": "_feeDistributor",
          "type": "address"
        }
      ],
      "name": "changeFeeDistributor",
      "outputs": [],
      "stateMutability": "nonpayable",
      "type": "function"
    },
    {
      "inputs": [],
      "name": "claimManagementFees",
      "outputs": [
        {
          "internalType": "uint256",
          "name": "",
          "type": "uint256"
        }
      ],
      "stateMutability": "nonpayable",
      "type": "function"
    },
    {
      "inputs": [],
      "name": "config",
      "outputs": [
        {
          "components": [
            {
              "internalType": "contract IERC20Metadata[3]",
              "name": "tokens",
              "type": "address[3]"
            },
            {
              "internalType": "contract IERC20Metadata[]",
              "name": "rewards",
              "type": "address[]"
            },
            {
              "internalType": "contract IConvexStakingBooster",
              "name": "booster",
              "type": "address"
            }
          ],
          "internalType": "struct StakingFraxCurveConvexStratBase.Config",
          "name": "",
          "type": "tuple"
        }
      ],
      "stateMutability": "view",
      "type": "function"
    },
    {
      "inputs": [],
      "name": "crvFraxTokenPool",
      "outputs": [
        {
          "internalType": "contract ICurvePool2",
          "name": "",
          "type": "address"
        }
      ],
      "stateMutability": "view",
      "type": "function"
    },
    {
      "inputs": [],
      "name": "crvFraxTokenPoolLp",
      "outputs": [
        {
          "internalType": "contract IERC20Metadata",
          "name": "",
          "type": "address"
        }
      ],
      "stateMutability": "view",
      "type": "function"
    },
    {
      "inputs": [],
      "name": "cvxPoolPID",
      "outputs": [
        {
          "internalType": "uint256",
          "name": "",
          "type": "uint256"
        }
      ],
      "stateMutability": "view",
      "type": "function"
    },
    {
      "inputs": [
        {
          "internalType": "uint256",
          "name": "",
          "type": "uint256"
        }
      ],
      "name": "decimalsMultipliers",
      "outputs": [
        {
          "internalType": "uint256",
          "name": "",
          "type": "uint256"
        }
      ],
      "stateMutability": "view",
      "type": "function"
    },
    {
      "inputs": [
        {
          "internalType": "uint256[3]",
          "name": "amounts",
          "type": "uint256[3]"
        }
      ],
      "name": "deposit",
      "outputs": [
        {
          "internalType": "uint256",
          "name": "",
          "type": "uint256"
        }
      ],
      "stateMutability": "nonpayable",
      "type": "function"
    },
    {
      "inputs": [],
      "name": "feeDistributor",
      "outputs": [
        {
          "internalType": "address",
          "name": "",
          "type": "address"
        }
      ],
      "stateMutability": "view",
      "type": "function"
    },
    {
      "inputs": [],
      "name": "feeTokenId",
      "outputs": [
        {
          "internalType": "uint256",
          "name": "",
          "type": "uint256"
        }
      ],
      "stateMutability": "view",
      "type": "function"
    },
    {
      "inputs": [],
      "name": "fraxUsdcPool",
      "outputs": [
        {
          "internalType": "contract ICurvePool2",
          "name": "",
          "type": "address"
        }
      ],
      "stateMutability": "view",
      "type": "function"
    },
    {
      "inputs": [],
      "name": "fraxUsdcPoolLp",
      "outputs": [
        {
          "internalType": "contract IERC20Metadata",
          "name": "",
          "type": "address"
        }
      ],
      "stateMutability": "view",
      "type": "function"
    },
    {
      "inputs": [],
      "name": "kekId",
      "outputs": [
        {
          "internalType": "bytes32",
          "name": "",
          "type": "bytes32"
        }
      ],
      "stateMutability": "view",
      "type": "function"
    },
    {
      "inputs": [],
      "name": "lockLonger",
      "outputs": [],
      "stateMutability": "nonpayable",
      "type": "function"
    },
    {
      "inputs": [],
      "name": "lockingIntervalSec",
      "outputs": [
        {
          "internalType": "uint256",
          "name": "",
          "type": "uint256"
        }
      ],
      "stateMutability": "view",
      "type": "function"
    },
    {
      "inputs": [],
      "name": "managementFees",
      "outputs": [
        {
          "internalType": "uint256",
          "name": "",
          "type": "uint256"
        }
      ],
      "stateMutability": "view",
      "type": "function"
    },
    {
      "inputs": [],
      "name": "minDepositAmount",
      "outputs": [
        {
          "internalType": "uint256",
          "name": "",
          "type": "uint256"
        }
      ],
      "stateMutability": "view",
      "type": "function"
    },
    {
      "inputs": [],
      "name": "owner",
      "outputs": [
        {
          "internalType": "address",
          "name": "",
          "type": "address"
        }
      ],
      "stateMutability": "view",
      "type": "function"
    },
    {
      "inputs": [],
      "name": "renounceOwnership",
      "outputs": [],
      "stateMutability": "view",
      "type": "function"
    },
    {
      "inputs": [],
      "name": "rewardManager",
      "outputs": [
        {
          "internalType": "contract IRewardManager",
          "name": "",
          "type": "address"
        }
      ],
      "stateMutability": "view",
      "type": "function"
    },
    {
      "inputs": [
        {
          "internalType": "uint256",
          "name": "feeTokenIdParam",
          "type": "uint256"
        }
      ],
      "name": "setFeeTokenId",
      "outputs": [],
      "stateMutability": "nonpayable",
      "type": "function"
    },
    {
      "inputs": [
        {
          "internalType": "address",
          "name": "rewardManagerAddr",
          "type": "address"
        }
      ],
      "name": "setRewardManager",
      "outputs": [],
      "stateMutability": "nonpayable",
      "type": "function"
    },
    {
      "inputs": [
        {
          "internalType": "address",
          "name": "stableConverterAddr",
          "type": "address"
        }
      ],
      "name": "setStableConverter",
      "outputs": [],
      "stateMutability": "nonpayable",
      "type": "function"
    },
    {
      "inputs": [
        {
          "internalType": "address",
          "name": "zunamiAddr",
          "type": "address"
        }
      ],
      "name": "setZunami",
      "outputs": [],
      "stateMutability": "nonpayable",
      "type": "function"
    },
    {
      "inputs": [],
      "name": "stableConverter",
      "outputs": [
        {
          "internalType": "contract IStableConverter",
          "name": "",
          "type": "address"
        }
      ],
      "stateMutability": "view",
      "type": "function"
    },
    {
      "inputs": [],
      "name": "stakingVault",
      "outputs": [
        {
          "internalType": "contract IStakingProxyConvex",
          "name": "",
          "type": "address"
        }
      ],
      "stateMutability": "view",
      "type": "function"
    },
    {
      "inputs": [],
      "name": "token",
      "outputs": [
        {
          "internalType": "address",
          "name": "",
          "type": "address"
        }
      ],
      "stateMutability": "view",
      "type": "function"
    },
    {
      "inputs": [],
      "name": "totalHoldings",
      "outputs": [
        {
          "internalType": "uint256",
          "name": "",
          "type": "uint256"
        }
      ],
      "stateMutability": "view",
      "type": "function"
    },
    {
      "inputs": [
        {
          "internalType": "address",
          "name": "newOwner",
          "type": "address"
        }
      ],
      "name": "transferOwnership",
      "outputs": [],
      "stateMutability": "nonpayable",
      "type": "function"
    },
    {
      "inputs": [
        {
          "internalType": "uint256",
          "name": "_minDepositAmount",
          "type": "uint256"
        }
      ],
      "name": "updateMinDepositAmount",
      "outputs": [],
      "stateMutability": "nonpayable",
      "type": "function"
    },
    {
      "inputs": [
        {
          "internalType": "address",
          "name": "withdrawer",
          "type": "address"
        },
        {
          "internalType": "uint256",
          "name": "userRatioOfCrvLps",
          "type": "uint256"
        },
        {
          "internalType": "uint256[3]",
          "name": "tokenAmounts",
          "type": "uint256[3]"
        },
        {
          "internalType": "enum StakingFraxCurveConvexStratBase.WithdrawalType",
          "name": "withdrawalType",
          "type": "uint8"
        },
        {
          "internalType": "uint128",
          "name": "tokenIndex",
          "type": "uint128"
        }
      ],
      "name": "withdraw",
      "outputs": [
        {
          "internalType": "bool",
          "name": "",
          "type": "bool"
        }
      ],
      "stateMutability": "nonpayable",
      "type": "function"
    },
    {
      "inputs": [],
      "name": "withdrawAll",
      "outputs": [],
      "stateMutability": "nonpayable",
      "type": "function"
    },
    {
      "inputs": [
        {
          "internalType": "contract IERC20Metadata",
          "name": "_token",
          "type": "address"
        }
      ],
      "name": "withdrawStuckToken",
      "outputs": [],
      "stateMutability": "nonpayable",
      "type": "function"
    },
    {
      "inputs": [],
      "name": "zunami",
      "outputs": [
        {
          "internalType": "contract IZunami",
          "name": "",
          "type": "address"
        }
      ],
      "stateMutability": "view",
      "type": "function"
    }
  ],
  "bytecode": "0x6101206040526126f76009556000600b556002600c553480156200002257600080fd5b5060405162004063380380620040638339810160408190526200004591620004b4565b8073dcef968d416a41cdac0ed8702fac8128a64241a2733175df0976dfa876431c2e9ee6bc45b65d3473cc73326290a1b0004eee78fa6ed4f1d8f4b2523ab669806026620000933362000194565b85518690600190620000a99082906003620002ce565b506020828101518051620000c492600385019201906200032b565b5060409190910151600490910180546001600160a01b0319166001600160a01b0390921691909117905560005b60038110156200015357620001266001826003811062000115576200011562000597565b01546001600160a01b0316620001e4565b600d82600381106200013c576200013c62000597565b0155806200014a81620005ad565b915050620000f1565b50608052600a80546001600160a01b031916331790556001600160a01b0393841660a05291831660c052821660e052166101005250506001600c5562000601565b600080546001600160a01b038381166001600160a01b0319831681178455604051919092169283917f8be0079c531659141344cd1fd0a4f28419497f9722a3daafe3b4186f6b6457e09190a35050565b600080826001600160a01b031663313ce5676040518163ffffffff1660e01b8152600401602060405180830381865afa15801562000226573d6000803e3d6000fd5b505050506040513d601f19601f820116820180604052508101906200024c9190620005d5565b905060128160ff161115620002a75760405162461bcd60e51b815260206004820152601c60248201527f5a756e616d693a2077726f6e6720746f6b656e20646563696d616c7300000000604482015260640160405180910390fd5b8060ff16601203620002bc5750600192915050565b8060120360ff16600a0a915050919050565b826003810192821562000319579160200282015b828111156200031957825182546001600160a01b0319166001600160a01b03909116178255602090920191600190910190620002e2565b506200032792915062000382565b5090565b8280548282559060005260206000209081019282156200031957916020028201828111156200031957825182546001600160a01b0319166001600160a01b03909116178255602090920191600190910190620002e2565b5b8082111562000327576000815560010162000383565b634e487b7160e01b600052604160045260246000fd5b604051606081016001600160401b0381118282101715620003d457620003d462000399565b60405290565b6001600160a01b0381168114620003f057600080fd5b50565b600082601f8301126200040557600080fd5b815160206001600160401b038083111562000424576200042462000399565b8260051b604051601f19603f830116810181811084821117156200044c576200044c62000399565b6040529384528581018301938381019250878511156200046b57600080fd5b83870191505b84821015620004975781516200048781620003da565b8352918301919083019062000471565b979650505050505050565b8051620004af81620003da565b919050565b60006020808385031215620004c857600080fd5b82516001600160401b0380821115620004e057600080fd5b9084019060a08287031215620004f557600080fd5b620004ff620003af565b86601f8401126200050f57600080fd5b62000519620003af565b8060608501898111156200052c57600080fd5b855b81811015620005525780516200054481620003da565b84529287019287016200052e565b50908352519050828111156200056757600080fd5b6200057588828601620003f3565b85830152506200058860808401620004a2565b60408201529695505050505050565b634e487b7160e01b600052603260045260246000fd5b600060018201620005ce57634e487b7160e01b600052601160045260246000fd5b5060010190565b600060208284031215620005e857600080fd5b815160ff81168114620005fa57600080fd5b9392505050565b60805160a05160c05160e05161010051613991620006d26000396000818161037901528181610e9e01528181611e1201526127a0015260008181610305015281816108fb015281816113da01528181611a3601528181611c4a015281816126b4015281816126ef01528181612bcf0152612e4a01526000818161049a01526126920152600081816104dc01528181610991015281816125ca015281816126090152818161295501528181612a8a01528181612b100152612ee601526000818161032c0152611d8601526139916000f3fe608060405234801561001057600080fd5b506004361061025e5760003560e01c806381ff3e8b11610146578063a65e7162116100c3578063d4e20b0111610087578063d4e20b0114610522578063d58f042b14610535578063e9ec2e991461053f578063f12b59c914610547578063f2fde38b1461055a578063fc0c546a1461056d57600080fd5b8063a65e7162146104cf578063b1b6407e146104d7578063bc3a8e29146104fe578063c37d913d14610511578063cefbb9221461051a57600080fd5b80638c744e721161010a5780638c744e72146104695780638c8f292f1461047c5780638da5cb5b146104845780638f995f99146104955780639958527d146104bc57600080fd5b806381ff3e8b1461042457806382028b8214610437578063821c057614610446578063847802051461044e578063853828b61461046157600080fd5b80633c7226e4116101df5780635cdfd08c116101a35780635cdfd08c146103bf578063645006ca146103c857806370a106b9146103d1578063715018a6146103e457806378a59a25146103ec57806379502c551461040f57600080fd5b80633c7226e4146103615780633e415d671461037457806345bffdf61461039b5780634d530301146103a45780635c91bba0146103b757600080fd5b806324e7964a1161022657806324e7964a146102e55780632c6e5e64146102f85780632ce7780b1461030057806332d9dff3146103275780633b99c8fe1461034e57600080fd5b8063068acf6c146102635780630d43e8ad146102785780630f4ef8a6146102a8578063153ee554146102bb5780631977488a146102ce575b600080fd5b610276610271366004613309565b610575565b005b600a5461028b906001600160a01b031681565b6040516001600160a01b0390911681526020015b60405180910390f35b60075461028b906001600160a01b031681565b6102766102c9366004613309565b610633565b6102d761271081565b60405190815260200161029f565b60105461028b906001600160a01b031681565b6102766106b2565b61028b7f000000000000000000000000000000000000000000000000000000000000000081565b6102d77f000000000000000000000000000000000000000000000000000000000000000081565b61027661035c366004613309565b610786565b6102d761036f366004613342565b6107d2565b61028b7f000000000000000000000000000000000000000000000000000000000000000081565b6102d760115481565b6102766103b2366004613309565b610ada565b6102d7610b52565b6102d7600b5481565b6102d760095481565b6102766103df36600461336e565b610c24565b610276610c53565b6103ff6103fa36600461343c565b610cc5565b604051901515815260200161029f565b610417610f41565b60405161029f91906134a3565b60065461028b906001600160a01b031681565b6102d7670de0b6b3a764000081565b61027661100a565b61027661045c36600461336e565b6111d6565b61027661128f565b6102d761047736600461336e565b61139c565b6102d7600281565b6000546001600160a01b031661028b565b61028b7f000000000000000000000000000000000000000000000000000000000000000081565b6102d76104ca36600461355a565b6113b3565b6102d7600081565b61028b7f000000000000000000000000000000000000000000000000000000000000000081565b60085461028b906001600160a01b031681565b6102d7600c5481565b6102d7600181565b6102d7610530366004613592565b61145a565b6102d76209105081565b6102d76114aa565b610276610555366004613309565b6118ef565b610276610568366004613309565b611982565b61028b611a1d565b6000546001600160a01b031633146105a85760405162461bcd60e51b815260040161059f906135ae565b60405180910390fd5b6040516370a0823160e01b81523060048201526000906001600160a01b038316906370a0823190602401602060405180830381865afa1580156105ef573d6000803e3d6000fd5b505050506040513d601f19601f8201168201806040525081019061061391906135e3565b9050801561062f5761062f6001600160a01b0383163383611aae565b5050565b6000546001600160a01b0316331461065d5760405162461bcd60e51b815260040161059f906135ae565b600780546001600160a01b0319166001600160a01b0383169081179091556040519081527fc05fa79926cd5600b1cc95c8d9d908b7685d3f058c34ea011f8ae3490968ad30906020015b60405180910390a150565b6000546001600160a01b031633146106dc5760405162461bcd60e51b815260040161059f906135ae565b60006106eb6209105042613612565b60105460115460405163d2fbdc0d60e01b81526004810191909152602481018390529192506001600160a01b03169063d2fbdc0d90604401600060405180830381600087803b15801561073d57600080fd5b505af1158015610751573d6000803e3d6000fd5b505050507f63a64e7a40c0e2a36c53dc32093800983ae4f85819b9f357a5014138e10c5c3b816040516106a791815260200190565b6000546001600160a01b031633146107b05760405162461bcd60e51b815260040161059f906135ae565b600680546001600160a01b0319166001600160a01b0392909216919091179055565b601054604080516335ed2f8960e21b815290516000926001600160a01b0316918391670de0b6b3a7640000918791859163d7b4be249160048083019260209291908290030181865afa15801561082c573d6000803e3d6000fd5b505050506040513d601f19601f820116820180604052508101906108509190613625565b60405163d9f96e8d60e01b81526001600160a01b038681166004830152919091169063d9f96e8d90602401602060405180830381865afa158015610898573d6000803e3d6000fd5b505050506040513d601f19601f820116820180604052508101906108bc91906135e3565b6108c69190613642565b6108d09190613661565b60405163cc2b27d760e01b815260048101829052600160248201529091506000906001600160a01b037f0000000000000000000000000000000000000000000000000000000000000000169063cc2b27d790604401602060405180830381865afa158015610942573d6000803e3d6000fd5b505050506040513d601f19601f8201168201806040525081019061096691906135e3565b60405163cc2b27d760e01b815260048101829052600160248201529091506000906001600160a01b037f0000000000000000000000000000000000000000000000000000000000000000169063cc2b27d790604401602060405180830381865afa1580156109d8573d6000803e3d6000fd5b505050506040513d601f19601f820116820180604052508101906109fc91906135e3565b90506001866001600160801b031603610a1a579350610ad492505050565b6008546001600160a01b031663b28b49a060018001546001600160a01b031660016001600160801b038a1660038110610a5557610a55613683565b015460405160e084901b6001600160e01b03191681526001600160a01b0392831660048201529116602482015260448101849052606401602060405180830381865afa158015610aa9573d6000803e3d6000fd5b505050506040513d601f19601f82011682018060405250810190610acd91906135e3565b9450505050505b92915050565b6000546001600160a01b03163314610b045760405162461bcd60e51b815260040161059f906135ae565b600880546001600160a01b0319166001600160a01b0383169081179091556040519081527f8d3be2f5779ff2e5c2283e107b82a55a09d3d8ac76fbb172d0782aff55bbd094906020016106a7565b6000806001600001600c5460038110610b6d57610b6d613683565b0154600b546040516370a0823160e01b81523060048201526001600160a01b0390921692509060009083906370a0823190602401602060405180830381865afa158015610bbe573d6000803e3d6000fd5b505050506040513d601f19601f82011682018060405250810190610be291906135e3565b90506000818311610bf35782610bf5565b815b90508015610c1757600a54610c17906001600160a01b03868116911683611aae565b6000600b55949350505050565b6000546001600160a01b03163314610c4e5760405162461bcd60e51b815260040161059f906135ae565b600c55565b6000546001600160a01b03163314610c7d5760405162461bcd60e51b815260040161059f906135ae565b60405162461bcd60e51b815260206004820152601f60248201527f546865207374726174656779206d757374206861766520616e206f776e657200604482015260640161059f565b6006546000906001600160a01b0316336001600160a01b031614610cfb5760405162461bcd60e51b815260040161059f90613699565b600085118015610d135750670de0b6b3a76400008511155b610d505760405162461bcd60e51b815260206004820152600e60248201526d57726f6e67206c7020526174696f60901b604482015260640161059f565b6000806000610d6186898988611b16565b92509250925082610d785760009350505050610f38565b604080516003808252608082019092526000916020820160608036833701905050905060005b6003811015610e7257600c548114610db7576000610dbb565b600b545b60018260038110610dce57610dce613683565b01546040516370a0823160e01b81523060048201526001600160a01b03909116906370a0823190602401602060405180830381865afa158015610e15573d6000803e3d6000fd5b505050506040513d601f19601f82011682018060405250810190610e3991906135e3565b610e4391906136da565b828281518110610e5557610e55613683565b602090810291909101015280610e6a816136ed565b915050610d9e565b50610e7b611cf5565b6040516370a0823160e01b8152306004820152610f189084906001600160a01b037f000000000000000000000000000000000000000000000000000000000000000016906370a0823190602401602060405180830381865afa158015610ee5573d6000803e3d6000fd5b505050506040513d601f19601f82011682018060405250810190610f0991906135e3565b610f1391906136da565b611d63565b610f258383898b8a611f27565b610f2f8a82611f97565b60019450505050505b95945050505050565b610f49613291565b6040805160c08101909152600181606081018260038282826020028201915b81546001600160a01b03168152600190910190602001808311610f68575050505050815260200160038201805480602002602001604051908101604052809291908181526020018280548015610fe757602002820191906000526020600020905b81546001600160a01b03168152600190910190602001808311610fc9575b5050509183525050600491909101546001600160a01b0316602090910152919050565b6006546001600160a01b0316336001600160a01b03161461103d5760405162461bcd60e51b815260040161059f90613699565b6010546001600160a01b0316806110515750565b60405163a4698feb60e01b8152600160048201526001600160a01b0382169063a4698feb90602401600060405180830381600087803b15801561109357600080fd5b505af19250505080156110a4575060015b6111035760405163a4698feb60e01b8152600060048201526001600160a01b0382169063a4698feb90602401600060405180830381600087803b1580156110ea57600080fd5b505af11580156110fe573d6000803e3d6000fd5b505050505b61110b6120a4565b600c54600b546000906001836003811061112757611127613683565b01546040516370a0823160e01b81523060048201526001600160a01b03909116906370a0823190602401602060405180830381865afa15801561116e573d6000803e3d6000fd5b505050506040513d601f19601f8201168201806040525081019061119291906135e3565b61119c91906136da565b90506111a66132b8565b818184600381106111b9576111b9613683565b602002015281156111cf576111cd81612463565b505b505050505b565b6000546001600160a01b031633146112005760405162461bcd60e51b815260040161059f906135ae565b60008111801561121257506127108111155b61124e5760405162461bcd60e51b815260206004820152600d60248201526c57726f6e6720616d6f756e742160981b604482015260640161059f565b60095460408051918252602082018390527f5fb4589fcdfab8bd40d9776abc10876bb1cb02c0edab28d05cc42869b40e0329910160405180910390a1600955565b6006546001600160a01b0316336001600160a01b0316146112c25760405162461bcd60e51b815260040161059f90613699565b6112ca611cf5565b60105460405163a4698feb60e01b8152600160048201526001600160a01b039091169063a4698feb90602401600060405180830381600087803b15801561131057600080fd5b505af1925050508015611321575060015b6113845760105460405163a4698feb60e01b8152600060048201526001600160a01b039091169063a4698feb90602401600060405180830381600087803b15801561136b57600080fd5b505af115801561137f573d6000803e3d6000fd5b505050505b61138c6120a4565b611394612787565b6111d461281a565b600d81600381106113ac57600080fd5b0154905081565b6000806113c08484612909565b60405163ed8e84f360e01b81529091506001600160a01b037f0000000000000000000000000000000000000000000000000000000000000000169063ed8e84f3906114119084908790600401613729565b602060405180830381865afa15801561142e573d6000803e3d6000fd5b505050506040513d601f19601f8201168201806040525081019061145291906135e3565b949350505050565b6000611465826129e0565b61147157506000919050565b600061147c83612463565b9050670de0b6b3a764000061148f612bcb565b6114999083613642565b6114a39190613661565b9392505050565b601054600c54600091829182916001600160a01b03169081156117e957670de0b6b3a76400006114d8612bcb565b836001600160a01b031663d7b4be246040518163ffffffff1660e01b8152600401602060405180830381865afa158015611516573d6000803e3d6000fd5b505050506040513d601f19601f8201168201806040525081019061153a9190613625565b60405163d9f96e8d60e01b81526001600160a01b038681166004830152919091169063d9f96e8d90602401602060405180830381865afa158015611582573d6000803e3d6000fd5b505050506040513d601f19601f820116820180604052508101906115a691906135e3565b6115b09190613642565b6115ba9190613661565b9350600080836001600160a01b031663d6f192626040518163ffffffff1660e01b8152600401600060405180830381865afa1580156115fd573d6000803e3d6000fd5b505050506040513d6000823e601f3d908101601f1916820160405261162591908101906137d5565b60075491935091506001600160a01b031660006001856003811061164b5761164b613683565b01546001600160a01b0316905060005b84518110156117e357600085828151811061167857611678613683565b60209081029190910101516040516370a0823160e01b81523060048201526001600160a01b03909116906370a0823190602401602060405180830381865afa1580156116c8573d6000803e3d6000fd5b505050506040513d601f19601f820116820180604052508101906116ec91906135e3565b8583815181106116fe576116fe613683565b60200260200101516117109190613612565b90508060000361172057506117d1565b836001600160a01b03166335820b4887848151811061174157611741613683565b60209081029190910101516040516001600160e01b031960e084901b1681526001600160a01b039182166004820152602481018590529086166044820152606401602060405180830381865afa15801561179f573d6000803e3d6000fd5b505050506040513d601f19601f820116820180604052508101906117c391906135e3565b6117cd908a613612565b9850505b806117db816136ed565b91505061165b565b50505050505b6000805b60038110156118b157600d816003811061180957611809613683565b01546001826003811061181e5761181e613683565b01546040516370a0823160e01b81523060048201526001600160a01b03909116906370a0823190602401602060405180830381865afa158015611865573d6000803e3d6000fd5b505050506040513d601f19601f8201168201806040525081019061188991906135e3565b6118939190613642565b61189d9083613612565b9150806118a9816136ed565b9150506117ed565b50600d82600381106118c5576118c5613683565b01546118d19085613642565b6118db8683613612565b6118e59190613612565b9550505050505090565b6000546001600160a01b031633146119195760405162461bcd60e51b815260040161059f906135ae565b600a54604080516001600160a01b03928316815291831660208301527f1fb7c52dab61e9e9813f7aac38f62f9ae8ee57bf319134f2bde8758a7df5893d910160405180910390a1600a80546001600160a01b0319166001600160a01b0392909216919091179055565b6000546001600160a01b031633146119ac5760405162461bcd60e51b815260040161059f906135ae565b6001600160a01b038116611a115760405162461bcd60e51b815260206004820152602660248201527f4f776e61626c653a206e6577206f776e657220697320746865207a65726f206160448201526564647265737360d01b606482015260840161059f565b611a1a81612c4f565b50565b60405163c661065760e01b8152600060048201819052907f00000000000000000000000000000000000000000000000000000000000000006001600160a01b03169063c661065790602401602060405180830381865afa158015611a85573d6000803e3d6000fd5b505050506040513d601f19601f82011682018060405250810190611aa99190613625565b905090565b6040516001600160a01b038316602482015260448101829052611b1190849063a9059cbb60e01b906064015b60408051601f198184030181529190526020810180516001600160e01b03166001600160e01b031990931692909217909152612c9f565b505050565b60008060606000601060009054906101000a90046001600160a01b03169050670de0b6b3a764000087826001600160a01b031663d7b4be246040518163ffffffff1660e01b8152600401602060405180830381865afa158015611b7d573d6000803e3d6000fd5b505050506040513d601f19601f82011682018060405250810190611ba19190613625565b60405163d9f96e8d60e01b81526001600160a01b038581166004830152919091169063d9f96e8d90602401602060405180830381865afa158015611be9573d6000803e3d6000fd5b505050506040513d601f19601f82011682018060405250810190611c0d91906135e3565b611c179190613642565b611c219190613661565b92506000611c30876000612909565b60405163ed8e84f360e01b81529091506001600160a01b037f0000000000000000000000000000000000000000000000000000000000000000169063ed8e84f390611c82908490600090600401613729565b602060405180830381865afa158015611c9f573d6000803e3d6000fd5b505050506040513d601f19601f82011682018060405250810190611cc391906135e3565b604080516002808252606082018352928710159750919060208301908036833701905050925050509450945094915050565b601054601154604051634ab794a360e01b81526001600160a01b0390921691634ab794a391611d2a9160040190815260200190565b600060405180830381600087803b158015611d4457600080fd5b505af1158015611d58573d6000803e3d6000fd5b505060006011555050565b6010546001600160a01b031680611e0557600554604051639abbdf4b60e01b81527f000000000000000000000000000000000000000000000000000000000000000060048201526001600160a01b0390911690639abbdf4b906024016020604051808303816000875af1158015611dde573d6000803e3d6000fd5b505050506040513d601f19601f82011682018060405250810190611e029190613625565b90505b611e396001600160a01b037f0000000000000000000000000000000000000000000000000000000000000000168284612d71565b601154600003611ebe5760405163a41ce7e960e01b8152600481018390526209105060248201526001600160a01b0382169063a41ce7e9906044016020604051808303816000875af1158015611e93573d6000803e3d6000fd5b505050506040513d601f19601f82011682018060405250810190611eb791906135e3565b6011555050565b601154604051630687c4bd60e01b81526004810191909152602481018390526001600160a01b03821690630687c4bd90604401600060405180830381600087803b158015611f0b57600080fd5b505af1158015611f1f573d6000803e3d6000fd5b505050505050565b611f38858360016020020151612e23565b6001836001811115611f4c57611f4c61389a565b148015611f6357506001816001600160801b031614155b156111cd576111cd60016001600160801b03831660038110611f8757611f87613683565b01546001600160a01b0316612f5b565b600c54600b546000805b6003811015611f1f57600060018260038110611fbf57611fbf613683565b01546001600160a01b03169050818514611fda576000611fdc565b835b868381518110611fee57611fee613683565b60209081029190910101516040516370a0823160e01b81523060048201526001600160a01b038416906370a0823190602401602060405180830381865afa15801561203d573d6000803e3d6000fd5b505050506040513d601f19601f8201168201806040525081019061206191906135e3565b61206b91906136da565b61207591906136da565b92508215612091576120916001600160a01b0382168885611aae565b508061209c816136ed565b915050611fa1565b60045460008167ffffffffffffffff8111156120c2576120c2613387565b6040519080825280602002602001820160405280156120eb578160200160208202803683370190505b509050600160005b838110156121c65760006001600301828154811061211357612113613683565b6000918252602090912001546040516370a0823160e01b81523060048201526001600160a01b03909116906370a0823190602401602060405180830381865afa158015612164573d6000803e3d6000fd5b505050506040513d601f19601f8201168201806040525081019061218891906135e3565b90508084838151811061219d5761219d613683565b602090810291909101015280156121b357600092505b50806121be816136ed565b9150506120f3565b5080156121d257505050565b60006001600001600c54600381106121ec576121ec613683565b01546040516370a0823160e01b81523060048201526001600160a01b03909116915060009082906370a0823190602401602060405180830381865afa158015612239573d6000803e3d6000fd5b505050506040513d601f19601f8201168201806040525081019061225d91906135e3565b6007549091506001600160a01b03166000805b8781101561235857600087828151811061228c5761228c613683565b60200260200101519050806000036122a45750612346565b60048054839081106122b8576122b8613683565b6000918252602090912001546001600160a01b031692506122da838583611aae565b604051631099a22f60e21b81526001600160a01b03848116600483015260248201839052878116604483015285169063426688bc90606401600060405180830381600087803b15801561232c57600080fd5b505af1158015612340573d6000803e3d6000fd5b50505050505b80612350816136ed565b915050612270565b506040516370a0823160e01b81523060048201526000906001600160a01b038616906370a0823190602401602060405180830381865afa1580156123a0573d6000803e3d6000fd5b505050506040513d601f19601f820116820180604052508101906123c491906135e3565b6006549091506001600160a01b0316635d4d77b86123e286846136da565b6040518263ffffffff1660e01b815260040161240091815260200190565b6020604051808303816000875af115801561241f573d6000803e3d6000fd5b505050506040513d601f19601f8201168201806040525081019061244391906135e3565b600b60008282546124549190613612565b90915550505050505050505050565b6002546040516370a0823160e01b81523060048201526000916001600160a01b031690829082906370a0823190602401602060405180830381865afa1580156124b0573d6000803e3d6000fd5b505050506040513d601f19601f820116820180604052508101906124d491906135e3565b8451909150156124fb576124fb736b175474e89094c44da98b954eedeac495271d0f61306e565b6040840151156125225761252273dac17f958d2ee523a2206206994597c13d831ec761306e565b600084600160200201516040516370a0823160e01b815230600482015283906001600160a01b038616906370a0823190602401602060405180830381865afa158015612572573d6000803e3d6000fd5b505050506040513d601f19601f8201168201806040525081019061259691906135e3565b6125a091906136da565b6125aa9190613612565b90506125b46132d6565b602081018290526125ef6001600160a01b0385167f000000000000000000000000000000000000000000000000000000000000000084612d71565b604051630b4c7e4d60e01b81526000906001600160a01b037f00000000000000000000000000000000000000000000000000000000000000001690630b4c7e4d9061264090859085906004016138b0565b6020604051808303816000875af115801561265f573d6000803e3d6000fd5b505050506040513d601f19601f8201168201806040525081019061268391906135e3565b90506126d96001600160a01b037f0000000000000000000000000000000000000000000000000000000000000000167f000000000000000000000000000000000000000000000000000000000000000083612d71565b60208201819052604051630b4c7e4d60e01b81527f00000000000000000000000000000000000000000000000000000000000000006001600160a01b031690630b4c7e4d9061272f9085906000906004016138b0565b6020604051808303816000875af115801561274e573d6000803e3d6000fd5b505050506040513d601f19601f8201168201806040525081019061277291906135e3565b955061277d86611d63565b5050505050919050565b6040516370a0823160e01b81523060048201526111d4907f00000000000000000000000000000000000000000000000000000000000000006001600160a01b0316906370a0823190602401602060405180830381865afa1580156127ef573d6000803e3d6000fd5b505050506040513d601f19601f8201168201806040525081019061281391906135e3565b6000612e23565b600c54600b546000805b60038110156111cf5760006001826003811061284257612842613683565b01546001600160a01b03169050600082861461285f576000612861565b845b6040516370a0823160e01b815230600482015290915081906001600160a01b038416906370a0823190602401602060405180830381865afa1580156128aa573d6000803e3d6000fd5b505050506040513d601f19601f820116820180604052508101906128ce91906135e3565b6128d891906136da565b935083156128f4576128f46001600160a01b0383163386611aae565b50508080612901906136ed565b915050612824565b6129116132d6565b60408301516020840151845161292d9064e8d4a5100090613661565b6129379190613612565b6129419190613612565b602082015260405163ed8e84f360e01b81527f00000000000000000000000000000000000000000000000000000000000000006001600160a01b03169063ed8e84f3906129949084908690600401613729565b602060405180830381865afa1580156129b1573d6000803e3d6000fd5b505050506040513d601f19601f820116820180604052508101906129d591906135e3565b602082015292915050565b60008060005b6003811015612a4357600d8160038110612a0257612a02613683565b0154848260038110612a1657612a16613683565b6020020151612a259190613642565b612a2f9083613612565b915080612a3b816136ed565b9150506129e6565b50600061271060095483612a579190613642565b612a619190613661565b9050612a6b6132d6565b612a7a64e8d4a5100084613661565b81600160200201818152505060007f00000000000000000000000000000000000000000000000000000000000000006001600160a01b031663bb7b8b806040518163ffffffff1660e01b8152600401602060405180830381865afa158015612ae6573d6000803e3d6000fd5b505050506040513d601f19601f82011682018060405250810190612b0a91906135e3565b905060007f00000000000000000000000000000000000000000000000000000000000000006001600160a01b031663ed8e84f38460016040518363ffffffff1660e01b8152600401612b5d929190613729565b602060405180830381865afa158015612b7a573d6000803e3d6000fd5b505050506040513d601f19601f82011682018060405250810190612b9e91906135e3565b905083670de0b6b3a7640000612bb48484613642565b612bbe9190613661565b1015979650505050505050565b60007f00000000000000000000000000000000000000000000000000000000000000006001600160a01b031663bb7b8b806040518163ffffffff1660e01b8152600401602060405180830381865afa158015612c2b573d6000803e3d6000fd5b505050506040513d601f19601f82011682018060405250810190611aa991906135e3565b600080546001600160a01b038381166001600160a01b0319831681178455604051919092169283917f8be0079c531659141344cd1fd0a4f28419497f9722a3daafe3b4186f6b6457e09190a35050565b6000612cf4826040518060400160405280602081526020017f5361666545524332303a206c6f772d6c6576656c2063616c6c206661696c6564815250856001600160a01b031661317d9092919063ffffffff16565b805190915015611b115780806020019051810190612d1291906138cb565b611b115760405162461bcd60e51b815260206004820152602a60248201527f5361666545524332303a204552433230206f7065726174696f6e20646964206e6044820152691bdd081cdd58d8d9595960b21b606482015260840161059f565b604051636eb1769f60e11b81523060048201526001600160a01b038381166024830152600091839186169063dd62ed3e90604401602060405180830381865afa158015612dc2573d6000803e3d6000fd5b505050506040513d601f19601f82011682018060405250810190612de691906135e3565b612df09190613612565b6040516001600160a01b0385166024820152604481018290529091506111cf90859063095ea7b360e01b90606401611ada565b604051630d2680e960e11b81526004810183905260016024820152600060448201819052907f00000000000000000000000000000000000000000000000000000000000000006001600160a01b031690631a4d01d2906064016020604051808303816000875af1158015612e9b573d6000803e3d6000fd5b505050506040513d601f19601f82011682018060405250810190612ebf91906135e3565b604051630d2680e960e11b81526004810182905260016024820152604481018490529091507f00000000000000000000000000000000000000000000000000000000000000006001600160a01b031690631a4d01d2906064016020604051808303816000875af1158015612f37573d6000803e3d6000fd5b505050506040513d601f19601f820116820180604052508101906111cf91906135e3565b6002546040516370a0823160e01b81523060048201526001600160a01b039091169060009082906370a0823190602401602060405180830381865afa158015612fa8573d6000803e3d6000fd5b505050506040513d601f19601f82011682018060405250810190612fcc91906135e3565b905080600003612fdb57505050565b6008546001600160a01b0390811690612ff79084168284611aae565b604051631a378db760e01b81526001600160a01b03848116600483015285811660248301526044820184905260006064830152821690631a378db790608401600060405180830381600087803b15801561305057600080fd5b505af1158015613064573d6000803e3d6000fd5b5050505050505050565b6040516370a0823160e01b81523060048201526000906001600160a01b038316906370a0823190602401602060405180830381865afa1580156130b5573d6000803e3d6000fd5b505050506040513d601f19601f820116820180604052508101906130d991906135e3565b9050806000036130e7575050565b6008546001600160a01b03908116906131039084168284611aae565b600254604051631a378db760e01b81526001600160a01b0385811660048301529182166024820152604481018490526000606482015290821690631a378db790608401600060405180830381600087803b15801561316057600080fd5b505af1158015613174573d6000803e3d6000fd5b50505050505050565b60606114528484600085856001600160a01b0385163b6131df5760405162461bcd60e51b815260206004820152601d60248201527f416464726573733a2063616c6c20746f206e6f6e2d636f6e7472616374000000604482015260640161059f565b600080866001600160a01b031685876040516131fb919061390c565b60006040518083038185875af1925050503d8060008114613238576040519150601f19603f3d011682016040523d82523d6000602084013e61323d565b606091505b509150915061324d828286613258565b979650505050505050565b606083156132675750816114a3565b8251156132775782518084602001fd5b8160405162461bcd60e51b815260040161059f9190613928565b60405180606001604052806132a46132b8565b815260606020820152600060409091015290565b60405180606001604052806003906020820280368337509192915050565b60405180604001604052806002906020820280368337509192915050565b6001600160a01b0381168114611a1a57600080fd5b60006020828403121561331b57600080fd5b81356114a3816132f4565b80356001600160801b038116811461333d57600080fd5b919050565b6000806040838503121561335557600080fd5b8235915061336560208401613326565b90509250929050565b60006020828403121561338057600080fd5b5035919050565b634e487b7160e01b600052604160045260246000fd5b604051601f8201601f1916810167ffffffffffffffff811182821017156133c6576133c6613387565b604052919050565b600082601f8301126133df57600080fd5b6040516060810181811067ffffffffffffffff8211171561340257613402613387565b60405280606084018581111561341757600080fd5b845b81811015613431578035835260209283019201613419565b509195945050505050565b600080600080600060e0868803121561345457600080fd5b853561345f816132f4565b94506020860135935061347587604088016133ce565b925060a08601356002811061348957600080fd5b915061349760c08701613326565b90509295509295909350565b602080825282516000919060c08401838584015b60038210156134e05783516001600160a01b0316815292840192600191909101906020016134b7565b50508583015160a060808701528051918290528301915060009060e08601905b8083101561352b5783516001600160a01b031682526020820191508484019350600183019250613500565b5060408701516001600160a01b03811660a088015293509695505050505050565b8015158114611a1a57600080fd5b6000806080838503121561356d57600080fd5b61357784846133ce565b915060608301356135878161354c565b809150509250929050565b6000606082840312156135a457600080fd5b6114a383836133ce565b6020808252818101527f4f776e61626c653a2063616c6c6572206973206e6f7420746865206f776e6572604082015260600190565b6000602082840312156135f557600080fd5b5051919050565b634e487b7160e01b600052601160045260246000fd5b80820180821115610ad457610ad46135fc565b60006020828403121561363757600080fd5b81516114a3816132f4565b600081600019048311821515161561365c5761365c6135fc565b500290565b60008261367e57634e487b7160e01b600052601260045260246000fd5b500490565b634e487b7160e01b600052603260045260246000fd5b60208082526021908201527f6d7573742062652063616c6c6564206279205a756e616d6920636f6e747261636040820152601d60fa1b606082015260800190565b81810381811115610ad457610ad46135fc565b6000600182016136ff576136ff6135fc565b5060010190565b8060005b60028110156111cf57815184526020938401939091019060010161370a565b606081016137378285613706565b82151560408301529392505050565b600067ffffffffffffffff82111561376057613760613387565b5060051b60200190565b600082601f83011261377b57600080fd5b8151602061379061378b83613746565b61339d565b82815260059290921b840181019181810190868411156137af57600080fd5b8286015b848110156137ca57805183529183019183016137b3565b509695505050505050565b600080604083850312156137e857600080fd5b825167ffffffffffffffff8082111561380057600080fd5b818501915085601f83011261381457600080fd5b8151602061382461378b83613746565b82815260059290921b8401810191818101908984111561384357600080fd5b948201945b8386101561386a57855161385b816132f4565b82529482019490820190613848565b9188015191965090935050508082111561388357600080fd5b506138908582860161376a565b9150509250929050565b634e487b7160e01b600052602160045260246000fd5b606081016138be8285613706565b8260408301529392505050565b6000602082840312156138dd57600080fd5b81516114a38161354c565b60005b838110156139035781810151838201526020016138eb565b50506000910152565b6000825161391e8184602087016138e8565b9190910192915050565b60208152600082518060208401526139478160408501602087016138e8565b601f01601f1916919091016040019291505056fea264697066735822122087a56cc50842e9b517bd4e546a1aa2c2e8d18d12039302ca8b937a36c3886f1564736f6c63430008100033",
  "linkReferences": {},
  "deployedLinkReferences": {}
}