{
  "_format": "hh-sol-artifact-1",
  "contractName": "ZunamiFraxExtension",
  "sourceName": "contracts/extensions/ZunamiFraxExtension.sol",
  "abi": [
    {
      "inputs": [
        {
          "internalType": "address",
          "name": "zunamiAddress",
          "type": "address"
        },
        {
          "internalType": "address",
          "name": "fraxUsdcConverterAddress",
          "type": "address"
        }
      ],
      "stateMutability": "nonpayable",
      "type": "constructor"
    },
    {
      "anonymous": false,
      "inputs": [
        {
          "indexed": true,
          "internalType": "address",
          "name": "depositor",
          "type": "address"
        },
        {
          "indexed": false,
          "internalType": "uint256",
          "name": "tokenAmount",
          "type": "uint256"
        },
        {
          "indexed": false,
          "internalType": "uint256",
          "name": "lpShares",
          "type": "uint256"
        }
      ],
      "name": "Deposited",
      "type": "event"
    },
    {
      "anonymous": false,
      "inputs": [
        {
          "indexed": true,
          "internalType": "address",
          "name": "withdrawer",
          "type": "address"
        },
        {
          "indexed": false,
          "internalType": "uint256",
          "name": "lpShares",
          "type": "uint256"
        },
        {
          "indexed": false,
          "internalType": "uint256",
          "name": "tokenAmount",
          "type": "uint256"
        }
      ],
      "name": "Withdrawn",
      "type": "event"
    },
    {
      "inputs": [],
      "name": "LP_RATIO_MULTIPLIER",
      "outputs": [
        {
          "internalType": "uint256",
          "name": "",
          "type": "uint256"
        }
      ],
      "stateMutability": "view",
      "type": "function"
    },
    {
      "inputs": [],
      "name": "ZUNAMI_USDC_TOKEN_ID",
      "outputs": [
        {
          "internalType": "uint128",
          "name": "",
          "type": "uint128"
        }
      ],
      "stateMutability": "view",
      "type": "function"
    },
    {
      "inputs": [
        {
          "internalType": "uint256",
          "name": "zlpAmount",
          "type": "uint256"
        }
      ],
      "name": "calcWithdraw",
      "outputs": [
        {
          "internalType": "uint256",
          "name": "",
          "type": "uint256"
        }
      ],
      "stateMutability": "view",
      "type": "function"
    },
    {
      "inputs": [
        {
          "internalType": "uint256",
          "name": "fraxAmount",
          "type": "uint256"
        },
        {
          "internalType": "uint256",
          "name": "minZlpAmount",
          "type": "uint256"
        }
      ],
      "name": "deposit",
      "outputs": [
        {
          "internalType": "uint256",
          "name": "",
          "type": "uint256"
        }
      ],
      "stateMutability": "nonpayable",
      "type": "function"
    },
    {
      "inputs": [],
      "name": "fraxUsdcConverter",
      "outputs": [
        {
          "internalType": "contract IStableConverter",
          "name": "",
          "type": "address"
        }
      ],
      "stateMutability": "view",
      "type": "function"
    },
    {
      "inputs": [
        {
          "internalType": "uint256",
          "name": "zlpAmount",
          "type": "uint256"
        },
        {
          "internalType": "uint256",
          "name": "minFraxAmount",
          "type": "uint256"
        }
      ],
      "name": "withdraw",
      "outputs": [],
      "stateMutability": "nonpayable",
      "type": "function"
    },
    {
      "inputs": [],
      "name": "zunami",
      "outputs": [
        {
          "internalType": "contract IZunamiVault",
          "name": "",
          "type": "address"
        }
      ],
      "stateMutability": "view",
      "type": "function"
    }
  ],
  "bytecode": "0x60c060405234801561001057600080fd5b5060405161125c38038061125c83398101604081905261002f91610062565b6001600160a01b0390811660a05216608052610095565b80516001600160a01b038116811461005d57600080fd5b919050565b6000806040838503121561007557600080fd5b61007e83610046565b915061008c60208401610046565b90509250929050565b60805160a05161114261011a6000396000818160be015281816102f40152818161036a015281816106e701528181610796015261080c01526000818160fd01528181610167015281816101aa015281816101ff015281816104eb0152818161058f015281816108f90152818161094e015281816109de0152610aa101526111426000f3fe608060405234801561001057600080fd5b506004361061007d5760003560e01c806381ff3e8b1161005b57806381ff3e8b146100f85780639b05f5e41461011f578063cefbb92214610132578063e2bbb1581461015257600080fd5b80633fe356cf14610082578063441a3e70146100a45780635b936a3a146100b9575b600080fd5b610091670de0b6b3a764000081565b6040519081526020015b60405180910390f35b6100b76100b2366004610ebc565b610165565b005b6100e07f000000000000000000000000000000000000000000000000000000000000000081565b6040516001600160a01b03909116815260200161009b565b6100e07f000000000000000000000000000000000000000000000000000000000000000081565b61009161012d366004610ede565b6104e6565b61013a600181565b6040516001600160801b03909116815260200161009b565b610091610160366004610ebc565b610764565b7f000000000000000000000000000000000000000000000000000000000000000061019b6001600160a01b038216333086610b0f565b6101cf6001600160a01b0382167f000000000000000000000000000000000000000000000000000000000000000085610b80565b6040805160608101825260008082526020820181905281830152905163616921e960e01b81526001600160a01b037f0000000000000000000000000000000000000000000000000000000000000000169163616921e9916102399187916001908190600401610f1a565b600060405180830381600087803b15801561025357600080fd5b505af1158015610267573d6000803e3d6000fd5b50506040516370a0823160e01b815230600482015273a0b86991c6218b36c1d19d4a2e9eb0ce3606eb4892506000915082906370a0823190602401602060405180830381865afa1580156102bf573d6000803e3d6000fd5b505050506040513d601f19601f820116820180604052508101906102e39190610f6a565b90506103196001600160a01b0383167f000000000000000000000000000000000000000000000000000000000000000083610c32565b604051631a378db760e01b815273a0b86991c6218b36c1d19d4a2e9eb0ce3606eb48600482015273853d955acef822db058eb8505911ed77f175b99e602482015260448101829052600060648201527f00000000000000000000000000000000000000000000000000000000000000006001600160a01b031690631a378db790608401600060405180830381600087803b1580156103b657600080fd5b505af11580156103ca573d6000803e3d6000fd5b50506040516370a0823160e01b815230600482015273853d955acef822db058eb8505911ed77f175b99e92506000915082906370a0823190602401602060405180830381865afa158015610422573d6000803e3d6000fd5b505050506040513d601f19601f820116820180604052508101906104469190610f6a565b9050851561048e578581101561048e5760405162461bcd60e51b8152602060048201526008602482015267536c69707061676560c01b60448201526064015b60405180910390fd5b604080518881526020810183905233917f92ccf450a286a957af52509bc1c9939d1a6a481783e142e41e2499f0bb66ebc6910160405180910390a26104dd6001600160a01b0383163383610c32565b50505050505050565b6000807f00000000000000000000000000000000000000000000000000000000000000006001600160a01b031663ee03dfca6040518163ffffffff1660e01b8152600401602060405180830381865afa158015610547573d6000803e3d6000fd5b505050506040513d601f19601f8201168201806040525081019061056b9190610f6a565b604051631526fe2760e01b8152600481018290529091506000906001600160a01b037f00000000000000000000000000000000000000000000000000000000000000001690631526fe2790602401606060405180830381865afa1580156105d6573d6000803e3d6000fd5b505050506040513d601f19601f820116820180604052508101906105fa9190610f83565b905060008160400151670de0b6b3a7640000866106179190611015565b6106219190611034565b8251604051630f1c89b960e21b815260048101839052600160248201529192506000916001600160a01b0390911690633c7226e490604401602060405180830381865afa158015610676573d6000803e3d6000fd5b505050506040513d601f19601f8201168201806040525081019061069a9190610f6a565b6040516305945a4d60e51b815273a0b86991c6218b36c1d19d4a2e9eb0ce3606eb48600482015273853d955acef822db058eb8505911ed77f175b99e6024820152604481018290529091507f00000000000000000000000000000000000000000000000000000000000000006001600160a01b03169063b28b49a090606401602060405180830381865afa158015610736573d6000803e3d6000fd5b505050506040513d601f19601f8201168201806040525081019061075a9190610f6a565b9695505050505050565b600073853d955acef822db058eb8505911ed77f175b99e61078781333087610b0f565b6107bb6001600160a01b0382167f000000000000000000000000000000000000000000000000000000000000000086610c32565b604051631a378db760e01b815273853d955acef822db058eb8505911ed77f175b99e600482015273a0b86991c6218b36c1d19d4a2e9eb0ce3606eb48602482015260448101859052600060648201527f00000000000000000000000000000000000000000000000000000000000000006001600160a01b031690631a378db790608401600060405180830381600087803b15801561085857600080fd5b505af115801561086c573d6000803e3d6000fd5b50506040516370a0823160e01b815230600482015273a0b86991c6218b36c1d19d4a2e9eb0ce3606eb4892506000915082906370a0823190602401602060405180830381865afa1580156108c4573d6000803e3d6000fd5b505050506040513d601f19601f820116820180604052508101906108e89190610f6a565b905061091e6001600160a01b0383167f000000000000000000000000000000000000000000000000000000000000000083610b80565b6040805160608101825260008082526020820184905281830152905163d4e20b0160e01b81526001600160a01b037f0000000000000000000000000000000000000000000000000000000000000000169163d4e20b01916109829190600401611056565b6020604051808303816000875af11580156109a1573d6000803e3d6000fd5b505050506040513d601f19601f820116820180604052508101906109c59190610f6a565b506040516370a0823160e01b81523060048201526000907f00000000000000000000000000000000000000000000000000000000000000006001600160a01b0316906370a0823190602401602060405180830381865afa158015610a2d573d6000803e3d6000fd5b505050506040513d601f19601f82011682018060405250810190610a519190610f6a565b90508515610a945785811015610a945760405162461bcd60e51b8152602060048201526008602482015267536c69707061676560c01b6044820152606401610485565b610ac86001600160a01b037f0000000000000000000000000000000000000000000000000000000000000000163383610c32565b604080518881526020810183905233917f73a19dd210f1a7f902193214c0ee91dd35ee5b4d920cba8d519eca65a7b488ca910160405180910390a293505050505b92915050565b6040516001600160a01b0380851660248301528316604482015260648101829052610b7a9085906323b872dd60e01b906084015b60408051601f198184030181529190526020810180516001600160e01b03166001600160e01b031990931692909217909152610c67565b50505050565b604051636eb1769f60e11b81523060048201526001600160a01b038381166024830152600091839186169063dd62ed3e90604401602060405180830381865afa158015610bd1573d6000803e3d6000fd5b505050506040513d601f19601f82011682018060405250810190610bf59190610f6a565b610bff9190611064565b6040516001600160a01b038516602482015260448101829052909150610b7a90859063095ea7b360e01b90606401610b43565b6040516001600160a01b038316602482015260448101829052610c6290849063a9059cbb60e01b90606401610b43565b505050565b6000610cbc826040518060400160405280602081526020017f5361666545524332303a206c6f772d6c6576656c2063616c6c206661696c6564815250856001600160a01b0316610d399092919063ffffffff16565b805190915015610c625780806020019051810190610cda9190611077565b610c625760405162461bcd60e51b815260206004820152602a60248201527f5361666545524332303a204552433230206f7065726174696f6e20646964206e6044820152691bdd081cdd58d8d9595960b21b6064820152608401610485565b6060610d488484600085610d52565b90505b9392505050565b606082471015610db35760405162461bcd60e51b815260206004820152602660248201527f416464726573733a20696e73756666696369656e742062616c616e636520666f6044820152651c8818d85b1b60d21b6064820152608401610485565b6001600160a01b0385163b610e0a5760405162461bcd60e51b815260206004820152601d60248201527f416464726573733a2063616c6c20746f206e6f6e2d636f6e74726163740000006044820152606401610485565b600080866001600160a01b03168587604051610e2691906110bd565b60006040518083038185875af1925050503d8060008114610e63576040519150601f19603f3d011682016040523d82523d6000602084013e610e68565b606091505b5091509150610e78828286610e83565b979650505050505050565b60608315610e92575081610d4b565b825115610ea25782518084602001fd5b8160405162461bcd60e51b815260040161048591906110d9565b60008060408385031215610ecf57600080fd5b50508035926020909101359150565b600060208284031215610ef057600080fd5b5035919050565b8060005b6003811015610b7a578151845260209384019390910190600101610efb565b84815260c08101610f2e6020830186610ef7565b60028410610f4c57634e487b7160e01b600052602160045260246000fd5b8360808301526001600160801b03831660a083015295945050505050565b600060208284031215610f7c57600080fd5b5051919050565b600060608284031215610f9557600080fd5b6040516060810181811067ffffffffffffffff82111715610fc657634e487b7160e01b600052604160045260246000fd5b60405282516001600160a01b0381168114610fe057600080fd5b8152602083810151908201526040928301519281019290925250919050565b634e487b7160e01b600052601160045260246000fd5b600081600019048311821515161561102f5761102f610fff565b500290565b60008261105157634e487b7160e01b600052601260045260246000fd5b500490565b60608101610b098284610ef7565b80820180821115610b0957610b09610fff565b60006020828403121561108957600080fd5b81518015158114610d4b57600080fd5b60005b838110156110b457818101518382015260200161109c565b50506000910152565b600082516110cf818460208701611099565b9190910192915050565b60208152600082518060208401526110f8816040850160208701611099565b601f01601f1916919091016040019291505056fea26469706673582212209f0b76881fa2327a680e288e901a591f4c63618c8007c34727eb28bb2959279b64736f6c63430008100033",
  "linkReferences": {},
  "deployedLinkReferences": {}
}