{
  "_format": "hh-sol-artifact-1",
  "contractName": "ZunamiForwarder",
  "sourceName": "contracts/crosschain/ZunamiForwarder.sol",
  "abi": [
    {
      "inputs": [
        {
          "internalType": "contract IERC20Metadata[3]",
          "name": "_tokens",
          "type": "address[3]"
        },
        {
          "internalType": "uint256",
          "name": "_tokenPoolId",
          "type": "uint256"
        },
        {
          "internalType": "address",
          "name": "_zunami",
          "type": "address"
        },
        {
          "internalType": "address",
          "name": "_curveExchange",
          "type": "address"
        },
        {
          "internalType": "address",
          "name": "_stargateRouter",
          "type": "address"
        },
        {
          "internalType": "address",
          "name": "_layerZeroEndpoint",
          "type": "address"
        }
      ],
      "stateMutability": "nonpayable",
      "type": "constructor"
    },
    {
      "anonymous": false,
      "inputs": [
        {
          "indexed": true,
          "internalType": "uint256",
          "name": "id",
          "type": "uint256"
        },
        {
          "indexed": false,
          "internalType": "uint256",
          "name": "tokenId",
          "type": "uint256"
        },
        {
          "indexed": false,
          "internalType": "uint256",
          "name": "tokenAmount",
          "type": "uint256"
        }
      ],
      "name": "CreatedPendingDeposit",
      "type": "event"
    },
    {
      "anonymous": false,
      "inputs": [
        {
          "indexed": true,
          "internalType": "uint256",
          "name": "id",
          "type": "uint256"
        },
        {
          "indexed": false,
          "internalType": "uint256",
          "name": "lpShares",
          "type": "uint256"
        }
      ],
      "name": "CreatedPendingWithdrawal",
      "type": "event"
    },
    {
      "anonymous": false,
      "inputs": [
        {
          "indexed": true,
          "internalType": "uint256",
          "name": "id",
          "type": "uint256"
        },
        {
          "indexed": false,
          "internalType": "uint256",
          "name": "lpShares",
          "type": "uint256"
        }
      ],
      "name": "Deposited",
      "type": "event"
    },
    {
      "anonymous": false,
      "inputs": [
        {
          "indexed": true,
          "internalType": "uint256",
          "name": "id",
          "type": "uint256"
        },
        {
          "indexed": false,
          "internalType": "uint256",
          "name": "tokenId",
          "type": "uint256"
        },
        {
          "indexed": false,
          "internalType": "uint256",
          "name": "tokenAmount",
          "type": "uint256"
        }
      ],
      "name": "InitiatedCrossDeposit",
      "type": "event"
    },
    {
      "anonymous": false,
      "inputs": [
        {
          "indexed": true,
          "internalType": "uint256",
          "name": "id",
          "type": "uint256"
        },
        {
          "indexed": false,
          "internalType": "uint256",
          "name": "tokenId",
          "type": "uint256"
        },
        {
          "indexed": false,
          "internalType": "uint256",
          "name": "tokenAmount",
          "type": "uint256"
        }
      ],
      "name": "ReceivedCrossDepositProvision",
      "type": "event"
    },
    {
      "anonymous": false,
      "inputs": [
        {
          "indexed": true,
          "internalType": "bytes32",
          "name": "role",
          "type": "bytes32"
        },
        {
          "indexed": true,
          "internalType": "bytes32",
          "name": "previousAdminRole",
          "type": "bytes32"
        },
        {
          "indexed": true,
          "internalType": "bytes32",
          "name": "newAdminRole",
          "type": "bytes32"
        }
      ],
      "name": "RoleAdminChanged",
      "type": "event"
    },
    {
      "anonymous": false,
      "inputs": [
        {
          "indexed": true,
          "internalType": "bytes32",
          "name": "role",
          "type": "bytes32"
        },
        {
          "indexed": true,
          "internalType": "address",
          "name": "account",
          "type": "address"
        },
        {
          "indexed": true,
          "internalType": "address",
          "name": "sender",
          "type": "address"
        }
      ],
      "name": "RoleGranted",
      "type": "event"
    },
    {
      "anonymous": false,
      "inputs": [
        {
          "indexed": true,
          "internalType": "bytes32",
          "name": "role",
          "type": "bytes32"
        },
        {
          "indexed": true,
          "internalType": "address",
          "name": "account",
          "type": "address"
        },
        {
          "indexed": true,
          "internalType": "address",
          "name": "sender",
          "type": "address"
        }
      ],
      "name": "RoleRevoked",
      "type": "event"
    },
    {
      "anonymous": false,
      "inputs": [
        {
          "indexed": false,
          "internalType": "uint256",
          "name": "chainId",
          "type": "uint256"
        },
        {
          "indexed": false,
          "internalType": "address",
          "name": "gateway",
          "type": "address"
        },
        {
          "indexed": false,
          "internalType": "uint256",
          "name": "tokenPoolId",
          "type": "uint256"
        },
        {
          "indexed": false,
          "internalType": "address",
          "name": "gatewayStargateBridge",
          "type": "address"
        }
      ],
      "name": "SetGatewayParams",
      "type": "event"
    },
    {
      "anonymous": false,
      "inputs": [
        {
          "indexed": false,
          "internalType": "uint256",
          "name": "slippage",
          "type": "uint256"
        }
      ],
      "name": "SetStargateSlippage",
      "type": "event"
    },
    {
      "anonymous": false,
      "inputs": [
        {
          "indexed": true,
          "internalType": "uint256",
          "name": "id",
          "type": "uint256"
        },
        {
          "indexed": false,
          "internalType": "uint256",
          "name": "tokenId",
          "type": "uint256"
        },
        {
          "indexed": false,
          "internalType": "uint256",
          "name": "tokenAmount",
          "type": "uint256"
        }
      ],
      "name": "Withdrawn",
      "type": "event"
    },
    {
      "inputs": [],
      "name": "DAI_TOKEN_ID",
      "outputs": [
        {
          "internalType": "int128",
          "name": "",
          "type": "int128"
        }
      ],
      "stateMutability": "view",
      "type": "function"
    },
    {
      "inputs": [],
      "name": "DEFAULT_ADMIN_ROLE",
      "outputs": [
        {
          "internalType": "bytes32",
          "name": "",
          "type": "bytes32"
        }
      ],
      "stateMutability": "view",
      "type": "function"
    },
    {
      "inputs": [],
      "name": "OPERATOR_ROLE",
      "outputs": [
        {
          "internalType": "bytes32",
          "name": "",
          "type": "bytes32"
        }
      ],
      "stateMutability": "view",
      "type": "function"
    },
    {
      "inputs": [],
      "name": "POOL_ASSETS",
      "outputs": [
        {
          "internalType": "uint8",
          "name": "",
          "type": "uint8"
        }
      ],
      "stateMutability": "view",
      "type": "function"
    },
    {
      "inputs": [],
      "name": "SG_SLIPPAGE_DIVIDER",
      "outputs": [
        {
          "internalType": "uint256",
          "name": "",
          "type": "uint256"
        }
      ],
      "stateMutability": "view",
      "type": "function"
    },
    {
      "inputs": [],
      "name": "USDC_TOKEN_ID",
      "outputs": [
        {
          "internalType": "int128",
          "name": "",
          "type": "int128"
        }
      ],
      "stateMutability": "view",
      "type": "function"
    },
    {
      "inputs": [],
      "name": "USDT_TOKEN_ID",
      "outputs": [
        {
          "internalType": "uint128",
          "name": "",
          "type": "uint128"
        }
      ],
      "stateMutability": "view",
      "type": "function"
    },
    {
      "inputs": [],
      "name": "completeCrossDeposit",
      "outputs": [],
      "stateMutability": "payable",
      "type": "function"
    },
    {
      "inputs": [],
      "name": "completeCrossWithdrawal",
      "outputs": [],
      "stateMutability": "payable",
      "type": "function"
    },
    {
      "inputs": [
        {
          "internalType": "uint256",
          "name": "_value",
          "type": "uint256"
        },
        {
          "internalType": "uint8",
          "name": "_decimalsFrom",
          "type": "uint8"
        },
        {
          "internalType": "uint8",
          "name": "_decimalsTo",
          "type": "uint8"
        }
      ],
      "name": "convertDecimals",
      "outputs": [
        {
          "internalType": "uint256",
          "name": "",
          "type": "uint256"
        }
      ],
      "stateMutability": "view",
      "type": "function"
    },
    {
      "inputs": [
        {
          "internalType": "uint256",
          "name": "_value",
          "type": "uint256"
        },
        {
          "internalType": "uint8",
          "name": "_decimalsFrom",
          "type": "uint8"
        },
        {
          "internalType": "uint8",
          "name": "_decimalsTo",
          "type": "uint8"
        }
      ],
      "name": "convertDownDecimals",
      "outputs": [
        {
          "internalType": "uint256",
          "name": "",
          "type": "uint256"
        }
      ],
      "stateMutability": "pure",
      "type": "function"
    },
    {
      "inputs": [
        {
          "internalType": "uint256",
          "name": "_value",
          "type": "uint256"
        },
        {
          "internalType": "uint8",
          "name": "_decimalsFrom",
          "type": "uint8"
        },
        {
          "internalType": "uint8",
          "name": "_decimalsTo",
          "type": "uint8"
        }
      ],
      "name": "convertUpDecimals",
      "outputs": [
        {
          "internalType": "uint256",
          "name": "",
          "type": "uint256"
        }
      ],
      "stateMutability": "pure",
      "type": "function"
    },
    {
      "inputs": [],
      "name": "currentDepositAmount",
      "outputs": [
        {
          "internalType": "uint256",
          "name": "",
          "type": "uint256"
        }
      ],
      "stateMutability": "view",
      "type": "function"
    },
    {
      "inputs": [],
      "name": "currentDepositId",
      "outputs": [
        {
          "internalType": "uint256",
          "name": "",
          "type": "uint256"
        }
      ],
      "stateMutability": "view",
      "type": "function"
    },
    {
      "inputs": [],
      "name": "currentWithdrawalAmount",
      "outputs": [
        {
          "internalType": "uint256",
          "name": "",
          "type": "uint256"
        }
      ],
      "stateMutability": "view",
      "type": "function"
    },
    {
      "inputs": [],
      "name": "currentWithdrawalId",
      "outputs": [
        {
          "internalType": "uint256",
          "name": "",
          "type": "uint256"
        }
      ],
      "stateMutability": "view",
      "type": "function"
    },
    {
      "inputs": [],
      "name": "curveExchange",
      "outputs": [
        {
          "internalType": "contract ICurvePool",
          "name": "",
          "type": "address"
        }
      ],
      "stateMutability": "view",
      "type": "function"
    },
    {
      "inputs": [],
      "name": "delegateCrossDeposit",
      "outputs": [],
      "stateMutability": "nonpayable",
      "type": "function"
    },
    {
      "inputs": [],
      "name": "gatewayAddress",
      "outputs": [
        {
          "internalType": "address",
          "name": "",
          "type": "address"
        }
      ],
      "stateMutability": "view",
      "type": "function"
    },
    {
      "inputs": [],
      "name": "gatewayChainId",
      "outputs": [
        {
          "internalType": "uint16",
          "name": "",
          "type": "uint16"
        }
      ],
      "stateMutability": "view",
      "type": "function"
    },
    {
      "inputs": [],
      "name": "gatewayStargateBridge",
      "outputs": [
        {
          "internalType": "address",
          "name": "",
          "type": "address"
        }
      ],
      "stateMutability": "view",
      "type": "function"
    },
    {
      "inputs": [],
      "name": "gatewayTokenPoolId",
      "outputs": [
        {
          "internalType": "uint256",
          "name": "",
          "type": "uint256"
        }
      ],
      "stateMutability": "view",
      "type": "function"
    },
    {
      "inputs": [
        {
          "internalType": "bytes32",
          "name": "role",
          "type": "bytes32"
        }
      ],
      "name": "getRoleAdmin",
      "outputs": [
        {
          "internalType": "bytes32",
          "name": "",
          "type": "bytes32"
        }
      ],
      "stateMutability": "view",
      "type": "function"
    },
    {
      "inputs": [
        {
          "internalType": "bytes32",
          "name": "role",
          "type": "bytes32"
        },
        {
          "internalType": "address",
          "name": "account",
          "type": "address"
        }
      ],
      "name": "grantRole",
      "outputs": [],
      "stateMutability": "nonpayable",
      "type": "function"
    },
    {
      "inputs": [
        {
          "internalType": "bytes32",
          "name": "role",
          "type": "bytes32"
        },
        {
          "internalType": "address",
          "name": "account",
          "type": "address"
        }
      ],
      "name": "hasRole",
      "outputs": [
        {
          "internalType": "bool",
          "name": "",
          "type": "bool"
        }
      ],
      "stateMutability": "view",
      "type": "function"
    },
    {
      "inputs": [],
      "name": "layerZeroEndpoint",
      "outputs": [
        {
          "internalType": "contract ILayerZeroEndpoint",
          "name": "",
          "type": "address"
        }
      ],
      "stateMutability": "view",
      "type": "function"
    },
    {
      "inputs": [
        {
          "internalType": "uint16",
          "name": "_srcChainId",
          "type": "uint16"
        },
        {
          "internalType": "bytes",
          "name": "_srcAddress",
          "type": "bytes"
        },
        {
          "internalType": "uint64",
          "name": "_nonce",
          "type": "uint64"
        },
        {
          "internalType": "bytes",
          "name": "_payload",
          "type": "bytes"
        }
      ],
      "name": "lzReceive",
      "outputs": [],
      "stateMutability": "nonpayable",
      "type": "function"
    },
    {
      "inputs": [
        {
          "internalType": "bytes32",
          "name": "role",
          "type": "bytes32"
        },
        {
          "internalType": "address",
          "name": "account",
          "type": "address"
        }
      ],
      "name": "renounceRole",
      "outputs": [],
      "stateMutability": "nonpayable",
      "type": "function"
    },
    {
      "inputs": [
        {
          "internalType": "bytes32",
          "name": "role",
          "type": "bytes32"
        },
        {
          "internalType": "address",
          "name": "account",
          "type": "address"
        }
      ],
      "name": "revokeRole",
      "outputs": [],
      "stateMutability": "nonpayable",
      "type": "function"
    },
    {
      "inputs": [
        {
          "internalType": "uint16",
          "name": "_chainId",
          "type": "uint16"
        },
        {
          "internalType": "address",
          "name": "_address",
          "type": "address"
        },
        {
          "internalType": "uint256",
          "name": "_tokenPoolId",
          "type": "uint256"
        },
        {
          "internalType": "address",
          "name": "_stargateBridge",
          "type": "address"
        }
      ],
      "name": "setGatewayParams",
      "outputs": [],
      "stateMutability": "nonpayable",
      "type": "function"
    },
    {
      "inputs": [
        {
          "internalType": "uint16",
          "name": "_slippage",
          "type": "uint16"
        }
      ],
      "name": "setStargateSlippage",
      "outputs": [],
      "stateMutability": "nonpayable",
      "type": "function"
    },
    {
      "inputs": [
        {
          "internalType": "uint16",
          "name": "_srcChainId",
          "type": "uint16"
        },
        {
          "internalType": "bytes",
          "name": "_srcAddress",
          "type": "bytes"
        },
        {
          "internalType": "uint256",
          "name": "_nonce",
          "type": "uint256"
        },
        {
          "internalType": "address",
          "name": "_token",
          "type": "address"
        },
        {
          "internalType": "uint256",
          "name": "_amountLD",
          "type": "uint256"
        },
        {
          "internalType": "bytes",
          "name": "_payload",
          "type": "bytes"
        }
      ],
      "name": "sgReceive",
      "outputs": [],
      "stateMutability": "nonpayable",
      "type": "function"
    },
    {
      "inputs": [],
      "name": "stargateRouter",
      "outputs": [
        {
          "internalType": "contract IStargateRouter",
          "name": "",
          "type": "address"
        }
      ],
      "stateMutability": "view",
      "type": "function"
    },
    {
      "inputs": [],
      "name": "stargateSlippage",
      "outputs": [
        {
          "internalType": "uint256",
          "name": "",
          "type": "uint256"
        }
      ],
      "stateMutability": "view",
      "type": "function"
    },
    {
      "inputs": [],
      "name": "storedLpShares",
      "outputs": [
        {
          "internalType": "uint256",
          "name": "",
          "type": "uint256"
        }
      ],
      "stateMutability": "view",
      "type": "function"
    },
    {
      "inputs": [
        {
          "internalType": "bytes4",
          "name": "interfaceId",
          "type": "bytes4"
        }
      ],
      "name": "supportsInterface",
      "outputs": [
        {
          "internalType": "bool",
          "name": "",
          "type": "bool"
        }
      ],
      "stateMutability": "view",
      "type": "function"
    },
    {
      "inputs": [],
      "name": "tokenPoolId",
      "outputs": [
        {
          "internalType": "uint256",
          "name": "",
          "type": "uint256"
        }
      ],
      "stateMutability": "view",
      "type": "function"
    },
    {
      "inputs": [
        {
          "internalType": "uint256",
          "name": "",
          "type": "uint256"
        }
      ],
      "name": "tokens",
      "outputs": [
        {
          "internalType": "contract IERC20Metadata",
          "name": "",
          "type": "address"
        }
      ],
      "stateMutability": "view",
      "type": "function"
    },
    {
      "inputs": [],
      "name": "withdrawStuckNative",
      "outputs": [],
      "stateMutability": "nonpayable",
      "type": "function"
    },
    {
      "inputs": [
        {
          "internalType": "contract IERC20Metadata",
          "name": "_token",
          "type": "address"
        }
      ],
      "name": "withdrawStuckToken",
      "outputs": [],
      "stateMutability": "nonpayable",
      "type": "function"
    },
    {
      "inputs": [],
      "name": "zunami",
      "outputs": [
        {
          "internalType": "contract IZunami",
          "name": "",
          "type": "address"
        }
      ],
      "stateMutability": "view",
      "type": "function"
    },
    {
      "stateMutability": "payable",
      "type": "receive"
    }
  ],
  "bytecode": "0x61012060405260146001553480156200001757600080fd5b5060405162003086380380620030868339810160408190526200003a9162000205565b62000047600033620000ae565b620000737f97667070c54ef182b0f5858b034beac1b6f3089aa2d3188bb1e8929f4fa9b92933620000ae565b6200008260028760036200015e565b50610100949094526001600160a01b03928316608052821660c05291811660e0521660a05250620002e4565b620000ba8282620000be565b5050565b6000828152602081815260408083206001600160a01b038516845290915290205460ff16620000ba576000828152602081815260408083206001600160a01b03851684529091529020805460ff191660011790556200011a3390565b6001600160a01b0316816001600160a01b0316837f2f8788117e7eff1d82e926ec794901d17c78024a50270940304540a733656f0d60405160405180910390a45050565b8260038101928215620001a9579160200282015b82811115620001a957825182546001600160a01b0319166001600160a01b0390911617825560209092019160019091019062000172565b50620001b7929150620001bb565b5090565b5b80821115620001b75760008155600101620001bc565b634e487b7160e01b600052604160045260246000fd5b80516001600160a01b03811681146200020057600080fd5b919050565b60008060008060008061010087890312156200022057600080fd5b87601f8801126200023057600080fd5b604051606081016001600160401b0381118282101715620002555762000255620001d2565b60405280606089018a8111156200026b57600080fd5b895b8181101562000290576200028181620001e8565b8352602092830192016200026d565b5051919750909550620002a8905060808801620001e8565b9350620002b860a08801620001e8565b9250620002c860c08801620001e8565b9150620002d860e08801620001e8565b90509295509295509295565b60805160a05160c05160e05161010051612d026200038460003960008181610731015261145d01526000818161032f015281816107ae0152611ce10152600081816105c3015281816113f20152818161141c01526117a001526000818161057a01528181611fca01526120340152600081816104bb015281816109fd01528181610dba015281816111b10152818161120401526116780152612d026000f3fe6080604052600436106102485760003560e01c806391d1485411610139578063c533ec29116100b6578063d547741f1161007a578063d547741f146106d2578063d771c674146106f2578063e9b6d5991461071f578063f4f0c21014610753578063f5b541a614610773578063fff0514e1461079557600080fd5b8063c533ec2914610650578063c6834d1c14610666578063cab65c6f1461067c578063cd75b1f714610692578063d13aaebe146106b257600080fd5b8063a9e56f3c116100fd578063a9e56f3c146105b1578063ab8236f3146105e5578063b314cfd514610605578063b4104d101461061a578063c33041001461063057600080fd5b806391d148541461052b578063952e76bc1461054b5780639de99e4f146105605780639fd8f21614610568578063a217fddf1461059c57600080fd5b80633413f1c1116101c757806375451b4f1161018b57806375451b4f1461046d578063755b75df1461049457806381ff3e8b146104a95780638b851b95146104dd5780638d485a701461050357600080fd5b80633413f1c1146103e157806336568abe146103f75780634f64b2be14610417578063514e0429146104375780636ae649051461044d57600080fd5b806307968db11161020e57806307968db11461031d5780631688fa45146103695780631998f24314610389578063248a9ca3146103915780632f2ff15d146103c157600080fd5b80621d356714610254578062c7d4db1461027657806301784bd3146102a957806301ffc9a7146102cd578063068acf6c146102fd57600080fd5b3661024f57005b600080fd5b34801561026057600080fd5b5061027461026f36600461249c565b6107ab565b005b34801561028257600080fd5b50600a546102919061ffff1681565b60405161ffff90911681526020015b60405180910390f35b3480156102b557600080fd5b506102bf60055481565b6040519081526020016102a0565b3480156102d957600080fd5b506102ed6102e8366004612536565b610be6565b60405190151581526020016102a0565b34801561030957600080fd5b50610274610318366004612578565b610c1d565b34801561032957600080fd5b506103517f000000000000000000000000000000000000000000000000000000000000000081565b6040516001600160a01b0390911681526020016102a0565b34801561037557600080fd5b506102bf6103843660046125a4565b610cb5565b610274610d21565b34801561039d57600080fd5b506102bf6103ac3660046125e6565b60009081526020819052604090206001015490565b3480156103cd57600080fd5b506102746103dc3660046125ff565b610f39565b3480156103ed57600080fd5b506102bf60015481565b34801561040357600080fd5b506102746104123660046125ff565b610f5f565b34801561042357600080fd5b506103516104323660046125e6565b610fdd565b34801561044357600080fd5b506102bf60085481565b34801561045957600080fd5b506102bf6104683660046125a4565b610ffd565b34801561047957600080fd5b50610482600381565b60405160ff90911681526020016102a0565b3480156104a057600080fd5b5061027461103e565b3480156104b557600080fd5b506103517f000000000000000000000000000000000000000000000000000000000000000081565b3480156104e957600080fd5b50600a54610351906201000090046001600160a01b031681565b34801561050f57600080fd5b50610518600181565b604051600f9190910b81526020016102a0565b34801561053757600080fd5b506102ed6105463660046125ff565b6112b7565b34801561055757600080fd5b50610518600081565b6102746112e0565b34801561057457600080fd5b506103517f000000000000000000000000000000000000000000000000000000000000000081565b3480156105a857600080fd5b506102bf600081565b3480156105bd57600080fd5b506103517f000000000000000000000000000000000000000000000000000000000000000081565b3480156105f157600080fd5b506102746106003660046126d2565b61179d565b34801561061157600080fd5b506102746119cb565b34801561062657600080fd5b506102bf60065481565b34801561063c57600080fd5b506102bf61064b3660046125a4565b611a0b565b34801561065c57600080fd5b506102bf60095481565b34801561067257600080fd5b506102bf60075481565b34801561068857600080fd5b506102bf61271081565b34801561069e57600080fd5b506102746106ad36600461276d565b611a6d565b3480156106be57600080fd5b506102746106cd366004612788565b611b1b565b3480156106de57600080fd5b506102746106ed3660046125ff565b611bc0565b3480156106fe57600080fd5b50610707600281565b6040516001600160801b0390911681526020016102a0565b34801561072b57600080fd5b506102bf7f000000000000000000000000000000000000000000000000000000000000000081565b34801561075f57600080fd5b50600c54610351906001600160a01b031681565b34801561077f57600080fd5b506102bf600080516020612cad83398151915281565b3480156107a157600080fd5b506102bf600b5481565b337f00000000000000000000000000000000000000000000000000000000000000006001600160a01b03161461084e5760405162461bcd60e51b815260206004820152603760248201527f466f727761726465723a206f6e6c79207a65726f206c6179657220656e64706f60448201527f696e742063616e2063616c6c206c7a526563656976652100000000000000000060648201526084015b60405180910390fd5b600a5461ffff8781169116146108a65760405162461bcd60e51b815260206004820181905260248201527f466f727761726465723a2077726f6e6720736f7572636520636861696e2069646044820152606401610845565b600a546040516108c8916201000090046001600160a01b0316906020016127d9565b6040516020818303038152906040528051906020012085856040516108ee9291906127f6565b6040518091039020146109435760405162461bcd60e51b815260206004820152601f60248201527f466f727761726465723a2077726f6e6720736f757263652061646472657373006044820152606401610845565b600080808061095485870187612806565b9296509094509250905060001960ff851601610aa45760085415801561097a5750600954155b6109d55760405162461bcd60e51b815260206004820152602660248201527f466f727761726465723a2070726576696f7573207769746864726177616c20656044820152651e1a5cdd195960d21b6064820152608401610845565b600883905560098290556109e761241e565b60405162955d4360e71b81526001600160a01b037f00000000000000000000000000000000000000000000000000000000000000001690634aaea18090610a349086908590600401612868565b600060405180830381600087803b158015610a4e57600080fd5b505af1158015610a62573d6000803e3d6000fd5b505050506008547fb044668583d811edbcfe183ec48395b7910a50f3d531f3f1301233706acd64f484604051610a9a91815260200190565b60405180910390a2505b60ff8416610bda57600654158015610abc5750600754155b610b145760405162461bcd60e51b815260206004820152602360248201527f466f727761726465723a2070726576696f7573206465706f73697420657869736044820152621d195960ea1b6064820152608401610845565b6006839055610b9782826002800160009054906101000a90046001600160a01b03166001600160a01b031663313ce5676040518163ffffffff1660e01b8152600401602060405180830381865afa158015610b73573d6000803e3d6000fd5b505050506040513d601f19601f820116820180604052508101906104689190612892565b60078190556040805160028152602081019290925284917f25990e0e5bb65a961ebec1a35e6891c5c5f94aff0a997150df43a158b8cad9b9910160405180910390a25b50505050505050505050565b60006001600160e01b03198216637965db0b60e01b1480610c1757506301ffc9a760e01b6001600160e01b03198316145b92915050565b6000610c298133611be6565b6040516370a0823160e01b81523060048201526000906001600160a01b038416906370a0823190602401602060405180830381865afa158015610c70573d6000803e3d6000fd5b505050506040513d601f19601f82011682018060405250810190610c9491906128af565b90508015610cb057610cb06001600160a01b0384163383611c4a565b505050565b60008160ff168360ff161115610cf85760405162461bcd60e51b8152602060048201526008602482015267424144444543494d60c01b6044820152606401610845565b610d0283836128de565b610d0d90600a6129e5565b610d1790856129f4565b90505b9392505050565b600080516020612cad833981519152610d3a8133611be6565b600654600003610d965760405162461bcd60e51b815260206004820152602160248201527f466f727761726465723a206465706f736974206e6f742070726f63657373696e6044820152606760f81b6064820152608401610845565b6005546040516370a0823160e01b8152306004820152600091906001600160a01b037f000000000000000000000000000000000000000000000000000000000000000016906370a0823190602401602060405180830381865afa158015610e01573d6000803e3d6000fd5b505050506040513d601f19601f82011682018060405250810190610e2591906128af565b610e2f9190612a13565b905060008111610e975760405162461bcd60e51b815260206004820152602d60248201527f466f727761726465723a206465706f736974207761736e277420636f6d706c6560448201526c746564206174205a756e616d6960981b6064820152608401610845565b8060056000828254610ea99190612a2a565b9091555060009050806006546040805160ff9093166020840152820152606081018390526012608082015260a0016040516020818303038152906040529050610ef48161c350611cad565b6006546040518381527f06da3309189fa49284f335d2c2bcb4cb0b8ad2a59ad92a9bdebeeb8f1ceba5119060200160405180910390a250506000600681905560075550565b600082815260208190526040902060010154610f558133611be6565b610cb08383611d93565b6001600160a01b0381163314610fcf5760405162461bcd60e51b815260206004820152602f60248201527f416363657373436f6e74726f6c3a2063616e206f6e6c792072656e6f756e636560448201526e103937b632b9903337b91039b2b63360891b6064820152608401610845565b610fd98282611e17565b5050565b60028160038110610fed57600080fd5b01546001600160a01b0316905081565b60008160ff168360ff1603611013575082610d1a565b8160ff168360ff1611156110335761102c848484611a0b565b9050610d1a565b610d17848484610cb5565b600080516020612cad8339815191526110578133611be6565b60065415801590611069575060075415155b6110c15760405162461bcd60e51b815260206004820152602360248201527f466f727761726465723a206465706f736974207761736e277420696e697469616044820152621d195960ea1b6064820152608401610845565b600060028001546040516370a0823160e01b81523060048201526001600160a01b03909116906370a0823190602401602060405180830381865afa15801561110d573d6000803e3d6000fd5b505050506040513d601f19601f8201168201806040525081019061113191906128af565b90506127106001546127106111469190612a13565b60075461115391906129f4565b61115d9190612a42565b8110156111ac5760405162461bcd60e51b815260206004820152601f60248201527f466f727761726465723a206e6f7420656e6f7567682070726f766973696f6e006044820152606401610845565b6111e77f0000000000000000000000000000000000000000000000000000000000000000826002805b01546001600160a01b03169190611e7c565b6111ef61241e565b60408082018390525163e287950560e01b81527f00000000000000000000000000000000000000000000000000000000000000006001600160a01b03169063e287950590611241908490600401612a64565b600060405180830381600087803b15801561125b57600080fd5b505af115801561126f573d6000803e3d6000fd5b50506006546040805160028152602081018790529193507f3f4eb095aadf98bfed0e13af381b2a72a3e0883b728d662a8b56bc410f2c170192500160405180910390a2505050565b6000918252602082815260408084206001600160a01b0393909316845291905290205460ff1690565b600080516020612cad8339815191526112f98133611be6565b6008541580159061130b575060095415155b6113675760405162461bcd60e51b815260206004820152602760248201527f466f727761726465723a207769746864726177616c206973206e6f742070726f60448201526663657373696e6760c81b6064820152608401610845565b6113716000611f34565b61137b6001611f34565b600060028001546040516370a0823160e01b81523060048201526001600160a01b03909116906370a0823190602401602060405180830381865afa1580156113c7573d6000803e3d6000fd5b505050506040513d601f19601f820116820180604052508101906113eb91906128af565b905061141a7f0000000000000000000000000000000000000000000000000000000000000000826002806111d5565b7f00000000000000000000000000000000000000000000000000000000000000006001600160a01b0316639fbf10fc47600a60009054906101000a900461ffff167f0000000000000000000000000000000000000000000000000000000000000000600b5430876127106001546127106114949190612a13565b61149e908b6129f4565b6114a89190612a42565b604051806060016040528061c35081526020016000815260200160405180604001604052806002815260200161060f60f31b815250815250600a60029054906101000a90046001600160a01b031660405160200161150691906127d9565b60408051601f19818403018152828252600854602084015291016040516020818303038152906040526040518b63ffffffff1660e01b815260040161155399989796959493929190612aca565b6000604051808303818588803b15801561156c57600080fd5b505af1158015611580573d6000803e3d6000fd5b506000935060019250611591915050565b600854600480546040805163313ce56760e01b8152905187936001600160a01b039093169263313ce567928082019260209290918290030181865afa1580156115de573d6000803e3d6000fd5b505050506040513d601f19601f820116820180604052508101906116029190612892565b6040805160ff9586166020820152908101939093526060830191909152909116608082015260a00160405160208183030381529060405290506116478161c350611cad565b6009546005600082825461165b9190612a13565b90915550506005546040516370a0823160e01b81523060048201527f00000000000000000000000000000000000000000000000000000000000000006001600160a01b0316906370a0823190602401602060405180830381865afa1580156116c7573d6000803e3d6000fd5b505050506040513d601f19601f820116820180604052508101906116eb91906128af565b146117515760405162461bcd60e51b815260206004820152603060248201527f466f727761726465723a207769746864726177616c207761736e277420636f6d60448201526f706c6574656420696e205a756e616d6960801b6064820152608401610845565b6008546040805160028152602081018590527fabd2ab552bc04cdbfa4a54107fa44ac8c9cb06f6d21da11933ac05a653be19e9910160405180910390a250506000600881905560095550565b337f00000000000000000000000000000000000000000000000000000000000000006001600160a01b0316146118315760405162461bcd60e51b815260206004820152603360248201527f466f727761726465723a206f6e6c7920737461726761746520726f757465722060448201527263616e2063616c6c207367526563656976652160681b6064820152608401610845565b600a5461ffff8781169116146118895760405162461bcd60e51b815260206004820181905260248201527f466f727761726465723a2077726f6e6720736f7572636520636861696e2069646044820152606401610845565b600c546040516118a5916001600160a01b0316906020016127d9565b604051602081830303815290604052805190602001208580519060200120146119105760405162461bcd60e51b815260206004820152601f60248201527f466f727761726465723a2077726f6e6720736f757263652061646472657373006044820152606401610845565b6004546001600160a01b0384811691161461196d5760405162461bcd60e51b815260206004820152601e60248201527f466f727761726465723a2077726f6e6720746f6b656e206164647265737300006044820152606401610845565b60008180602001905181019061198391906128af565b60408051600281526020810186905291925082917fd916adc2e0422500745daeb13f52719ed4bd93f62ba428d527cb218fb2163603910160405180910390a250505050505050565b60006119d78133611be6565b478015610fd957604051339082156108fc029083906000818181858888f19350505050158015610cb0573d6000803e3d6000fd5b60008160ff168360ff161015611a4e5760405162461bcd60e51b8152602060048201526008602482015267424144444543494d60c01b6044820152606401610845565b611a5882846128de565b611a6390600a6129e5565b610d179085612a42565b6000611a798133611be6565b6127108261ffff161115611ada5760405162461bcd60e51b815260206004820152602260248201527f466f727761726465723a2077726f6e6720737461726761746520736c69707061604482015261676560f01b6064820152608401610845565b61ffff821660018190556040519081527fb5cd78aab69202b3af2c4e5171dc7dbb7dd29b301421a6cb87458308944a3ae89060200160405180910390a15050565b6000611b278133611be6565b600a80546001600160a01b038681166201000081026001600160b01b031990931661ffff8a1690811793909317909355600b869055600c80549186166001600160a01b031990921682179055604080519283526020830193909352818301869052606082015290517fbeda3b5e340d066b2e1005c4225c78b019e4a7571b16cabc208c30352b99d7719181900360800190a15050505050565b600082815260208190526040902060010154611bdc8133611be6565b610cb08383611e17565b611bf082826112b7565b610fd957611c08816001600160a01b0316601461209c565b611c1383602061209c565b604051602001611c24929190612b68565b60408051601f198184030181529082905262461bcd60e51b825261084591600401612bdd565b6040516001600160a01b038316602482015260448101829052610cb090849063a9059cbb60e01b906064015b60408051601f198184030181529190526020810180516001600160e01b03166001600160e01b031990931692909217909152612238565b60408051600160f01b602082015260228082018490528251808303909101815260428201909252600a546001600160a01b037f000000000000000000000000000000000000000000000000000000000000000081169263c580310092479261ffff821692611d2792620100009004909116906062016127d9565b60405160208183030381529060405287306000886040518863ffffffff1660e01b8152600401611d5c96959493929190612bf0565b6000604051808303818588803b158015611d7557600080fd5b505af1158015611d89573d6000803e3d6000fd5b5050505050505050565b611d9d82826112b7565b610fd9576000828152602081815260408083206001600160a01b03851684529091529020805460ff19166001179055611dd33390565b6001600160a01b0316816001600160a01b0316837f2f8788117e7eff1d82e926ec794901d17c78024a50270940304540a733656f0d60405160405180910390a45050565b611e2182826112b7565b15610fd9576000828152602081815260408083206001600160a01b0385168085529252808320805460ff1916905551339285917ff6391f5c32d9c69d2a47ea670b442974b53935d1edc7fd64eb21e047a839171b9190a45050565b604051636eb1769f60e11b81523060048201526001600160a01b038381166024830152600091839186169063dd62ed3e90604401602060405180830381865afa158015611ecd573d6000803e3d6000fd5b505050506040513d601f19601f82011682018060405250810190611ef191906128af565b611efb9190612a2a565b6040516001600160a01b038516602482015260448101829052909150611f2e90859063095ea7b360e01b90606401611c76565b50505050565b60006002826001600160801b031660038110611f5257611f5261287c565b01546040516370a0823160e01b81523060048201526001600160a01b03909116906370a0823190602401602060405180830381865afa158015611f99573d6000803e3d6000fd5b505050506040513d601f19601f82011682018060405250810190611fbd91906128af565b90508015610fd9576120067f0000000000000000000000000000000000000000000000000000000000000000826002856001600160801b0316600381106111d5576111d561287c565b604051630f7c084960e21b8152600f83900b60048201526002602482015260448101829052600060648201527f00000000000000000000000000000000000000000000000000000000000000006001600160a01b031690633df0212490608401600060405180830381600087803b15801561208057600080fd5b505af1158015612094573d6000803e3d6000fd5b505050505050565b606060006120ab8360026129f4565b6120b6906002612a2a565b67ffffffffffffffff8111156120ce576120ce61262f565b6040519080825280601f01601f1916602001820160405280156120f8576020820181803683370190505b509050600360fc1b816000815181106121135761211361287c565b60200101906001600160f81b031916908160001a905350600f60fb1b816001815181106121425761214261287c565b60200101906001600160f81b031916908160001a90535060006121668460026129f4565b612171906001612a2a565b90505b60018111156121e9576f181899199a1a9b1b9c1cb0b131b232b360811b85600f16601081106121a5576121a561287c565b1a60f81b8282815181106121bb576121bb61287c565b60200101906001600160f81b031916908160001a90535060049490941c936121e281612c57565b9050612174565b508315610d1a5760405162461bcd60e51b815260206004820181905260248201527f537472696e67733a20686578206c656e67746820696e73756666696369656e746044820152606401610845565b600061228d826040518060400160405280602081526020017f5361666545524332303a206c6f772d6c6576656c2063616c6c206661696c6564815250856001600160a01b031661230a9092919063ffffffff16565b805190915015610cb057808060200190518101906122ab9190612c6e565b610cb05760405162461bcd60e51b815260206004820152602a60248201527f5361666545524332303a204552433230206f7065726174696f6e20646964206e6044820152691bdd081cdd58d8d9595960b21b6064820152608401610845565b6060610d178484600085856001600160a01b0385163b61236c5760405162461bcd60e51b815260206004820152601d60248201527f416464726573733a2063616c6c20746f206e6f6e2d636f6e74726163740000006044820152606401610845565b600080866001600160a01b031685876040516123889190612c90565b60006040518083038185875af1925050503d80600081146123c5576040519150601f19603f3d011682016040523d82523d6000602084013e6123ca565b606091505b50915091506123da8282866123e5565b979650505050505050565b606083156123f4575081610d1a565b8251156124045782518084602001fd5b8160405162461bcd60e51b81526004016108459190612bdd565b60405180606001604052806003906020820280368337509192915050565b803561ffff8116811461244e57600080fd5b919050565b60008083601f84011261246557600080fd5b50813567ffffffffffffffff81111561247d57600080fd5b60208301915083602082850101111561249557600080fd5b9250929050565b600080600080600080608087890312156124b557600080fd5b6124be8761243c565b9550602087013567ffffffffffffffff808211156124db57600080fd5b6124e78a838b01612453565b909750955060408901359150808216821461250157600080fd5b9093506060880135908082111561251757600080fd5b5061252489828a01612453565b979a9699509497509295939492505050565b60006020828403121561254857600080fd5b81356001600160e01b031981168114610d1a57600080fd5b6001600160a01b038116811461257557600080fd5b50565b60006020828403121561258a57600080fd5b8135610d1a81612560565b60ff8116811461257557600080fd5b6000806000606084860312156125b957600080fd5b8335925060208401356125cb81612595565b915060408401356125db81612595565b809150509250925092565b6000602082840312156125f857600080fd5b5035919050565b6000806040838503121561261257600080fd5b82359150602083013561262481612560565b809150509250929050565b634e487b7160e01b600052604160045260246000fd5b600082601f83011261265657600080fd5b813567ffffffffffffffff808211156126715761267161262f565b604051601f8301601f19908116603f011681019082821181831017156126995761269961262f565b816040528381528660208588010111156126b257600080fd5b836020870160208301376000602085830101528094505050505092915050565b60008060008060008060c087890312156126eb57600080fd5b6126f48761243c565b9550602087013567ffffffffffffffff8082111561271157600080fd5b61271d8a838b01612645565b9650604089013595506060890135915061273682612560565b9093506080880135925060a0880135908082111561275357600080fd5b5061276089828a01612645565b9150509295509295509295565b60006020828403121561277f57600080fd5b610d1a8261243c565b6000806000806080858703121561279e57600080fd5b6127a78561243c565b935060208501356127b781612560565b92506040850135915060608501356127ce81612560565b939692955090935050565b60609190911b6bffffffffffffffffffffffff1916815260140190565b8183823760009101908152919050565b6000806000806080858703121561281c57600080fd5b843561282781612595565b9350602085013592506040850135915060608501356127ce81612595565b8060005b6003811015611f2e578151845260209384019390910190600101612849565b82815260808101610d1a6020830184612845565b634e487b7160e01b600052603260045260246000fd5b6000602082840312156128a457600080fd5b8151610d1a81612595565b6000602082840312156128c157600080fd5b5051919050565b634e487b7160e01b600052601160045260246000fd5b600060ff821660ff8416808210156128f8576128f86128c8565b90039392505050565b600181815b8085111561293c578160001904821115612922576129226128c8565b8085161561292f57918102915b93841c9390800290612906565b509250929050565b60008261295357506001610c17565b8161296057506000610c17565b816001811461297657600281146129805761299c565b6001915050610c17565b60ff841115612991576129916128c8565b50506001821b610c17565b5060208310610133831016604e8410600b84101617156129bf575081810a610c17565b6129c98383612901565b80600019048211156129dd576129dd6128c8565b029392505050565b6000610d1a60ff841683612944565b6000816000190483118215151615612a0e57612a0e6128c8565b500290565b600082821015612a2557612a256128c8565b500390565b60008219821115612a3d57612a3d6128c8565b500190565b600082612a5f57634e487b7160e01b600052601260045260246000fd5b500490565b60608101610c178284612845565b60005b83811015612a8d578181015183820152602001612a75565b83811115611f2e5750506000910152565b60008151808452612ab6816020860160208601612a72565b601f01601f19169290920160200192915050565b600061012061ffff8c1683528a602084015289604084015260018060a01b03891660608401528760808401528660a08401528060c084015285518184015250602085015161014083015260408501516060610160840152612b2f610180840182612a9e565b905082810360e0840152612b438186612a9e565b9050828103610100840152612b588185612a9e565b9c9b505050505050505050505050565b7f416363657373436f6e74726f6c3a206163636f756e7420000000000000000000815260008351612ba0816017850160208801612a72565b7001034b99036b4b9b9b4b733903937b6329607d1b6017918401918201528351612bd1816028840160208801612a72565b01602801949350505050565b602081526000610d1a6020830184612a9e565b61ffff8716815260c060208201526000612c0d60c0830188612a9e565b8281036040840152612c1f8188612a9e565b6001600160a01b0387811660608601528616608085015283810360a08501529050612c4a8185612a9e565b9998505050505050505050565b600081612c6657612c666128c8565b506000190190565b600060208284031215612c8057600080fd5b81518015158114610d1a57600080fd5b60008251612ca2818460208701612a72565b919091019291505056fe97667070c54ef182b0f5858b034beac1b6f3089aa2d3188bb1e8929f4fa9b929a26469706673582212206deb8b30efca5aba6df84d028b10f41c992f3210c1c2bc242242d119c56f0c8864736f6c634300080f0033",
  "linkReferences": {},
  "deployedLinkReferences": {}
}