{
  "_format": "hh-sol-artifact-1",
  "contractName": "ZunamiForwarder",
  "sourceName": "contracts/crosschain/ZunamiForwarder.sol",
  "abi": [
    {
      "inputs": [
        {
          "internalType": "contract IERC20Metadata[3]",
          "name": "_tokens",
          "type": "address[3]"
        },
        {
          "internalType": "uint256",
          "name": "_tokenPoolId",
          "type": "uint256"
        },
        {
          "internalType": "address",
          "name": "_zunami",
          "type": "address"
        },
        {
          "internalType": "address",
          "name": "_curveExchange",
          "type": "address"
        },
        {
          "internalType": "address",
          "name": "_stargateRouter",
          "type": "address"
        },
        {
          "internalType": "address",
          "name": "_layerZeroEndpoint",
          "type": "address"
        }
      ],
      "stateMutability": "nonpayable",
      "type": "constructor"
    },
    {
      "anonymous": false,
      "inputs": [
        {
          "indexed": true,
          "internalType": "uint256",
          "name": "id",
          "type": "uint256"
        },
        {
          "indexed": false,
          "internalType": "uint256",
          "name": "tokenId",
          "type": "uint256"
        },
        {
          "indexed": false,
          "internalType": "uint256",
          "name": "tokenAmount",
          "type": "uint256"
        }
      ],
      "name": "CreatedPendingDeposit",
      "type": "event"
    },
    {
      "anonymous": false,
      "inputs": [
        {
          "indexed": true,
          "internalType": "uint256",
          "name": "id",
          "type": "uint256"
        },
        {
          "indexed": false,
          "internalType": "uint256",
          "name": "lpShares",
          "type": "uint256"
        }
      ],
      "name": "CreatedPendingWithdrawal",
      "type": "event"
    },
    {
      "anonymous": false,
      "inputs": [
        {
          "indexed": true,
          "internalType": "uint256",
          "name": "id",
          "type": "uint256"
        },
        {
          "indexed": false,
          "internalType": "uint256",
          "name": "lpShares",
          "type": "uint256"
        }
      ],
      "name": "Deposited",
      "type": "event"
    },
    {
      "anonymous": false,
      "inputs": [
        {
          "indexed": true,
          "internalType": "uint256",
          "name": "id",
          "type": "uint256"
        },
        {
          "indexed": false,
          "internalType": "uint256",
          "name": "tokenId",
          "type": "uint256"
        },
        {
          "indexed": false,
          "internalType": "uint256",
          "name": "tokenAmount",
          "type": "uint256"
        }
      ],
      "name": "InitiatedCrossDeposit",
      "type": "event"
    },
    {
      "anonymous": false,
      "inputs": [
        {
          "indexed": false,
          "internalType": "uint256",
          "name": "tokenId",
          "type": "uint256"
        },
        {
          "indexed": false,
          "internalType": "uint256",
          "name": "tokenAmount",
          "type": "uint256"
        }
      ],
      "name": "ReceivedCrossDepositProvision",
      "type": "event"
    },
    {
      "anonymous": false,
      "inputs": [
        {
          "indexed": true,
          "internalType": "bytes32",
          "name": "role",
          "type": "bytes32"
        },
        {
          "indexed": true,
          "internalType": "bytes32",
          "name": "previousAdminRole",
          "type": "bytes32"
        },
        {
          "indexed": true,
          "internalType": "bytes32",
          "name": "newAdminRole",
          "type": "bytes32"
        }
      ],
      "name": "RoleAdminChanged",
      "type": "event"
    },
    {
      "anonymous": false,
      "inputs": [
        {
          "indexed": true,
          "internalType": "bytes32",
          "name": "role",
          "type": "bytes32"
        },
        {
          "indexed": true,
          "internalType": "address",
          "name": "account",
          "type": "address"
        },
        {
          "indexed": true,
          "internalType": "address",
          "name": "sender",
          "type": "address"
        }
      ],
      "name": "RoleGranted",
      "type": "event"
    },
    {
      "anonymous": false,
      "inputs": [
        {
          "indexed": true,
          "internalType": "bytes32",
          "name": "role",
          "type": "bytes32"
        },
        {
          "indexed": true,
          "internalType": "address",
          "name": "account",
          "type": "address"
        },
        {
          "indexed": true,
          "internalType": "address",
          "name": "sender",
          "type": "address"
        }
      ],
      "name": "RoleRevoked",
      "type": "event"
    },
    {
      "anonymous": false,
      "inputs": [
        {
          "indexed": false,
          "internalType": "uint256",
          "name": "chainId",
          "type": "uint256"
        },
        {
          "indexed": false,
          "internalType": "address",
          "name": "gateway",
          "type": "address"
        },
        {
          "indexed": false,
          "internalType": "uint256",
          "name": "tokenPoolId",
          "type": "uint256"
        }
      ],
      "name": "SetGatewayParams",
      "type": "event"
    },
    {
      "anonymous": false,
      "inputs": [
        {
          "indexed": false,
          "internalType": "uint256",
          "name": "crossDepositGas",
          "type": "uint256"
        },
        {
          "indexed": false,
          "internalType": "uint256",
          "name": "crossWithdrawalGas",
          "type": "uint256"
        },
        {
          "indexed": false,
          "internalType": "uint256",
          "name": "crossProvisionGas",
          "type": "uint256"
        }
      ],
      "name": "SetLayerZeroMessagesGas",
      "type": "event"
    },
    {
      "anonymous": false,
      "inputs": [
        {
          "indexed": false,
          "internalType": "uint256",
          "name": "slippage",
          "type": "uint256"
        }
      ],
      "name": "SetStargateSlippage",
      "type": "event"
    },
    {
      "anonymous": false,
      "inputs": [
        {
          "indexed": false,
          "internalType": "uint16",
          "name": "_srcChainId",
          "type": "uint16"
        },
        {
          "indexed": false,
          "internalType": "bytes",
          "name": "_srcAddress",
          "type": "bytes"
        }
      ],
      "name": "SetTrustedRemote",
      "type": "event"
    },
    {
      "anonymous": false,
      "inputs": [
        {
          "indexed": false,
          "internalType": "address",
          "name": "zrePaymentAddress",
          "type": "address"
        }
      ],
      "name": "SetZrePaymentAddress",
      "type": "event"
    },
    {
      "anonymous": false,
      "inputs": [
        {
          "indexed": true,
          "internalType": "uint256",
          "name": "id",
          "type": "uint256"
        },
        {
          "indexed": false,
          "internalType": "uint256",
          "name": "tokenId",
          "type": "uint256"
        },
        {
          "indexed": false,
          "internalType": "uint256",
          "name": "tokenAmount",
          "type": "uint256"
        }
      ],
      "name": "Withdrawn",
      "type": "event"
    },
    {
      "inputs": [],
      "name": "DAI_TOKEN_ID",
      "outputs": [
        {
          "internalType": "int128",
          "name": "",
          "type": "int128"
        }
      ],
      "stateMutability": "view",
      "type": "function"
    },
    {
      "inputs": [],
      "name": "DEFAULT_ADMIN_ROLE",
      "outputs": [
        {
          "internalType": "bytes32",
          "name": "",
          "type": "bytes32"
        }
      ],
      "stateMutability": "view",
      "type": "function"
    },
    {
      "inputs": [],
      "name": "OPERATOR_ROLE",
      "outputs": [
        {
          "internalType": "bytes32",
          "name": "",
          "type": "bytes32"
        }
      ],
      "stateMutability": "view",
      "type": "function"
    },
    {
      "inputs": [],
      "name": "POOL_ASSETS",
      "outputs": [
        {
          "internalType": "uint8",
          "name": "",
          "type": "uint8"
        }
      ],
      "stateMutability": "view",
      "type": "function"
    },
    {
      "inputs": [],
      "name": "SG_SLIPPAGE_DIVIDER",
      "outputs": [
        {
          "internalType": "uint256",
          "name": "",
          "type": "uint256"
        }
      ],
      "stateMutability": "view",
      "type": "function"
    },
    {
      "inputs": [],
      "name": "USDC_TOKEN_ID",
      "outputs": [
        {
          "internalType": "int128",
          "name": "",
          "type": "int128"
        }
      ],
      "stateMutability": "view",
      "type": "function"
    },
    {
      "inputs": [],
      "name": "USDT_TOKEN_ID",
      "outputs": [
        {
          "internalType": "uint128",
          "name": "",
          "type": "uint128"
        }
      ],
      "stateMutability": "view",
      "type": "function"
    },
    {
      "inputs": [],
      "name": "completeCrossDeposit",
      "outputs": [],
      "stateMutability": "payable",
      "type": "function"
    },
    {
      "inputs": [],
      "name": "completeCrossWithdrawal",
      "outputs": [],
      "stateMutability": "payable",
      "type": "function"
    },
    {
      "inputs": [
        {
          "internalType": "uint256",
          "name": "_value",
          "type": "uint256"
        },
        {
          "internalType": "uint8",
          "name": "_decimalsFrom",
          "type": "uint8"
        },
        {
          "internalType": "uint8",
          "name": "_decimalsTo",
          "type": "uint8"
        }
      ],
      "name": "convertDecimals",
      "outputs": [
        {
          "internalType": "uint256",
          "name": "",
          "type": "uint256"
        }
      ],
      "stateMutability": "view",
      "type": "function"
    },
    {
      "inputs": [
        {
          "internalType": "uint256",
          "name": "_value",
          "type": "uint256"
        },
        {
          "internalType": "uint8",
          "name": "_decimalsFrom",
          "type": "uint8"
        },
        {
          "internalType": "uint8",
          "name": "_decimalsTo",
          "type": "uint8"
        }
      ],
      "name": "convertDownDecimals",
      "outputs": [
        {
          "internalType": "uint256",
          "name": "",
          "type": "uint256"
        }
      ],
      "stateMutability": "pure",
      "type": "function"
    },
    {
      "inputs": [
        {
          "internalType": "uint256",
          "name": "_value",
          "type": "uint256"
        },
        {
          "internalType": "uint8",
          "name": "_decimalsFrom",
          "type": "uint8"
        },
        {
          "internalType": "uint8",
          "name": "_decimalsTo",
          "type": "uint8"
        }
      ],
      "name": "convertUpDecimals",
      "outputs": [
        {
          "internalType": "uint256",
          "name": "",
          "type": "uint256"
        }
      ],
      "stateMutability": "pure",
      "type": "function"
    },
    {
      "inputs": [],
      "name": "crossDepositGas",
      "outputs": [
        {
          "internalType": "uint256",
          "name": "",
          "type": "uint256"
        }
      ],
      "stateMutability": "view",
      "type": "function"
    },
    {
      "inputs": [],
      "name": "crossProvisionGas",
      "outputs": [
        {
          "internalType": "uint256",
          "name": "",
          "type": "uint256"
        }
      ],
      "stateMutability": "view",
      "type": "function"
    },
    {
      "inputs": [],
      "name": "crossWithdrawalGas",
      "outputs": [
        {
          "internalType": "uint256",
          "name": "",
          "type": "uint256"
        }
      ],
      "stateMutability": "view",
      "type": "function"
    },
    {
      "inputs": [],
      "name": "currentDepositAmount",
      "outputs": [
        {
          "internalType": "uint256",
          "name": "",
          "type": "uint256"
        }
      ],
      "stateMutability": "view",
      "type": "function"
    },
    {
      "inputs": [],
      "name": "currentDepositId",
      "outputs": [
        {
          "internalType": "uint256",
          "name": "",
          "type": "uint256"
        }
      ],
      "stateMutability": "view",
      "type": "function"
    },
    {
      "inputs": [],
      "name": "currentWithdrawalAmount",
      "outputs": [
        {
          "internalType": "uint256",
          "name": "",
          "type": "uint256"
        }
      ],
      "stateMutability": "view",
      "type": "function"
    },
    {
      "inputs": [],
      "name": "currentWithdrawalId",
      "outputs": [
        {
          "internalType": "uint256",
          "name": "",
          "type": "uint256"
        }
      ],
      "stateMutability": "view",
      "type": "function"
    },
    {
      "inputs": [],
      "name": "curveExchange",
      "outputs": [
        {
          "internalType": "contract ICurvePool",
          "name": "",
          "type": "address"
        }
      ],
      "stateMutability": "view",
      "type": "function"
    },
    {
      "inputs": [],
      "name": "delegateCrossDeposit",
      "outputs": [],
      "stateMutability": "nonpayable",
      "type": "function"
    },
    {
      "inputs": [
        {
          "internalType": "uint16",
          "name": "_srcChainId",
          "type": "uint16"
        },
        {
          "internalType": "bytes",
          "name": "_srcAddress",
          "type": "bytes"
        }
      ],
      "name": "forceResumeReceive",
      "outputs": [],
      "stateMutability": "nonpayable",
      "type": "function"
    },
    {
      "inputs": [],
      "name": "gatewayAddress",
      "outputs": [
        {
          "internalType": "address",
          "name": "",
          "type": "address"
        }
      ],
      "stateMutability": "view",
      "type": "function"
    },
    {
      "inputs": [],
      "name": "gatewayChainId",
      "outputs": [
        {
          "internalType": "uint16",
          "name": "",
          "type": "uint16"
        }
      ],
      "stateMutability": "view",
      "type": "function"
    },
    {
      "inputs": [],
      "name": "gatewayTokenPoolId",
      "outputs": [
        {
          "internalType": "uint256",
          "name": "",
          "type": "uint256"
        }
      ],
      "stateMutability": "view",
      "type": "function"
    },
    {
      "inputs": [
        {
          "internalType": "uint16",
          "name": "_version",
          "type": "uint16"
        },
        {
          "internalType": "uint16",
          "name": "_chainId",
          "type": "uint16"
        },
        {
          "internalType": "address",
          "name": "",
          "type": "address"
        },
        {
          "internalType": "uint256",
          "name": "_configType",
          "type": "uint256"
        }
      ],
      "name": "getConfig",
      "outputs": [
        {
          "internalType": "bytes",
          "name": "",
          "type": "bytes"
        }
      ],
      "stateMutability": "view",
      "type": "function"
    },
    {
      "inputs": [
        {
          "internalType": "bytes32",
          "name": "role",
          "type": "bytes32"
        }
      ],
      "name": "getRoleAdmin",
      "outputs": [
        {
          "internalType": "bytes32",
          "name": "",
          "type": "bytes32"
        }
      ],
      "stateMutability": "view",
      "type": "function"
    },
    {
      "inputs": [
        {
          "internalType": "bytes32",
          "name": "role",
          "type": "bytes32"
        },
        {
          "internalType": "address",
          "name": "account",
          "type": "address"
        }
      ],
      "name": "grantRole",
      "outputs": [],
      "stateMutability": "nonpayable",
      "type": "function"
    },
    {
      "inputs": [
        {
          "internalType": "bytes32",
          "name": "role",
          "type": "bytes32"
        },
        {
          "internalType": "address",
          "name": "account",
          "type": "address"
        }
      ],
      "name": "hasRole",
      "outputs": [
        {
          "internalType": "bool",
          "name": "",
          "type": "bool"
        }
      ],
      "stateMutability": "view",
      "type": "function"
    },
    {
      "inputs": [
        {
          "internalType": "uint16",
          "name": "_srcChainId",
          "type": "uint16"
        },
        {
          "internalType": "bytes",
          "name": "_srcAddress",
          "type": "bytes"
        }
      ],
      "name": "isTrustedRemote",
      "outputs": [
        {
          "internalType": "bool",
          "name": "",
          "type": "bool"
        }
      ],
      "stateMutability": "view",
      "type": "function"
    },
    {
      "inputs": [],
      "name": "lzEndpoint",
      "outputs": [
        {
          "internalType": "contract ILayerZeroEndpoint",
          "name": "",
          "type": "address"
        }
      ],
      "stateMutability": "view",
      "type": "function"
    },
    {
      "inputs": [
        {
          "internalType": "uint16",
          "name": "_srcChainId",
          "type": "uint16"
        },
        {
          "internalType": "bytes",
          "name": "_srcAddress",
          "type": "bytes"
        },
        {
          "internalType": "uint64",
          "name": "_nonce",
          "type": "uint64"
        },
        {
          "internalType": "bytes",
          "name": "_payload",
          "type": "bytes"
        }
      ],
      "name": "lzReceive",
      "outputs": [],
      "stateMutability": "nonpayable",
      "type": "function"
    },
    {
      "inputs": [
        {
          "internalType": "bytes32",
          "name": "role",
          "type": "bytes32"
        },
        {
          "internalType": "address",
          "name": "account",
          "type": "address"
        }
      ],
      "name": "renounceRole",
      "outputs": [],
      "stateMutability": "nonpayable",
      "type": "function"
    },
    {
      "inputs": [
        {
          "internalType": "bytes32",
          "name": "role",
          "type": "bytes32"
        },
        {
          "internalType": "address",
          "name": "account",
          "type": "address"
        }
      ],
      "name": "revokeRole",
      "outputs": [],
      "stateMutability": "nonpayable",
      "type": "function"
    },
    {
      "inputs": [
        {
          "internalType": "uint16",
          "name": "_version",
          "type": "uint16"
        },
        {
          "internalType": "uint16",
          "name": "_chainId",
          "type": "uint16"
        },
        {
          "internalType": "uint256",
          "name": "_configType",
          "type": "uint256"
        },
        {
          "internalType": "bytes",
          "name": "_config",
          "type": "bytes"
        }
      ],
      "name": "setConfig",
      "outputs": [],
      "stateMutability": "nonpayable",
      "type": "function"
    },
    {
      "inputs": [
        {
          "internalType": "uint16",
          "name": "_chainId",
          "type": "uint16"
        },
        {
          "internalType": "address",
          "name": "_address",
          "type": "address"
        },
        {
          "internalType": "uint256",
          "name": "_tokenPoolId",
          "type": "uint256"
        }
      ],
      "name": "setGatewayParams",
      "outputs": [],
      "stateMutability": "nonpayable",
      "type": "function"
    },
    {
      "inputs": [
        {
          "internalType": "uint256",
          "name": "_crossDepositGas",
          "type": "uint256"
        },
        {
          "internalType": "uint256",
          "name": "_crossWithdrawalGas",
          "type": "uint256"
        },
        {
          "internalType": "uint256",
          "name": "_crossProvisionGas",
          "type": "uint256"
        }
      ],
      "name": "setLayerZeroMessagesGas",
      "outputs": [],
      "stateMutability": "nonpayable",
      "type": "function"
    },
    {
      "inputs": [
        {
          "internalType": "uint16",
          "name": "_version",
          "type": "uint16"
        }
      ],
      "name": "setReceiveVersion",
      "outputs": [],
      "stateMutability": "nonpayable",
      "type": "function"
    },
    {
      "inputs": [
        {
          "internalType": "uint16",
          "name": "_version",
          "type": "uint16"
        }
      ],
      "name": "setSendVersion",
      "outputs": [],
      "stateMutability": "nonpayable",
      "type": "function"
    },
    {
      "inputs": [
        {
          "internalType": "uint16",
          "name": "_slippage",
          "type": "uint16"
        }
      ],
      "name": "setStargateSlippage",
      "outputs": [],
      "stateMutability": "nonpayable",
      "type": "function"
    },
    {
      "inputs": [
        {
          "internalType": "uint16",
          "name": "_srcChainId",
          "type": "uint16"
        },
        {
          "internalType": "bytes",
          "name": "_srcAddress",
          "type": "bytes"
        }
      ],
      "name": "setTrustedRemote",
      "outputs": [],
      "stateMutability": "nonpayable",
      "type": "function"
    },
    {
      "inputs": [
        {
          "internalType": "address",
          "name": "_zrePaymentAddress",
          "type": "address"
        }
      ],
      "name": "setZrePaymentAddress",
      "outputs": [],
      "stateMutability": "nonpayable",
      "type": "function"
    },
    {
      "inputs": [
        {
          "internalType": "uint16",
          "name": "_srcChainId",
          "type": "uint16"
        },
        {
          "internalType": "bytes",
          "name": "_srcAddress",
          "type": "bytes"
        },
        {
          "internalType": "uint256",
          "name": "_nonce",
          "type": "uint256"
        },
        {
          "internalType": "address",
          "name": "_token",
          "type": "address"
        },
        {
          "internalType": "uint256",
          "name": "_amountLD",
          "type": "uint256"
        },
        {
          "internalType": "bytes",
          "name": "_payload",
          "type": "bytes"
        }
      ],
      "name": "sgReceive",
      "outputs": [],
      "stateMutability": "nonpayable",
      "type": "function"
    },
    {
      "inputs": [],
      "name": "stargateRouter",
      "outputs": [
        {
          "internalType": "contract IStargateRouter",
          "name": "",
          "type": "address"
        }
      ],
      "stateMutability": "view",
      "type": "function"
    },
    {
      "inputs": [],
      "name": "stargateSlippage",
      "outputs": [
        {
          "internalType": "uint256",
          "name": "",
          "type": "uint256"
        }
      ],
      "stateMutability": "view",
      "type": "function"
    },
    {
      "inputs": [],
      "name": "storedLpShares",
      "outputs": [
        {
          "internalType": "uint256",
          "name": "",
          "type": "uint256"
        }
      ],
      "stateMutability": "view",
      "type": "function"
    },
    {
      "inputs": [
        {
          "internalType": "bytes4",
          "name": "interfaceId",
          "type": "bytes4"
        }
      ],
      "name": "supportsInterface",
      "outputs": [
        {
          "internalType": "bool",
          "name": "",
          "type": "bool"
        }
      ],
      "stateMutability": "view",
      "type": "function"
    },
    {
      "inputs": [],
      "name": "tokenPoolId",
      "outputs": [
        {
          "internalType": "uint256",
          "name": "",
          "type": "uint256"
        }
      ],
      "stateMutability": "view",
      "type": "function"
    },
    {
      "inputs": [
        {
          "internalType": "uint256",
          "name": "",
          "type": "uint256"
        }
      ],
      "name": "tokens",
      "outputs": [
        {
          "internalType": "contract IERC20Metadata",
          "name": "",
          "type": "address"
        }
      ],
      "stateMutability": "view",
      "type": "function"
    },
    {
      "inputs": [
        {
          "internalType": "uint16",
          "name": "",
          "type": "uint16"
        }
      ],
      "name": "trustedRemoteLookup",
      "outputs": [
        {
          "internalType": "bytes",
          "name": "",
          "type": "bytes"
        }
      ],
      "stateMutability": "view",
      "type": "function"
    },
    {
      "inputs": [],
      "name": "withdrawStuckNative",
      "outputs": [],
      "stateMutability": "nonpayable",
      "type": "function"
    },
    {
      "inputs": [
        {
          "internalType": "contract IERC20Metadata",
          "name": "_token",
          "type": "address"
        }
      ],
      "name": "withdrawStuckToken",
      "outputs": [],
      "stateMutability": "nonpayable",
      "type": "function"
    },
    {
      "inputs": [],
      "name": "zrePaymentAddress",
      "outputs": [
        {
          "internalType": "address",
          "name": "",
          "type": "address"
        }
      ],
      "stateMutability": "view",
      "type": "function"
    },
    {
      "inputs": [],
      "name": "zunami",
      "outputs": [
        {
          "internalType": "contract IZunami",
          "name": "",
          "type": "address"
        }
      ],
      "stateMutability": "view",
      "type": "function"
    },
    {
      "stateMutability": "payable",
      "type": "receive"
    }
  ],
  "bytecode": "0x610120604052600180546001600160a01b0319169055603260035561c350600e819055600f55619c406010553480156200003857600080fd5b5060405162003dd738038062003dd78339810160408190526200005b916200022f565b8062000069600033620000d8565b6001600160a01b0316608052620000a17f97667070c54ef182b0f5858b034beac1b6f3089aa2d3188bb1e8929f4fa9b92933620000d8565b620000b0600487600362000188565b5050610100939093526001600160a01b0391821660a05291811660e0521660c052506200030e565b620000e48282620000e8565b5050565b6000828152602081815260408083206001600160a01b038516845290915290205460ff16620000e4576000828152602081815260408083206001600160a01b03851684529091529020805460ff19166001179055620001443390565b6001600160a01b0316816001600160a01b0316837f2f8788117e7eff1d82e926ec794901d17c78024a50270940304540a733656f0d60405160405180910390a45050565b8260038101928215620001d3579160200282015b82811115620001d357825182546001600160a01b0319166001600160a01b039091161782556020909201916001909101906200019c565b50620001e1929150620001e5565b5090565b5b80821115620001e15760008155600101620001e6565b634e487b7160e01b600052604160045260246000fd5b80516001600160a01b03811681146200022a57600080fd5b919050565b60008060008060008061010087890312156200024a57600080fd5b87601f8801126200025a57600080fd5b604051606081016001600160401b03811182821017156200027f576200027f620001fc565b60405280606089018a8111156200029557600080fd5b895b81811015620002ba57620002ab8162000212565b83526020928301920162000297565b5051919750909550620002d290506080880162000212565b9350620002e260a0880162000212565b9250620002f260c0880162000212565b91506200030260e0880162000212565b90509295509295509295565b60805160a05160c05160e051610100516139ff620003d86000396000818161098f01526118090152600081816107b70152818161179d015281816117c80152611b3d01526000818161076e01528181612926015261299001526000818161068f01528181610ea30152818161155e015281816115b201528181611a15015261216e01526000818161084001528181610a2c01528181610cd901528181610d670152818161121f01528181611e0901528181611fdc0152818161256e015261267201526139ff6000f3fe6080604052600436106103375760003560e01c80638d3f2cb8116101ab578063c3304100116100f7578063d771c67411610095578063eb8d72b71161006f578063eb8d72b7146109b1578063f5b541a6146109d1578063f5ecbdbc146109f3578063fff0514e14610a1357600080fd5b8063d771c6741461093a578063e28586e014610967578063e9b6d5991461097d57600080fd5b8063cab65c6f116100d1578063cab65c6f146108c4578063cbed8b9c146108da578063cd75b1f7146108fa578063d547741f1461091a57600080fd5b8063c330410014610878578063c533ec2914610898578063c6834d1c146108ae57600080fd5b8063a217fddf11610164578063b1c2cd1e1161013e578063b1c2cd1e146107f9578063b314cfd514610819578063b353aaa71461082e578063b4104d101461086257600080fd5b8063a217fddf14610790578063a9e56f3c146107a5578063ab8236f3146107d957600080fd5b80638d3f2cb8146106d75780638d485a70146106f757806391d148541461071f578063952e76bc1461073f5780639de99e4f146107545780639fd8f2161461075c57600080fd5b806335247a231161028557806363aa04a01161022357806375451b4f116101fd57806375451b4f14610641578063755b75df1461066857806381ff3e8b1461067d5780638b851b95146106b157600080fd5b806363aa04a0146105d45780636ae64905146105f45780637533d7881461061457600080fd5b806342d65a8d1161025f57806342d65a8d14610550578063431082ca146105705780634f64b2be14610586578063514e0429146105be57600080fd5b806335247a23146104f057806336568abe146105105780633d8b38f61461053057600080fd5b806310ddb137116102f25780631998f243116102cc5780631998f24314610482578063248a9ca31461048a5780632f2ff15d146104ba5780633413f1c1146104da57600080fd5b806310ddb1371461042c578063151363961461044c5780631688fa451461046257600080fd5b80621d356714610343578062c7d4db1461036557806301784bd31461039857806301ffc9a7146103bc578063068acf6c146103ec57806307e0db171461040c57600080fd5b3661033e57005b600080fd5b34801561034f57600080fd5b5061036361035e366004612dc7565b610a29565b005b34801561037157600080fd5b50600c546103809061ffff1681565b60405161ffff90911681526020015b60405180910390f35b3480156103a457600080fd5b506103ae60075481565b60405190815260200161038f565b3480156103c857600080fd5b506103dc6103d7366004612e61565b610be5565b604051901515815260200161038f565b3480156103f857600080fd5b50610363610407366004612ea3565b610c1c565b34801561041857600080fd5b50610363610427366004612ec0565b610cb4565b34801561043857600080fd5b50610363610447366004612ec0565b610d42565b34801561045857600080fd5b506103ae600e5481565b34801561046e57600080fd5b506103ae61047d366004612eea565b610d9e565b610363610e0a565b34801561049657600080fd5b506103ae6104a5366004612f2c565b60009081526020819052604090206001015490565b3480156104c657600080fd5b506103636104d5366004612f45565b61102a565b3480156104e657600080fd5b506103ae60035481565b3480156104fc57600080fd5b5061036361050b366004612ea3565b611050565b34801561051c57600080fd5b5061036361052b366004612f45565b6110b2565b34801561053c57600080fd5b506103dc61054b366004612f75565b611130565b34801561055c57600080fd5b5061036361056b366004612f75565b6111fc565b34801561057c57600080fd5b506103ae600f5481565b34801561059257600080fd5b506105a66105a1366004612f2c565b611290565b6040516001600160a01b03909116815260200161038f565b3480156105ca57600080fd5b506103ae600a5481565b3480156105e057600080fd5b506103636105ef366004612fc8565b6112b0565b34801561060057600080fd5b506103ae61060f366004612eea565b611313565b34801561062057600080fd5b5061063461062f366004612ec0565b611354565b60405161038f919061304c565b34801561064d57600080fd5b50610656600381565b60405160ff909116815260200161038f565b34801561067457600080fd5b506103636113ee565b34801561068957600080fd5b506105a67f000000000000000000000000000000000000000000000000000000000000000081565b3480156106bd57600080fd5b50600c546105a6906201000090046001600160a01b031681565b3480156106e357600080fd5b506001546105a6906001600160a01b031681565b34801561070357600080fd5b5061070c600181565b604051600f9190910b815260200161038f565b34801561072b57600080fd5b506103dc61073a366004612f45565b611665565b34801561074b57600080fd5b5061070c600081565b61036361168e565b34801561076857600080fd5b506105a67f000000000000000000000000000000000000000000000000000000000000000081565b34801561079c57600080fd5b506103ae600081565b3480156107b157600080fd5b506105a67f000000000000000000000000000000000000000000000000000000000000000081565b3480156107e557600080fd5b506103636107f4366004613124565b611b3a565b34801561080557600080fd5b506103636108143660046131bf565b611cc5565b34801561082557600080fd5b50610363611d44565b34801561083a57600080fd5b506105a67f000000000000000000000000000000000000000000000000000000000000000081565b34801561086e57600080fd5b506103ae60085481565b34801561088457600080fd5b506103ae610893366004612eea565b611d84565b3480156108a457600080fd5b506103ae600b5481565b3480156108ba57600080fd5b506103ae60095481565b3480156108d057600080fd5b506103ae61271081565b3480156108e657600080fd5b506103636108f53660046131fe565b611de6565b34801561090657600080fd5b50610363610915366004612ec0565b611e80565b34801561092657600080fd5b50610363610935366004612f45565b611f27565b34801561094657600080fd5b5061094f600281565b6040516001600160801b03909116815260200161038f565b34801561097357600080fd5b506103ae60105481565b34801561098957600080fd5b506103ae7f000000000000000000000000000000000000000000000000000000000000000081565b3480156109bd57600080fd5b506103636109cc366004612f75565b611f4d565b3480156109dd57600080fd5b506103ae6000805160206139aa83398151915281565b3480156109ff57600080fd5b50610634610a0e36600461326d565b611fab565b348015610a1f57600080fd5b506103ae600d5481565b337f00000000000000000000000000000000000000000000000000000000000000006001600160a01b031614610aa65760405162461bcd60e51b815260206004820152601e60248201527f4c7a4170703a20696e76616c696420656e64706f696e742063616c6c6572000060448201526064015b60405180910390fd5b61ffff861660009081526002602052604081208054610ac4906132ba565b80601f0160208091040260200160405190810160405280929190818152602001828054610af0906132ba565b8015610b3d5780601f10610b1257610100808354040283529160200191610b3d565b820191906000526020600020905b815481529060010190602001808311610b2057829003601f168201915b50505050509050805186869050148015610b73575080516020820120604051610b6990889088906132f4565b6040518091039020145b610bce5760405162461bcd60e51b815260206004820152602660248201527f4c7a4170703a20696e76616c696420736f757263652073656e64696e6720636f6044820152651b9d1c9858dd60d21b6064820152608401610a9d565b610bdc87878787878761205c565b50505050505050565b60006001600160e01b03198216637965db0b60e01b1480610c1657506301ffc9a760e01b6001600160e01b03198316145b92915050565b6000610c28813361235b565b6040516370a0823160e01b81523060048201526000906001600160a01b038416906370a0823190602401602060405180830381865afa158015610c6f573d6000803e3d6000fd5b505050506040513d601f19601f82011682018060405250810190610c939190613304565b90508015610caf57610caf6001600160a01b03841633836123bf565b505050565b6000610cc0813361235b565b6040516307e0db1760e01b815261ffff831660048201527f00000000000000000000000000000000000000000000000000000000000000006001600160a01b0316906307e0db17906024015b600060405180830381600087803b158015610d2657600080fd5b505af1158015610d3a573d6000803e3d6000fd5b505050505050565b6000610d4e813361235b565b6040516310ddb13760e01b815261ffff831660048201527f00000000000000000000000000000000000000000000000000000000000000006001600160a01b0316906310ddb13790602401610d0c565b60008160ff168360ff161115610de15760405162461bcd60e51b8152602060048201526008602482015267424144444543494d60c01b6044820152606401610a9d565b610deb8383613333565b610df690600a61343a565b610e009085613449565b90505b9392505050565b6000805160206139aa833981519152610e23813361235b565b600854600003610e7f5760405162461bcd60e51b815260206004820152602160248201527f466f727761726465723a206465706f736974206e6f742070726f63657373696e6044820152606760f81b6064820152608401610a9d565b6007546040516370a0823160e01b8152306004820152600091906001600160a01b037f000000000000000000000000000000000000000000000000000000000000000016906370a0823190602401602060405180830381865afa158015610eea573d6000803e3d6000fd5b505050506040513d601f19601f82011682018060405250810190610f0e9190613304565b610f189190613468565b905060008111610f805760405162461bcd60e51b815260206004820152602d60248201527f466f727761726465723a206465706f736974207761736e277420636f6d706c6560448201526c746564206174205a756e616d6960981b6064820152608401610a9d565b8060076000828254610f92919061347f565b90915550506008546040805160006020820152808201929092526060820183905260126080808401919091528151808403909101815260a09092019052600c54600e54610fe59161ffff16908390612422565b6008546040518381527f06da3309189fa49284f335d2c2bcb4cb0b8ad2a59ad92a9bdebeeb8f1ceba5119060200160405180910390a250506000600881905560095550565b600082815260208190526040902060010154611046813361235b565b610caf83836126ef565b600061105c813361235b565b600180546001600160a01b0319166001600160a01b0384169081179091556040519081527fa2b1df3328f43edff1744e2cba02afe78a7f8725dcacf9e8331a3ffa4ff4ab56906020015b60405180910390a15050565b6001600160a01b03811633146111225760405162461bcd60e51b815260206004820152602f60248201527f416363657373436f6e74726f6c3a2063616e206f6e6c792072656e6f756e636560448201526e103937b632b9903337b91039b2b63360891b6064820152608401610a9d565b61112c8282612773565b5050565b61ffff831660009081526002602052604081208054829190611151906132ba565b80601f016020809104026020016040519081016040528092919081815260200182805461117d906132ba565b80156111ca5780601f1061119f576101008083540402835291602001916111ca565b820191906000526020600020905b8154815290600101906020018083116111ad57829003601f168201915b5050505050905083836040516111e19291906132f4565b60405180910390208180519060200120149150509392505050565b6000611208813361235b565b6040516342d65a8d60e01b81526001600160a01b037f000000000000000000000000000000000000000000000000000000000000000016906342d65a8d90611258908790879087906004016134c0565b600060405180830381600087803b15801561127257600080fd5b505af1158015611286573d6000803e3d6000fd5b5050505050505050565b600481600381106112a057600080fd5b01546001600160a01b0316905081565b60006112bc813361235b565b600e849055600f839055601082905560408051858152602081018590529081018390527fad238535834c6cee6606795be03482696947f8ced05fac1719337396cb988803906060015b60405180910390a150505050565b60008160ff168360ff1603611329575082610e03565b8160ff168360ff16111561134957611342848484611d84565b9050610e03565b610e00848484610d9e565b6002602052600090815260409020805461136d906132ba565b80601f0160208091040260200160405190810160405280929190818152602001828054611399906132ba565b80156113e65780601f106113bb576101008083540402835291602001916113e6565b820191906000526020600020905b8154815290600101906020018083116113c957829003601f168201915b505050505081565b6000805160206139aa833981519152611407813361235b565b60085415801590611419575060095415155b6114715760405162461bcd60e51b815260206004820152602360248201527f466f727761726465723a206465706f736974207761736e277420696e697469616044820152621d195960ea1b6064820152608401610a9d565b6006546040516370a0823160e01b81523060048201526000916001600160a01b0316906370a0823190602401602060405180830381865afa1580156114ba573d6000803e3d6000fd5b505050506040513d601f19601f820116820180604052508101906114de9190613304565b90506127106003546127106114f39190613468565b6009546115009190613449565b61150a91906134f4565b8110156115595760405162461bcd60e51b815260206004820152601f60248201527f466f727761726465723a206e6f7420656e6f7567682070726f766973696f6e006044820152606401610a9d565b6115957f000000000000000000000000000000000000000000000000000000000000000082600460025b01546001600160a01b031691906127d8565b61159d612d49565b60408082018390525163e287950560e01b81527f00000000000000000000000000000000000000000000000000000000000000006001600160a01b03169063e2879505906115ef908490600401613539565b600060405180830381600087803b15801561160957600080fd5b505af115801561161d573d6000803e3d6000fd5b50506008546040805160028152602081018790529193507f3f4eb095aadf98bfed0e13af381b2a72a3e0883b728d662a8b56bc410f2c170192500160405180910390a2505050565b6000918252602082815260408084206001600160a01b0393909316845291905290205460ff1690565b6000805160206139aa8339815191526116a7813361235b565b600a54158015906116b95750600b5415155b6117155760405162461bcd60e51b815260206004820152602760248201527f466f727761726465723a207769746864726177616c206973206e6f742070726f60448201526663657373696e6760c81b6064820152608401610a9d565b61171f6000612890565b6117296001612890565b6006546040516370a0823160e01b81523060048201526000916001600160a01b0316906370a0823190602401602060405180830381865afa158015611772573d6000803e3d6000fd5b505050506040513d601f19601f820116820180604052508101906117969190613304565b90506117c67f00000000000000000000000000000000000000000000000000000000000000008260046002611583565b7f00000000000000000000000000000000000000000000000000000000000000006001600160a01b0316639fbf10fc47600c60009054906101000a900461ffff167f0000000000000000000000000000000000000000000000000000000000000000600d5430876127106003546127106118409190613468565b61184a908b613449565b61185491906134f4565b604080516060808201835260105482526000602080840191909152835180850185526002815261060f60f31b8183015283850152600c5493516201000090940490911b6bffffffffffffffffffffffff191690830152906034016040516020818303038152906040526040518a63ffffffff1660e01b81526004016118e0989796959493929190613547565b6000604051808303818588803b1580156118f957600080fd5b505af115801561190d573d6000803e3d6000fd5b50600093506001925061191e915050565b600a546006546040805163313ce56760e01b8152905186926001600160a01b03169163313ce5679160048281019260209291908290030181865afa15801561196a573d6000803e3d6000fd5b505050506040513d601f19601f8201168201806040525081019061198e91906135e2565b6040805160ff9586166020820152908101939093526060830191909152909116608082015260a00160405160208183030381529060405290506119e4600c60009054906101000a900461ffff1682600f54612422565b600b54600760008282546119f89190613468565b90915550506007546040516370a0823160e01b81523060048201527f00000000000000000000000000000000000000000000000000000000000000006001600160a01b0316906370a0823190602401602060405180830381865afa158015611a64573d6000803e3d6000fd5b505050506040513d601f19601f82011682018060405250810190611a889190613304565b14611aee5760405162461bcd60e51b815260206004820152603060248201527f466f727761726465723a207769746864726177616c207761736e277420636f6d60448201526f706c6574656420696e205a756e616d6960801b6064820152608401610a9d565b600a546040805160028152602081018590527fabd2ab552bc04cdbfa4a54107fa44ac8c9cb06f6d21da11933ac05a653be19e9910160405180910390a250506000600a819055600b5550565b337f00000000000000000000000000000000000000000000000000000000000000006001600160a01b031614611bce5760405162461bcd60e51b815260206004820152603360248201527f466f727761726465723a206f6e6c7920737461726761746520726f757465722060448201527263616e2063616c6c207367526563656976652160681b6064820152608401610a9d565b600c5461ffff878116911614611c265760405162461bcd60e51b815260206004820181905260248201527f466f727761726465723a2077726f6e6720736f7572636520636861696e2069646044820152606401610a9d565b6006546001600160a01b03848116911614611c835760405162461bcd60e51b815260206004820152601e60248201527f466f727761726465723a2077726f6e6720746f6b656e206164647265737300006044820152606401610a9d565b6040805160028152602081018490527ff9d460f56e9a863d60a5d2a1a6bff4ffa2c5cd52bac8f170a2e59128243175aa910160405180910390a1505050505050565b6000611cd1813361235b565b600c805461ffff86166001600160b01b03199091168117620100006001600160a01b03871690810291909117909255600d8490556040805191825260208201929092529081018390527fdb85d13614082578c190eebfa3580e3a42fed95fd283016a00919e4691e953e390606001611305565b6000611d50813361235b565b47801561112c57604051339082156108fc029083906000818181858888f19350505050158015610caf573d6000803e3d6000fd5b60008160ff168360ff161015611dc75760405162461bcd60e51b8152602060048201526008602482015267424144444543494d60c01b6044820152606401610a9d565b611dd18284613333565b611ddc90600a61343a565b610e0090856134f4565b6000611df2813361235b565b6040516332fb62e760e21b81526001600160a01b037f0000000000000000000000000000000000000000000000000000000000000000169063cbed8b9c90611e4690899089908990899089906004016135ff565b600060405180830381600087803b158015611e6057600080fd5b505af1158015611e74573d6000803e3d6000fd5b50505050505050505050565b6000611e8c813361235b565b6127108261ffff161115611eed5760405162461bcd60e51b815260206004820152602260248201527f466f727761726465723a2077726f6e6720737461726761746520736c69707061604482015261676560f01b6064820152608401610a9d565b61ffff821660038190556040519081527fb5cd78aab69202b3af2c4e5171dc7dbb7dd29b301421a6cb87458308944a3ae8906020016110a6565b600082815260208190526040902060010154611f43813361235b565b610caf8383612773565b6000611f59813361235b565b61ffff84166000908152600260205260409020611f77838583613673565b507ffa41487ad5d6728f0b19276fa1eddc16558578f5109fc39d2dc33c3230470dab848484604051611305939291906134c0565b604051633d7b2f6f60e21b815261ffff808616600483015284166024820152306044820152606481018290526060907f00000000000000000000000000000000000000000000000000000000000000006001600160a01b03169063f5ecbdbc90608401600060405180830381865afa15801561202b573d6000803e3d6000fd5b505050506040513d6000823e601f3d908101601f191682016040526120539190810190613734565b95945050505050565b600c5461ffff8781169116146120b45760405162461bcd60e51b815260206004820181905260248201527f466f727761726465723a2077726f6e6720736f7572636520636861696e2069646044820152606401610a9d565b60008080806120c5858701876137a2565b9296509094509250905060001960ff85160161221957600a541580156120eb5750600b54155b6121465760405162461bcd60e51b815260206004820152602660248201527f466f727761726465723a2070726576696f7573207769746864726177616c20656044820152651e1a5cdd195960d21b6064820152608401610a9d565b600a839055600b829055612158612d49565b60405162955d4360e71b81526001600160a01b037f00000000000000000000000000000000000000000000000000000000000000001690634aaea180906121a590869085906004016137ec565b600060405180830381600087803b1580156121bf57600080fd5b505af11580156121d3573d6000803e3d6000fd5b50505050600a547fb044668583d811edbcfe183ec48395b7910a50f3d531f3f1301233706acd64f48460405161220b91815260200190565b60405180910390a250611e74565b60ff8416611e74576008541580156122315750600954155b6122895760405162461bcd60e51b815260206004820152602360248201527f466f727761726465723a2070726576696f7573206465706f73697420657869736044820152621d195960ea1b6064820152608401610a9d565b600883905561230d8282600460020160009054906101000a90046001600160a01b03166001600160a01b031663313ce5676040518163ffffffff1660e01b8152600401602060405180830381865afa1580156122e9573d6000803e3d6000fd5b505050506040513d601f19601f8201168201806040525081019061060f91906135e2565b60098190556040805160028152602081019290925284917f25990e0e5bb65a961ebec1a35e6891c5c5f94aff0a997150df43a158b8cad9b9910160405180910390a250505050505050505050565b6123658282611665565b61112c5761237d816001600160a01b031660146129c7565b6123888360206129c7565b604051602001612399929190613800565b60408051601f198184030181529082905262461bcd60e51b8252610a9d9160040161304c565b6040516001600160a01b038316602482015260448101829052610caf90849063a9059cbb60e01b906064015b60408051601f198184030181529190526020810180516001600160e01b03166001600160e01b031990931692909217909152612b63565b61ffff831660009081526002602052604081208054612440906132ba565b80601f016020809104026020016040519081016040528092919081815260200182805461246c906132ba565b80156124b95780601f1061248e576101008083540402835291602001916124b9565b820191906000526020600020905b81548152906001019060200180831161249c57829003601f168201915b50505050509050805160000361252a5760405162461bcd60e51b815260206004820152603060248201527f4c7a4170703a2064657374696e6174696f6e20636861696e206973206e6f742060448201526f61207472757374656420736f7572636560801b6064820152608401610a9d565b604051600160f01b60208201526022810183905260009060420160408051601f198184030181529082905263040a7bb160e41b825291506000906001600160a01b037f000000000000000000000000000000000000000000000000000000000000000016906340a7bb10906125ab90899030908a9087908990600401613875565b6040805180830381865afa1580156125c7573d6000803e3d6000fd5b505050506040513d601f19601f820116820180604052508101906125eb91906138c9565b509050804710156126595760405162461bcd60e51b815260206004820152603260248201527f4c7a4170703a206e6f7420656e6f756768206e617469766520746f6b656e20666044820152716f722073656e64696e67206d65737361676560701b6064820152608401610a9d565b60015460405162c5803160e81b81526001600160a01b037f000000000000000000000000000000000000000000000000000000000000000081169263c58031009285926126b5928c928a928d9230929116908b906004016138ed565b6000604051808303818588803b1580156126ce57600080fd5b505af11580156126e2573d6000803e3d6000fd5b5050505050505050505050565b6126f98282611665565b61112c576000828152602081815260408083206001600160a01b03851684529091529020805460ff1916600117905561272f3390565b6001600160a01b0316816001600160a01b0316837f2f8788117e7eff1d82e926ec794901d17c78024a50270940304540a733656f0d60405160405180910390a45050565b61277d8282611665565b1561112c576000828152602081815260408083206001600160a01b0385168085529252808320805460ff1916905551339285917ff6391f5c32d9c69d2a47ea670b442974b53935d1edc7fd64eb21e047a839171b9190a45050565b604051636eb1769f60e11b81523060048201526001600160a01b038381166024830152600091839186169063dd62ed3e90604401602060405180830381865afa158015612829573d6000803e3d6000fd5b505050506040513d601f19601f8201168201806040525081019061284d9190613304565b612857919061347f565b6040516001600160a01b03851660248201526044810182905290915061288a90859063095ea7b360e01b906064016123eb565b50505050565b60006004826001600160801b0316600381106128ae576128ae6134de565b01546040516370a0823160e01b81523060048201526001600160a01b03909116906370a0823190602401602060405180830381865afa1580156128f5573d6000803e3d6000fd5b505050506040513d601f19601f820116820180604052508101906129199190613304565b9050801561112c576129627f0000000000000000000000000000000000000000000000000000000000000000826004856001600160801b031660038110611583576115836134de565b604051630f7c084960e21b8152600f83900b60048201526002602482015260448101829052600060648201527f00000000000000000000000000000000000000000000000000000000000000006001600160a01b031690633df0212490608401610d0c565b606060006129d6836002613449565b6129e190600261347f565b67ffffffffffffffff8111156129f9576129f961305f565b6040519080825280601f01601f191660200182016040528015612a23576020820181803683370190505b509050600360fc1b81600081518110612a3e57612a3e6134de565b60200101906001600160f81b031916908160001a905350600f60fb1b81600181518110612a6d57612a6d6134de565b60200101906001600160f81b031916908160001a9053506000612a91846002613449565b612a9c90600161347f565b90505b6001811115612b14576f181899199a1a9b1b9c1cb0b131b232b360811b85600f1660108110612ad057612ad06134de565b1a60f81b828281518110612ae657612ae66134de565b60200101906001600160f81b031916908160001a90535060049490941c93612b0d81613954565b9050612a9f565b508315610e035760405162461bcd60e51b815260206004820181905260248201527f537472696e67733a20686578206c656e67746820696e73756666696369656e746044820152606401610a9d565b6000612bb8826040518060400160405280602081526020017f5361666545524332303a206c6f772d6c6576656c2063616c6c206661696c6564815250856001600160a01b0316612c359092919063ffffffff16565b805190915015610caf5780806020019051810190612bd6919061396b565b610caf5760405162461bcd60e51b815260206004820152602a60248201527f5361666545524332303a204552433230206f7065726174696f6e20646964206e6044820152691bdd081cdd58d8d9595960b21b6064820152608401610a9d565b6060610e008484600085856001600160a01b0385163b612c975760405162461bcd60e51b815260206004820152601d60248201527f416464726573733a2063616c6c20746f206e6f6e2d636f6e74726163740000006044820152606401610a9d565b600080866001600160a01b03168587604051612cb3919061398d565b60006040518083038185875af1925050503d8060008114612cf0576040519150601f19603f3d011682016040523d82523d6000602084013e612cf5565b606091505b5091509150612d05828286612d10565b979650505050505050565b60608315612d1f575081610e03565b825115612d2f5782518084602001fd5b8160405162461bcd60e51b8152600401610a9d919061304c565b60405180606001604052806003906020820280368337509192915050565b803561ffff81168114612d7957600080fd5b919050565b60008083601f840112612d9057600080fd5b50813567ffffffffffffffff811115612da857600080fd5b602083019150836020828501011115612dc057600080fd5b9250929050565b60008060008060008060808789031215612de057600080fd5b612de987612d67565b9550602087013567ffffffffffffffff80821115612e0657600080fd5b612e128a838b01612d7e565b9097509550604089013591508082168214612e2c57600080fd5b90935060608801359080821115612e4257600080fd5b50612e4f89828a01612d7e565b979a9699509497509295939492505050565b600060208284031215612e7357600080fd5b81356001600160e01b031981168114610e0357600080fd5b6001600160a01b0381168114612ea057600080fd5b50565b600060208284031215612eb557600080fd5b8135610e0381612e8b565b600060208284031215612ed257600080fd5b610e0382612d67565b60ff81168114612ea057600080fd5b600080600060608486031215612eff57600080fd5b833592506020840135612f1181612edb565b91506040840135612f2181612edb565b809150509250925092565b600060208284031215612f3e57600080fd5b5035919050565b60008060408385031215612f5857600080fd5b823591506020830135612f6a81612e8b565b809150509250929050565b600080600060408486031215612f8a57600080fd5b612f9384612d67565b9250602084013567ffffffffffffffff811115612faf57600080fd5b612fbb86828701612d7e565b9497909650939450505050565b600080600060608486031215612fdd57600080fd5b505081359360208301359350604090920135919050565b60005b8381101561300f578181015183820152602001612ff7565b8381111561288a5750506000910152565b60008151808452613038816020860160208601612ff4565b601f01601f19169290920160200192915050565b602081526000610e036020830184613020565b634e487b7160e01b600052604160045260246000fd5b604051601f8201601f1916810167ffffffffffffffff8111828210171561309e5761309e61305f565b604052919050565b600067ffffffffffffffff8211156130c0576130c061305f565b50601f01601f191660200190565b600082601f8301126130df57600080fd5b81356130f26130ed826130a6565b613075565b81815284602083860101111561310757600080fd5b816020850160208301376000918101602001919091529392505050565b60008060008060008060c0878903121561313d57600080fd5b61314687612d67565b9550602087013567ffffffffffffffff8082111561316357600080fd5b61316f8a838b016130ce565b9650604089013595506060890135915061318882612e8b565b9093506080880135925060a088013590808211156131a557600080fd5b506131b289828a016130ce565b9150509295509295509295565b6000806000606084860312156131d457600080fd5b6131dd84612d67565b925060208401356131ed81612e8b565b929592945050506040919091013590565b60008060008060006080868803121561321657600080fd5b61321f86612d67565b945061322d60208701612d67565b935060408601359250606086013567ffffffffffffffff81111561325057600080fd5b61325c88828901612d7e565b969995985093965092949392505050565b6000806000806080858703121561328357600080fd5b61328c85612d67565b935061329a60208601612d67565b925060408501356132aa81612e8b565b9396929550929360600135925050565b600181811c908216806132ce57607f821691505b6020821081036132ee57634e487b7160e01b600052602260045260246000fd5b50919050565b8183823760009101908152919050565b60006020828403121561331657600080fd5b5051919050565b634e487b7160e01b600052601160045260246000fd5b600060ff821660ff84168082101561334d5761334d61331d565b90039392505050565b600181815b808511156133915781600019048211156133775761337761331d565b8085161561338457918102915b93841c939080029061335b565b509250929050565b6000826133a857506001610c16565b816133b557506000610c16565b81600181146133cb57600281146133d5576133f1565b6001915050610c16565b60ff8411156133e6576133e661331d565b50506001821b610c16565b5060208310610133831016604e8410600b8410161715613414575081810a610c16565b61341e8383613356565b80600019048211156134325761343261331d565b029392505050565b6000610e0360ff841683613399565b60008160001904831182151516156134635761346361331d565b500290565b60008282101561347a5761347a61331d565b500390565b600082198211156134925761349261331d565b500190565b81835281816020850137506000828201602090810191909152601f909101601f19169091010190565b61ffff84168152604060208201526000612053604083018486613497565b634e487b7160e01b600052603260045260246000fd5b60008261351157634e487b7160e01b600052601260045260246000fd5b500490565b8060005b600381101561288a57815184526020938401939091019060010161351a565b60608101610c168284613516565b600061012061ffff8b16835289602084015288604084015260018060a01b03881660608401528660808401528560a08401528060c0840152845181840152506020840151610140830152604084015160606101608401526135ac610180840182613020565b905082810360e08401526135c08185613020565b838103610100850152600081529050602081019b9a5050505050505050505050565b6000602082840312156135f457600080fd5b8151610e0381612edb565b600061ffff808816835280871660208401525084604083015260806060830152612d05608083018486613497565b601f821115610caf57600081815260208120601f850160051c810160208610156136545750805b601f850160051c820191505b81811015610d3a57828155600101613660565b67ffffffffffffffff83111561368b5761368b61305f565b61369f8361369983546132ba565b8361362d565b6000601f8411600181146136d357600085156136bb5750838201355b600019600387901b1c1916600186901b17835561372d565b600083815260209020601f19861690835b8281101561370457868501358255602094850194600190920191016136e4565b50868210156137215760001960f88860031b161c19848701351681555b505060018560011b0183555b5050505050565b60006020828403121561374657600080fd5b815167ffffffffffffffff81111561375d57600080fd5b8201601f8101841361376e57600080fd5b805161377c6130ed826130a6565b81815285602083850101111561379157600080fd5b612053826020830160208601612ff4565b600080600080608085870312156137b857600080fd5b84356137c381612edb565b9350602085013592506040850135915060608501356137e181612edb565b939692955090935050565b82815260808101610e036020830184613516565b7f416363657373436f6e74726f6c3a206163636f756e7420000000000000000000815260008351613838816017850160208801612ff4565b7001034b99036b4b9b9b4b733903937b6329607d1b6017918401918201528351613869816028840160208801612ff4565b01602801949350505050565b61ffff861681526001600160a01b038516602082015260a0604082018190526000906138a390830186613020565b841515606084015282810360808401526138bd8185613020565b98975050505050505050565b600080604083850312156138dc57600080fd5b505080516020909101519092909150565b61ffff8716815260c06020820152600061390a60c0830188613020565b828103604084015261391c8188613020565b6001600160a01b0387811660608601528616608085015283810360a085015290506139478185613020565b9998505050505050505050565b6000816139635761396361331d565b506000190190565b60006020828403121561397d57600080fd5b81518015158114610e0357600080fd5b6000825161399f818460208701612ff4565b919091019291505056fe97667070c54ef182b0f5858b034beac1b6f3089aa2d3188bb1e8929f4fa9b929a264697066735822122065bd01894361a13a1f2bb27bcadd64ccd8afe375a92e28b84d1843095f9adc9264736f6c634300080f0033",
  "linkReferences": {},
  "deployedLinkReferences": {}
}