{
  "_format": "hh-sol-artifact-1",
  "contractName": "ZunamiGateway",
  "sourceName": "contracts/crosschain/ZunamiGateway.sol",
  "abi": [
    {
      "inputs": [
        {
          "internalType": "address",
          "name": "_token",
          "type": "address"
        },
        {
          "internalType": "uint256",
          "name": "_tokenPoolId",
          "type": "uint256"
        },
        {
          "internalType": "address",
          "name": "_stargateRouter",
          "type": "address"
        },
        {
          "internalType": "address",
          "name": "_layerZeroEndpoint",
          "type": "address"
        }
      ],
      "stateMutability": "nonpayable",
      "type": "constructor"
    },
    {
      "anonymous": false,
      "inputs": [
        {
          "indexed": true,
          "internalType": "address",
          "name": "owner",
          "type": "address"
        },
        {
          "indexed": true,
          "internalType": "address",
          "name": "spender",
          "type": "address"
        },
        {
          "indexed": false,
          "internalType": "uint256",
          "name": "value",
          "type": "uint256"
        }
      ],
      "name": "Approval",
      "type": "event"
    },
    {
      "anonymous": false,
      "inputs": [
        {
          "indexed": true,
          "internalType": "address",
          "name": "depositor",
          "type": "address"
        },
        {
          "indexed": false,
          "internalType": "uint256",
          "name": "amount",
          "type": "uint256"
        }
      ],
      "name": "CreatedPendingDeposit",
      "type": "event"
    },
    {
      "anonymous": false,
      "inputs": [
        {
          "indexed": true,
          "internalType": "address",
          "name": "withdrawer",
          "type": "address"
        },
        {
          "indexed": false,
          "internalType": "uint256",
          "name": "lpShares",
          "type": "uint256"
        }
      ],
      "name": "CreatedPendingWithdrawal",
      "type": "event"
    },
    {
      "anonymous": false,
      "inputs": [
        {
          "indexed": true,
          "internalType": "address",
          "name": "depositor",
          "type": "address"
        },
        {
          "indexed": false,
          "internalType": "uint256",
          "name": "tokenAmount",
          "type": "uint256"
        },
        {
          "indexed": false,
          "internalType": "uint256",
          "name": "lpShares",
          "type": "uint256"
        }
      ],
      "name": "Deposited",
      "type": "event"
    },
    {
      "anonymous": false,
      "inputs": [
        {
          "indexed": false,
          "internalType": "address",
          "name": "account",
          "type": "address"
        }
      ],
      "name": "Paused",
      "type": "event"
    },
    {
      "anonymous": false,
      "inputs": [
        {
          "indexed": false,
          "internalType": "uint256",
          "name": "depositId",
          "type": "uint256"
        },
        {
          "indexed": false,
          "internalType": "uint256",
          "name": "lpShares",
          "type": "uint256"
        }
      ],
      "name": "ReceivedCrossDepositResult",
      "type": "event"
    },
    {
      "anonymous": false,
      "inputs": [
        {
          "indexed": false,
          "internalType": "uint256",
          "name": "withdrawalId",
          "type": "uint256"
        },
        {
          "indexed": false,
          "internalType": "uint256",
          "name": "tokenAmount",
          "type": "uint256"
        }
      ],
      "name": "ReceivedCrossWithdrawalResult",
      "type": "event"
    },
    {
      "anonymous": false,
      "inputs": [
        {
          "indexed": true,
          "internalType": "address",
          "name": "depositor",
          "type": "address"
        }
      ],
      "name": "RemovedPendingDeposit",
      "type": "event"
    },
    {
      "anonymous": false,
      "inputs": [
        {
          "indexed": true,
          "internalType": "address",
          "name": "depositor",
          "type": "address"
        }
      ],
      "name": "RemovedPendingWithdrawal",
      "type": "event"
    },
    {
      "anonymous": false,
      "inputs": [
        {
          "indexed": true,
          "internalType": "bytes32",
          "name": "role",
          "type": "bytes32"
        },
        {
          "indexed": true,
          "internalType": "bytes32",
          "name": "previousAdminRole",
          "type": "bytes32"
        },
        {
          "indexed": true,
          "internalType": "bytes32",
          "name": "newAdminRole",
          "type": "bytes32"
        }
      ],
      "name": "RoleAdminChanged",
      "type": "event"
    },
    {
      "anonymous": false,
      "inputs": [
        {
          "indexed": true,
          "internalType": "bytes32",
          "name": "role",
          "type": "bytes32"
        },
        {
          "indexed": true,
          "internalType": "address",
          "name": "account",
          "type": "address"
        },
        {
          "indexed": true,
          "internalType": "address",
          "name": "sender",
          "type": "address"
        }
      ],
      "name": "RoleGranted",
      "type": "event"
    },
    {
      "anonymous": false,
      "inputs": [
        {
          "indexed": true,
          "internalType": "bytes32",
          "name": "role",
          "type": "bytes32"
        },
        {
          "indexed": true,
          "internalType": "address",
          "name": "account",
          "type": "address"
        },
        {
          "indexed": true,
          "internalType": "address",
          "name": "sender",
          "type": "address"
        }
      ],
      "name": "RoleRevoked",
      "type": "event"
    },
    {
      "anonymous": false,
      "inputs": [
        {
          "indexed": false,
          "internalType": "uint256",
          "name": "depositId",
          "type": "uint256"
        },
        {
          "indexed": false,
          "internalType": "uint256",
          "name": "totalTokenAmount",
          "type": "uint256"
        }
      ],
      "name": "SentCrossDeposit",
      "type": "event"
    },
    {
      "anonymous": false,
      "inputs": [
        {
          "indexed": false,
          "internalType": "uint256",
          "name": "withdrawalId",
          "type": "uint256"
        },
        {
          "indexed": false,
          "internalType": "uint256",
          "name": "totalLpShares",
          "type": "uint256"
        }
      ],
      "name": "SentCrossWithdrawal",
      "type": "event"
    },
    {
      "anonymous": false,
      "inputs": [
        {
          "indexed": false,
          "internalType": "uint256",
          "name": "_chainId",
          "type": "uint256"
        },
        {
          "indexed": false,
          "internalType": "address",
          "name": "_address",
          "type": "address"
        },
        {
          "indexed": false,
          "internalType": "uint256",
          "name": "_tokenPoolId",
          "type": "uint256"
        }
      ],
      "name": "SetForwarderParams",
      "type": "event"
    },
    {
      "anonymous": false,
      "inputs": [
        {
          "indexed": false,
          "internalType": "uint256",
          "name": "slippage",
          "type": "uint256"
        }
      ],
      "name": "SetStargateSlippage",
      "type": "event"
    },
    {
      "anonymous": false,
      "inputs": [
        {
          "indexed": true,
          "internalType": "address",
          "name": "from",
          "type": "address"
        },
        {
          "indexed": true,
          "internalType": "address",
          "name": "to",
          "type": "address"
        },
        {
          "indexed": false,
          "internalType": "uint256",
          "name": "value",
          "type": "uint256"
        }
      ],
      "name": "Transfer",
      "type": "event"
    },
    {
      "anonymous": false,
      "inputs": [
        {
          "indexed": false,
          "internalType": "address",
          "name": "account",
          "type": "address"
        }
      ],
      "name": "Unpaused",
      "type": "event"
    },
    {
      "anonymous": false,
      "inputs": [
        {
          "indexed": true,
          "internalType": "address",
          "name": "withdrawer",
          "type": "address"
        },
        {
          "indexed": false,
          "internalType": "uint256",
          "name": "tokenAmount",
          "type": "uint256"
        },
        {
          "indexed": false,
          "internalType": "uint256",
          "name": "lpShares",
          "type": "uint256"
        }
      ],
      "name": "Withdrawn",
      "type": "event"
    },
    {
      "inputs": [],
      "name": "DEFAULT_ADMIN_ROLE",
      "outputs": [
        {
          "internalType": "bytes32",
          "name": "",
          "type": "bytes32"
        }
      ],
      "stateMutability": "view",
      "type": "function"
    },
    {
      "inputs": [],
      "name": "OPERATOR_ROLE",
      "outputs": [
        {
          "internalType": "bytes32",
          "name": "",
          "type": "bytes32"
        }
      ],
      "stateMutability": "view",
      "type": "function"
    },
    {
      "inputs": [],
      "name": "SG_SLIPPAGE_DIVIDER",
      "outputs": [
        {
          "internalType": "uint256",
          "name": "",
          "type": "uint256"
        }
      ],
      "stateMutability": "view",
      "type": "function"
    },
    {
      "inputs": [],
      "name": "USDT_TOKEN_ID",
      "outputs": [
        {
          "internalType": "uint8",
          "name": "",
          "type": "uint8"
        }
      ],
      "stateMutability": "view",
      "type": "function"
    },
    {
      "inputs": [
        {
          "internalType": "address",
          "name": "owner",
          "type": "address"
        },
        {
          "internalType": "address",
          "name": "spender",
          "type": "address"
        }
      ],
      "name": "allowance",
      "outputs": [
        {
          "internalType": "uint256",
          "name": "",
          "type": "uint256"
        }
      ],
      "stateMutability": "view",
      "type": "function"
    },
    {
      "inputs": [
        {
          "internalType": "address",
          "name": "spender",
          "type": "address"
        },
        {
          "internalType": "uint256",
          "name": "amount",
          "type": "uint256"
        }
      ],
      "name": "approve",
      "outputs": [
        {
          "internalType": "bool",
          "name": "",
          "type": "bool"
        }
      ],
      "stateMutability": "nonpayable",
      "type": "function"
    },
    {
      "inputs": [
        {
          "internalType": "address",
          "name": "account",
          "type": "address"
        }
      ],
      "name": "balanceOf",
      "outputs": [
        {
          "internalType": "uint256",
          "name": "",
          "type": "uint256"
        }
      ],
      "stateMutability": "view",
      "type": "function"
    },
    {
      "inputs": [],
      "name": "decimals",
      "outputs": [
        {
          "internalType": "uint8",
          "name": "",
          "type": "uint8"
        }
      ],
      "stateMutability": "view",
      "type": "function"
    },
    {
      "inputs": [
        {
          "internalType": "address",
          "name": "spender",
          "type": "address"
        },
        {
          "internalType": "uint256",
          "name": "subtractedValue",
          "type": "uint256"
        }
      ],
      "name": "decreaseAllowance",
      "outputs": [
        {
          "internalType": "bool",
          "name": "",
          "type": "bool"
        }
      ],
      "stateMutability": "nonpayable",
      "type": "function"
    },
    {
      "inputs": [
        {
          "internalType": "uint256",
          "name": "amount",
          "type": "uint256"
        }
      ],
      "name": "delegateDeposit",
      "outputs": [],
      "stateMutability": "nonpayable",
      "type": "function"
    },
    {
      "inputs": [
        {
          "internalType": "uint256",
          "name": "lpShares",
          "type": "uint256"
        }
      ],
      "name": "delegateWithdrawal",
      "outputs": [],
      "stateMutability": "nonpayable",
      "type": "function"
    },
    {
      "inputs": [],
      "name": "finalizeCrossDeposit",
      "outputs": [],
      "stateMutability": "nonpayable",
      "type": "function"
    },
    {
      "inputs": [],
      "name": "finalizeCrossWithdrawal",
      "outputs": [],
      "stateMutability": "nonpayable",
      "type": "function"
    },
    {
      "inputs": [],
      "name": "forwarderAddress",
      "outputs": [
        {
          "internalType": "address",
          "name": "",
          "type": "address"
        }
      ],
      "stateMutability": "view",
      "type": "function"
    },
    {
      "inputs": [],
      "name": "forwarderChainId",
      "outputs": [
        {
          "internalType": "uint16",
          "name": "",
          "type": "uint16"
        }
      ],
      "stateMutability": "view",
      "type": "function"
    },
    {
      "inputs": [],
      "name": "forwarderTokenPoolId",
      "outputs": [
        {
          "internalType": "uint256",
          "name": "",
          "type": "uint256"
        }
      ],
      "stateMutability": "view",
      "type": "function"
    },
    {
      "inputs": [
        {
          "internalType": "bytes32",
          "name": "role",
          "type": "bytes32"
        }
      ],
      "name": "getRoleAdmin",
      "outputs": [
        {
          "internalType": "bytes32",
          "name": "",
          "type": "bytes32"
        }
      ],
      "stateMutability": "view",
      "type": "function"
    },
    {
      "inputs": [
        {
          "internalType": "bytes32",
          "name": "role",
          "type": "bytes32"
        },
        {
          "internalType": "address",
          "name": "account",
          "type": "address"
        }
      ],
      "name": "grantRole",
      "outputs": [],
      "stateMutability": "nonpayable",
      "type": "function"
    },
    {
      "inputs": [
        {
          "internalType": "bytes32",
          "name": "role",
          "type": "bytes32"
        },
        {
          "internalType": "address",
          "name": "account",
          "type": "address"
        }
      ],
      "name": "hasRole",
      "outputs": [
        {
          "internalType": "bool",
          "name": "",
          "type": "bool"
        }
      ],
      "stateMutability": "view",
      "type": "function"
    },
    {
      "inputs": [
        {
          "internalType": "address",
          "name": "spender",
          "type": "address"
        },
        {
          "internalType": "uint256",
          "name": "addedValue",
          "type": "uint256"
        }
      ],
      "name": "increaseAllowance",
      "outputs": [
        {
          "internalType": "bool",
          "name": "",
          "type": "bool"
        }
      ],
      "stateMutability": "nonpayable",
      "type": "function"
    },
    {
      "inputs": [],
      "name": "layerZeroEndpoint",
      "outputs": [
        {
          "internalType": "contract ILayerZeroEndpoint",
          "name": "",
          "type": "address"
        }
      ],
      "stateMutability": "view",
      "type": "function"
    },
    {
      "inputs": [
        {
          "internalType": "uint16",
          "name": "_srcChainId",
          "type": "uint16"
        },
        {
          "internalType": "bytes",
          "name": "_srcAddress",
          "type": "bytes"
        },
        {
          "internalType": "uint64",
          "name": "_nonce",
          "type": "uint64"
        },
        {
          "internalType": "bytes",
          "name": "_payload",
          "type": "bytes"
        }
      ],
      "name": "lzReceive",
      "outputs": [],
      "stateMutability": "nonpayable",
      "type": "function"
    },
    {
      "inputs": [],
      "name": "name",
      "outputs": [
        {
          "internalType": "string",
          "name": "",
          "type": "string"
        }
      ],
      "stateMutability": "view",
      "type": "function"
    },
    {
      "inputs": [],
      "name": "pause",
      "outputs": [],
      "stateMutability": "nonpayable",
      "type": "function"
    },
    {
      "inputs": [],
      "name": "paused",
      "outputs": [
        {
          "internalType": "bool",
          "name": "",
          "type": "bool"
        }
      ],
      "stateMutability": "view",
      "type": "function"
    },
    {
      "inputs": [
        {
          "internalType": "address",
          "name": "user",
          "type": "address"
        }
      ],
      "name": "pendingDeposits",
      "outputs": [
        {
          "internalType": "uint256",
          "name": "",
          "type": "uint256"
        }
      ],
      "stateMutability": "view",
      "type": "function"
    },
    {
      "inputs": [
        {
          "internalType": "address",
          "name": "user",
          "type": "address"
        }
      ],
      "name": "pendingWithdrawals",
      "outputs": [
        {
          "internalType": "uint256",
          "name": "",
          "type": "uint256"
        }
      ],
      "stateMutability": "view",
      "type": "function"
    },
    {
      "inputs": [],
      "name": "processingCrossDeposit",
      "outputs": [
        {
          "internalType": "uint256",
          "name": "id",
          "type": "uint256"
        },
        {
          "internalType": "uint256",
          "name": "totalTokenAmount",
          "type": "uint256"
        },
        {
          "internalType": "uint256",
          "name": "totalLpShares",
          "type": "uint256"
        }
      ],
      "stateMutability": "view",
      "type": "function"
    },
    {
      "inputs": [],
      "name": "processingCrossWithdrawal",
      "outputs": [
        {
          "internalType": "uint256",
          "name": "id",
          "type": "uint256"
        },
        {
          "internalType": "uint256",
          "name": "totalLpShares",
          "type": "uint256"
        },
        {
          "internalType": "uint256",
          "name": "totalTokenAmount",
          "type": "uint256"
        }
      ],
      "stateMutability": "view",
      "type": "function"
    },
    {
      "inputs": [],
      "name": "removePendingDeposit",
      "outputs": [],
      "stateMutability": "nonpayable",
      "type": "function"
    },
    {
      "inputs": [],
      "name": "removePendingWithdrawal",
      "outputs": [],
      "stateMutability": "nonpayable",
      "type": "function"
    },
    {
      "inputs": [
        {
          "internalType": "bytes32",
          "name": "role",
          "type": "bytes32"
        },
        {
          "internalType": "address",
          "name": "account",
          "type": "address"
        }
      ],
      "name": "renounceRole",
      "outputs": [],
      "stateMutability": "nonpayable",
      "type": "function"
    },
    {
      "inputs": [
        {
          "internalType": "bytes32",
          "name": "role",
          "type": "bytes32"
        },
        {
          "internalType": "address",
          "name": "account",
          "type": "address"
        }
      ],
      "name": "revokeRole",
      "outputs": [],
      "stateMutability": "nonpayable",
      "type": "function"
    },
    {
      "inputs": [
        {
          "internalType": "address[]",
          "name": "userList",
          "type": "address[]"
        }
      ],
      "name": "sendCrossDeposit",
      "outputs": [],
      "stateMutability": "payable",
      "type": "function"
    },
    {
      "inputs": [
        {
          "internalType": "address[]",
          "name": "userList",
          "type": "address[]"
        }
      ],
      "name": "sendCrossWithdrawal",
      "outputs": [],
      "stateMutability": "payable",
      "type": "function"
    },
    {
      "inputs": [
        {
          "internalType": "uint16",
          "name": "_chainId",
          "type": "uint16"
        },
        {
          "internalType": "address",
          "name": "_address",
          "type": "address"
        },
        {
          "internalType": "uint256",
          "name": "_tokenPoolId",
          "type": "uint256"
        }
      ],
      "name": "setForwarderParams",
      "outputs": [],
      "stateMutability": "nonpayable",
      "type": "function"
    },
    {
      "inputs": [
        {
          "internalType": "uint16",
          "name": "_slippage",
          "type": "uint16"
        }
      ],
      "name": "setStargateSlippage",
      "outputs": [],
      "stateMutability": "nonpayable",
      "type": "function"
    },
    {
      "inputs": [
        {
          "internalType": "uint16",
          "name": "_srcChainId",
          "type": "uint16"
        },
        {
          "internalType": "bytes",
          "name": "_srcAddress",
          "type": "bytes"
        },
        {
          "internalType": "uint256",
          "name": "_nonce",
          "type": "uint256"
        },
        {
          "internalType": "address",
          "name": "_token",
          "type": "address"
        },
        {
          "internalType": "uint256",
          "name": "_amountLD",
          "type": "uint256"
        },
        {
          "internalType": "bytes",
          "name": "_payload",
          "type": "bytes"
        }
      ],
      "name": "sgReceive",
      "outputs": [],
      "stateMutability": "nonpayable",
      "type": "function"
    },
    {
      "inputs": [],
      "name": "stargateRouter",
      "outputs": [
        {
          "internalType": "contract IStargateRouter",
          "name": "",
          "type": "address"
        }
      ],
      "stateMutability": "view",
      "type": "function"
    },
    {
      "inputs": [],
      "name": "stargateSlippage",
      "outputs": [
        {
          "internalType": "uint256",
          "name": "",
          "type": "uint256"
        }
      ],
      "stateMutability": "view",
      "type": "function"
    },
    {
      "inputs": [
        {
          "internalType": "bytes4",
          "name": "interfaceId",
          "type": "bytes4"
        }
      ],
      "name": "supportsInterface",
      "outputs": [
        {
          "internalType": "bool",
          "name": "",
          "type": "bool"
        }
      ],
      "stateMutability": "view",
      "type": "function"
    },
    {
      "inputs": [],
      "name": "symbol",
      "outputs": [
        {
          "internalType": "string",
          "name": "",
          "type": "string"
        }
      ],
      "stateMutability": "view",
      "type": "function"
    },
    {
      "inputs": [],
      "name": "token",
      "outputs": [
        {
          "internalType": "contract IERC20Metadata",
          "name": "",
          "type": "address"
        }
      ],
      "stateMutability": "view",
      "type": "function"
    },
    {
      "inputs": [],
      "name": "tokenPoolId",
      "outputs": [
        {
          "internalType": "uint256",
          "name": "",
          "type": "uint256"
        }
      ],
      "stateMutability": "view",
      "type": "function"
    },
    {
      "inputs": [],
      "name": "totalSupply",
      "outputs": [
        {
          "internalType": "uint256",
          "name": "",
          "type": "uint256"
        }
      ],
      "stateMutability": "view",
      "type": "function"
    },
    {
      "inputs": [
        {
          "internalType": "address",
          "name": "to",
          "type": "address"
        },
        {
          "internalType": "uint256",
          "name": "amount",
          "type": "uint256"
        }
      ],
      "name": "transfer",
      "outputs": [
        {
          "internalType": "bool",
          "name": "",
          "type": "bool"
        }
      ],
      "stateMutability": "nonpayable",
      "type": "function"
    },
    {
      "inputs": [
        {
          "internalType": "address",
          "name": "from",
          "type": "address"
        },
        {
          "internalType": "address",
          "name": "to",
          "type": "address"
        },
        {
          "internalType": "uint256",
          "name": "amount",
          "type": "uint256"
        }
      ],
      "name": "transferFrom",
      "outputs": [
        {
          "internalType": "bool",
          "name": "",
          "type": "bool"
        }
      ],
      "stateMutability": "nonpayable",
      "type": "function"
    },
    {
      "inputs": [],
      "name": "unpause",
      "outputs": [],
      "stateMutability": "nonpayable",
      "type": "function"
    },
    {
      "inputs": [],
      "name": "withdrawStuckNative",
      "outputs": [],
      "stateMutability": "nonpayable",
      "type": "function"
    },
    {
      "inputs": [
        {
          "internalType": "contract IERC20Metadata",
          "name": "_token",
          "type": "address"
        }
      ],
      "name": "withdrawStuckToken",
      "outputs": [],
      "stateMutability": "nonpayable",
      "type": "function"
    },
    {
      "stateMutability": "payable",
      "type": "receive"
    }
  ],
  "bytecode": "0x608060405260146009553480156200001657600080fd5b5060405162003a0738038062003a07833981016040819052620000399162000200565b60405180604001604052806011815260200170047617465776179205a756e616d69204c5607c1b815250604051806040016040528060048152602001630475a4c560e41b8152508160039081620000919190620002f9565b506004620000a08282620002f9565b50506005805460ff1916905550620000ba6000336200012f565b620000e67f97667070c54ef182b0f5858b034beac1b6f3089aa2d3188bb1e8929f4fa9b929336200012f565b600a80546001600160a01b039586166001600160a01b031991821617909155600b93909355600780549285169284169290921790915560088054919093169116179055620003c5565b6200013b82826200013f565b5050565b60008281526006602090815260408083206001600160a01b038516845290915290205460ff166200013b5760008281526006602090815260408083206001600160a01b03851684529091529020805460ff191660011790556200019f3390565b6001600160a01b0316816001600160a01b0316837f2f8788117e7eff1d82e926ec794901d17c78024a50270940304540a733656f0d60405160405180910390a45050565b80516001600160a01b0381168114620001fb57600080fd5b919050565b600080600080608085870312156200021757600080fd5b6200022285620001e3565b9350602085015192506200023960408601620001e3565b91506200024960608601620001e3565b905092959194509250565b634e487b7160e01b600052604160045260246000fd5b600181811c908216806200027f57607f821691505b602082108103620002a057634e487b7160e01b600052602260045260246000fd5b50919050565b601f821115620002f457600081815260208120601f850160051c81016020861015620002cf5750805b601f850160051c820191505b81811015620002f057828155600101620002db565b5050505b505050565b81516001600160401b0381111562000315576200031562000254565b6200032d816200032684546200026a565b84620002a6565b602080601f8311600181146200036557600084156200034c5750858301515b600019600386901b1c1916600185901b178555620002f0565b600085815260208120601f198616915b82811015620003965788860151825594840194600190910190840162000375565b5085821015620003b55787850151600019600388901b60f8161c191681555b5050505050600190811b01905550565b61363280620003d56000396000f3fe6080604052600436106102cc5760003560e01c806395d89b4111610175578063cf684278116100dc578063e9b6d59911610095578063f202865b1161006f578063f202865b146108a1578063f3f43703146108c1578063f5b541a6146108f7578063fc0c546a1461091957600080fd5b8063e9b6d59914610840578063eb3349b914610856578063ed3312741461088c57600080fd5b8063cf6842781461076f578063d547741f14610785578063d572b2b5146107a5578063d771c674146107c5578063d79575a7146107da578063dd62ed3e146107fa57600080fd5b8063ab8236f31161012e578063ab8236f3146106dc578063b314cfd5146106fc578063bc377fe014610711578063c4883fc314610724578063cab65c6f14610739578063cd75b1f71461074f57600080fd5b806395d89b411461063d578063a217fddf14610652578063a2ab15a414610667578063a457c2d71461067c578063a9059cbb1461069c578063a9e56f3c146106bc57600080fd5b80633413f1c111610234578063410b664e116101ed57806370a08231116101c757806370a08231146105b35780638456cb59146105e95780638ac932c5146105fe57806391d148541461061d57600080fd5b8063410b664e146105735780634b6d0095146105885780635c975abb1461059b57600080fd5b80633413f1c1146104a057806336568abe146104b65780633838026f146104d657806339509351146105105780633e685e32146105305780633f4ba83a1461055e57600080fd5b8063174ab88911610286578063174ab889146103c957806318160ddd146103ef57806323b872dd1461040e578063248a9ca31461042e5780632f2ff15d1461045e578063313ce5671461047e57600080fd5b80621d3567146102d857806301ffc9a7146102fa578063068acf6c1461032f57806306fdde031461034f57806307968db114610371578063095ea7b3146103a957600080fd5b366102d357005b600080fd5b3480156102e457600080fd5b506102f86102f3366004612dc9565b610939565b005b34801561030657600080fd5b5061031a610315366004612e63565b610b11565b60405190151581526020015b60405180910390f35b34801561033b57600080fd5b506102f861034a366004612ea2565b610b48565b34801561035b57600080fd5b50610364610be0565b6040516103269190612f17565b34801561037d57600080fd5b50600854610391906001600160a01b031681565b6040516001600160a01b039091168152602001610326565b3480156103b557600080fd5b5061031a6103c4366004612f2a565b610c72565b3480156103d557600080fd5b50600c54610391906201000090046001600160a01b031681565b3480156103fb57600080fd5b506002545b604051908152602001610326565b34801561041a57600080fd5b5061031a610429366004612f56565b610c8a565b34801561043a57600080fd5b50610400610449366004612f97565b60009081526006602052604090206001015490565b34801561046a57600080fd5b506102f8610479366004612fb0565b610cb0565b34801561048a57600080fd5b5060125b60405160ff9091168152602001610326565b3480156104ac57600080fd5b5061040060095481565b3480156104c257600080fd5b506102f86104d1366004612fb0565b610cd6565b3480156104e257600080fd5b50600e54600f546012546104f592919083565b60408051938452602084019290925290820152606001610326565b34801561051c57600080fd5b5061031a61052b366004612f2a565b610d54565b34801561053c57600080fd5b50600c5461054b9061ffff1681565b60405161ffff9091168152602001610326565b34801561056a57600080fd5b506102f8610d93565b34801561057f57600080fd5b506102f8610daa565b6102f8610596366004613027565b610f6a565b3480156105a757600080fd5b5060055460ff1661031a565b3480156105bf57600080fd5b506104006105ce366004612ea2565b6001600160a01b031660009081526020819052604090205490565b3480156105f557600080fd5b506102f8611350565b34801561060a57600080fd5b506013546014546017546104f592919083565b34801561062957600080fd5b5061031a610638366004612fb0565b611364565b34801561064957600080fd5b5061036461138f565b34801561065e57600080fd5b50610400600081565b34801561067357600080fd5b506102f861139e565b34801561068857600080fd5b5061031a610697366004612f2a565b611421565b3480156106a857600080fd5b5061031a6106b7366004612f2a565b6114be565b3480156106c857600080fd5b50600754610391906001600160a01b031681565b3480156106e857600080fd5b506102f86106f7366004613149565b6114cc565b34801561070857600080fd5b506102f8611682565b6102f861071f366004613027565b6116c2565b34801561073057600080fd5b506102f8611a91565b34801561074557600080fd5b5061040061271081565b34801561075b57600080fd5b506102f861076a3660046131e4565b611b10565b34801561077b57600080fd5b50610400600d5481565b34801561079157600080fd5b506102f86107a0366004612fb0565b611bb3565b3480156107b157600080fd5b506102f86107c03660046131ff565b611bd9565b3480156107d157600080fd5b5061048e600281565b3480156107e657600080fd5b506102f86107f5366004612f97565b611c61565b34801561080657600080fd5b5061040061081536600461321d565b6001600160a01b03918216600090815260016020908152604080832093909416825291909152205490565b34801561084c57600080fd5b50610400600b5481565b34801561086257600080fd5b50610400610871366004612ea2565b6001600160a01b031660009081526018602052604090205490565b34801561089857600080fd5b506102f8611cff565b3480156108ad57600080fd5b506102f86108bc366004612f97565b611e97565b3480156108cd57600080fd5b506104006108dc366004612ea2565b6001600160a01b031660009081526019602052604090205490565b34801561090357600080fd5b506104006000805160206135dd83398151915281565b34801561092557600080fd5b50600a54610391906001600160a01b031681565b6008546001600160a01b0316336001600160a01b0316146109bf5760405162461bcd60e51b815260206004820152603560248201527f476174657761793a206f6e6c79207a65726f206c6179657220656e64706f696e604482015274742063616e2063616c6c206c7a526563656976652160581b60648201526084015b60405180910390fd5b600c5461ffff878116911614610a175760405162461bcd60e51b815260206004820152601e60248201527f476174657761793a2077726f6e6720736f7572636520636861696e206964000060448201526064016109b6565b600c54604051610a39916201000090046001600160a01b03169060200161324b565b604051602081830303815290604052805190602001208585604051610a5f929190613268565b604051809103902014610ab45760405162461bcd60e51b815260206004820152601d60248201527f476174657761793a2077726f6e6720736f75726365206164647265737300000060448201526064016109b6565b600080610ac383850185613278565b601281905560408051838152602081018390529294509092507f49e3baffe51e7973c17faf6e5d19baca704f4d2d94c976d35f1975aeb4972c71910160405180910390a15050505050505050565b60006001600160e01b03198216637965db0b60e01b1480610b4257506301ffc9a760e01b6001600160e01b03198316145b92915050565b6000610b548133611f6d565b6040516370a0823160e01b81523060048201526000906001600160a01b038416906370a0823190602401602060405180830381865afa158015610b9b573d6000803e3d6000fd5b505050506040513d601f19601f82011682018060405250810190610bbf919061329a565b90508015610bdb57610bdb6001600160a01b0384163383611fd1565b505050565b606060038054610bef906132b3565b80601f0160208091040260200160405190810160405280929190818152602001828054610c1b906132b3565b8015610c685780601f10610c3d57610100808354040283529160200191610c68565b820191906000526020600020905b815481529060010190602001808311610c4b57829003601f168201915b5050505050905090565b600033610c80818585612034565b5060019392505050565b600033610c98858285612158565b610ca38585856121ea565b60019150505b9392505050565b600082815260066020526040902060010154610ccc8133611f6d565b610bdb83836123b8565b6001600160a01b0381163314610d465760405162461bcd60e51b815260206004820152602f60248201527f416363657373436f6e74726f6c3a2063616e206f6e6c792072656e6f756e636560448201526e103937b632b9903337b91039b2b63360891b60648201526084016109b6565b610d50828261243e565b5050565b3360008181526001602090815260408083206001600160a01b0387168452909152812054909190610c809082908690610d8e908790613303565b612034565b6000610d9f8133611f6d565b610da76124a5565b50565b6000805160206135dd833981519152610dc38133611f6d565b600e54600003610e155760405162461bcd60e51b815260206004820152601d60248201527f476174657761793a206465706f73697420776173206e6f742073656e7400000060448201526064016109b6565b601254600003610e375760405162461bcd60e51b81526004016109b69061331b565b60005b601054811015610f36576000600e6003018281548110610e5c57610e5c61335c565b6000918252602082200154600f5460125491935090610e7c908490613372565b610e869190613391565b9050610ebc600e6002018481548110610ea157610ea161335c565b6000918252602090912001546001600160a01b031682612538565b6010805484908110610ed057610ed061335c565b60009182526020918290200154604080518581529283018490526001600160a01b03909116917f73a19dd210f1a7f902193214c0ee91dd35ee5b4d920cba8d519eca65a7b488ca910160405180910390a250508080610f2e906133b3565b915050610e3a565b506000600e818155600f82905590610f4f601082612c96565b610f5d600383016000612c96565b6004820160009055505050565b6000805160206135dd833981519152610f838133611f6d565b6000825111610fef5760405162461bcd60e51b815260206004820152603260248201527f476174657761793a20746865726520617265206e6f2070656e64696e67207769604482015271746864726177616c7320726571756573747360701b60648201526084016109b6565b601354156110495760405162461bcd60e51b815260206004820152602160248201527f476174657761793a207769746864726177616c20686173206265656e2073656e6044820152601d60fa1b60648201526084016109b6565b6000439050600080845167ffffffffffffffff81111561106b5761106b612fe0565b604051908082528060200260200182016040528015611094578160200160208202803683370190505b50905060005b85518110156111a25760008682815181106110b7576110b761335c565b60200260200101519050600060196000836001600160a01b03166001600160a01b03168152602001908152602001600020549050808484815181106110fe576110fe61335c565b602002602001018181525050600081116111695760405162461bcd60e51b815260206004820152602660248201527f476174657761793a2077726f6e67207769746864726177616c20746f6b656e20604482015265185b5bdd5b9d60d21b60648201526084016109b6565b6111738186613303565b6001600160a01b039092166000908152601960205260408120555092508061119a816133b3565b91505061109a565b506111ad3083612617565b6040805160a08101825284815260208082018590529181018790526060810183905260006080820152601385815560148590558751919290916111f691601591908a0190612cb4565b5060608201518051611212916003840191602090910190612d19565b506080918201516004909101556040805160208101869052808201859052815180820383018152606082018352600160f01b93820193909352620249f06082808301919091528251808303909101815260a28201909252600854600c546001600160a01b039182169263c580310092479261ffff8116926112a092620100009092049091169060c20161324b565b60405160208183030381529060405286306000886040518863ffffffff1660e01b81526004016112d5969594939291906133cc565b6000604051808303818588803b1580156112ee57600080fd5b505af1158015611302573d6000803e3d6000fd5b505060408051898152602081018990527fca93029d8b85756be63378bbe39f4c5d787000dd5045194ffa315f85abaffe81945001915061133f9050565b60405180910390a150505050505050565b600061135c8133611f6d565b610da7612765565b60009182526006602090815260408084206001600160a01b0393909316845291905290205460ff1690565b606060048054610bef906132b3565b33600081815260186020526040902054156113dd576001600160a01b03808216600090815260186020526040902054600a546113dd9216908390611fd1565b6001600160a01b038116600081815260186020526040808220829055517f8e6791922f0af048953266d35003db7f19a7c0c3e762206073924390ed2e44a19190a250565b3360008181526001602090815260408083206001600160a01b0387168452909152812054909190838110156114a65760405162461bcd60e51b815260206004820152602560248201527f45524332303a2064656372656173656420616c6c6f77616e63652062656c6f77604482015264207a65726f60d81b60648201526084016109b6565b6114b38286868403612034565b506001949350505050565b600033610c808185856121ea565b6007546001600160a01b0316336001600160a01b0316146115495760405162461bcd60e51b815260206004820152603160248201527f476174657761793a206f6e6c7920737461726761746520726f757465722063616044820152706e2063616c6c207367526563656976652160781b60648201526084016109b6565b600c5461ffff8781169116146115a15760405162461bcd60e51b815260206004820152601e60248201527f476174657761793a2077726f6e6720736f7572636520636861696e206964000060448201526064016109b6565b600c546040516115c3916201000090046001600160a01b03169060200161324b565b6040516020818303038152906040528051906020012085805190602001201461162e5760405162461bcd60e51b815260206004820152601d60248201527f476174657761793a2077726f6e6720736f75726365206164647265737300000060448201526064016109b6565b600081806020019051810190611644919061329a565b601784905560408051828152602081018690529192507f4512adbb32f94d3ef3966e741359df426c6ea4798f439f2e86aba8511d7f355e910161133f565b600061168e8133611f6d565b478015610d5057604051339082156108fc029083906000818181858888f19350505050158015610bdb573d6000803e3d6000fd5b6000805160206135dd8339815191526116db8133611f6d565b600e541561172b5760405162461bcd60e51b815260206004820152601e60248201527f476174657761793a206465706f73697420686173206265656e2073656e74000060448201526064016109b6565b6000439050600080845167ffffffffffffffff81111561174d5761174d612fe0565b604051908082528060200260200182016040528015611776578160200160208202803683370190505b50905060005b85518110156118815760008682815181106117995761179961335c565b60200260200101519050600060186000836001600160a01b03166001600160a01b03168152602001908152602001600020549050808484815181106117e0576117e061335c565b602002602001018181525050600081116118485760405162461bcd60e51b815260206004820152602360248201527f476174657761793a2077726f6e67206465706f73697420746f6b656e20616d6f6044820152621d5b9d60ea1b60648201526084016109b6565b6118528186613303565b6001600160a01b0390921660009081526018602052604081205550925080611879816133b3565b91505061177c565b506040805160a08101825284815260208082018590529181018790526060810183905260006080820152600e858155600f8590558751919290916118cb91601091908a0190612cb4565b50606082015180516118e7916003840191602090910190612d19565b5060809190910151600490910155600754600a54611912916001600160a01b039182169116846127bd565b600754600c54600b54600d546009546001600160a01b0390941693639fbf10fc93479361ffff90911692909130908990612710906119509082613433565b61195a908c613372565b6119649190613391565b6040518060600160405280620249f081526020016000815260200160405180604001604052806002815260200161060f60f31b815250815250600c60029054906101000a90046001600160a01b03166040516020016119c3919061324b565b6040516020818303038152906040528d6040516020016119e591815260200190565b6040516020818303038152906040526040518b63ffffffff1660e01b8152600401611a189998979695949392919061344a565b6000604051808303818588803b158015611a3157600080fd5b505af1158015611a45573d6000803e3d6000fd5b505060408051878152602081018790527f249b5b40f3ee110998261a31938a3f3cde15c67ea4b4e49e0e65396b1b699a5f9450019150611a829050565b60405180910390a15050505050565b3360008181526019602052604090205415611acc576001600160a01b038116600090815260196020526040902054611acc9030908390611fd1565b6001600160a01b038116600081815260196020526040808220829055517fd26c0705ec1b540c110fcc4cba0e7c0608b7e17a1bb09af3ae5876f361829d7a9190a250565b6000611b1c8133611f6d565b6127108261ffff161115611b725760405162461bcd60e51b815260206004820181905260248201527f476174657761793a2077726f6e6720737461726761746520736c69707061676560448201526064016109b6565b61ffff821660098190556040519081527fb5cd78aab69202b3af2c4e5171dc7dbb7dd29b301421a6cb87458308944a3ae89060200160405180910390a15050565b600082815260066020526040902060010154611bcf8133611f6d565b610bdb838361243e565b6000611be58133611f6d565b600c805461ffff86166001600160b01b03199091168117620100006001600160a01b03871690810291909117909255600d8490556040805191825260208201929092529081018390527f8760e029f8273c23323e7a43cffeacf013a8df5507d300900cb546d654c77e589060600160405180910390a150505050565b60055460ff1615611c845760405162461bcd60e51b81526004016109b6906134e8565b8015611cc757611ca233600a546001600160a01b031690308461286f565b3360009081526018602052604081208054839290611cc1908490613303565b90915550505b60405181815233907fe5fbbd94268e59434a5d90c30d6d5f20f302ebbcc75887f60552c7cd664709739060200160405180910390a250565b6000805160206135dd833981519152611d188133611f6d565b601354600003611d6a5760405162461bcd60e51b815260206004820181905260248201527f476174657761793a207769746864726177616c20776173206e6f742073656e7460448201526064016109b6565b601754600003611d8c5760405162461bcd60e51b81526004016109b69061331b565b60005b601554811015611e7e57600060136003018281548110611db157611db161335c565b90600052602060002001549050600060136002018381548110611dd657611dd661335c565b60009182526020822001546014546017546001600160a01b03909216935090611e00908590613372565b611e0a9190613391565b600a54909150611e24906001600160a01b03168383611fd1565b60408051828152602081018590526001600160a01b038416917f92ccf450a286a957af52509bc1c9939d1a6a481783e142e41e2499f0bb66ebc6910160405180910390a25050508080611e76906133b3565b915050611d8f565b5060006013818155601482905590610f4f601582612c96565b60055460ff1615611eba5760405162461bcd60e51b81526004016109b6906134e8565b60008111611f155760405162461bcd60e51b815260206004820152602260248201527f476174657761793a206c70416d6f756e74206d75737420626520686967686572604482015261020360f41b60648201526084016109b6565b611f213033818461286f565b33600081815260196020908152604091829020849055905183815282917f37386f192734abb6bb6d2c7a0fbad1e3bfb00e35eec911737c17c02f9d32fb9f910160405180910390a25050565b611f778282611364565b610d5057611f8f816001600160a01b031660146128a7565b611f9a8360206128a7565b604051602001611fab929190613512565b60408051601f198184030181529082905262461bcd60e51b82526109b691600401612f17565b6040516001600160a01b038316602482015260448101829052610bdb90849063a9059cbb60e01b906064015b60408051601f198184030181529190526020810180516001600160e01b03166001600160e01b031990931692909217909152612a43565b6001600160a01b0383166120965760405162461bcd60e51b8152602060048201526024808201527f45524332303a20617070726f76652066726f6d20746865207a65726f206164646044820152637265737360e01b60648201526084016109b6565b6001600160a01b0382166120f75760405162461bcd60e51b815260206004820152602260248201527f45524332303a20617070726f766520746f20746865207a65726f206164647265604482015261737360f01b60648201526084016109b6565b6001600160a01b0383811660008181526001602090815260408083209487168084529482529182902085905590518481527f8c5be1e5ebec7d5bd14f71427d1e84f3dd0314c0f7b2291e5b200ac8c7c3b925910160405180910390a3505050565b6001600160a01b0383811660009081526001602090815260408083209386168352929052205460001981146121e457818110156121d75760405162461bcd60e51b815260206004820152601d60248201527f45524332303a20696e73756666696369656e7420616c6c6f77616e636500000060448201526064016109b6565b6121e48484848403612034565b50505050565b6001600160a01b03831661224e5760405162461bcd60e51b815260206004820152602560248201527f45524332303a207472616e736665722066726f6d20746865207a65726f206164604482015264647265737360d81b60648201526084016109b6565b6001600160a01b0382166122b05760405162461bcd60e51b815260206004820152602360248201527f45524332303a207472616e7366657220746f20746865207a65726f206164647260448201526265737360e81b60648201526084016109b6565b6001600160a01b038316600090815260208190526040902054818110156123285760405162461bcd60e51b815260206004820152602660248201527f45524332303a207472616e7366657220616d6f756e7420657863656564732062604482015265616c616e636560d01b60648201526084016109b6565b6001600160a01b0380851660009081526020819052604080822085850390559185168152908120805484929061235f908490613303565b92505081905550826001600160a01b0316846001600160a01b03167fddf252ad1be2c89b69c2b068fc378daa952ba7f163c4a11628f55a4df523b3ef846040516123ab91815260200190565b60405180910390a36121e4565b6123c28282611364565b610d505760008281526006602090815260408083206001600160a01b03851684529091529020805460ff191660011790556123fa3390565b6001600160a01b0316816001600160a01b0316837f2f8788117e7eff1d82e926ec794901d17c78024a50270940304540a733656f0d60405160405180910390a45050565b6124488282611364565b15610d505760008281526006602090815260408083206001600160a01b0385168085529252808320805460ff1916905551339285917ff6391f5c32d9c69d2a47ea670b442974b53935d1edc7fd64eb21e047a839171b9190a45050565b60055460ff166124ee5760405162461bcd60e51b815260206004820152601460248201527314185d5cd8589b194e881b9bdd081c185d5cd95960621b60448201526064016109b6565b6005805460ff191690557f5db9ee0a495bf2e6ff9c91a7834c1ba4fdd244a5e8aa4e537bd38aeae4b073aa335b6040516001600160a01b03909116815260200160405180910390a1565b6001600160a01b03821661258e5760405162461bcd60e51b815260206004820152601f60248201527f45524332303a206d696e7420746f20746865207a65726f20616464726573730060448201526064016109b6565b80600260008282546125a09190613303565b90915550506001600160a01b038216600090815260208190526040812080548392906125cd908490613303565b90915550506040518181526001600160a01b038316906000907fddf252ad1be2c89b69c2b068fc378daa952ba7f163c4a11628f55a4df523b3ef9060200160405180910390a35050565b6001600160a01b0382166126775760405162461bcd60e51b815260206004820152602160248201527f45524332303a206275726e2066726f6d20746865207a65726f206164647265736044820152607360f81b60648201526084016109b6565b6001600160a01b038216600090815260208190526040902054818110156126eb5760405162461bcd60e51b815260206004820152602260248201527f45524332303a206275726e20616d6f756e7420657863656564732062616c616e604482015261636560f01b60648201526084016109b6565b6001600160a01b038316600090815260208190526040812083830390556002805484929061271a908490613433565b90915550506040518281526000906001600160a01b038516907fddf252ad1be2c89b69c2b068fc378daa952ba7f163c4a11628f55a4df523b3ef9060200160405180910390a3505050565b60055460ff16156127885760405162461bcd60e51b81526004016109b6906134e8565b6005805460ff191660011790557f62e78cea01bee320cd4e420270b5ea74000d11b0c9f74754ebdbfc544b05a25861251b3390565b604051636eb1769f60e11b81523060048201526001600160a01b038381166024830152600091839186169063dd62ed3e90604401602060405180830381865afa15801561280e573d6000803e3d6000fd5b505050506040513d601f19601f82011682018060405250810190612832919061329a565b61283c9190613303565b6040516001600160a01b0385166024820152604481018290529091506121e490859063095ea7b360e01b90606401611ffd565b6040516001600160a01b03808516602483015283166044820152606481018290526121e49085906323b872dd60e01b90608401611ffd565b606060006128b6836002613372565b6128c1906002613303565b67ffffffffffffffff8111156128d9576128d9612fe0565b6040519080825280601f01601f191660200182016040528015612903576020820181803683370190505b509050600360fc1b8160008151811061291e5761291e61335c565b60200101906001600160f81b031916908160001a905350600f60fb1b8160018151811061294d5761294d61335c565b60200101906001600160f81b031916908160001a9053506000612971846002613372565b61297c906001613303565b90505b60018111156129f4576f181899199a1a9b1b9c1cb0b131b232b360811b85600f16601081106129b0576129b061335c565b1a60f81b8282815181106129c6576129c661335c565b60200101906001600160f81b031916908160001a90535060049490941c936129ed81613587565b905061297f565b508315610ca95760405162461bcd60e51b815260206004820181905260248201527f537472696e67733a20686578206c656e67746820696e73756666696369656e7460448201526064016109b6565b6000612a98826040518060400160405280602081526020017f5361666545524332303a206c6f772d6c6576656c2063616c6c206661696c6564815250856001600160a01b0316612b159092919063ffffffff16565b805190915015610bdb5780806020019051810190612ab6919061359e565b610bdb5760405162461bcd60e51b815260206004820152602a60248201527f5361666545524332303a204552433230206f7065726174696f6e20646964206e6044820152691bdd081cdd58d8d9595960b21b60648201526084016109b6565b6060612b248484600085612b2c565b949350505050565b606082471015612b8d5760405162461bcd60e51b815260206004820152602660248201527f416464726573733a20696e73756666696369656e742062616c616e636520666f6044820152651c8818d85b1b60d21b60648201526084016109b6565b6001600160a01b0385163b612be45760405162461bcd60e51b815260206004820152601d60248201527f416464726573733a2063616c6c20746f206e6f6e2d636f6e747261637400000060448201526064016109b6565b600080866001600160a01b03168587604051612c0091906135c0565b60006040518083038185875af1925050503d8060008114612c3d576040519150601f19603f3d011682016040523d82523d6000602084013e612c42565b606091505b5091509150612c52828286612c5d565b979650505050505050565b60608315612c6c575081610ca9565b825115612c7c5782518084602001fd5b8160405162461bcd60e51b81526004016109b69190612f17565b5080546000825590600052602060002090810190610da79190612d54565b828054828255906000526020600020908101928215612d09579160200282015b82811115612d0957825182546001600160a01b0319166001600160a01b03909116178255602090920191600190910190612cd4565b50612d15929150612d54565b5090565b828054828255906000526020600020908101928215612d09579160200282015b82811115612d09578251825591602001919060010190612d39565b5b80821115612d155760008155600101612d55565b803561ffff81168114612d7b57600080fd5b919050565b60008083601f840112612d9257600080fd5b50813567ffffffffffffffff811115612daa57600080fd5b602083019150836020828501011115612dc257600080fd5b9250929050565b60008060008060008060808789031215612de257600080fd5b612deb87612d69565b9550602087013567ffffffffffffffff80821115612e0857600080fd5b612e148a838b01612d80565b9097509550604089013591508082168214612e2e57600080fd5b90935060608801359080821115612e4457600080fd5b50612e5189828a01612d80565b979a9699509497509295939492505050565b600060208284031215612e7557600080fd5b81356001600160e01b031981168114610ca957600080fd5b6001600160a01b0381168114610da757600080fd5b600060208284031215612eb457600080fd5b8135610ca981612e8d565b60005b83811015612eda578181015183820152602001612ec2565b838111156121e45750506000910152565b60008151808452612f03816020860160208601612ebf565b601f01601f19169290920160200192915050565b602081526000610ca96020830184612eeb565b60008060408385031215612f3d57600080fd5b8235612f4881612e8d565b946020939093013593505050565b600080600060608486031215612f6b57600080fd5b8335612f7681612e8d565b92506020840135612f8681612e8d565b929592945050506040919091013590565b600060208284031215612fa957600080fd5b5035919050565b60008060408385031215612fc357600080fd5b823591506020830135612fd581612e8d565b809150509250929050565b634e487b7160e01b600052604160045260246000fd5b604051601f8201601f1916810167ffffffffffffffff8111828210171561301f5761301f612fe0565b604052919050565b6000602080838503121561303a57600080fd5b823567ffffffffffffffff8082111561305257600080fd5b818501915085601f83011261306657600080fd5b81358181111561307857613078612fe0565b8060051b9150613089848301612ff6565b81815291830184019184810190888411156130a357600080fd5b938501935b838510156130cd57843592506130bd83612e8d565b82825293850193908501906130a8565b98975050505050505050565b600082601f8301126130ea57600080fd5b813567ffffffffffffffff81111561310457613104612fe0565b613117601f8201601f1916602001612ff6565b81815284602083860101111561312c57600080fd5b816020850160208301376000918101602001919091529392505050565b60008060008060008060c0878903121561316257600080fd5b61316b87612d69565b9550602087013567ffffffffffffffff8082111561318857600080fd5b6131948a838b016130d9565b965060408901359550606089013591506131ad82612e8d565b9093506080880135925060a088013590808211156131ca57600080fd5b506131d789828a016130d9565b9150509295509295509295565b6000602082840312156131f657600080fd5b610ca982612d69565b60008060006060848603121561321457600080fd5b612f7684612d69565b6000806040838503121561323057600080fd5b823561323b81612e8d565b91506020830135612fd581612e8d565b60609190911b6bffffffffffffffffffffffff1916815260140190565b8183823760009101908152919050565b6000806040838503121561328b57600080fd5b50508035926020909101359150565b6000602082840312156132ac57600080fd5b5051919050565b600181811c908216806132c757607f821691505b6020821081036132e757634e487b7160e01b600052602260045260246000fd5b50919050565b634e487b7160e01b600052601160045260246000fd5b60008219821115613316576133166132ed565b500190565b60208082526021908201527f476174657761793a2063616c6c6261636b207761736e277420726563656976656040820152601960fa1b606082015260800190565b634e487b7160e01b600052603260045260246000fd5b600081600019048311821515161561338c5761338c6132ed565b500290565b6000826133ae57634e487b7160e01b600052601260045260246000fd5b500490565b6000600182016133c5576133c56132ed565b5060010190565b61ffff8716815260c0602082015260006133e960c0830188612eeb565b82810360408401526133fb8188612eeb565b6001600160a01b0387811660608601528616608085015283810360a085015290506134268185612eeb565b9998505050505050505050565b600082821015613445576134456132ed565b500390565b600061012061ffff8c1683528a602084015289604084015260018060a01b03891660608401528760808401528660a08401528060c0840152855181840152506020850151610140830152604085015160606101608401526134af610180840182612eeb565b905082810360e08401526134c38186612eeb565b90508281036101008401526134d88185612eeb565b9c9b505050505050505050505050565b60208082526010908201526f14185d5cd8589b194e881c185d5cd95960821b604082015260600190565b7f416363657373436f6e74726f6c3a206163636f756e742000000000000000000081526000835161354a816017850160208801612ebf565b7001034b99036b4b9b9b4b733903937b6329607d1b601791840191820152835161357b816028840160208801612ebf565b01602801949350505050565b600081613596576135966132ed565b506000190190565b6000602082840312156135b057600080fd5b81518015158114610ca957600080fd5b600082516135d2818460208701612ebf565b919091019291505056fe97667070c54ef182b0f5858b034beac1b6f3089aa2d3188bb1e8929f4fa9b929a264697066735822122003ddc4bd6a2be7154c13c9fc1382bc3ce1ca1bed710f2c4c4c1b7bc73ce59c9a64736f6c634300080f0033",
  "linkReferences": {},
  "deployedLinkReferences": {}
}