{
  "contractName": "Main",
  "abi": [
    {
      "inputs": [],
      "stateMutability": "nonpayable",
      "type": "constructor"
    },
    {
      "inputs": [],
      "name": "admin",
      "outputs": [
        {
          "internalType": "address",
          "name": "",
          "type": "address"
        }
      ],
      "stateMutability": "view",
      "type": "function"
    },
    {
      "inputs": [
        {
          "internalType": "bytes32",
          "name": "",
          "type": "bytes32"
        }
      ],
      "name": "stableCoins",
      "outputs": [
        {
          "internalType": "bytes32",
          "name": "ticker",
          "type": "bytes32"
        },
        {
          "internalType": "contract IERC20",
          "name": "token",
          "type": "address"
        }
      ],
      "stateMutability": "view",
      "type": "function"
    },
    {
      "inputs": [
        {
          "internalType": "address",
          "name": "",
          "type": "address"
        },
        {
          "internalType": "bytes32",
          "name": "",
          "type": "bytes32"
        }
      ],
      "name": "traderBalances",
      "outputs": [
        {
          "internalType": "uint256",
          "name": "",
          "type": "uint256"
        }
      ],
      "stateMutability": "view",
      "type": "function"
    },
    {
      "inputs": [
        {
          "internalType": "bytes32",
          "name": "ticker",
          "type": "bytes32"
        },
        {
          "internalType": "uint256",
          "name": "amount",
          "type": "uint256"
        }
      ],
      "name": "deposit",
      "outputs": [],
      "stateMutability": "nonpayable",
      "type": "function"
    },
    {
      "inputs": [
        {
          "internalType": "bytes32",
          "name": "ticker",
          "type": "bytes32"
        },
        {
          "internalType": "uint256",
          "name": "amount",
          "type": "uint256"
        }
      ],
      "name": "withdraw",
      "outputs": [],
      "stateMutability": "nonpayable",
      "type": "function"
    }
  ],
  "bytecode": "0x608060405234801561001057600080fd5b5033600260006101000a81548173ffffffffffffffffffffffffffffffffffffffff021916908373ffffffffffffffffffffffffffffffffffffffff16021790555060405180604001604052807f7573646300000000000000000000000000000000000000000000000000000000815260200173a0b86991c6218b36c1d19d4a2e9eb0ce3606eb4873ffffffffffffffffffffffffffffffffffffffff168152506000807f757364630000000000000000000000000000000000000000000000000000000081526020019081526020016000206000820151816000015560208201518160010160006101000a81548173ffffffffffffffffffffffffffffffffffffffff021916908373ffffffffffffffffffffffffffffffffffffffff16021790555090505060405180604001604052807f7573647400000000000000000000000000000000000000000000000000000000815260200173dac17f958d2ee523a2206206994597c13d831ec773ffffffffffffffffffffffffffffffffffffffff168152506000807f757364740000000000000000000000000000000000000000000000000000000081526020019081526020016000206000820151816000015560208201518160010160006101000a81548173ffffffffffffffffffffffffffffffffffffffff021916908373ffffffffffffffffffffffffffffffffffffffff16021790555090505060405180604001604052807f7a7573640000000000000000000000000000000000000000000000000000000081526020013060405161025a90610325565b6102649190610341565b604051809103906000f080158015610280573d6000803e3d6000fd5b5073ffffffffffffffffffffffffffffffffffffffff168152506000807f7a7573640000000000000000000000000000000000000000000000000000000081526020019081526020016000206000820151816000015560208201518160010160006101000a81548173ffffffffffffffffffffffffffffffffffffffff021916908373ffffffffffffffffffffffffffffffffffffffff16021790555090505061038e565b611df0806107a783390190565b61033b8161035c565b82525050565b60006020820190506103566000830184610332565b92915050565b60006103678261036e565b9050919050565b600073ffffffffffffffffffffffffffffffffffffffff82169050919050565b61040a8061039d6000396000f3fe608060405234801561001057600080fd5b50600436106100575760003560e01c8063040cf0201461005c5780631de26e161461007857806372ce957e14610094578063d56f5a5c146100c4578063f851a440146100f5575b600080fd5b6100766004803603810190610071919061024e565b610113565b005b610092600480360381019061008d919061024e565b610117565b005b6100ae60048036038101906100a991906101e9565b61011b565b6040516100bb919061030a565b60405180910390f35b6100de60048036038101906100d99190610225565b610140565b6040516100ec9291906102e1565b60405180910390f35b6100fd610184565b60405161010a91906102c6565b60405180910390f35b5050565b5050565b6001602052816000526040600020602052806000526040600020600091509150505481565b60006020528060005260406000206000915090508060000154908060010160009054906101000a900473ffffffffffffffffffffffffffffffffffffffff16905082565b600260009054906101000a900473ffffffffffffffffffffffffffffffffffffffff1681565b6000813590506101b98161038f565b92915050565b6000813590506101ce816103a6565b92915050565b6000813590506101e3816103bd565b92915050565b600080604083850312156101fc57600080fd5b600061020a858286016101aa565b925050602061021b858286016101bf565b9150509250929050565b60006020828403121561023757600080fd5b6000610245848285016101bf565b91505092915050565b6000806040838503121561026157600080fd5b600061026f858286016101bf565b9250506020610280858286016101d4565b9150509250929050565b61029381610325565b82525050565b6102a281610337565b82525050565b6102b18161036b565b82525050565b6102c081610361565b82525050565b60006020820190506102db600083018461028a565b92915050565b60006040820190506102f66000830185610299565b61030360208301846102a8565b9392505050565b600060208201905061031f60008301846102b7565b92915050565b600061033082610341565b9050919050565b6000819050919050565b600073ffffffffffffffffffffffffffffffffffffffff82169050919050565b6000819050919050565b60006103768261037d565b9050919050565b600061038882610341565b9050919050565b61039881610325565b81146103a357600080fd5b50565b6103af81610337565b81146103ba57600080fd5b50565b6103c681610361565b81146103d157600080fd5b5056fea264697066735822122026caf95e5d17ebc98c2737c3bf0ee66e75fca67ef11a6aea39fcb2116963b27f64736f6c6343000803003360806040523480156200001157600080fd5b5060405162001df038038062001df08339818101604052810190620000379190620001e6565b6040518060400160405280601181526020017f5a756e616d6920537461626c65636f696e0000000000000000000000000000008152506040518060400160405280600481526020017f5a555344000000000000000000000000000000000000000000000000000000008152508160039080519060200190620000bb9291906200011f565b508060049080519060200190620000d49291906200011f565b50505080600560006101000a81548173ffffffffffffffffffffffffffffffffffffffff021916908373ffffffffffffffffffffffffffffffffffffffff16021790555050620002c5565b8280546200012d9062000246565b90600052602060002090601f0160209004810192826200015157600085556200019d565b82601f106200016c57805160ff19168380011785556200019d565b828001600101855582156200019d579182015b828111156200019c5782518255916020019190600101906200017f565b5b509050620001ac9190620001b0565b5090565b5b80821115620001cb576000816000905550600101620001b1565b5090565b600081519050620001e081620002ab565b92915050565b600060208284031215620001f957600080fd5b60006200020984828501620001cf565b91505092915050565b60006200021f8262000226565b9050919050565b600073ffffffffffffffffffffffffffffffffffffffff82169050919050565b600060028204905060018216806200025f57607f821691505b602082108114156200027657620002756200027c565b5b50919050565b7f4e487b7100000000000000000000000000000000000000000000000000000000600052602260045260246000fd5b620002b68162000212565b8114620002c257600080fd5b50565b611b1b80620002d56000396000f3fe608060405234801561001057600080fd5b50600436106100ea5760003560e01c806370a082311161008c5780639dc29fac116100665780639dc29fac14610261578063a457c2d71461027d578063a9059cbb146102ad578063dd62ed3e146102dd576100ea565b806370a08231146101f55780638da5cb5b1461022557806395d89b4114610243576100ea565b806323b872dd116100c857806323b872dd1461015b578063313ce5671461018b57806339509351146101a957806340c10f19146101d9576100ea565b806306fdde03146100ef578063095ea7b31461010d57806318160ddd1461013d575b600080fd5b6100f761030d565b6040516101049190611417565b60405180910390f35b610127600480360381019061012291906111af565b61039f565b60405161013491906113fc565b60405180910390f35b6101456103bd565b6040516101529190611599565b60405180910390f35b61017560048036038101906101709190611160565b6103c7565b60405161018291906113fc565b60405180910390f35b6101936104c8565b6040516101a091906115b4565b60405180910390f35b6101c360048036038101906101be91906111af565b6104d1565b6040516101d091906113fc565b60405180910390f35b6101f360048036038101906101ee91906111af565b61057d565b005b61020f600480360381019061020a91906110fb565b61061b565b60405161021c9190611599565b60405180910390f35b61022d610663565b60405161023a91906113e1565b60405180910390f35b61024b610689565b6040516102589190611417565b60405180910390f35b61027b600480360381019061027691906111af565b61071b565b005b610297600480360381019061029291906111af565b6107b9565b6040516102a491906113fc565b60405180910390f35b6102c760048036038101906102c291906111af565b6108ad565b6040516102d491906113fc565b60405180910390f35b6102f760048036038101906102f29190611124565b6108cb565b6040516103049190611599565b60405180910390f35b60606003805461031c906116fd565b80601f0160208091040260200160405190810160405280929190818152602001828054610348906116fd565b80156103955780601f1061036a57610100808354040283529160200191610395565b820191906000526020600020905b81548152906001019060200180831161037857829003601f168201915b5050505050905090565b60006103b36103ac610952565b848461095a565b6001905092915050565b6000600254905090565b60006103d4848484610b25565b6000600160008673ffffffffffffffffffffffffffffffffffffffff1673ffffffffffffffffffffffffffffffffffffffff168152602001908152602001600020600061041f610952565b73ffffffffffffffffffffffffffffffffffffffff1673ffffffffffffffffffffffffffffffffffffffff1681526020019081526020016000205490508281101561049f576040517f08c379a0000000000000000000000000000000000000000000000000000000008152600401610496906114b9565b60405180910390fd5b6104bc856104ab610952565b85846104b79190611641565b61095a565b60019150509392505050565b60006012905090565b60006105736104de610952565b8484600160006104ec610952565b73ffffffffffffffffffffffffffffffffffffffff1673ffffffffffffffffffffffffffffffffffffffff16815260200190815260200160002060008873ffffffffffffffffffffffffffffffffffffffff1673ffffffffffffffffffffffffffffffffffffffff1681526020019081526020016000205461056e91906115eb565b61095a565b6001905092915050565b600560009054906101000a900473ffffffffffffffffffffffffffffffffffffffff1673ffffffffffffffffffffffffffffffffffffffff163373ffffffffffffffffffffffffffffffffffffffff161461060d576040517f08c379a0000000000000000000000000000000000000000000000000000000008152600401610604906114d9565b60405180910390fd5b6106178282610da4565b5050565b60008060008373ffffffffffffffffffffffffffffffffffffffff1673ffffffffffffffffffffffffffffffffffffffff168152602001908152602001600020549050919050565b600560009054906101000a900473ffffffffffffffffffffffffffffffffffffffff1681565b606060048054610698906116fd565b80601f01602080910402602001604051908101604052809291908181526020018280546106c4906116fd565b80156107115780601f106106e657610100808354040283529160200191610711565b820191906000526020600020905b8154815290600101906020018083116106f457829003601f168201915b5050505050905090565b600560009054906101000a900473ffffffffffffffffffffffffffffffffffffffff1673ffffffffffffffffffffffffffffffffffffffff163373ffffffffffffffffffffffffffffffffffffffff16146107ab576040517f08c379a00000000000000000000000000000000000000000000000000000000081526004016107a2906114d9565b60405180910390fd5b6107b58282610ef8565b5050565b600080600160006107c8610952565b73ffffffffffffffffffffffffffffffffffffffff1673ffffffffffffffffffffffffffffffffffffffff16815260200190815260200160002060008573ffffffffffffffffffffffffffffffffffffffff1673ffffffffffffffffffffffffffffffffffffffff16815260200190815260200160002054905082811015610885576040517f08c379a000000000000000000000000000000000000000000000000000000000815260040161087c90611559565b60405180910390fd5b6108a2610890610952565b85858461089d9190611641565b61095a565b600191505092915050565b60006108c16108ba610952565b8484610b25565b6001905092915050565b6000600160008473ffffffffffffffffffffffffffffffffffffffff1673ffffffffffffffffffffffffffffffffffffffff16815260200190815260200160002060008373ffffffffffffffffffffffffffffffffffffffff1673ffffffffffffffffffffffffffffffffffffffff16815260200190815260200160002054905092915050565b600033905090565b600073ffffffffffffffffffffffffffffffffffffffff168373ffffffffffffffffffffffffffffffffffffffff1614156109ca576040517f08c379a00000000000000000000000000000000000000000000000000000000081526004016109c190611539565b60405180910390fd5b600073ffffffffffffffffffffffffffffffffffffffff168273ffffffffffffffffffffffffffffffffffffffff161415610a3a576040517f08c379a0000000000000000000000000000000000000000000000000000000008152600401610a3190611479565b60405180910390fd5b80600160008573ffffffffffffffffffffffffffffffffffffffff1673ffffffffffffffffffffffffffffffffffffffff16815260200190815260200160002060008473ffffffffffffffffffffffffffffffffffffffff1673ffffffffffffffffffffffffffffffffffffffff168152602001908152602001600020819055508173ffffffffffffffffffffffffffffffffffffffff168373ffffffffffffffffffffffffffffffffffffffff167f8c5be1e5ebec7d5bd14f71427d1e84f3dd0314c0f7b2291e5b200ac8c7c3b92583604051610b189190611599565b60405180910390a3505050565b600073ffffffffffffffffffffffffffffffffffffffff168373ffffffffffffffffffffffffffffffffffffffff161415610b95576040517f08c379a0000000000000000000000000000000000000000000000000000000008152600401610b8c90611519565b60405180910390fd5b600073ffffffffffffffffffffffffffffffffffffffff168273ffffffffffffffffffffffffffffffffffffffff161415610c05576040517f08c379a0000000000000000000000000000000000000000000000000000000008152600401610bfc90611439565b60405180910390fd5b610c108383836110cc565b60008060008573ffffffffffffffffffffffffffffffffffffffff1673ffffffffffffffffffffffffffffffffffffffff16815260200190815260200160002054905081811015610c96576040517f08c379a0000000000000000000000000000000000000000000000000000000008152600401610c8d90611499565b60405180910390fd5b8181610ca29190611641565b6000808673ffffffffffffffffffffffffffffffffffffffff1673ffffffffffffffffffffffffffffffffffffffff16815260200190815260200160002081905550816000808573ffffffffffffffffffffffffffffffffffffffff1673ffffffffffffffffffffffffffffffffffffffff1681526020019081526020016000206000828254610d3291906115eb565b925050819055508273ffffffffffffffffffffffffffffffffffffffff168473ffffffffffffffffffffffffffffffffffffffff167fddf252ad1be2c89b69c2b068fc378daa952ba7f163c4a11628f55a4df523b3ef84604051610d969190611599565b60405180910390a350505050565b600073ffffffffffffffffffffffffffffffffffffffff168273ffffffffffffffffffffffffffffffffffffffff161415610e14576040517f08c379a0000000000000000000000000000000000000000000000000000000008152600401610e0b90611579565b60405180910390fd5b610e20600083836110cc565b8060026000828254610e3291906115eb565b92505081905550806000808473ffffffffffffffffffffffffffffffffffffffff1673ffffffffffffffffffffffffffffffffffffffff1681526020019081526020016000206000828254610e8791906115eb565b925050819055508173ffffffffffffffffffffffffffffffffffffffff16600073ffffffffffffffffffffffffffffffffffffffff167fddf252ad1be2c89b69c2b068fc378daa952ba7f163c4a11628f55a4df523b3ef83604051610eec9190611599565b60405180910390a35050565b600073ffffffffffffffffffffffffffffffffffffffff168273ffffffffffffffffffffffffffffffffffffffff161415610f68576040517f08c379a0000000000000000000000000000000000000000000000000000000008152600401610f5f906114f9565b60405180910390fd5b610f74826000836110cc565b60008060008473ffffffffffffffffffffffffffffffffffffffff1673ffffffffffffffffffffffffffffffffffffffff16815260200190815260200160002054905081811015610ffa576040517f08c379a0000000000000000000000000000000000000000000000000000000008152600401610ff190611459565b60405180910390fd5b81816110069190611641565b6000808573ffffffffffffffffffffffffffffffffffffffff1673ffffffffffffffffffffffffffffffffffffffff16815260200190815260200160002081905550816002600082825461105a9190611641565b92505081905550600073ffffffffffffffffffffffffffffffffffffffff168373ffffffffffffffffffffffffffffffffffffffff167fddf252ad1be2c89b69c2b068fc378daa952ba7f163c4a11628f55a4df523b3ef846040516110bf9190611599565b60405180910390a3505050565b505050565b6000813590506110e081611ab7565b92915050565b6000813590506110f581611ace565b92915050565b60006020828403121561110d57600080fd5b600061111b848285016110d1565b91505092915050565b6000806040838503121561113757600080fd5b6000611145858286016110d1565b9250506020611156858286016110d1565b9150509250929050565b60008060006060848603121561117557600080fd5b6000611183868287016110d1565b9350506020611194868287016110d1565b92505060406111a5868287016110e6565b9150509250925092565b600080604083850312156111c257600080fd5b60006111d0858286016110d1565b92505060206111e1858286016110e6565b9150509250929050565b6111f481611675565b82525050565b61120381611687565b82525050565b6000611214826115cf565b61121e81856115da565b935061122e8185602086016116ca565b6112378161178d565b840191505092915050565b600061124f6023836115da565b915061125a8261179e565b604082019050919050565b60006112726022836115da565b915061127d826117ed565b604082019050919050565b60006112956022836115da565b91506112a08261183c565b604082019050919050565b60006112b86026836115da565b91506112c38261188b565b604082019050919050565b60006112db6028836115da565b91506112e6826118da565b604082019050919050565b60006112fe600a836115da565b915061130982611929565b602082019050919050565b60006113216021836115da565b915061132c82611952565b604082019050919050565b60006113446025836115da565b915061134f826119a1565b604082019050919050565b60006113676024836115da565b9150611372826119f0565b604082019050919050565b600061138a6025836115da565b915061139582611a3f565b604082019050919050565b60006113ad601f836115da565b91506113b882611a8e565b602082019050919050565b6113cc816116b3565b82525050565b6113db816116bd565b82525050565b60006020820190506113f660008301846111eb565b92915050565b600060208201905061141160008301846111fa565b92915050565b600060208201905081810360008301526114318184611209565b905092915050565b6000602082019050818103600083015261145281611242565b9050919050565b6000602082019050818103600083015261147281611265565b9050919050565b6000602082019050818103600083015261149281611288565b9050919050565b600060208201905081810360008301526114b2816112ab565b9050919050565b600060208201905081810360008301526114d2816112ce565b9050919050565b600060208201905081810360008301526114f2816112f1565b9050919050565b6000602082019050818103600083015261151281611314565b9050919050565b6000602082019050818103600083015261153281611337565b9050919050565b600060208201905081810360008301526115528161135a565b9050919050565b600060208201905081810360008301526115728161137d565b9050919050565b60006020820190508181036000830152611592816113a0565b9050919050565b60006020820190506115ae60008301846113c3565b92915050565b60006020820190506115c960008301846113d2565b92915050565b600081519050919050565b600082825260208201905092915050565b60006115f6826116b3565b9150611601836116b3565b9250827fffffffffffffffffffffffffffffffffffffffffffffffffffffffffffffffff038211156116365761163561172f565b5b828201905092915050565b600061164c826116b3565b9150611657836116b3565b92508282101561166a5761166961172f565b5b828203905092915050565b600061168082611693565b9050919050565b60008115159050919050565b600073ffffffffffffffffffffffffffffffffffffffff82169050919050565b6000819050919050565b600060ff82169050919050565b60005b838110156116e85780820151818401526020810190506116cd565b838111156116f7576000848401525b50505050565b6000600282049050600182168061171557607f821691505b602082108114156117295761172861175e565b5b50919050565b7f4e487b7100000000000000000000000000000000000000000000000000000000600052601160045260246000fd5b7f4e487b7100000000000000000000000000000000000000000000000000000000600052602260045260246000fd5b6000601f19601f8301169050919050565b7f45524332303a207472616e7366657220746f20746865207a65726f206164647260008201527f6573730000000000000000000000000000000000000000000000000000000000602082015250565b7f45524332303a206275726e20616d6f756e7420657863656564732062616c616e60008201527f6365000000000000000000000000000000000000000000000000000000000000602082015250565b7f45524332303a20617070726f766520746f20746865207a65726f20616464726560008201527f7373000000000000000000000000000000000000000000000000000000000000602082015250565b7f45524332303a207472616e7366657220616d6f756e742065786365656473206260008201527f616c616e63650000000000000000000000000000000000000000000000000000602082015250565b7f45524332303a207472616e7366657220616d6f756e742065786365656473206160008201527f6c6c6f77616e6365000000000000000000000000000000000000000000000000602082015250565b7f6f6e6c79206f776e657200000000000000000000000000000000000000000000600082015250565b7f45524332303a206275726e2066726f6d20746865207a65726f2061646472657360008201527f7300000000000000000000000000000000000000000000000000000000000000602082015250565b7f45524332303a207472616e736665722066726f6d20746865207a65726f20616460008201527f6472657373000000000000000000000000000000000000000000000000000000602082015250565b7f45524332303a20617070726f76652066726f6d20746865207a65726f2061646460008201527f7265737300000000000000000000000000000000000000000000000000000000602082015250565b7f45524332303a2064656372656173656420616c6c6f77616e63652062656c6f7760008201527f207a65726f000000000000000000000000000000000000000000000000000000602082015250565b7f45524332303a206d696e7420746f20746865207a65726f206164647265737300600082015250565b611ac081611675565b8114611acb57600080fd5b50565b611ad7816116b3565b8114611ae257600080fd5b5056fea26469706673582212201a76a1f3be21f2977a8496d0be8b6bfc7896cf1931cbedbaaba87ccea06ea14e64736f6c63430008030033",
  "immutableReferences": {},
  "source": "//SPDX-License-Identifier: MIT\npragma solidity >=0.8.0 <0.9.0;\n\nimport \"@openzeppelin/contracts/token/ERC20/IERC20.sol\";\nimport \"./ZunamiStablecoin.sol\";\n\ncontract Main {\n    address constant internal usdcAddr = 0xA0b86991c6218b36c1d19D4a2e9Eb0cE3606eB48;\n    address constant internal usdtAddr = 0xdAC17F958D2ee523a2206206994597C13D831ec7;\n\n    bytes32 constant internal usdcTicker = 'usdc';\n    bytes32 constant internal usdtTicker = 'usdt';\n    bytes32 constant internal zusdTicker = 'zusd';\n\n    struct Token {\n        bytes32 ticker;\n        IERC20 token;\n    }\n\n    mapping(bytes32 => Token) public stableCoins;\n    mapping(address => mapping(bytes32 => uint)) public traderBalances;\n\n    address public admin;\n\n    constructor() {\n        admin = msg.sender;\n        stableCoins[usdcTicker] = Token(usdcTicker, IERC20(usdcAddr));\n        stableCoins[usdtTicker] = Token(usdtTicker, IERC20(usdtAddr));\n        stableCoins[zusdTicker] = Token(zusdTicker, new ZunamiStablecoin(address(this)));\n    }\n\n    function deposit(bytes32 ticker, uint amount) external {}\n\n    function withdraw(bytes32 ticker, uint amount) external {}\n}\n\n",
  "sourcePath": "/home/alexey/src/ZunamiProtocol/contracts/Main.sol",
  "compiler": {
    "name": "solc",
    "version": "0.8.3+commit.8d00100c.Emscripten.clang"
  },
  "schemaVersion": "3.3.4",
  "updatedAt": "2021-04-06T17:51:50.620Z",
  "devdoc": {
    "kind": "dev",
    "methods": {},
    "version": 1
  },
  "userdoc": {
    "kind": "user",
    "methods": {},
    "version": 1
  }
}